{
  "contractName": "AuctionNFT3",
  "abi": [
    {
      "inputs": [],
      "stateMutability": "nonpayable",
      "type": "constructor"
    },
    {
      "anonymous": false,
      "inputs": [
        {
          "indexed": false,
          "internalType": "address",
          "name": "nftContractAddress",
          "type": "address"
        },
        {
          "indexed": false,
          "internalType": "uint256",
          "name": "tokenId",
          "type": "uint256"
        },
        {
          "indexed": false,
          "internalType": "address",
          "name": "auctionSettler",
          "type": "address"
        }
      ],
      "name": "AuctionSettled",
      "type": "event"
    },
    {
      "anonymous": false,
      "inputs": [
        {
          "indexed": false,
          "internalType": "address",
          "name": "nftContractAddress",
          "type": "address"
        },
        {
          "indexed": false,
          "internalType": "uint256",
          "name": "tokenId",
          "type": "uint256"
        },
        {
          "indexed": false,
          "internalType": "address",
          "name": "bidder",
          "type": "address"
        },
        {
          "indexed": false,
          "internalType": "uint256",
          "name": "ethAmount",
          "type": "uint256"
        },
        {
          "indexed": false,
          "internalType": "address",
          "name": "erc20Token",
          "type": "address"
        },
        {
          "indexed": false,
          "internalType": "uint256",
          "name": "tokenAmount",
          "type": "uint256"
        }
      ],
      "name": "BidMade",
      "type": "event"
    },
    {
      "anonymous": false,
      "inputs": [
        {
          "indexed": false,
          "internalType": "address",
          "name": "nftContractAddress",
          "type": "address"
        },
        {
          "indexed": false,
          "internalType": "uint256",
          "name": "tokenId",
          "type": "uint256"
        },
        {
          "indexed": false,
          "internalType": "address",
          "name": "nftSeller",
          "type": "address"
        },
        {
          "indexed": false,
          "internalType": "uint128",
          "name": "nftHighestBid",
          "type": "uint128"
        },
        {
          "indexed": false,
          "internalType": "address",
          "name": "nftHighestBidder",
          "type": "address"
        },
        {
          "indexed": false,
          "internalType": "address",
          "name": "nftRecipient",
          "type": "address"
        }
      ],
      "name": "NFTTransferredAndSellerPaid",
      "type": "event"
    },
    {
      "anonymous": false,
      "inputs": [
        {
          "indexed": false,
          "internalType": "address",
          "name": "nftContractAddress",
          "type": "address"
        },
        {
          "indexed": false,
          "internalType": "uint256",
          "name": "tokenId",
          "type": "uint256"
        },
        {
          "indexed": false,
          "internalType": "address",
          "name": "nftSeller",
          "type": "address"
        },
        {
          "indexed": false,
          "internalType": "address",
          "name": "erc20Token",
          "type": "address"
        },
        {
          "indexed": false,
          "internalType": "uint128",
          "name": "minPrice",
          "type": "uint128"
        },
        {
          "indexed": false,
          "internalType": "uint128",
          "name": "buyNowPrice",
          "type": "uint128"
        },
        {
          "indexed": false,
          "internalType": "uint32",
          "name": "auctionBidPeriod",
          "type": "uint32"
        },
        {
          "indexed": false,
          "internalType": "uint32",
          "name": "bidIncreasePercentage",
          "type": "uint32"
        }
      ],
      "name": "NftAuctionCreated",
      "type": "event"
    },
    {
      "inputs": [],
      "name": "defaultAuctionBidPeriod",
      "outputs": [
        {
          "internalType": "uint32",
          "name": "",
          "type": "uint32"
        }
      ],
      "stateMutability": "view",
      "type": "function"
    },
    {
      "inputs": [],
      "name": "defaultBidIncreasePercentage",
      "outputs": [
        {
          "internalType": "uint32",
          "name": "",
          "type": "uint32"
        }
      ],
      "stateMutability": "view",
      "type": "function"
    },
    {
      "inputs": [],
      "name": "maximumMinPricePercentage",
      "outputs": [
        {
          "internalType": "uint32",
          "name": "",
          "type": "uint32"
        }
      ],
      "stateMutability": "view",
      "type": "function"
    },
    {
      "inputs": [],
      "name": "minimumSettableIncreasePercentage",
      "outputs": [
        {
          "internalType": "uint32",
          "name": "",
          "type": "uint32"
        }
      ],
      "stateMutability": "view",
      "type": "function"
    },
    {
      "inputs": [
        {
          "internalType": "address",
          "name": "",
          "type": "address"
        },
        {
          "internalType": "uint256",
          "name": "",
          "type": "uint256"
        }
      ],
      "name": "nftContractAuctions",
      "outputs": [
        {
          "internalType": "uint32",
          "name": "bidIncreasePercentage",
          "type": "uint32"
        },
        {
          "internalType": "uint32",
          "name": "auctionBidPeriod",
          "type": "uint32"
        },
        {
          "internalType": "uint64",
          "name": "auctionEnd",
          "type": "uint64"
        },
        {
          "internalType": "uint128",
          "name": "minPrice",
          "type": "uint128"
        },
        {
          "internalType": "uint128",
          "name": "nftHighestBid",
          "type": "uint128"
        },
        {
          "internalType": "address",
          "name": "nftHighestBidder",
          "type": "address"
        },
        {
          "internalType": "address",
          "name": "nftSeller",
          "type": "address"
        },
        {
          "internalType": "address",
          "name": "nftRecipient",
          "type": "address"
        },
        {
          "internalType": "address",
          "name": "ERC20Token",
          "type": "address"
        }
      ],
      "stateMutability": "view",
      "type": "function"
    },
    {
      "inputs": [
        {
          "internalType": "address",
          "name": "_nftContractAddress",
          "type": "address"
        },
        {
          "internalType": "uint256",
          "name": "_tokenId",
          "type": "uint256"
        },
        {
          "internalType": "address",
          "name": "_erc20Token",
          "type": "address"
        },
        {
          "internalType": "uint128",
          "name": "_minPrice",
          "type": "uint128"
        },
        {
          "internalType": "uint128",
          "name": "_buyNowPrice",
          "type": "uint128"
        }
      ],
      "name": "createDefaultNftAuction",
      "outputs": [],
      "stateMutability": "nonpayable",
      "type": "function"
    },
    {
      "inputs": [
        {
          "internalType": "address",
          "name": "_nftContractAddress",
          "type": "address"
        },
        {
          "internalType": "uint256",
          "name": "_tokenId",
          "type": "uint256"
        },
        {
          "internalType": "address",
          "name": "_erc20Token",
          "type": "address"
        },
        {
          "internalType": "uint128",
          "name": "_minPrice",
          "type": "uint128"
        },
        {
          "internalType": "uint128",
          "name": "_buyNowPrice",
          "type": "uint128"
        },
        {
          "internalType": "uint32",
          "name": "_auctionBidPeriod",
          "type": "uint32"
        },
        {
          "internalType": "uint32",
          "name": "_bidIncreasePercentage",
          "type": "uint32"
        }
      ],
      "name": "createNewNftAuction",
      "outputs": [],
      "stateMutability": "nonpayable",
      "type": "function"
    },
    {
      "inputs": [
        {
          "internalType": "address",
          "name": "_nftContractAddress",
          "type": "address"
        },
        {
          "internalType": "uint256",
          "name": "_tokenId",
          "type": "uint256"
        },
        {
          "internalType": "address",
          "name": "_erc20Token",
          "type": "address"
        },
        {
          "internalType": "uint128",
          "name": "_tokenAmount",
          "type": "uint128"
        }
      ],
      "name": "makeBid",
      "outputs": [],
      "stateMutability": "payable",
      "type": "function"
    },
    {
      "inputs": [
        {
          "internalType": "address",
          "name": "_nftContractAddress",
          "type": "address"
        },
        {
          "internalType": "uint256",
          "name": "_tokenId",
          "type": "uint256"
        }
      ],
      "name": "settleAuction",
      "outputs": [],
      "stateMutability": "nonpayable",
      "type": "function"
    },
    {
      "inputs": [
        {
          "internalType": "address",
          "name": "_nftContractAddress",
          "type": "address"
        },
        {
          "internalType": "uint256",
          "name": "_tokenId",
          "type": "uint256"
        }
      ],
      "name": "ownerOfNFT",
      "outputs": [
        {
          "internalType": "address",
          "name": "",
          "type": "address"
        }
      ],
      "stateMutability": "view",
      "type": "function"
    },
    {
      "inputs": [],
      "name": "withdrawAllFailedCredits",
      "outputs": [],
      "stateMutability": "nonpayable",
      "type": "function"
    }
  ],
  "bytecode": "0x608060405234801561001057600080fd5b506064600260006101000a81548163ffffffff021916908363ffffffff160217905550620151806002600c6101000a81548163ffffffff021916908363ffffffff1602179055506064600260046101000a81548163ffffffff021916908363ffffffff160217905550611f40600260086101000a81548163ffffffff021916908363ffffffff16021790555061329f806100ab6000396000f3fe60806040526004361061009c5760003560e01c806347b471371161006457806347b47137146101a25780635138b08c146101cb5780639c0b9966146101f4578063b6ad69141461021f578063c24d5a5c14610236578063cd4eda1c146102525761009c565b8063041fa0b8146100a1578063098750da146100e6578063186779d51461010f57806320950fc61461013a5780633d87d5fb14610177575b600080fd5b3480156100ad57600080fd5b506100c860048036038101906100c39190612593565b61027d565b6040516100dd99989796959493929190612d85565b60405180910390f35b3480156100f257600080fd5b5061010d60048036038101906101089190612632565b6103c4565b005b34801561011b57600080fd5b506101246106bb565b6040516101319190612d6a565b60405180910390f35b34801561014657600080fd5b50610161600480360381019061015c9190612593565b6106d1565b60405161016e91906129a6565b60405180910390f35b34801561018357600080fd5b5061018c6107c3565b6040516101999190612d6a565b60405180910390f35b3480156101ae57600080fd5b506101c960048036038101906101c491906126a9565b6107d9565b005b3480156101d757600080fd5b506101f260048036038101906101ed9190612593565b610c17565b005b34801561020057600080fd5b50610209610cae565b6040516102169190612d6a565b60405180910390f35b34801561022b57600080fd5b50610234610cc4565b005b610250600480360381019061024b91906125cf565b610e46565b005b34801561025e57600080fd5b50610267610ea5565b6040516102749190612d6a565b60405180910390f35b6000602052816000526040600020602052806000526040600020600091509150508060000160009054906101000a900463ffffffff16908060000160049054906101000a900463ffffffff16908060000160089054906101000a900467ffffffffffffffff16908060000160109054906101000a90046fffffffffffffffffffffffffffffffff16908060010160009054906101000a90046fffffffffffffffffffffffffffffffff16908060020160009054906101000a900473ffffffffffffffffffffffffffffffffffffffff16908060030160009054906101000a900473ffffffffffffffffffffffffffffffffffffffff16908060040160009054906101000a900473ffffffffffffffffffffffffffffffffffffffff16908060050160009054906101000a900473ffffffffffffffffffffffffffffffffffffffff16905089565b84843373ffffffffffffffffffffffffffffffffffffffff166000808473ffffffffffffffffffffffffffffffffffffffff1673ffffffffffffffffffffffffffffffffffffffff168152602001908152602001600020600083815260200190815260200160002060030160009054906101000a900473ffffffffffffffffffffffffffffffffffffffff1673ffffffffffffffffffffffffffffffffffffffff1614156104a7576040517f08c379a000000000000000000000000000000000000000000000000000000000815260040161049e90612caf565b60405180910390fd5b600073ffffffffffffffffffffffffffffffffffffffff166000808473ffffffffffffffffffffffffffffffffffffffff1673ffffffffffffffffffffffffffffffffffffffff168152602001908152602001600020600083815260200190815260200160002060030160009054906101000a900473ffffffffffffffffffffffffffffffffffffffff1673ffffffffffffffffffffffffffffffffffffffff161461064e578173ffffffffffffffffffffffffffffffffffffffff16636352211e826040518263ffffffff1660e01b81526004016105869190612d4f565b60206040518083038186803b15801561059e57600080fd5b505afa1580156105b2573d6000803e3d6000fd5b505050506040513d601f19601f820116820180604052508101906105d6919061256a565b73ffffffffffffffffffffffffffffffffffffffff163373ffffffffffffffffffffffffffffffffffffffff1614610643576040517f08c379a000000000000000000000000000000000000000000000000000000000815260040161063a90612c4f565b60405180910390fd5b61064d8282610ebb565b5b836fffffffffffffffffffffffffffffffff16600081116106a4576040517f08c379a000000000000000000000000000000000000000000000000000000000815260040161069b90612bef565b60405180910390fd5b6106b188888888886111cb565b5050505050505050565b6002600c9054906101000a900463ffffffff1681565b6000806000808573ffffffffffffffffffffffffffffffffffffffff1673ffffffffffffffffffffffffffffffffffffffff168152602001908152602001600020600084815260200190815260200160002060030160009054906101000a900473ffffffffffffffffffffffffffffffffffffffff169050600073ffffffffffffffffffffffffffffffffffffffff168173ffffffffffffffffffffffffffffffffffffffff1614156107b9576040517f08c379a00000000000000000000000000000000000000000000000000000000081526004016107b090612c0f565b60405180910390fd5b8091505092915050565b600260049054906101000a900463ffffffff1681565b86863373ffffffffffffffffffffffffffffffffffffffff166000808473ffffffffffffffffffffffffffffffffffffffff1673ffffffffffffffffffffffffffffffffffffffff168152602001908152602001600020600083815260200190815260200160002060030160009054906101000a900473ffffffffffffffffffffffffffffffffffffffff1673ffffffffffffffffffffffffffffffffffffffff1614156108bc576040517f08c379a00000000000000000000000000000000000000000000000000000000081526004016108b390612caf565b60405180910390fd5b600073ffffffffffffffffffffffffffffffffffffffff166000808473ffffffffffffffffffffffffffffffffffffffff1673ffffffffffffffffffffffffffffffffffffffff168152602001908152602001600020600083815260200190815260200160002060030160009054906101000a900473ffffffffffffffffffffffffffffffffffffffff1673ffffffffffffffffffffffffffffffffffffffff1614610a63578173ffffffffffffffffffffffffffffffffffffffff16636352211e826040518263ffffffff1660e01b815260040161099b9190612d4f565b60206040518083038186803b1580156109b357600080fd5b505afa1580156109c7573d6000803e3d6000fd5b505050506040513d601f19601f820116820180604052508101906109eb919061256a565b73ffffffffffffffffffffffffffffffffffffffff163373ffffffffffffffffffffffffffffffffffffffff1614610a58576040517f08c379a0000000000000000000000000000000000000000000000000000000008152600401610a4f90612c4f565b60405180910390fd5b610a628282610ebb565b5b856fffffffffffffffffffffffffffffffff1660008111610ab9576040517f08c379a0000000000000000000000000000000000000000000000000000000008152600401610ab090612bef565b60405180910390fd5b83600260049054906101000a900463ffffffff1663ffffffff168163ffffffff161015610b1b576040517f08c379a0000000000000000000000000000000000000000000000000000000008152600401610b1290612bcf565b60405180910390fd5b856000808d73ffffffffffffffffffffffffffffffffffffffff1673ffffffffffffffffffffffffffffffffffffffff16815260200190815260200160002060008c815260200190815260200160002060000160046101000a81548163ffffffff021916908363ffffffff160217905550846000808d73ffffffffffffffffffffffffffffffffffffffff1673ffffffffffffffffffffffffffffffffffffffff16815260200190815260200160002060008c815260200190815260200160002060000160006101000a81548163ffffffff021916908363ffffffff160217905550610c0a8b8b8b8b8b6111cb565b5050505050505050505050565b8181610c238282611236565b15610c63576040517f08c379a0000000000000000000000000000000000000000000000000000000008152600401610c5a90612ccf565b60405180910390fd5b610c6d84846112cd565b7fe6b94748c5d6e0d188a0fcb9b7f2973b01fc0095627f1ec5accdcd9d2e65ca36848433604051610ca093929190612a58565b60405180910390a150505050565b600260009054906101000a900463ffffffff1681565b6000600160003373ffffffffffffffffffffffffffffffffffffffff1673ffffffffffffffffffffffffffffffffffffffff1681526020019081526020016000205490506000811415610d4c576040517f08c379a0000000000000000000000000000000000000000000000000000000008152600401610d4390612c8f565b60405180910390fd5b6000600160003373ffffffffffffffffffffffffffffffffffffffff1673ffffffffffffffffffffffffffffffffffffffff1681526020019081526020016000208190555060003373ffffffffffffffffffffffffffffffffffffffff1682614e2090604051610dbb90612991565b600060405180830381858888f193505050503d8060008114610df9576040519150601f19603f3d011682016040523d82523d6000602084013e610dfe565b606091505b5050905080610e42576040517f08c379a0000000000000000000000000000000000000000000000000000000008152600401610e3990612d2f565b60405180910390fd5b5050565b8383610e528282611236565b610e91576040517f08c379a0000000000000000000000000000000000000000000000000000000008152600401610e8890612c2f565b60405180910390fd5b610e9d86868686611508565b505050505050565b600260089054906101000a900463ffffffff1681565b60008060008473ffffffffffffffffffffffffffffffffffffffff1673ffffffffffffffffffffffffffffffffffffffff168152602001908152602001600020600083815260200190815260200160002060000160106101000a8154816fffffffffffffffffffffffffffffffff02191690836fffffffffffffffffffffffffffffffff16021790555060008060008473ffffffffffffffffffffffffffffffffffffffff1673ffffffffffffffffffffffffffffffffffffffff168152602001908152602001600020600083815260200190815260200160002060000160086101000a81548167ffffffffffffffff021916908367ffffffffffffffff16021790555060008060008473ffffffffffffffffffffffffffffffffffffffff1673ffffffffffffffffffffffffffffffffffffffff168152602001908152602001600020600083815260200190815260200160002060000160046101000a81548163ffffffff021916908363ffffffff16021790555060008060008473ffffffffffffffffffffffffffffffffffffffff1673ffffffffffffffffffffffffffffffffffffffff168152602001908152602001600020600083815260200190815260200160002060000160006101000a81548163ffffffff021916908363ffffffff16021790555060008060008473ffffffffffffffffffffffffffffffffffffffff1673ffffffffffffffffffffffffffffffffffffffff168152602001908152602001600020600083815260200190815260200160002060030160006101000a81548173ffffffffffffffffffffffffffffffffffffffff021916908373ffffffffffffffffffffffffffffffffffffffff16021790555060008060008473ffffffffffffffffffffffffffffffffffffffff1673ffffffffffffffffffffffffffffffffffffffff168152602001908152602001600020600083815260200190815260200160002060050160006101000a81548173ffffffffffffffffffffffffffffffffffffffff021916908373ffffffffffffffffffffffffffffffffffffffff1602179055505050565b6111d88585858585611692565b7f823f0c7de880f501b53d5223b58f35d4c5bfc48642de19f146bcd87baf06e5e68585338686866112098c8c611922565b6112138d8d6119bf565b604051611227989796959493929190612a8f565b60405180910390a15050505050565b6000806000808573ffffffffffffffffffffffffffffffffffffffff1673ffffffffffffffffffffffffffffffffffffffff168152602001908152602001600020600084815260200190815260200160002060000160089054906101000a900467ffffffffffffffff16905060008167ffffffffffffffff1614806112c457508067ffffffffffffffff1642105b91505092915050565b60008060008473ffffffffffffffffffffffffffffffffffffffff1673ffffffffffffffffffffffffffffffffffffffff168152602001908152602001600020600083815260200190815260200160002060030160009054906101000a900473ffffffffffffffffffffffffffffffffffffffff16905060008060008573ffffffffffffffffffffffffffffffffffffffff1673ffffffffffffffffffffffffffffffffffffffff168152602001908152602001600020600084815260200190815260200160002060020160009054906101000a900473ffffffffffffffffffffffffffffffffffffffff16905060006113c78585611a5c565b905060008060008773ffffffffffffffffffffffffffffffffffffffff1673ffffffffffffffffffffffffffffffffffffffff168152602001908152602001600020600086815260200190815260200160002060010160009054906101000a90046fffffffffffffffffffffffffffffffff1690506114468686611b8f565b8573ffffffffffffffffffffffffffffffffffffffff166323b872dd3084886040518463ffffffff1660e01b8152600401611483939291906129f8565b600060405180830381600087803b15801561149d57600080fd5b505af11580156114b1573d6000803e3d6000fd5b505050506114bf8686610ebb565b7f8df77c988c9550e96e43a66277f716818a74ed2188cdacb49d790623e6f225718686868487876040516114f896959493929190612b0d565b60405180910390a1505050505050565b83836000808373ffffffffffffffffffffffffffffffffffffffff1673ffffffffffffffffffffffffffffffffffffffff168152602001908152602001600020600082815260200190815260200160002060030160009054906101000a900473ffffffffffffffffffffffffffffffffffffffff1673ffffffffffffffffffffffffffffffffffffffff163373ffffffffffffffffffffffffffffffffffffffff1614156115eb576040517f08c379a00000000000000000000000000000000000000000000000000000000081526004016115e290612d0f565b60405180910390fd5b858585856115fb84848484611d41565b61163a576040517f08c379a000000000000000000000000000000000000000000000000000000000815260040161163190612cef565b60405180910390fd5b6116458a8a89611e8f565b7fdfd4ac8cb43d5458b7a6f74f2d6461d77d4985704bdbc2fd4c4816444bbfd5e08a8a33348c8c60405161167e96959493929190612b6e565b60405180910390a150505050505050505050565b80826000826fffffffffffffffffffffffffffffffff1614806116fa5750806fffffffffffffffffffffffffffffffff166116f7836fffffffffffffffffffffffffffffffff16600260089054906101000a900463ffffffff1663ffffffff16611fde565b10155b611739576040517f08c379a000000000000000000000000000000000000000000000000000000000815260040161173090612c6f565b60405180910390fd5b600073ffffffffffffffffffffffffffffffffffffffff168573ffffffffffffffffffffffffffffffffffffffff16146117ff57846000808973ffffffffffffffffffffffffffffffffffffffff1673ffffffffffffffffffffffffffffffffffffffff168152602001908152602001600020600088815260200190815260200160002060050160006101000a81548173ffffffffffffffffffffffffffffffffffffffff021916908373ffffffffffffffffffffffffffffffffffffffff1602179055505b836000808973ffffffffffffffffffffffffffffffffffffffff1673ffffffffffffffffffffffffffffffffffffffff168152602001908152602001600020600088815260200190815260200160002060000160106101000a8154816fffffffffffffffffffffffffffffffff02191690836fffffffffffffffffffffffffffffffff160217905550336000808973ffffffffffffffffffffffffffffffffffffffff1673ffffffffffffffffffffffffffffffffffffffff168152602001908152602001600020600088815260200190815260200160002060030160006101000a81548173ffffffffffffffffffffffffffffffffffffffff021916908373ffffffffffffffffffffffffffffffffffffffff16021790555050505050505050565b6000806000808573ffffffffffffffffffffffffffffffffffffffff1673ffffffffffffffffffffffffffffffffffffffff168152602001908152602001600020600084815260200190815260200160002060000160049054906101000a900463ffffffff16905060008163ffffffff1614156119b4576002600c9054906101000a900463ffffffff169150506119b9565b809150505b92915050565b6000806000808573ffffffffffffffffffffffffffffffffffffffff1673ffffffffffffffffffffffffffffffffffffffff168152602001908152602001600020600084815260200190815260200160002060000160009054906101000a900463ffffffff16905060008163ffffffff161415611a5157600260009054906101000a900463ffffffff16915050611a56565b809150505b92915050565b6000806000808573ffffffffffffffffffffffffffffffffffffffff1673ffffffffffffffffffffffffffffffffffffffff168152602001908152602001600020600084815260200190815260200160002060040160009054906101000a900473ffffffffffffffffffffffffffffffffffffffff169050600073ffffffffffffffffffffffffffffffffffffffff168173ffffffffffffffffffffffffffffffffffffffff161415611b84576000808573ffffffffffffffffffffffffffffffffffffffff1673ffffffffffffffffffffffffffffffffffffffff168152602001908152602001600020600084815260200190815260200160002060020160009054906101000a900473ffffffffffffffffffffffffffffffffffffffff16915050611b89565b809150505b92915050565b60008060008473ffffffffffffffffffffffffffffffffffffffff1673ffffffffffffffffffffffffffffffffffffffff168152602001908152602001600020600083815260200190815260200160002060020160006101000a81548173ffffffffffffffffffffffffffffffffffffffff021916908373ffffffffffffffffffffffffffffffffffffffff16021790555060008060008473ffffffffffffffffffffffffffffffffffffffff1673ffffffffffffffffffffffffffffffffffffffff168152602001908152602001600020600083815260200190815260200160002060010160006101000a8154816fffffffffffffffffffffffffffffffff02191690836fffffffffffffffffffffffffffffffff16021790555060008060008473ffffffffffffffffffffffffffffffffffffffff1673ffffffffffffffffffffffffffffffffffffffff168152602001908152602001600020600083815260200190815260200160002060040160006101000a81548173ffffffffffffffffffffffffffffffffffffffff021916908373ffffffffffffffffffffffffffffffffffffffff1602179055505050565b6000806000808773ffffffffffffffffffffffffffffffffffffffff1673ffffffffffffffffffffffffffffffffffffffff168152602001908152602001600020600086815260200190815260200160002060050160009054906101000a900473ffffffffffffffffffffffffffffffffffffffff169050611dc281612001565b15611e2857600034148015611e0257508373ffffffffffffffffffffffffffffffffffffffff168173ffffffffffffffffffffffffffffffffffffffff16145b8015611e2057506000836fffffffffffffffffffffffffffffffff16115b915050611e87565b60003414158015611e655750600073ffffffffffffffffffffffffffffffffffffffff168473ffffffffffffffffffffffffffffffffffffffff16145b8015611e8357506000836fffffffffffffffffffffffffffffffff16145b9150505b949350505050565b60008060008573ffffffffffffffffffffffffffffffffffffffff1673ffffffffffffffffffffffffffffffffffffffff168152602001908152602001600020600084815260200190815260200160002060020160009054906101000a900473ffffffffffffffffffffffffffffffffffffffff16905060008060008673ffffffffffffffffffffffffffffffffffffffff1673ffffffffffffffffffffffffffffffffffffffff168152602001908152602001600020600085815260200190815260200160002060010160009054906101000a90046fffffffffffffffffffffffffffffffff166fffffffffffffffffffffffffffffffff169050611f9685858561203a565b600073ffffffffffffffffffffffffffffffffffffffff168273ffffffffffffffffffffffffffffffffffffffff1614611fd757611fd6858584846122fe565b5b5050505050565b60006127108284611fef9190612eb5565b611ff99190612e84565b905092915050565b60008073ffffffffffffffffffffffffffffffffffffffff168273ffffffffffffffffffffffffffffffffffffffff1614159050919050565b60008060008573ffffffffffffffffffffffffffffffffffffffff1673ffffffffffffffffffffffffffffffffffffffff168152602001908152602001600020600084815260200190815260200160002060050160009054906101000a900473ffffffffffffffffffffffffffffffffffffffff1690506120ba81612001565b156121dd578073ffffffffffffffffffffffffffffffffffffffff166323b872dd3330856040518463ffffffff1660e01b81526004016120fc939291906129c1565b602060405180830381600087803b15801561211657600080fd5b505af115801561212a573d6000803e3d6000fd5b505050506040513d601f19601f8201168201806040525081019061214e9190612747565b50816000808673ffffffffffffffffffffffffffffffffffffffff1673ffffffffffffffffffffffffffffffffffffffff168152602001908152602001600020600085815260200190815260200160002060010160006101000a8154816fffffffffffffffffffffffffffffffff02191690836fffffffffffffffffffffffffffffffff160217905550612267565b346000808673ffffffffffffffffffffffffffffffffffffffff1673ffffffffffffffffffffffffffffffffffffffff168152602001908152602001600020600085815260200190815260200160002060010160006101000a8154816fffffffffffffffffffffffffffffffff02191690836fffffffffffffffffffffffffffffffff1602179055505b336000808673ffffffffffffffffffffffffffffffffffffffff1673ffffffffffffffffffffffffffffffffffffffff168152602001908152602001600020600085815260200190815260200160002060020160006101000a81548173ffffffffffffffffffffffffffffffffffffffff021916908373ffffffffffffffffffffffffffffffffffffffff16021790555050505050565b60008060008673ffffffffffffffffffffffffffffffffffffffff1673ffffffffffffffffffffffffffffffffffffffff168152602001908152602001600020600085815260200190815260200160002060050160009054906101000a900473ffffffffffffffffffffffffffffffffffffffff16905061237e81612001565b15612416578073ffffffffffffffffffffffffffffffffffffffff1663a9059cbb84846040518363ffffffff1660e01b81526004016123be929190612a2f565b602060405180830381600087803b1580156123d857600080fd5b505af11580156123ec573d6000803e3d6000fd5b505050506040513d601f19601f820116820180604052508101906124109190612747565b506124e5565b60008373ffffffffffffffffffffffffffffffffffffffff1683614e209060405161244090612991565b600060405180830381858888f193505050503d806000811461247e576040519150601f19603f3d011682016040523d82523d6000602084013e612483565b606091505b50509050806124e35782600160008673ffffffffffffffffffffffffffffffffffffffff1673ffffffffffffffffffffffffffffffffffffffff16815260200190815260200160002060008282546124db9190612e2e565b925050819055505b505b5050505050565b6000813590506124fb816131f6565b92915050565b600081519050612510816131f6565b92915050565b6000815190506125258161320d565b92915050565b60008135905061253a81613224565b92915050565b60008135905061254f8161323b565b92915050565b60008135905061256481613252565b92915050565b60006020828403121561257c57600080fd5b600061258a84828501612501565b91505092915050565b600080604083850312156125a657600080fd5b60006125b4858286016124ec565b92505060206125c585828601612540565b9150509250929050565b600080600080608085870312156125e557600080fd5b60006125f3878288016124ec565b945050602061260487828801612540565b9350506040612615878288016124ec565b92505060606126268782880161252b565b91505092959194509250565b600080600080600060a0868803121561264a57600080fd5b6000612658888289016124ec565b955050602061266988828901612540565b945050604061267a888289016124ec565b935050606061268b8882890161252b565b925050608061269c8882890161252b565b9150509295509295909350565b600080600080600080600060e0888a0312156126c457600080fd5b60006126d28a828b016124ec565b97505060206126e38a828b01612540565b96505060406126f48a828b016124ec565b95505060606127058a828b0161252b565b94505060806127168a828b0161252b565b93505060a06127278a828b01612555565b92505060c06127388a828b01612555565b91505092959891949750929550565b60006020828403121561275957600080fd5b600061276784828501612516565b91505092915050565b61277981612f0f565b82525050565b600061278c601f83612e1d565b915061279782613007565b602082019050919050565b60006127af601183612e1d565b91506127ba82613030565b602082019050919050565b60006127d2601183612e1d565b91506127dd82613059565b602082019050919050565b60006127f5601183612e1d565b915061280082613082565b602082019050919050565b6000612818601683612e1d565b9150612823826130ab565b602082019050919050565b600061283b601d83612e1d565b9150612846826130d4565b602082019050919050565b600061285e601683612e1d565b9150612869826130fd565b602082019050919050565b6000612881602083612e1d565b915061288c82613126565b602082019050919050565b60006128a4601783612e1d565b91506128af8261314f565b602082019050919050565b60006128c7600083612e12565b91506128d282613178565b600082019050919050565b60006128ea602083612e1d565b91506128f58261317b565b602082019050919050565b600061290d601b83612e1d565b9150612918826131a4565b602082019050919050565b6000612930600f83612e1d565b915061293b826131cd565b602082019050919050565b61294f81612f2d565b82525050565b61295e81612f97565b82525050565b61296d81612f69565b82525050565b61297c81612f73565b82525050565b61298b81612f83565b82525050565b600061299c826128ba565b9150819050919050565b60006020820190506129bb6000830184612770565b92915050565b60006060820190506129d66000830186612770565b6129e36020830185612770565b6129f06040830184612955565b949350505050565b6000606082019050612a0d6000830186612770565b612a1a6020830185612770565b612a276040830184612964565b949350505050565b6000604082019050612a446000830185612770565b612a516020830184612964565b9392505050565b6000606082019050612a6d6000830186612770565b612a7a6020830185612964565b612a876040830184612770565b949350505050565b600061010082019050612aa5600083018b612770565b612ab2602083018a612964565b612abf6040830189612770565b612acc6060830188612770565b612ad96080830187612946565b612ae660a0830186612946565b612af360c0830185612973565b612b0060e0830184612973565b9998505050505050505050565b600060c082019050612b226000830189612770565b612b2f6020830188612964565b612b3c6040830187612770565b612b496060830186612946565b612b566080830185612770565b612b6360a0830184612770565b979650505050505050565b600060c082019050612b836000830189612770565b612b906020830188612964565b612b9d6040830187612770565b612baa6060830186612964565b612bb76080830185612770565b612bc460a0830184612955565b979650505050505050565b60006020820190508181036000830152612be88161277f565b9050919050565b60006020820190508181036000830152612c08816127a2565b9050919050565b60006020820190508181036000830152612c28816127c5565b9050919050565b60006020820190508181036000830152612c48816127e8565b9050919050565b60006020820190508181036000830152612c688161280b565b9050919050565b60006020820190508181036000830152612c888161282e565b9050919050565b60006020820190508181036000830152612ca881612851565b9050919050565b60006020820190508181036000830152612cc881612874565b9050919050565b60006020820190508181036000830152612ce881612897565b9050919050565b60006020820190508181036000830152612d08816128dd565b9050919050565b60006020820190508181036000830152612d2881612900565b9050919050565b60006020820190508181036000830152612d4881612923565b9050919050565b6000602082019050612d646000830184612964565b92915050565b6000602082019050612d7f6000830184612973565b92915050565b600061012082019050612d9b600083018c612973565b612da8602083018b612973565b612db5604083018a612982565b612dc26060830189612946565b612dcf6080830188612946565b612ddc60a0830187612770565b612de960c0830186612770565b612df660e0830185612770565b612e04610100830184612770565b9a9950505050505050505050565b600081905092915050565b600082825260208201905092915050565b6000612e3982612f69565b9150612e4483612f69565b9250827fffffffffffffffffffffffffffffffffffffffffffffffffffffffffffffffff03821115612e7957612e78612fa9565b5b828201905092915050565b6000612e8f82612f69565b9150612e9a83612f69565b925082612eaa57612ea9612fd8565b5b828204905092915050565b6000612ec082612f69565b9150612ecb83612f69565b9250817fffffffffffffffffffffffffffffffffffffffffffffffffffffffffffffffff0483118215151615612f0457612f03612fa9565b5b828202905092915050565b6000612f1a82612f49565b9050919050565b60008115159050919050565b60006fffffffffffffffffffffffffffffffff82169050919050565b600073ffffffffffffffffffffffffffffffffffffffff82169050919050565b6000819050919050565b600063ffffffff82169050919050565b600067ffffffffffffffff82169050919050565b6000612fa282612f2d565b9050919050565b7f4e487b7100000000000000000000000000000000000000000000000000000000600052601160045260246000fd5b7f4e487b7100000000000000000000000000000000000000000000000000000000600052601260045260246000fd5b7f42696420696e6372656173652070657263656e7461676520746f6f206c6f7700600082015250565b7f50726963652063616e6e6f742062652030000000000000000000000000000000600082015250565b7f4e4654206e6f74206465706f7369746564000000000000000000000000000000600082015250565b7f41756374696f6e2068617320656e646564000000000000000000000000000000600082015250565b7f53656e64657220646f65736e2774206f776e204e465400000000000000000000600082015250565b7f4d696e5072696365203e20383025206f66206275794e6f775072696365000000600082015250565b7f6e6f206372656469747320746f20776974686472617700000000000000000000600082015250565b7f41756374696f6e20616c72656164792073746172746564206279206f776e6572600082015250565b7f41756374696f6e206973206e6f7420796574206f766572000000000000000000600082015250565b50565b7f42696420746f20626520696e207370656369666965642045524332302f457468600082015250565b7f4f776e65722063616e6e6f7420626964206f6e206f776e204e46540000000000600082015250565b7f7769746864726177206661696c65640000000000000000000000000000000000600082015250565b6131ff81612f0f565b811461320a57600080fd5b50565b61321681612f21565b811461322157600080fd5b50565b61322d81612f2d565b811461323857600080fd5b50565b61324481612f69565b811461324f57600080fd5b50565b61325b81612f73565b811461326657600080fd5b5056fea2646970667358221220142ef2d76e75615fe7b2e357f84f3cd0a3c8f18042ae56fed5b31137f1c67b7c64736f6c63430008030033",
  "immutableReferences": {},
  "source": "// SPDX-License-Identifier: MIT\npragma solidity ^0.8.0;\n\nimport \"@openzeppelin/contracts/token/ERC721/IERC721.sol\";\nimport \"@openzeppelin/contracts/token/ERC721/IERC721Receiver.sol\";\nimport \"@openzeppelin/contracts/token/ERC20/IERC20.sol\";\n\n/// @title An Auction Contract for bidding and selling single and batched NFTs\n\n/// @notice This contract can be used for auctioning any NFTs, and accepts any ERC20 token as payment\n\n\ncontract AuctionNFT3 {\n    mapping(address => mapping(uint256 => Auction)) public nftContractAuctions;\n    mapping(address => uint256) failedTransferCredits;\n    \n    //Each Auction is unique to each NFT (contract + id pairing).\n    struct Auction {\n        //map token ID to\n        uint32 bidIncreasePercentage;\n        uint32 auctionBidPeriod; //Increments the length of time the auction is open in which a new bid can be made after each bid.\n        uint64 auctionEnd;\n        uint128 minPrice;\n        uint128 nftHighestBid;\n        address nftHighestBidder;\n        address nftSeller;\n        address nftRecipient; //The bidder can specify a recipient for the NFT if their bid is successful.\n        address ERC20Token; // The seller can specify an ERC20 token that can be used to bid or purchase the NFT.\n\n    }\n    \n    uint32 public defaultBidIncreasePercentage;\n    uint32 public minimumSettableIncreasePercentage;\n    uint32 public maximumMinPricePercentage;\n    uint32 public defaultAuctionBidPeriod;\n\n    /*\n                 EVENTS            \n      */\n\n    event NftAuctionCreated(\n        address nftContractAddress,\n        uint256 tokenId,\n        address nftSeller,\n        address erc20Token,\n        uint128 minPrice,\n        uint128 buyNowPrice,\n        uint32 auctionBidPeriod,\n        uint32 bidIncreasePercentage\n    );\n\n\n    event BidMade(\n        address nftContractAddress,\n        uint256 tokenId,\n        address bidder,\n        uint256 ethAmount,\n        address erc20Token,\n        uint256 tokenAmount\n    );\n\n\n    event NFTTransferredAndSellerPaid(\n        address nftContractAddress,\n        uint256 tokenId,\n        address nftSeller,\n        uint128 nftHighestBid,\n        address nftHighestBidder,\n        address nftRecipient\n    );\n\n    event AuctionSettled(\n        address nftContractAddress,\n        uint256 tokenId,\n        address auctionSettler\n    );\n\n    /*\n                MODIFIERS          \n      */\n\n    modifier isAuctionNotStartedByOwner(\n        address _nftContractAddress,\n        uint256 _tokenId){\n        require(\n            nftContractAuctions[_nftContractAddress][_tokenId].nftSeller !=\n                msg.sender,\n            \"Auction already started by owner\"\n        );\n\n        if (\n            nftContractAuctions[_nftContractAddress][_tokenId].nftSeller !=\n            address(0)\n        ) {\n            require(\n                msg.sender == IERC721(_nftContractAddress).ownerOf(_tokenId),\n                \"Sender doesn't own NFT\"\n            );\n\n            _resetAuction(_nftContractAddress, _tokenId);\n        }\n        _;\n    }\n\n    modifier auctionOngoing(address _nftContractAddress, uint256 _tokenId) {\n        require(\n            _isAuctionOngoing(_nftContractAddress, _tokenId),\n            \"Auction has ended\"\n        );\n        _;\n    }\n\n    modifier priceGreaterThanZero(uint256 _price) {\n        require(_price > 0, \"Price cannot be 0\");\n        _;\n    }\n    /*\n     * The minimum price must be 80% of the buyNowPrice(if set).\n     */\n    modifier minPriceDoesNotExceedLimit(\n        uint128 _buyNowPrice,\n        uint128 _minPrice\n    ) {\n        require(\n            _buyNowPrice == 0 ||\n                _getPortionOfBid(_buyNowPrice, maximumMinPricePercentage) >=\n                _minPrice,\n            \"MinPrice > 80% of buyNowPrice\"\n        );\n        _;\n    }\n\n    modifier notNftSeller(address _nftContractAddress, uint256 _tokenId) {\n        require(\n            msg.sender !=\n                nftContractAuctions[_nftContractAddress][_tokenId].nftSeller,\n            \"Owner cannot bid on own NFT\"\n        );\n        _;\n    }\n    modifier onlyNftSeller(address _nftContractAddress, uint256 _tokenId) {\n        require(\n            msg.sender ==\n                nftContractAuctions[_nftContractAddress][_tokenId].nftSeller,\n            \"Only nft seller\"\n        );\n        _;\n    }\n  \n    /*\n     * Payment is accepted if the payment is made in the ERC20 token or ETH specified by the seller.\n     * Early bids on NFTs not yet up for auction must be made in ETH.\n     */\n    modifier paymentAccepted(\n        address _nftContractAddress,\n        uint256 _tokenId,\n        address _erc20Token,\n        uint128 _tokenAmount\n    ) {\n        require(\n            _isPaymentAccepted(\n                _nftContractAddress,\n                _tokenId,\n                _erc20Token,\n                _tokenAmount\n            ),\n            \"Bid to be in specified ERC20/Eth\"\n        );\n        _;\n    }\n\n    modifier isAuctionOver(address _nftContractAddress, uint256 _tokenId) {\n        require(\n            !_isAuctionOngoing(_nftContractAddress, _tokenId),\n            \"Auction is not yet over\"\n        );\n        _;\n    }\n\n    modifier notZeroAddress(address _address) {\n        require(_address != address(0), \"Cannot specify 0 address\");\n        _;\n    }\n\n    modifier increasePercentageAboveMinimum(uint32 _bidIncreasePercentage) {\n        require(\n            _bidIncreasePercentage >= minimumSettableIncreasePercentage,\n            \"Bid increase percentage too low\"\n        );\n        _;\n    }\n    /*\n                   END             \n                MODIFIERS          \n      */\n    /**********************************/\n    // constructor\n    constructor() {\n        defaultBidIncreasePercentage = 100;\n        defaultAuctionBidPeriod = 86400; //1 day\n        minimumSettableIncreasePercentage = 100;\n        maximumMinPricePercentage = 8000;\n    }\n\n    /*\n          AUCTION CHECK FUNCTIONS   \n      */\n    function _isAuctionOngoing(address _nftContractAddress, uint256 _tokenId)\n        internal\n        view\n        returns (bool)\n    {\n        uint64 auctionEndTimestamp = nftContractAuctions[_nftContractAddress][\n            _tokenId\n        ].auctionEnd;\n        //if the auctionEnd is set to 0, the auction is technically on-going, however\n        //the minimum bid price (minPrice) has not yet been met.\n        return (auctionEndTimestamp == 0 ||\n            block.timestamp < auctionEndTimestamp);\n    }\n\n    /*\n     * Check if a bid has been made. This is applicable in the early bid scenario\n     * to ensure that if an auction is created after an early bid, the auction\n     * begins appropriately or is settled if the buy now price is met.\n     */\n    function _isABidMade(address _nftContractAddress, uint256 _tokenId)\n        internal\n        view\n        returns (bool)\n    {\n        return (nftContractAuctions[_nftContractAddress][_tokenId]\n            .nftHighestBid > 0);\n    }\n\n \n    /*\n     * Check that a bid is applicable for the purchase of the NFT.\n     * In the case of a sale: the bid needs to meet the buyNowPrice.\n     * In the case of an auction: the bid needs to be a % higher than the previous bid.\n     */\n    function _doesBidMeetBidRequirements(\n        address _nftContractAddress,\n        uint256 _tokenId,\n        uint128 _tokenAmount\n    ) internal view returns (bool) {\n        \n        //if the NFT is up for auction, the bid needs to be a % higher than the previous bid\n        uint256 bidIncreaseAmount = (nftContractAuctions[_nftContractAddress][\n            _tokenId\n        ].nftHighestBid *\n            (10000 +\n                _getBidIncreasePercentage(_nftContractAddress, _tokenId))) /\n            10000;\n        return (msg.value >= bidIncreaseAmount ||\n            _tokenAmount >= bidIncreaseAmount);\n    }\n\n\n    /**\n     * Payment is accepted in the following scenarios:\n     * (1) Auction already created - can accept ETH or Specified Token\n     *  --------> Cannot bid with ETH & an ERC20 Token together in any circumstance<------\n     * (2) Auction not created - only ETH accepted (cannot early bid with an ERC20 Token\n     * (3) Cannot make a zero bid (no ETH or Token amount)\n     */\n    function _isPaymentAccepted(\n        address _nftContractAddress,\n        uint256 _tokenId,\n        address _bidERC20Token,\n        uint128 _tokenAmount) internal view returns (bool) {\n        address auctionERC20Token = nftContractAuctions[_nftContractAddress][\n            _tokenId\n        ].ERC20Token;\n        if (_isERC20Auction(auctionERC20Token)) {\n            return\n                msg.value == 0 &&\n                auctionERC20Token == _bidERC20Token &&\n                _tokenAmount > 0;\n        } else {\n            return\n                msg.value != 0 &&\n                _bidERC20Token == address(0) &&\n                _tokenAmount == 0;\n        }\n    }\n\n    function _isERC20Auction(address _auctionERC20Token)\n        internal\n        pure\n        returns (bool)\n    {\n        return _auctionERC20Token != address(0);\n    }\n\n    /*\n     * Returns the percentage of the total bid (used to calculate fee payments)\n     */\n    function _getPortionOfBid(uint256 _totalBid, uint256 _percentage)\n        internal\n        pure\n        returns (uint256)\n    {\n        return (_totalBid * (_percentage)) / 10000;\n    }\n\n   \n    /***************************************************************\n     * These functions check if the applicable auction parameter has *\n     * been set by the NFT seller. If not, return the default value. *\n     *****************************************************************/\n\n    function _getBidIncreasePercentage(\n        address _nftContractAddress,\n        uint256 _tokenId\n    ) internal view returns (uint32) {\n        uint32 bidIncreasePercentage = nftContractAuctions[_nftContractAddress][\n            _tokenId\n        ].bidIncreasePercentage;\n\n        if (bidIncreasePercentage == 0) {\n            return defaultBidIncreasePercentage;\n        } else {\n            return bidIncreasePercentage;\n        }\n    }\n\n    function _getAuctionBidPeriod(address _nftContractAddress, uint256 _tokenId)\n        internal\n        view\n        returns (uint32)\n    {\n        uint32 auctionBidPeriod = nftContractAuctions[_nftContractAddress][\n            _tokenId\n        ].auctionBidPeriod;\n\n        if (auctionBidPeriod == 0) {\n            return defaultAuctionBidPeriod;\n        } else {\n            return auctionBidPeriod;\n        }\n    }\n\n    /*\n     * The default value for the NFT recipient is the highest bidder\n     */\n    function _getNftRecipient(address _nftContractAddress, uint256 _tokenId)\n        internal\n        view\n        returns (address)\n    {\n        address nftRecipient = nftContractAuctions[_nftContractAddress][\n            _tokenId\n        ].nftRecipient;\n\n        if (nftRecipient == address(0)) {\n            return\n                nftContractAuctions[_nftContractAddress][_tokenId]\n                    .nftHighestBidder;\n        } else {\n            return nftRecipient;\n        }\n    }\n\n    function _transferNftToAuctionContract(\n        address _nftContractAddress,\n        uint256 _tokenId\n    ) internal {\n        address _nftSeller = nftContractAuctions[_nftContractAddress][_tokenId]\n            .nftSeller;\n        if (IERC721(_nftContractAddress).ownerOf(_tokenId) == _nftSeller) {\n            IERC721(_nftContractAddress).transferFrom(\n                _nftSeller,\n                address(this),\n                _tokenId\n            );\n            require(\n                IERC721(_nftContractAddress).ownerOf(_tokenId) == address(this),\n                \"nft transfer failed\"\n            );\n        } else {\n            require(\n                IERC721(_nftContractAddress).ownerOf(_tokenId) == address(this),\n                \"Seller doesn't own NFT\"\n            );\n        }\n    }\n\n    /*\n             AUCTION CREATION       \n      */\n\n    /**\n     * Setup parameters applicable to all auctions and whitelised sales:\n     * -> minimum price : _minPrice\n     * -> buy now price : _buyNowPrice\n     * -> the nft seller: msg.sender\n     */\n    function _setupAuction(\n        address _nftContractAddress,\n        uint256 _tokenId,\n        address _erc20Token,\n        uint128 _minPrice,\n        uint128 _buyNowPrice)\n        internal\n        minPriceDoesNotExceedLimit(_buyNowPrice, _minPrice)        {\n        if (_erc20Token != address(0)) {\n            nftContractAuctions[_nftContractAddress][_tokenId]\n                .ERC20Token = _erc20Token;\n        }\n        \n  \n        nftContractAuctions[_nftContractAddress][_tokenId].minPrice = _minPrice;\n        nftContractAuctions[_nftContractAddress][_tokenId].nftSeller = msg\n            .sender;\n    }\n\n    function _createNewNftAuction(\n        address _nftContractAddress,\n        uint256 _tokenId,\n        address _erc20Token,\n        uint128 _minPrice,\n        uint128 _buyNowPrice\n    ) internal {\n        // Sending the NFT to this contract\n        _setupAuction(\n            _nftContractAddress,\n            _tokenId,\n            _erc20Token,\n            _minPrice,\n            _buyNowPrice\n        );\n        emit NftAuctionCreated(\n            _nftContractAddress,\n            _tokenId,\n            msg.sender,\n            _erc20Token,\n            _minPrice,\n            _buyNowPrice,\n            _getAuctionBidPeriod(_nftContractAddress, _tokenId),\n            _getBidIncreasePercentage(_nftContractAddress, _tokenId)\n        );\n    }\n\n    /**\n     * Create an auction that uses the default bid increase percentage\n     * & the default auction bid period.\n     */\n    function createDefaultNftAuction(\n        address _nftContractAddress,\n        uint256 _tokenId,\n        address _erc20Token,\n        uint128 _minPrice,\n        uint128 _buyNowPrice\n    )\n        external\n        isAuctionNotStartedByOwner(_nftContractAddress, _tokenId)\n        priceGreaterThanZero(_minPrice)\n    {\n        _createNewNftAuction(\n            _nftContractAddress,\n            _tokenId,\n            _erc20Token,\n            _minPrice,\n            _buyNowPrice\n        );\n    }\n\n    function createNewNftAuction(\n        address _nftContractAddress,\n        uint256 _tokenId,\n        address _erc20Token,\n        uint128 _minPrice,\n        uint128 _buyNowPrice,\n        uint32 _auctionBidPeriod, //this is the time that the auction lasts until another bid occurs\n        uint32 _bidIncreasePercentage)\n        external\n        isAuctionNotStartedByOwner(_nftContractAddress, _tokenId)\n        priceGreaterThanZero(_minPrice)\n        increasePercentageAboveMinimum(_bidIncreasePercentage){\n        nftContractAuctions[_nftContractAddress][_tokenId]\n            .auctionBidPeriod = _auctionBidPeriod;\n        nftContractAuctions[_nftContractAddress][_tokenId]\n            .bidIncreasePercentage = _bidIncreasePercentage;\n        _createNewNftAuction(\n            _nftContractAddress,\n            _tokenId,\n            _erc20Token,\n            _minPrice,\n            _buyNowPrice\n        );\n    }\n\n\n\n    function _makeBid(\n        address _nftContractAddress,\n        uint256 _tokenId,\n        address _erc20Token,\n        uint128 _tokenAmount\n    )\n        internal\n        notNftSeller(_nftContractAddress, _tokenId)\n        paymentAccepted(\n            _nftContractAddress,\n            _tokenId,\n            _erc20Token,\n            _tokenAmount\n        ){\n        _reversePreviousBidAndUpdateHighestBid(\n            _nftContractAddress,\n            _tokenId,\n            _tokenAmount\n        );\n        emit BidMade(\n            _nftContractAddress,\n            _tokenId,\n            msg.sender,\n            msg.value,\n            _erc20Token,\n            _tokenAmount\n        );\n    }\n\n    function makeBid(\n        address _nftContractAddress,\n        uint256 _tokenId,\n        address _erc20Token,\n        uint128 _tokenAmount\n    )\n        external\n        payable\n        auctionOngoing(_nftContractAddress, _tokenId)\n    {\n        _makeBid(_nftContractAddress, _tokenId, _erc20Token, _tokenAmount);\n    }\n\n\n    /*\n             RESET FUNCTIONS        \n      */\n\n    /*\n     * Reset all auction related parameters for an NFT.\n     * This effectively removes an EFT as an item up for auction\n     */\n    function _resetAuction(address _nftContractAddress, uint256 _tokenId)\n        internal{\n        nftContractAuctions[_nftContractAddress][_tokenId].minPrice = 0;\n        nftContractAuctions[_nftContractAddress][_tokenId].auctionEnd = 0;\n        nftContractAuctions[_nftContractAddress][_tokenId].auctionBidPeriod = 0;\n        nftContractAuctions[_nftContractAddress][_tokenId]\n            .bidIncreasePercentage = 0;\n        nftContractAuctions[_nftContractAddress][_tokenId].nftSeller = address(\n            0\n        );\n    \n        nftContractAuctions[_nftContractAddress][_tokenId].ERC20Token = address(\n            0\n        );\n    }\n\n    /*\n     * Reset all bid related parameters for an NFT.\n     * This effectively sets an NFT as having no active bids\n     */\n    function _resetBids(address _nftContractAddress, uint256 _tokenId)\n        internal\n    {\n        nftContractAuctions[_nftContractAddress][_tokenId]\n            .nftHighestBidder = address(0);\n        nftContractAuctions[_nftContractAddress][_tokenId].nftHighestBid = 0;\n        nftContractAuctions[_nftContractAddress][_tokenId]\n            .nftRecipient = address(0);\n    }\n\n    /*\n                   END              \n             RESET FUNCTIONS        \n      */\n    \n\n    /*\n               UPDATE BIDS          \n      */\n    /******************************************************************\n     * Internal functions that update bid parameters and reverse bids *\n     * to ensure contract only holds the highest bid.                 *\n     ******************************************************************/\n    function _updateHighestBid(\n        address _nftContractAddress,\n        uint256 _tokenId,\n        uint128 _tokenAmount\n    ) internal {\n        address auctionERC20Token = nftContractAuctions[_nftContractAddress][\n            _tokenId\n        ].ERC20Token;\n        if (_isERC20Auction(auctionERC20Token)) {\n            IERC20(auctionERC20Token).transferFrom(\n                msg.sender,\n                address(this),\n                _tokenAmount\n            );\n            nftContractAuctions[_nftContractAddress][_tokenId]\n                .nftHighestBid = _tokenAmount;\n        } else {\n            nftContractAuctions[_nftContractAddress][_tokenId]\n                .nftHighestBid = uint128(msg.value);\n        }\n        nftContractAuctions[_nftContractAddress][_tokenId]\n            .nftHighestBidder = msg.sender;\n    }\n\n    function _reverseAndResetPreviousBid(\n        address _nftContractAddress,\n        uint256 _tokenId\n    ) internal {\n        address nftHighestBidder = nftContractAuctions[_nftContractAddress][\n            _tokenId\n        ].nftHighestBidder;\n\n        uint128 nftHighestBid = nftContractAuctions[_nftContractAddress][\n            _tokenId\n        ].nftHighestBid;\n        _resetBids(_nftContractAddress, _tokenId);\n\n        _payout(_nftContractAddress, _tokenId, nftHighestBidder, nftHighestBid);\n    }\n\n    function _reversePreviousBidAndUpdateHighestBid(\n        address _nftContractAddress,\n        uint256 _tokenId,\n        uint128 _tokenAmount\n    ) internal {\n        address prevNftHighestBidder = nftContractAuctions[_nftContractAddress][\n            _tokenId\n        ].nftHighestBidder;\n\n        uint256 prevNftHighestBid = nftContractAuctions[_nftContractAddress][\n            _tokenId\n        ].nftHighestBid;\n        _updateHighestBid(_nftContractAddress, _tokenId, _tokenAmount);\n\n        if (prevNftHighestBidder != address(0)) {\n            _payout(\n                _nftContractAddress,\n                _tokenId,\n                prevNftHighestBidder,\n                prevNftHighestBid\n            );\n        }\n    }\n\n    /*\n        TRANSFER NFT & PAY SELLER   \n      */\n    function _transferNftAndPaySeller(\n        address _nftContractAddress,\n        uint256 _tokenId\n    ) internal {\n        address _nftSeller = nftContractAuctions[_nftContractAddress][_tokenId].nftSeller;\n        address _nftHighestBidder = nftContractAuctions[_nftContractAddress][\n            _tokenId\n        ].nftHighestBidder;\n        address _nftRecipient = _getNftRecipient(_nftContractAddress, _tokenId);\n        uint128 _nftHighestBid = nftContractAuctions[_nftContractAddress][\n            _tokenId\n        ].nftHighestBid;\n        _resetBids(_nftContractAddress, _tokenId);\n\n        IERC721(_nftContractAddress).transferFrom(\n            address(this),\n            _nftRecipient,\n            _tokenId\n        );\n\n        //reinicia el estado del nft en este contrato\n        _resetAuction(_nftContractAddress, _tokenId);\n        emit NFTTransferredAndSellerPaid(\n            _nftContractAddress,\n            _tokenId,\n            _nftSeller,\n            _nftHighestBid,\n            _nftHighestBidder,\n            _nftRecipient\n        );\n    }\n\n    function _payout(\n        address _nftContractAddress,\n        uint256 _tokenId,\n        address _recipient,\n        uint256 _amount) internal {\n        address auctionERC20Token = nftContractAuctions[_nftContractAddress][\n            _tokenId\n        ].ERC20Token;\n        if (_isERC20Auction(auctionERC20Token)) {\n            IERC20(auctionERC20Token).transfer(_recipient, _amount);\n        } else {\n            // attempt to send the funds to the recipient\n            (bool success, ) = payable(_recipient).call{\n                value: _amount,\n                gas: 20000\n            }(\"\");\n            // if it failed, update their credit balance so they can pull it later\n            if (!success) {\n                failedTransferCredits[_recipient] +=_amount;\n                    \n            }\n        }\n    }\n\n    /*\n                   END              \n        TRANSFER NFT & PAY SELLER   \n      */\n\n    /*\n            SETTLE & WITHDRAW       \n      */\n    function settleAuction(address _nftContractAddress, uint256 _tokenId)\n        external\n        isAuctionOver(_nftContractAddress, _tokenId)\n    {\n        _transferNftAndPaySeller(_nftContractAddress, _tokenId);\n        emit AuctionSettled(_nftContractAddress, _tokenId, msg.sender);\n    }\n \n\n    function ownerOfNFT(address _nftContractAddress, uint256 _tokenId)external view\n        returns (address){\n        address nftSeller = nftContractAuctions[_nftContractAddress][_tokenId].nftSeller;\n        require(nftSeller != address(0), \"NFT not deposited\");\n\n        return nftSeller;\n    }\n\n    /*\n     * If the transfer of a bid has failed, allow the recipient to reclaim their amount later.\n     */\n    function withdrawAllFailedCredits() external {\n        uint256 amount = failedTransferCredits[msg.sender];\n\n        require(amount != 0, \"no credits to withdraw\");\n\n        failedTransferCredits[msg.sender] = 0;\n\n        (bool successfulWithdraw, ) = msg.sender.call{\n            value: amount,\n            gas: 20000\n        }(\"\");\n        require(successfulWithdraw, \"withdraw failed\");\n    }\n\n}",
  "sourcePath": "/Users/aarontolentino/Desktop/hashima/contracts/AuctionNFT2.sol",
  "compiler": {
    "name": "solc",
    "version": "0.8.3+commit.8d00100c.Emscripten.clang"
  },
  "schemaVersion": "3.4.1",
  "updatedAt": "2022-01-29T16:36:16.105Z",
  "devdoc": {
    "kind": "dev",
    "methods": {},
    "version": 1
  },
  "userdoc": {
    "kind": "user",
    "methods": {
      "createDefaultNftAuction(address,uint256,address,uint128,uint128)": {
        "notice": "Create an auction that uses the default bid increase percentage & the default auction bid period."
      }
    },
    "notice": "This contract can be used for auctioning any NFTs, and accepts any ERC20 token as payment",
    "version": 1
  }
}