{
  "contractName": "Certificado",
  "abi": [
    {
      "inputs": [],
      "stateMutability": "nonpayable",
      "type": "constructor"
    },
    {
      "anonymous": false,
      "inputs": [
        {
          "indexed": true,
          "internalType": "address",
          "name": "owner",
          "type": "address"
        },
        {
          "indexed": true,
          "internalType": "address",
          "name": "approved",
          "type": "address"
        },
        {
          "indexed": true,
          "internalType": "uint256",
          "name": "tokenId",
          "type": "uint256"
        }
      ],
      "name": "Approval",
      "type": "event"
    },
    {
      "anonymous": false,
      "inputs": [
        {
          "indexed": true,
          "internalType": "address",
          "name": "owner",
          "type": "address"
        },
        {
          "indexed": true,
          "internalType": "address",
          "name": "operator",
          "type": "address"
        },
        {
          "indexed": false,
          "internalType": "bool",
          "name": "approved",
          "type": "bool"
        }
      ],
      "name": "ApprovalForAll",
      "type": "event"
    },
    {
      "anonymous": false,
      "inputs": [
        {
          "indexed": false,
          "internalType": "bool",
          "name": "respuesta",
          "type": "bool"
        }
      ],
      "name": "Checked",
      "type": "event"
    },
    {
      "anonymous": false,
      "inputs": [
        {
          "indexed": false,
          "internalType": "uint256",
          "name": "_blocknumber",
          "type": "uint256"
        }
      ],
      "name": "GameStart",
      "type": "event"
    },
    {
      "anonymous": false,
      "inputs": [
        {
          "indexed": true,
          "internalType": "address",
          "name": "previousOwner",
          "type": "address"
        },
        {
          "indexed": true,
          "internalType": "address",
          "name": "newOwner",
          "type": "address"
        }
      ],
      "name": "OwnershipTransferred",
      "type": "event"
    },
    {
      "anonymous": false,
      "inputs": [
        {
          "indexed": true,
          "internalType": "address",
          "name": "from",
          "type": "address"
        },
        {
          "indexed": true,
          "internalType": "address",
          "name": "to",
          "type": "address"
        },
        {
          "indexed": true,
          "internalType": "uint256",
          "name": "tokenId",
          "type": "uint256"
        }
      ],
      "name": "Transfer",
      "type": "event"
    },
    {
      "inputs": [
        {
          "internalType": "string",
          "name": "",
          "type": "string"
        }
      ],
      "name": "_names",
      "outputs": [
        {
          "internalType": "bool",
          "name": "",
          "type": "bool"
        }
      ],
      "stateMutability": "view",
      "type": "function"
    },
    {
      "inputs": [
        {
          "internalType": "address",
          "name": "",
          "type": "address"
        }
      ],
      "name": "_timingReference",
      "outputs": [
        {
          "internalType": "uint256",
          "name": "",
          "type": "uint256"
        }
      ],
      "stateMutability": "view",
      "type": "function"
    },
    {
      "inputs": [
        {
          "internalType": "address",
          "name": "to",
          "type": "address"
        },
        {
          "internalType": "uint256",
          "name": "tokenId",
          "type": "uint256"
        }
      ],
      "name": "approve",
      "outputs": [],
      "stateMutability": "nonpayable",
      "type": "function"
    },
    {
      "inputs": [
        {
          "internalType": "address",
          "name": "owner",
          "type": "address"
        }
      ],
      "name": "balanceOf",
      "outputs": [
        {
          "internalType": "uint256",
          "name": "",
          "type": "uint256"
        }
      ],
      "stateMutability": "view",
      "type": "function"
    },
    {
      "inputs": [
        {
          "internalType": "uint256",
          "name": "_stars",
          "type": "uint256"
        },
        {
          "internalType": "string",
          "name": "_hashID",
          "type": "string"
        },
        {
          "internalType": "string",
          "name": "_nonce",
          "type": "string"
        },
        {
          "internalType": "string",
          "name": "_uri",
          "type": "string"
        }
      ],
      "name": "check",
      "outputs": [
        {
          "internalType": "bool",
          "name": "",
          "type": "bool"
        },
        {
          "internalType": "bytes32",
          "name": "",
          "type": "bytes32"
        },
        {
          "internalType": "uint256",
          "name": "",
          "type": "uint256"
        }
      ],
      "stateMutability": "nonpayable",
      "type": "function"
    },
    {
      "inputs": [
        {
          "internalType": "uint256",
          "name": "tokenId",
          "type": "uint256"
        }
      ],
      "name": "getApproved",
      "outputs": [
        {
          "internalType": "address",
          "name": "",
          "type": "address"
        }
      ],
      "stateMutability": "view",
      "type": "function"
    },
    {
      "inputs": [],
      "name": "initGame",
      "outputs": [],
      "stateMutability": "nonpayable",
      "type": "function"
    },
    {
      "inputs": [
        {
          "internalType": "address",
          "name": "owner",
          "type": "address"
        },
        {
          "internalType": "address",
          "name": "operator",
          "type": "address"
        }
      ],
      "name": "isApprovedForAll",
      "outputs": [
        {
          "internalType": "bool",
          "name": "",
          "type": "bool"
        }
      ],
      "stateMutability": "view",
      "type": "function"
    },
    {
      "inputs": [],
      "name": "name",
      "outputs": [
        {
          "internalType": "string",
          "name": "",
          "type": "string"
        }
      ],
      "stateMutability": "view",
      "type": "function"
    },
    {
      "inputs": [],
      "name": "owner",
      "outputs": [
        {
          "internalType": "address",
          "name": "",
          "type": "address"
        }
      ],
      "stateMutability": "view",
      "type": "function"
    },
    {
      "inputs": [
        {
          "internalType": "uint256",
          "name": "tokenId",
          "type": "uint256"
        }
      ],
      "name": "ownerOf",
      "outputs": [
        {
          "internalType": "address",
          "name": "",
          "type": "address"
        }
      ],
      "stateMutability": "view",
      "type": "function"
    },
    {
      "inputs": [],
      "name": "renounceOwnership",
      "outputs": [],
      "stateMutability": "nonpayable",
      "type": "function"
    },
    {
      "inputs": [
        {
          "internalType": "address",
          "name": "from",
          "type": "address"
        },
        {
          "internalType": "address",
          "name": "to",
          "type": "address"
        },
        {
          "internalType": "uint256",
          "name": "tokenId",
          "type": "uint256"
        }
      ],
      "name": "safeTransferFrom",
      "outputs": [],
      "stateMutability": "nonpayable",
      "type": "function"
    },
    {
      "inputs": [
        {
          "internalType": "address",
          "name": "from",
          "type": "address"
        },
        {
          "internalType": "address",
          "name": "to",
          "type": "address"
        },
        {
          "internalType": "uint256",
          "name": "tokenId",
          "type": "uint256"
        },
        {
          "internalType": "bytes",
          "name": "_data",
          "type": "bytes"
        }
      ],
      "name": "safeTransferFrom",
      "outputs": [],
      "stateMutability": "nonpayable",
      "type": "function"
    },
    {
      "inputs": [
        {
          "internalType": "address",
          "name": "operator",
          "type": "address"
        },
        {
          "internalType": "bool",
          "name": "approved",
          "type": "bool"
        }
      ],
      "name": "setApprovalForAll",
      "outputs": [],
      "stateMutability": "nonpayable",
      "type": "function"
    },
    {
      "inputs": [
        {
          "internalType": "bytes4",
          "name": "interfaceId",
          "type": "bytes4"
        }
      ],
      "name": "supportsInterface",
      "outputs": [
        {
          "internalType": "bool",
          "name": "",
          "type": "bool"
        }
      ],
      "stateMutability": "view",
      "type": "function"
    },
    {
      "inputs": [],
      "name": "symbol",
      "outputs": [
        {
          "internalType": "string",
          "name": "",
          "type": "string"
        }
      ],
      "stateMutability": "view",
      "type": "function"
    },
    {
      "inputs": [
        {
          "internalType": "uint256",
          "name": "tokenId",
          "type": "uint256"
        }
      ],
      "name": "tokenURI",
      "outputs": [
        {
          "internalType": "string",
          "name": "",
          "type": "string"
        }
      ],
      "stateMutability": "view",
      "type": "function"
    },
    {
      "inputs": [
        {
          "internalType": "address",
          "name": "from",
          "type": "address"
        },
        {
          "internalType": "address",
          "name": "to",
          "type": "address"
        },
        {
          "internalType": "uint256",
          "name": "tokenId",
          "type": "uint256"
        }
      ],
      "name": "transferFrom",
      "outputs": [],
      "stateMutability": "nonpayable",
      "type": "function"
    },
    {
      "inputs": [
        {
          "internalType": "address",
          "name": "newOwner",
          "type": "address"
        }
      ],
      "name": "transferOwnership",
      "outputs": [],
      "stateMutability": "nonpayable",
      "type": "function"
    },
    {
      "inputs": [
        {
          "internalType": "uint256",
          "name": "_index",
          "type": "uint256"
        }
      ],
      "name": "getHashima",
      "outputs": [
        {
          "components": [
            {
              "internalType": "uint256",
              "name": "tokenId",
              "type": "uint256"
            },
            {
              "internalType": "string",
              "name": "tokenName",
              "type": "string"
            },
            {
              "internalType": "string",
              "name": "tokenURI",
              "type": "string"
            },
            {
              "internalType": "address payable",
              "name": "currentOwner",
              "type": "address"
            },
            {
              "internalType": "address payable",
              "name": "previousOwner",
              "type": "address"
            },
            {
              "internalType": "uint256",
              "name": "price",
              "type": "uint256"
            },
            {
              "internalType": "bool",
              "name": "forSale",
              "type": "bool"
            },
            {
              "internalType": "uint256",
              "name": "stars",
              "type": "uint256"
            },
            {
              "internalType": "uint256",
              "name": "blockNumber",
              "type": "uint256"
            },
            {
              "internalType": "string",
              "name": "nonce",
              "type": "string"
            },
            {
              "internalType": "bool",
              "name": "sign",
              "type": "bool"
            }
          ],
          "internalType": "struct ERC721Hashima.Hashi",
          "name": "",
          "type": "tuple"
        }
      ],
      "stateMutability": "view",
      "type": "function"
    }
  ],
  "bytecode": "0x608060405260646008553480156200001657600080fd5b506040518060400160405280600b81526020017f436572746966696361646f0000000000000000000000000000000000000000008152506040518060400160405280600b81526020017f434552544946494341544500000000000000000000000000000000000000000081525081600090805190602001906200009b929190620001ab565b508060019080519060200190620000b4929190620001ab565b505050620000d7620000cb620000dd60201b60201c565b620000e560201b60201c565b620002c0565b600033905090565b6000600660009054906101000a900473ffffffffffffffffffffffffffffffffffffffff16905081600660006101000a81548173ffffffffffffffffffffffffffffffffffffffff021916908373ffffffffffffffffffffffffffffffffffffffff1602179055508173ffffffffffffffffffffffffffffffffffffffff168173ffffffffffffffffffffffffffffffffffffffff167f8be0079c531659141344cd1fd0a4f28419497f9722a3daafe3b4186f6b6457e060405160405180910390a35050565b828054620001b9906200025b565b90600052602060002090601f016020900481019282620001dd576000855562000229565b82601f10620001f857805160ff191683800117855562000229565b8280016001018555821562000229579182015b82811115620002285782518255916020019190600101906200020b565b5b5090506200023891906200023c565b5090565b5b80821115620002575760008160009055506001016200023d565b5090565b600060028204905060018216806200027457607f821691505b602082108114156200028b576200028a62000291565b5b50919050565b7f4e487b7100000000000000000000000000000000000000000000000000000000600052602260045260246000fd5b613c1d80620002d06000396000f3fe608060405234801561001057600080fd5b50600436106101375760003560e01c8063715018a6116100b8578063c87b56dd1161007c578063c87b56dd14610328578063d1760fac14610358578063d31afc3014610388578063d43525c3146103b8578063e985e9c5146103e8578063f2fde38b1461041857610137565b8063715018a6146102aa5780638da5cb5b146102b457806395d89b41146102d2578063a22cb465146102f0578063b88d4fde1461030c57610137565b806332eb2564116100ff57806332eb2564146101f257806333625d70146101fc57806342842e0e1461022e5780636352211e1461024a57806370a082311461027a57610137565b806301ffc9a71461013c57806306fdde031461016c578063081812fc1461018a578063095ea7b3146101ba57806323b872dd146101d6575b600080fd5b61015660048036038101906101519190612816565b610434565b6040516101639190612f73565b60405180910390f35b610174610516565b6040516101819190612fc5565b60405180910390f35b6101a4600480360381019061019f91906128a9565b6105a8565b6040516101b19190612f0c565b60405180910390f35b6101d460048036038101906101cf91906127b1565b61062d565b005b6101f060048036038101906101eb91906126ab565b610745565b005b6101fa6107a5565b005b610216600480360381019061021191906128d2565b61086c565b60405161022593929190612f8e565b60405180910390f35b610248600480360381019061024391906126ab565b610bda565b005b610264600480360381019061025f91906128a9565b610bfa565b6040516102719190612f0c565b60405180910390f35b610294600480360381019061028f9190612646565b610cac565b6040516102a19190613269565b60405180910390f35b6102b2610d64565b005b6102bc610dec565b6040516102c99190612f0c565b60405180910390f35b6102da610e16565b6040516102e79190612fc5565b60405180910390f35b61030a60048036038101906103059190612775565b610ea8565b005b610326600480360381019061032191906126fa565b611029565b005b610342600480360381019061033d91906128a9565b61108b565b60405161034f9190612fc5565b60405180910390f35b610372600480360381019061036d9190612868565b611132565b60405161037f9190612f73565b60405180910390f35b6103a2600480360381019061039d9190612646565b611168565b6040516103af9190613269565b60405180910390f35b6103d260048036038101906103cd91906128a9565b611180565b6040516103df9190613247565b60405180910390f35b61040260048036038101906103fd919061266f565b61146e565b60405161040f9190612f73565b60405180910390f35b610432600480360381019061042d9190612646565b611502565b005b60007f80ac58cd000000000000000000000000000000000000000000000000000000007bffffffffffffffffffffffffffffffffffffffffffffffffffffffff1916827bffffffffffffffffffffffffffffffffffffffffffffffffffffffff191614806104ff57507f5b5e139f000000000000000000000000000000000000000000000000000000007bffffffffffffffffffffffffffffffffffffffffffffffffffffffff1916827bffffffffffffffffffffffffffffffffffffffffffffffffffffffff1916145b8061050f575061050e826115fa565b5b9050919050565b606060008054610525906134f7565b80601f0160208091040260200160405190810160405280929190818152602001828054610551906134f7565b801561059e5780601f106105735761010080835404028352916020019161059e565b820191906000526020600020905b81548152906001019060200180831161058157829003601f168201915b5050505050905090565b60006105b382611664565b6105f2576040517f08c379a00000000000000000000000000000000000000000000000000000000081526004016105e990613167565b60405180910390fd5b6004600083815260200190815260200160002060009054906101000a900473ffffffffffffffffffffffffffffffffffffffff169050919050565b600061063882610bfa565b90508073ffffffffffffffffffffffffffffffffffffffff168373ffffffffffffffffffffffffffffffffffffffff1614156106a9576040517f08c379a00000000000000000000000000000000000000000000000000000000081526004016106a0906131e7565b60405180910390fd5b8073ffffffffffffffffffffffffffffffffffffffff166106c86116d0565b73ffffffffffffffffffffffffffffffffffffffff1614806106f757506106f6816106f16116d0565b61146e565b5b610736576040517f08c379a000000000000000000000000000000000000000000000000000000000815260040161072d906130c7565b60405180910390fd5b61074083836116d8565b505050565b6107566107506116d0565b82611791565b610795576040517f08c379a000000000000000000000000000000000000000000000000000000000815260040161078c90613207565b60405180910390fd5b6107a083838361186f565b505050565b600043905080600960003373ffffffffffffffffffffffffffffffffffffffff1673ffffffffffffffffffffffffffffffffffffffff1681526020019081526020016000208190555080600c60003373ffffffffffffffffffffffffffffffffffffffff1673ffffffffffffffffffffffffffffffffffffffff168152602001908152602001600020819055507fb5e8a4470f7bcac7f2c0f3e23471bd7016a9f6f049884cd27dfa8960f361287b816040516108619190613269565b60405180910390a150565b600080600043600854600960003373ffffffffffffffffffffffffffffffffffffffff1673ffffffffffffffffffffffffffffffffffffffff168152602001908152602001600020546108bf919061336a565b116108ff576040517f08c379a00000000000000000000000000000000000000000000000000000000081526004016108f690613127565b60405180910390fd5b60001515600b876040516109139190612ea0565b908152602001604051809103902060009054906101000a900460ff16151514610971576040517f08c379a000000000000000000000000000000000000000000000000000000000815260040161096890613227565b60405180910390fd5b6000600960003373ffffffffffffffffffffffffffffffffffffffff1673ffffffffffffffffffffffffffffffffffffffff1681526020019081526020016000205414156109f4576040517f08c379a00000000000000000000000000000000000000000000000000000000081526004016109eb90612fe7565b60405180910390fd5b600073ffffffffffffffffffffffffffffffffffffffff163373ffffffffffffffffffffffffffffffffffffffff161415610a2e57600080fd5b60006001905060008060028989610a4443611acb565b604051602001610a5693929190612edb565b604051602081830303815290604052604051610a729190612e89565b602060405180830381855afa158015610a8f573d6000803e3d6000fd5b5050506040513d601f19601f82011682018060405250810190610ab291906127ed565b905060005b8a811015610b4057600060f81b828260208110610afd577f4e487b7100000000000000000000000000000000000000000000000000000000600052603260045260246000fd5b1a60f81b7effffffffffffffffffffffffffffffffffffffffffffffffffffffffffffff191614610b2d57600093505b8080610b389061355a565b915050610ab7565b508215610bc4576001600b8a604051610b599190612ea0565b908152602001604051809103902060006101000a81548160ff021916908315150217905550610b8a878a8a8d611c78565b91507f6cee7501030f2c462be5eb743fb6030ac8e22962cb86d210ebb397f82dafd61b83604051610bbb9190612f73565b60405180910390a15b8281839550955095505050509450945094915050565b610bf583838360405180602001604052806000815250611029565b505050565b6000806002600084815260200190815260200160002060009054906101000a900473ffffffffffffffffffffffffffffffffffffffff169050600073ffffffffffffffffffffffffffffffffffffffff168173ffffffffffffffffffffffffffffffffffffffff161415610ca3576040517f08c379a0000000000000000000000000000000000000000000000000000000008152600401610c9a90613107565b60405180910390fd5b80915050919050565b60008073ffffffffffffffffffffffffffffffffffffffff168273ffffffffffffffffffffffffffffffffffffffff161415610d1d576040517f08c379a0000000000000000000000000000000000000000000000000000000008152600401610d14906130e7565b60405180910390fd5b600360008373ffffffffffffffffffffffffffffffffffffffff1673ffffffffffffffffffffffffffffffffffffffff168152602001908152602001600020549050919050565b610d6c6116d0565b73ffffffffffffffffffffffffffffffffffffffff16610d8a610dec565b73ffffffffffffffffffffffffffffffffffffffff1614610de0576040517f08c379a0000000000000000000000000000000000000000000000000000000008152600401610dd790613187565b60405180910390fd5b610dea6000611ee8565b565b6000600660009054906101000a900473ffffffffffffffffffffffffffffffffffffffff16905090565b606060018054610e25906134f7565b80601f0160208091040260200160405190810160405280929190818152602001828054610e51906134f7565b8015610e9e5780601f10610e7357610100808354040283529160200191610e9e565b820191906000526020600020905b815481529060010190602001808311610e8157829003601f168201915b5050505050905090565b610eb06116d0565b73ffffffffffffffffffffffffffffffffffffffff168273ffffffffffffffffffffffffffffffffffffffff161415610f1e576040517f08c379a0000000000000000000000000000000000000000000000000000000008152600401610f1590613087565b60405180910390fd5b8060056000610f2b6116d0565b73ffffffffffffffffffffffffffffffffffffffff1673ffffffffffffffffffffffffffffffffffffffff16815260200190815260200160002060008473ffffffffffffffffffffffffffffffffffffffff1673ffffffffffffffffffffffffffffffffffffffff16815260200190815260200160002060006101000a81548160ff0219169083151502179055508173ffffffffffffffffffffffffffffffffffffffff16610fd86116d0565b73ffffffffffffffffffffffffffffffffffffffff167f17307eab39ab6107e8899845ad3d59bd9653f200f220920489ca2b5937696c318360405161101d9190612f73565b60405180910390a35050565b61103a6110346116d0565b83611791565b611079576040517f08c379a000000000000000000000000000000000000000000000000000000000815260040161107090613207565b60405180910390fd5b61108584848484611fae565b50505050565b606061109682611664565b6110d5576040517f08c379a00000000000000000000000000000000000000000000000000000000081526004016110cc906131c7565b60405180910390fd5b60006110df61200a565b905060008151116110ff576040518060200160405280600081525061112a565b8061110984611acb565b60405160200161111a929190612eb7565b6040516020818303038152906040525b915050919050565b600b818051602081018201805184825260208301602085012081835280955050505050506000915054906101000a900460ff1681565b600c6020528060005260406000206000915090505481565b6111886123cb565b600d600083815260200190815260200160002060405180610160016040529081600082015481526020016001820180546111c1906134f7565b80601f01602080910402602001604051908101604052809291908181526020018280546111ed906134f7565b801561123a5780601f1061120f5761010080835404028352916020019161123a565b820191906000526020600020905b81548152906001019060200180831161121d57829003601f168201915b50505050508152602001600282018054611253906134f7565b80601f016020809104026020016040519081016040528092919081815260200182805461127f906134f7565b80156112cc5780601f106112a1576101008083540402835291602001916112cc565b820191906000526020600020905b8154815290600101906020018083116112af57829003601f168201915b505050505081526020016003820160009054906101000a900473ffffffffffffffffffffffffffffffffffffffff1673ffffffffffffffffffffffffffffffffffffffff1673ffffffffffffffffffffffffffffffffffffffff1681526020016004820160009054906101000a900473ffffffffffffffffffffffffffffffffffffffff1673ffffffffffffffffffffffffffffffffffffffff1673ffffffffffffffffffffffffffffffffffffffff168152602001600582015481526020016006820160009054906101000a900460ff1615151515815260200160078201548152602001600882015481526020016009820180546113ca906134f7565b80601f01602080910402602001604051908101604052809291908181526020018280546113f6906134f7565b80156114435780601f1061141857610100808354040283529160200191611443565b820191906000526020600020905b81548152906001019060200180831161142657829003601f168201915b50505050508152602001600a820160009054906101000a900460ff1615151515815250509050919050565b6000600560008473ffffffffffffffffffffffffffffffffffffffff1673ffffffffffffffffffffffffffffffffffffffff16815260200190815260200160002060008373ffffffffffffffffffffffffffffffffffffffff1673ffffffffffffffffffffffffffffffffffffffff16815260200190815260200160002060009054906101000a900460ff16905092915050565b61150a6116d0565b73ffffffffffffffffffffffffffffffffffffffff16611528610dec565b73ffffffffffffffffffffffffffffffffffffffff161461157e576040517f08c379a000000000000000000000000000000000000000000000000000000000815260040161157590613187565b60405180910390fd5b600073ffffffffffffffffffffffffffffffffffffffff168173ffffffffffffffffffffffffffffffffffffffff1614156115ee576040517f08c379a00000000000000000000000000000000000000000000000000000000081526004016115e590613027565b60405180910390fd5b6115f781611ee8565b50565b60007f01ffc9a7000000000000000000000000000000000000000000000000000000007bffffffffffffffffffffffffffffffffffffffffffffffffffffffff1916827bffffffffffffffffffffffffffffffffffffffffffffffffffffffff1916149050919050565b60008073ffffffffffffffffffffffffffffffffffffffff166002600084815260200190815260200160002060009054906101000a900473ffffffffffffffffffffffffffffffffffffffff1673ffffffffffffffffffffffffffffffffffffffff1614159050919050565b600033905090565b816004600083815260200190815260200160002060006101000a81548173ffffffffffffffffffffffffffffffffffffffff021916908373ffffffffffffffffffffffffffffffffffffffff160217905550808273ffffffffffffffffffffffffffffffffffffffff1661174b83610bfa565b73ffffffffffffffffffffffffffffffffffffffff167f8c5be1e5ebec7d5bd14f71427d1e84f3dd0314c0f7b2291e5b200ac8c7c3b92560405160405180910390a45050565b600061179c82611664565b6117db576040517f08c379a00000000000000000000000000000000000000000000000000000000081526004016117d2906130a7565b60405180910390fd5b60006117e683610bfa565b90508073ffffffffffffffffffffffffffffffffffffffff168473ffffffffffffffffffffffffffffffffffffffff16148061185557508373ffffffffffffffffffffffffffffffffffffffff1661183d846105a8565b73ffffffffffffffffffffffffffffffffffffffff16145b806118665750611865818561146e565b5b91505092915050565b8273ffffffffffffffffffffffffffffffffffffffff1661188f82610bfa565b73ffffffffffffffffffffffffffffffffffffffff16146118e5576040517f08c379a00000000000000000000000000000000000000000000000000000000081526004016118dc906131a7565b60405180910390fd5b600073ffffffffffffffffffffffffffffffffffffffff168273ffffffffffffffffffffffffffffffffffffffff161415611955576040517f08c379a000000000000000000000000000000000000000000000000000000000815260040161194c90613067565b60405180910390fd5b611960838383612021565b61196b6000826116d8565b6001600360008573ffffffffffffffffffffffffffffffffffffffff1673ffffffffffffffffffffffffffffffffffffffff16815260200190815260200160002060008282546119bb91906133f1565b925050819055506001600360008473ffffffffffffffffffffffffffffffffffffffff1673ffffffffffffffffffffffffffffffffffffffff1681526020019081526020016000206000828254611a12919061336a565b92505081905550816002600083815260200190815260200160002060006101000a81548173ffffffffffffffffffffffffffffffffffffffff021916908373ffffffffffffffffffffffffffffffffffffffff160217905550808273ffffffffffffffffffffffffffffffffffffffff168473ffffffffffffffffffffffffffffffffffffffff167fddf252ad1be2c89b69c2b068fc378daa952ba7f163c4a11628f55a4df523b3ef60405160405180910390a4505050565b60606000821415611b13576040518060400160405280600181526020017f30000000000000000000000000000000000000000000000000000000000000008152509050611c73565b600082905060005b60008214611b45578080611b2e9061355a565b915050600a82611b3e91906133c0565b9150611b1b565b60008167ffffffffffffffff811115611b87577f4e487b7100000000000000000000000000000000000000000000000000000000600052604160045260246000fd5b6040519080825280601f01601f191660200182016040528015611bb95781602001600182028036833780820191505090505b5090505b60008514611c6c57600182611bd291906133f1565b9150600a85611be191906135a3565b6030611bed919061336a565b60f81b818381518110611c29577f4e487b7100000000000000000000000000000000000000000000000000000000600052603260045260246000fd5b60200101907effffffffffffffffffffffffffffffffffffffffffffffffffffffffffffff1916908160001a905350600a85611c6591906133c0565b9450611bbd565b8093505050505b919050565b6000611c846007612026565b6000611c906007612045565b9050611c9c3382612053565b60003373ffffffffffffffffffffffffffffffffffffffff16611cbd610dec565b73ffffffffffffffffffffffffffffffffffffffff161415611cde57600190505b6000604051806101600160405280611cf66007612045565b81526020018881526020018981526020013373ffffffffffffffffffffffffffffffffffffffff168152602001600073ffffffffffffffffffffffffffffffffffffffff16815260200160008152602001600015158152602001868152602001438152602001878152602001831515815250905080600d6000611d796007612045565b8152602001908152602001600020600082015181600001556020820151816001019080519060200190611dad929190612455565b506040820151816002019080519060200190611dca929190612455565b5060608201518160030160006101000a81548173ffffffffffffffffffffffffffffffffffffffff021916908373ffffffffffffffffffffffffffffffffffffffff16021790555060808201518160040160006101000a81548173ffffffffffffffffffffffffffffffffffffffff021916908373ffffffffffffffffffffffffffffffffffffffff16021790555060a0820151816005015560c08201518160060160006101000a81548160ff02191690831515021790555060e082015181600701556101008201518160080155610120820151816009019080519060200190611eb5929190612455565b5061014082015181600a0160006101000a81548160ff021916908315150217905550905050829350505050949350505050565b6000600660009054906101000a900473ffffffffffffffffffffffffffffffffffffffff16905081600660006101000a81548173ffffffffffffffffffffffffffffffffffffffff021916908373ffffffffffffffffffffffffffffffffffffffff1602179055508173ffffffffffffffffffffffffffffffffffffffff168173ffffffffffffffffffffffffffffffffffffffff167f8be0079c531659141344cd1fd0a4f28419497f9722a3daafe3b4186f6b6457e060405160405180910390a35050565b611fb984848461186f565b611fc584848484612221565b612004576040517f08c379a0000000000000000000000000000000000000000000000000000000008152600401611ffb90613007565b60405180910390fd5b50505050565b606060405180602001604052806000815250905090565b505050565b600181600001600082825461203b919061336a565b9250508190555050565b600081600001549050919050565b600073ffffffffffffffffffffffffffffffffffffffff168273ffffffffffffffffffffffffffffffffffffffff1614156120c3576040517f08c379a00000000000000000000000000000000000000000000000000000000081526004016120ba90613147565b60405180910390fd5b6120cc81611664565b1561210c576040517f08c379a000000000000000000000000000000000000000000000000000000000815260040161210390613047565b60405180910390fd5b61211860008383612021565b6001600360008473ffffffffffffffffffffffffffffffffffffffff1673ffffffffffffffffffffffffffffffffffffffff1681526020019081526020016000206000828254612168919061336a565b92505081905550816002600083815260200190815260200160002060006101000a81548173ffffffffffffffffffffffffffffffffffffffff021916908373ffffffffffffffffffffffffffffffffffffffff160217905550808273ffffffffffffffffffffffffffffffffffffffff16600073ffffffffffffffffffffffffffffffffffffffff167fddf252ad1be2c89b69c2b068fc378daa952ba7f163c4a11628f55a4df523b3ef60405160405180910390a45050565b60006122428473ffffffffffffffffffffffffffffffffffffffff166123b8565b156123ab578373ffffffffffffffffffffffffffffffffffffffff1663150b7a0261226b6116d0565b8786866040518563ffffffff1660e01b815260040161228d9493929190612f27565b602060405180830381600087803b1580156122a757600080fd5b505af19250505080156122d857506040513d601f19601f820116820180604052508101906122d5919061283f565b60015b61235b573d8060008114612308576040519150601f19603f3d011682016040523d82523d6000602084013e61230d565b606091505b50600081511415612353576040517f08c379a000000000000000000000000000000000000000000000000000000000815260040161234a90613007565b60405180910390fd5b805181602001fd5b63150b7a0260e01b7bffffffffffffffffffffffffffffffffffffffffffffffffffffffff1916817bffffffffffffffffffffffffffffffffffffffffffffffffffffffff1916149150506123b0565b600190505b949350505050565b600080823b905060008111915050919050565b604051806101600160405280600081526020016060815260200160608152602001600073ffffffffffffffffffffffffffffffffffffffff168152602001600073ffffffffffffffffffffffffffffffffffffffff168152602001600081526020016000151581526020016000815260200160008152602001606081526020016000151581525090565b828054612461906134f7565b90600052602060002090601f01602090048101928261248357600085556124ca565b82601f1061249c57805160ff19168380011785556124ca565b828001600101855582156124ca579182015b828111156124c95782518255916020019190600101906124ae565b5b5090506124d791906124db565b5090565b5b808211156124f45760008160009055506001016124dc565b5090565b600061250b612506846132a9565b613284565b90508281526020810184848401111561252357600080fd5b61252e8482856134b5565b509392505050565b6000612549612544846132da565b613284565b90508281526020810184848401111561256157600080fd5b61256c8482856134b5565b509392505050565b60008135905061258381613b74565b92915050565b60008135905061259881613b8b565b92915050565b6000815190506125ad81613ba2565b92915050565b6000813590506125c281613bb9565b92915050565b6000815190506125d781613bb9565b92915050565b600082601f8301126125ee57600080fd5b81356125fe8482602086016124f8565b91505092915050565b600082601f83011261261857600080fd5b8135612628848260208601612536565b91505092915050565b60008135905061264081613bd0565b92915050565b60006020828403121561265857600080fd5b600061266684828501612574565b91505092915050565b6000806040838503121561268257600080fd5b600061269085828601612574565b92505060206126a185828601612574565b9150509250929050565b6000806000606084860312156126c057600080fd5b60006126ce86828701612574565b93505060206126df86828701612574565b92505060406126f086828701612631565b9150509250925092565b6000806000806080858703121561271057600080fd5b600061271e87828801612574565b945050602061272f87828801612574565b935050604061274087828801612631565b925050606085013567ffffffffffffffff81111561275d57600080fd5b612769878288016125dd565b91505092959194509250565b6000806040838503121561278857600080fd5b600061279685828601612574565b92505060206127a785828601612589565b9150509250929050565b600080604083850312156127c457600080fd5b60006127d285828601612574565b92505060206127e385828601612631565b9150509250929050565b6000602082840312156127ff57600080fd5b600061280d8482850161259e565b91505092915050565b60006020828403121561282857600080fd5b6000612836848285016125b3565b91505092915050565b60006020828403121561285157600080fd5b600061285f848285016125c8565b91505092915050565b60006020828403121561287a57600080fd5b600082013567ffffffffffffffff81111561289457600080fd5b6128a084828501612607565b91505092915050565b6000602082840312156128bb57600080fd5b60006128c984828501612631565b91505092915050565b600080600080608085870312156128e857600080fd5b60006128f687828801612631565b945050602085013567ffffffffffffffff81111561291357600080fd5b61291f87828801612607565b935050604085013567ffffffffffffffff81111561293c57600080fd5b61294887828801612607565b925050606085013567ffffffffffffffff81111561296557600080fd5b61297187828801612607565b91505092959194509250565b61298681613437565b82525050565b61299581613425565b82525050565b6129a481613449565b82525050565b6129b381613449565b82525050565b6129c281613455565b82525050565b60006129d38261330b565b6129dd8185613321565b93506129ed8185602086016134c4565b6129f681613690565b840191505092915050565b6000612a0c8261330b565b612a168185613332565b9350612a268185602086016134c4565b80840191505092915050565b6000612a3d82613316565b612a47818561333d565b9350612a578185602086016134c4565b612a6081613690565b840191505092915050565b6000612a7682613316565b612a80818561334e565b9350612a908185602086016134c4565b612a9981613690565b840191505092915050565b6000612aaf82613316565b612ab9818561335f565b9350612ac98185602086016134c4565b80840191505092915050565b6000612ae260158361334e565b9150612aed826136a1565b602082019050919050565b6000612b0560328361334e565b9150612b10826136ca565b604082019050919050565b6000612b2860268361334e565b9150612b3382613719565b604082019050919050565b6000612b4b601c8361334e565b9150612b5682613768565b602082019050919050565b6000612b6e60248361334e565b9150612b7982613791565b604082019050919050565b6000612b9160198361334e565b9150612b9c826137e0565b602082019050919050565b6000612bb4602c8361334e565b9150612bbf82613809565b604082019050919050565b6000612bd760388361334e565b9150612be282613858565b604082019050919050565b6000612bfa602a8361334e565b9150612c05826138a7565b604082019050919050565b6000612c1d60298361334e565b9150612c28826138f6565b604082019050919050565b6000612c4060138361334e565b9150612c4b82613945565b602082019050919050565b6000612c6360208361334e565b9150612c6e8261396e565b602082019050919050565b6000612c86602c8361334e565b9150612c9182613997565b604082019050919050565b6000612ca960208361334e565b9150612cb4826139e6565b602082019050919050565b6000612ccc60298361334e565b9150612cd782613a0f565b604082019050919050565b6000612cef602f8361334e565b9150612cfa82613a5e565b604082019050919050565b6000612d1260218361334e565b9150612d1d82613aad565b604082019050919050565b6000612d3560318361334e565b9150612d4082613afc565b604082019050919050565b6000612d58600c8361334e565b9150612d6382613b4b565b602082019050919050565b600061016083016000830151612d876000860182612e6b565b5060208301518482036020860152612d9f8282612a32565b91505060408301518482036040860152612db98282612a32565b9150506060830151612dce606086018261297d565b506080830151612de1608086018261297d565b5060a0830151612df460a0860182612e6b565b5060c0830151612e0760c086018261299b565b5060e0830151612e1a60e0860182612e6b565b50610100830151612e2f610100860182612e6b565b50610120830151848203610120860152612e498282612a32565b915050610140830151612e6061014086018261299b565b508091505092915050565b612e74816134ab565b82525050565b612e83816134ab565b82525050565b6000612e958284612a01565b915081905092915050565b6000612eac8284612aa4565b915081905092915050565b6000612ec38285612aa4565b9150612ecf8284612aa4565b91508190509392505050565b6000612ee78286612aa4565b9150612ef38285612aa4565b9150612eff8284612aa4565b9150819050949350505050565b6000602082019050612f21600083018461298c565b92915050565b6000608082019050612f3c600083018761298c565b612f49602083018661298c565b612f566040830185612e7a565b8181036060830152612f6881846129c8565b905095945050505050565b6000602082019050612f8860008301846129aa565b92915050565b6000606082019050612fa360008301866129aa565b612fb060208301856129b9565b612fbd6040830184612e7a565b949350505050565b60006020820190508181036000830152612fdf8184612a6b565b905092915050565b6000602082019050818103600083015261300081612ad5565b9050919050565b6000602082019050818103600083015261302081612af8565b9050919050565b6000602082019050818103600083015261304081612b1b565b9050919050565b6000602082019050818103600083015261306081612b3e565b9050919050565b6000602082019050818103600083015261308081612b61565b9050919050565b600060208201905081810360008301526130a081612b84565b9050919050565b600060208201905081810360008301526130c081612ba7565b9050919050565b600060208201905081810360008301526130e081612bca565b9050919050565b6000602082019050818103600083015261310081612bed565b9050919050565b6000602082019050818103600083015261312081612c10565b9050919050565b6000602082019050818103600083015261314081612c33565b9050919050565b6000602082019050818103600083015261316081612c56565b9050919050565b6000602082019050818103600083015261318081612c79565b9050919050565b600060208201905081810360008301526131a081612c9c565b9050919050565b600060208201905081810360008301526131c081612cbf565b9050919050565b600060208201905081810360008301526131e081612ce2565b9050919050565b6000602082019050818103600083015261320081612d05565b9050919050565b6000602082019050818103600083015261322081612d28565b9050919050565b6000602082019050818103600083015261324081612d4b565b9050919050565b600060208201905081810360008301526132618184612d6e565b905092915050565b600060208201905061327e6000830184612e7a565b92915050565b600061328e61329f565b905061329a8282613529565b919050565b6000604051905090565b600067ffffffffffffffff8211156132c4576132c3613661565b5b6132cd82613690565b9050602081019050919050565b600067ffffffffffffffff8211156132f5576132f4613661565b5b6132fe82613690565b9050602081019050919050565b600081519050919050565b600081519050919050565b600082825260208201905092915050565b600081905092915050565b600082825260208201905092915050565b600082825260208201905092915050565b600081905092915050565b6000613375826134ab565b9150613380836134ab565b9250827fffffffffffffffffffffffffffffffffffffffffffffffffffffffffffffffff038211156133b5576133b46135d4565b5b828201905092915050565b60006133cb826134ab565b91506133d6836134ab565b9250826133e6576133e5613603565b5b828204905092915050565b60006133fc826134ab565b9150613407836134ab565b92508282101561341a576134196135d4565b5b828203905092915050565b60006134308261348b565b9050919050565b60006134428261348b565b9050919050565b60008115159050919050565b6000819050919050565b60007fffffffff0000000000000000000000000000000000000000000000000000000082169050919050565b600073ffffffffffffffffffffffffffffffffffffffff82169050919050565b6000819050919050565b82818337600083830152505050565b60005b838110156134e25780820151818401526020810190506134c7565b838111156134f1576000848401525b50505050565b6000600282049050600182168061350f57607f821691505b6020821081141561352357613522613632565b5b50919050565b61353282613690565b810181811067ffffffffffffffff8211171561355157613550613661565b5b80604052505050565b6000613565826134ab565b91507fffffffffffffffffffffffffffffffffffffffffffffffffffffffffffffffff821415613598576135976135d4565b5b600182019050919050565b60006135ae826134ab565b91506135b9836134ab565b9250826135c9576135c8613603565b5b828206905092915050565b7f4e487b7100000000000000000000000000000000000000000000000000000000600052601160045260246000fd5b7f4e487b7100000000000000000000000000000000000000000000000000000000600052601260045260246000fd5b7f4e487b7100000000000000000000000000000000000000000000000000000000600052602260045260246000fd5b7f4e487b7100000000000000000000000000000000000000000000000000000000600052604160045260246000fd5b6000601f19601f8301169050919050565b7f546f6c6572616e63652063616e6e6f7420626520300000000000000000000000600082015250565b7f4552433732313a207472616e7366657220746f206e6f6e20455243373231526560008201527f63656976657220696d706c656d656e7465720000000000000000000000000000602082015250565b7f4f776e61626c653a206e6577206f776e657220697320746865207a65726f206160008201527f6464726573730000000000000000000000000000000000000000000000000000602082015250565b7f4552433732313a20746f6b656e20616c7265616479206d696e74656400000000600082015250565b7f4552433732313a207472616e7366657220746f20746865207a65726f2061646460008201527f7265737300000000000000000000000000000000000000000000000000000000602082015250565b7f4552433732313a20617070726f766520746f2063616c6c657200000000000000600082015250565b7f4552433732313a206f70657261746f7220717565727920666f72206e6f6e657860008201527f697374656e7420746f6b656e0000000000000000000000000000000000000000602082015250565b7f4552433732313a20617070726f76652063616c6c6572206973206e6f74206f7760008201527f6e6572206e6f7220617070726f76656420666f7220616c6c0000000000000000602082015250565b7f4552433732313a2062616c616e636520717565727920666f7220746865207a6560008201527f726f206164647265737300000000000000000000000000000000000000000000602082015250565b7f4552433732313a206f776e657220717565727920666f72206e6f6e657869737460008201527f656e7420746f6b656e0000000000000000000000000000000000000000000000602082015250565b7f746f6c6572616e63652069732065787069726500000000000000000000000000600082015250565b7f4552433732313a206d696e7420746f20746865207a65726f2061646472657373600082015250565b7f4552433732313a20617070726f76656420717565727920666f72206e6f6e657860008201527f697374656e7420746f6b656e0000000000000000000000000000000000000000602082015250565b7f4f776e61626c653a2063616c6c6572206973206e6f7420746865206f776e6572600082015250565b7f4552433732313a207472616e73666572206f6620746f6b656e2074686174206960008201527f73206e6f74206f776e0000000000000000000000000000000000000000000000602082015250565b7f4552433732314d657461646174613a2055524920717565727920666f72206e6f60008201527f6e6578697374656e7420746f6b656e0000000000000000000000000000000000602082015250565b7f4552433732313a20617070726f76616c20746f2063757272656e74206f776e6560008201527f7200000000000000000000000000000000000000000000000000000000000000602082015250565b7f4552433732313a207472616e736665722063616c6c6572206973206e6f74206f60008201527f776e6572206e6f7220617070726f766564000000000000000000000000000000602082015250565b7f6e616d6520697320627573790000000000000000000000000000000000000000600082015250565b613b7d81613425565b8114613b8857600080fd5b50565b613b9481613449565b8114613b9f57600080fd5b50565b613bab81613455565b8114613bb657600080fd5b50565b613bc28161345f565b8114613bcd57600080fd5b50565b613bd9816134ab565b8114613be457600080fd5b5056fea26469706673582212202b21497e3a92392dac6be49797e798bdb3684fc42306690d0259e6a3920e63ee64736f6c63430008030033",
  "immutableReferences": {},
  "source": "// SPDX-License-Identifier: MIT\npragma solidity ^0.8.0;\nimport \"./IHashima.sol\";\nimport \"@openzeppelin/contracts/token/ERC721/extensions/ERC721Hashima.sol\";\n\n\ncontract Certificado is ERC721Hashima{\n\n    constructor() ERC721(\"Certificado\", \"CERTIFICATE\") {}\n\n    function getHashima(uint256 _index)external view returns(Hashi memory){\n        return _hashis[_index];\n  }\n}",
  "sourcePath": "/Users/aarontolentino/Desktop/hashima/contracts/Certificado.sol",
  "compiler": {
    "name": "solc",
    "version": "0.8.3+commit.8d00100c.Emscripten.clang"
  },
  "schemaVersion": "3.4.1",
  "updatedAt": "2022-05-03T04:57:55.377Z",
  "devdoc": {
    "kind": "dev",
    "methods": {
      "approve(address,uint256)": {
        "details": "See {IERC721-approve}."
      },
      "balanceOf(address)": {
        "details": "See {IERC721-balanceOf}."
      },
      "check(uint256,string,string,string)": {
        "details": "This is the Hashima adaptation of ERC-721 NFT standart. _nonce=> random number that proofs the computational power"
      },
      "getApproved(uint256)": {
        "details": "See {IERC721-getApproved}."
      },
      "initGame()": {
        "details": "Stars the game so the user can mint a Hashima. The time is express in Block number. Requirements: Star the game before mint, other case, the function will fail"
      },
      "isApprovedForAll(address,address)": {
        "details": "See {IERC721-isApprovedForAll}."
      },
      "name()": {
        "details": "See {IERC721Metadata-name}."
      },
      "owner()": {
        "details": "Returns the address of the current owner."
      },
      "ownerOf(uint256)": {
        "details": "See {IERC721-ownerOf}."
      },
      "renounceOwnership()": {
        "details": "Leaves the contract without owner. It will not be possible to call `onlyOwner` functions anymore. Can only be called by the current owner. NOTE: Renouncing ownership will leave the contract without an owner, thereby removing any functionality that is only available to the owner."
      },
      "safeTransferFrom(address,address,uint256)": {
        "details": "See {IERC721-safeTransferFrom}."
      },
      "safeTransferFrom(address,address,uint256,bytes)": {
        "details": "See {IERC721-safeTransferFrom}."
      },
      "setApprovalForAll(address,bool)": {
        "details": "See {IERC721-setApprovalForAll}."
      },
      "supportsInterface(bytes4)": {
        "details": "See {IERC165-supportsInterface}."
      },
      "symbol()": {
        "details": "See {IERC721Metadata-symbol}."
      },
      "tokenURI(uint256)": {
        "details": "See {IERC721Metadata-tokenURI}."
      },
      "transferFrom(address,address,uint256)": {
        "details": "See {IERC721-transferFrom}."
      },
      "transferOwnership(address)": {
        "details": "Transfers ownership of the contract to a new account (`newOwner`). Can only be called by the current owner."
      }
    },
    "version": 1
  },
  "userdoc": {
    "kind": "user",
    "methods": {},
    "version": 1
  }
}