{
  "contractName": "Hashima",
  "abi": [
    {
      "inputs": [],
      "stateMutability": "nonpayable",
      "type": "constructor"
    },
    {
      "anonymous": false,
      "inputs": [
        {
          "indexed": true,
          "internalType": "address",
          "name": "owner",
          "type": "address"
        },
        {
          "indexed": true,
          "internalType": "address",
          "name": "approved",
          "type": "address"
        },
        {
          "indexed": true,
          "internalType": "uint256",
          "name": "tokenId",
          "type": "uint256"
        }
      ],
      "name": "Approval",
      "type": "event"
    },
    {
      "anonymous": false,
      "inputs": [
        {
          "indexed": true,
          "internalType": "address",
          "name": "owner",
          "type": "address"
        },
        {
          "indexed": true,
          "internalType": "address",
          "name": "operator",
          "type": "address"
        },
        {
          "indexed": false,
          "internalType": "bool",
          "name": "approved",
          "type": "bool"
        }
      ],
      "name": "ApprovalForAll",
      "type": "event"
    },
    {
      "anonymous": false,
      "inputs": [
        {
          "indexed": false,
          "internalType": "uint256",
          "name": "_blocknumber",
          "type": "uint256"
        }
      ],
      "name": "GameStart",
      "type": "event"
    },
    {
      "anonymous": false,
      "inputs": [
        {
          "indexed": false,
          "internalType": "bool",
          "name": "respuesta",
          "type": "bool"
        },
        {
          "indexed": false,
          "internalType": "bytes32",
          "name": "hashResultado",
          "type": "bytes32"
        }
      ],
      "name": "Minted",
      "type": "event"
    },
    {
      "anonymous": false,
      "inputs": [
        {
          "indexed": true,
          "internalType": "address",
          "name": "from",
          "type": "address"
        },
        {
          "indexed": true,
          "internalType": "address",
          "name": "to",
          "type": "address"
        },
        {
          "indexed": true,
          "internalType": "uint256",
          "name": "tokenId",
          "type": "uint256"
        }
      ],
      "name": "Transfer",
      "type": "event"
    },
    {
      "inputs": [],
      "name": "Init",
      "outputs": [],
      "stateMutability": "nonpayable",
      "type": "function"
    },
    {
      "inputs": [
        {
          "internalType": "uint256",
          "name": "_stars",
          "type": "uint256"
        },
        {
          "internalType": "string",
          "name": "_data",
          "type": "string"
        },
        {
          "internalType": "string",
          "name": "_nonce",
          "type": "string"
        },
        {
          "internalType": "string",
          "name": "_uri",
          "type": "string"
        }
      ],
      "name": "Mint",
      "outputs": [],
      "stateMutability": "nonpayable",
      "type": "function"
    },
    {
      "inputs": [
        {
          "internalType": "string",
          "name": "",
          "type": "string"
        }
      ],
      "name": "_names",
      "outputs": [
        {
          "internalType": "bool",
          "name": "",
          "type": "bool"
        }
      ],
      "stateMutability": "view",
      "type": "function",
      "constant": true
    },
    {
      "inputs": [
        {
          "internalType": "address",
          "name": "to",
          "type": "address"
        },
        {
          "internalType": "uint256",
          "name": "tokenId",
          "type": "uint256"
        }
      ],
      "name": "approve",
      "outputs": [],
      "stateMutability": "nonpayable",
      "type": "function"
    },
    {
      "inputs": [
        {
          "internalType": "address",
          "name": "owner",
          "type": "address"
        }
      ],
      "name": "balanceOf",
      "outputs": [
        {
          "internalType": "uint256",
          "name": "",
          "type": "uint256"
        }
      ],
      "stateMutability": "view",
      "type": "function",
      "constant": true
    },
    {
      "inputs": [],
      "name": "checkGame",
      "outputs": [
        {
          "internalType": "uint256",
          "name": "",
          "type": "uint256"
        }
      ],
      "stateMutability": "view",
      "type": "function",
      "constant": true
    },
    {
      "inputs": [
        {
          "internalType": "string",
          "name": "_data",
          "type": "string"
        },
        {
          "internalType": "string",
          "name": "_nonce",
          "type": "string"
        },
        {
          "internalType": "uint256",
          "name": "_tolerance",
          "type": "uint256"
        },
        {
          "internalType": "uint256",
          "name": "_stars",
          "type": "uint256"
        }
      ],
      "name": "checkingHash",
      "outputs": [
        {
          "internalType": "bool",
          "name": "",
          "type": "bool"
        },
        {
          "internalType": "bytes32",
          "name": "",
          "type": "bytes32"
        }
      ],
      "stateMutability": "pure",
      "type": "function",
      "constant": true
    },
    {
      "inputs": [
        {
          "internalType": "uint256",
          "name": "tokenId",
          "type": "uint256"
        }
      ],
      "name": "getApproved",
      "outputs": [
        {
          "internalType": "address",
          "name": "",
          "type": "address"
        }
      ],
      "stateMutability": "view",
      "type": "function",
      "constant": true
    },
    {
      "inputs": [],
      "name": "getBlockTolerance",
      "outputs": [
        {
          "internalType": "uint256",
          "name": "",
          "type": "uint256"
        }
      ],
      "stateMutability": "view",
      "type": "function",
      "constant": true
    },
    {
      "inputs": [
        {
          "internalType": "uint256",
          "name": "_index",
          "type": "uint256"
        }
      ],
      "name": "getHashima",
      "outputs": [
        {
          "components": [
            {
              "internalType": "uint256",
              "name": "tokenId",
              "type": "uint256"
            },
            {
              "internalType": "string",
              "name": "data",
              "type": "string"
            },
            {
              "internalType": "address payable",
              "name": "currentOwner",
              "type": "address"
            },
            {
              "internalType": "address payable",
              "name": "previousOwner",
              "type": "address"
            },
            {
              "internalType": "uint256",
              "name": "stars",
              "type": "uint256"
            },
            {
              "internalType": "uint256",
              "name": "blockTolerance",
              "type": "uint256"
            },
            {
              "internalType": "uint256",
              "name": "blockEnd",
              "type": "uint256"
            },
            {
              "internalType": "string",
              "name": "nonce",
              "type": "string"
            }
          ],
          "internalType": "struct ERC721Hashima.Hashi",
          "name": "",
          "type": "tuple"
        }
      ],
      "stateMutability": "view",
      "type": "function",
      "constant": true
    },
    {
      "inputs": [
        {
          "internalType": "uint256",
          "name": "_index",
          "type": "uint256"
        }
      ],
      "name": "getProofOfWorkData",
      "outputs": [
        {
          "internalType": "string",
          "name": "",
          "type": "string"
        },
        {
          "internalType": "uint256",
          "name": "",
          "type": "uint256"
        },
        {
          "internalType": "string",
          "name": "",
          "type": "string"
        },
        {
          "internalType": "uint256",
          "name": "",
          "type": "uint256"
        }
      ],
      "stateMutability": "view",
      "type": "function",
      "constant": true
    },
    {
      "inputs": [
        {
          "internalType": "uint256",
          "name": "_index",
          "type": "uint256"
        }
      ],
      "name": "getStars",
      "outputs": [
        {
          "internalType": "uint256",
          "name": "",
          "type": "uint256"
        }
      ],
      "stateMutability": "view",
      "type": "function",
      "constant": true
    },
    {
      "inputs": [],
      "name": "getTotal",
      "outputs": [
        {
          "internalType": "uint256",
          "name": "",
          "type": "uint256"
        }
      ],
      "stateMutability": "view",
      "type": "function",
      "constant": true
    },
    {
      "inputs": [
        {
          "internalType": "address",
          "name": "owner",
          "type": "address"
        },
        {
          "internalType": "address",
          "name": "operator",
          "type": "address"
        }
      ],
      "name": "isApprovedForAll",
      "outputs": [
        {
          "internalType": "bool",
          "name": "",
          "type": "bool"
        }
      ],
      "stateMutability": "view",
      "type": "function",
      "constant": true
    },
    {
      "inputs": [],
      "name": "name",
      "outputs": [
        {
          "internalType": "string",
          "name": "",
          "type": "string"
        }
      ],
      "stateMutability": "view",
      "type": "function",
      "constant": true
    },
    {
      "inputs": [
        {
          "internalType": "uint256",
          "name": "tokenId",
          "type": "uint256"
        }
      ],
      "name": "ownerOf",
      "outputs": [
        {
          "internalType": "address",
          "name": "",
          "type": "address"
        }
      ],
      "stateMutability": "view",
      "type": "function",
      "constant": true
    },
    {
      "inputs": [
        {
          "internalType": "address",
          "name": "from",
          "type": "address"
        },
        {
          "internalType": "address",
          "name": "to",
          "type": "address"
        },
        {
          "internalType": "uint256",
          "name": "tokenId",
          "type": "uint256"
        }
      ],
      "name": "safeTransferFrom",
      "outputs": [],
      "stateMutability": "nonpayable",
      "type": "function"
    },
    {
      "inputs": [
        {
          "internalType": "address",
          "name": "from",
          "type": "address"
        },
        {
          "internalType": "address",
          "name": "to",
          "type": "address"
        },
        {
          "internalType": "uint256",
          "name": "tokenId",
          "type": "uint256"
        },
        {
          "internalType": "bytes",
          "name": "_data",
          "type": "bytes"
        }
      ],
      "name": "safeTransferFrom",
      "outputs": [],
      "stateMutability": "nonpayable",
      "type": "function"
    },
    {
      "inputs": [
        {
          "internalType": "address",
          "name": "operator",
          "type": "address"
        },
        {
          "internalType": "bool",
          "name": "approved",
          "type": "bool"
        }
      ],
      "name": "setApprovalForAll",
      "outputs": [],
      "stateMutability": "nonpayable",
      "type": "function"
    },
    {
      "inputs": [
        {
          "internalType": "bytes4",
          "name": "interfaceId",
          "type": "bytes4"
        }
      ],
      "name": "supportsInterface",
      "outputs": [
        {
          "internalType": "bool",
          "name": "",
          "type": "bool"
        }
      ],
      "stateMutability": "view",
      "type": "function",
      "constant": true
    },
    {
      "inputs": [],
      "name": "symbol",
      "outputs": [
        {
          "internalType": "string",
          "name": "",
          "type": "string"
        }
      ],
      "stateMutability": "view",
      "type": "function",
      "constant": true
    },
    {
      "inputs": [
        {
          "internalType": "uint256",
          "name": "tokenId",
          "type": "uint256"
        }
      ],
      "name": "tokenURI",
      "outputs": [
        {
          "internalType": "string",
          "name": "",
          "type": "string"
        }
      ],
      "stateMutability": "view",
      "type": "function",
      "constant": true
    },
    {
      "inputs": [
        {
          "internalType": "address",
          "name": "from",
          "type": "address"
        },
        {
          "internalType": "address",
          "name": "to",
          "type": "address"
        },
        {
          "internalType": "uint256",
          "name": "tokenId",
          "type": "uint256"
        }
      ],
      "name": "transferFrom",
      "outputs": [],
      "stateMutability": "nonpayable",
      "type": "function"
    },
    {
      "inputs": [
        {
          "internalType": "uint256",
          "name": "_tokenId",
          "type": "uint256"
        }
      ],
      "name": "getMarket",
      "outputs": [
        {
          "components": [
            {
              "internalType": "uint256",
              "name": "hashima_id",
              "type": "uint256"
            },
            {
              "internalType": "uint256",
              "name": "price",
              "type": "uint256"
            },
            {
              "internalType": "bool",
              "name": "forSale",
              "type": "bool"
            }
          ],
          "internalType": "struct Hashima.Market",
          "name": "",
          "type": "tuple"
        }
      ],
      "stateMutability": "view",
      "type": "function",
      "constant": true
    },
    {
      "inputs": [
        {
          "internalType": "uint256",
          "name": "_tokenId",
          "type": "uint256"
        }
      ],
      "name": "buyToken",
      "outputs": [
        {
          "internalType": "bool",
          "name": "",
          "type": "bool"
        }
      ],
      "stateMutability": "payable",
      "type": "function",
      "payable": true
    },
    {
      "inputs": [
        {
          "internalType": "uint256",
          "name": "_tokenId",
          "type": "uint256"
        },
        {
          "internalType": "uint256",
          "name": "_newPrice",
          "type": "uint256"
        }
      ],
      "name": "toggleForSale",
      "outputs": [],
      "stateMutability": "nonpayable",
      "type": "function"
    },
    {
      "inputs": [
        {
          "internalType": "uint256",
          "name": "_tokenId",
          "type": "uint256"
        },
        {
          "internalType": "uint256",
          "name": "_newPrice",
          "type": "uint256"
        }
      ],
      "name": "changeTokenPrice",
      "outputs": [],
      "stateMutability": "nonpayable",
      "type": "function"
    }
  ],
  "bytecode": "0x608060405260c86008553480156200001657600080fd5b506040518060400160405280600781526020017f48617368696d61000000000000000000000000000000000000000000000000008152506040518060400160405280600781526020017f48415348494d410000000000000000000000000000000000000000000000000081525081600090805190602001906200009b929190620000bd565b508060019080519060200190620000b4929190620000bd565b505050620001d2565b828054620000cb906200016d565b90600052602060002090601f016020900481019282620000ef57600085556200013b565b82601f106200010a57805160ff19168380011785556200013b565b828001600101855582156200013b579182015b828111156200013a5782518255916020019190600101906200011d565b5b5090506200014a91906200014e565b5090565b5b80821115620001695760008160009055506001016200014f565b5090565b600060028204905060018216806200018657607f821691505b602082108114156200019d576200019c620001a3565b5b50919050565b7f4e487b7100000000000000000000000000000000000000000000000000000000600052602260045260246000fd5b614f2d80620001e26000396000f3fe60806040526004361061019c5760003560e01c806370a08231116100ec578063c87b56dd1161008a578063d7a1aed211610064578063d7a1aed21461061b578063e985e9c514610644578063eb44fdd314610681578063f81175c3146106be5761019c565b8063c87b56dd14610564578063d1760fac146105a1578063d43525c3146105de5761019c565b8063a22cb465116100c6578063a22cb465146104aa578063adf04f20146104d3578063b35a194e14610510578063b88d4fde1461053b5761019c565b806370a0823114610417578063775a25e31461045457806395d89b411461047f5761019c565b80633a22e0cb1161015957806357a86f7d1161013357806357a86f7d1461035a5780635c95f4fa1461037157806362e8e8ac146103b15780636352211e146103da5761019c565b80633a22e0cb146102c857806342842e0e14610306578063503950731461032f5761019c565b806301ffc9a7146101a157806306fdde03146101de578063081812fc14610209578063095ea7b31461024657806323b872dd1461026f5780632d296bf114610298575b600080fd5b3480156101ad57600080fd5b506101c860048036038101906101c391906138c2565b6106e7565b6040516101d59190614168565b60405180910390f35b3480156101ea57600080fd5b506101f36107c9565b60405161020091906141ac565b60405180910390f35b34801561021557600080fd5b50610230600480360381019061022b91906139e8565b61085b565b60405161023d9190614101565b60405180910390f35b34801561025257600080fd5b5061026d6004803603810190610268919061385d565b6108e0565b005b34801561027b57600080fd5b5061029660048036038101906102919190613757565b6109f8565b005b6102b260048036038101906102ad91906139e8565b610a58565b6040516102bf9190614168565b60405180910390f35b3480156102d457600080fd5b506102ef60048036038101906102ea9190613955565b61104a565b6040516102fd929190614183565b60405180910390f35b34801561031257600080fd5b5061032d60048036038101906103289190613757565b611170565b005b34801561033b57600080fd5b50610344611190565b60405161035191906144fe565b60405180910390f35b34801561036657600080fd5b5061036f61119a565b005b34801561037d57600080fd5b50610398600480360381019061039391906139e8565b61121d565b6040516103a894939291906141ce565b60405180910390f35b3480156103bd57600080fd5b506103d860048036038101906103d39190613abc565b6113b7565b005b3480156103e657600080fd5b5061040160048036038101906103fc91906139e8565b6114f4565b60405161040e9190614101565b60405180910390f35b34801561042357600080fd5b5061043e600480360381019061043991906136f2565b6115a6565b60405161044b91906144fe565b60405180910390f35b34801561046057600080fd5b5061046961165e565b60405161047691906144fe565b60405180910390f35b34801561048b57600080fd5b5061049461166f565b6040516104a191906141ac565b60405180910390f35b3480156104b657600080fd5b506104d160048036038101906104cc9190613821565b611701565b005b3480156104df57600080fd5b506104fa60048036038101906104f591906139e8565b611882565b60405161050791906144fe565b60405180910390f35b34801561051c57600080fd5b506105256118a2565b60405161053291906144fe565b60405180910390f35b34801561054757600080fd5b50610562600480360381019061055d91906137a6565b6118e9565b005b34801561057057600080fd5b5061058b600480360381019061058691906139e8565b61194b565b60405161059891906141ac565b60405180910390f35b3480156105ad57600080fd5b506105c860048036038101906105c39190613914565b611a9d565b6040516105d59190614168565b60405180910390f35b3480156105ea57600080fd5b50610605600480360381019061060091906139e8565b611ad3565b60405161061291906144c1565b60405180910390f35b34801561062757600080fd5b50610642600480360381019061063d9190613abc565b611cf9565b005b34801561065057600080fd5b5061066b6004803603810190610666919061371b565b611e9e565b6040516106789190614168565b60405180910390f35b34801561068d57600080fd5b506106a860048036038101906106a391906139e8565b611f32565b6040516106b591906144e3565b60405180910390f35b3480156106ca57600080fd5b506106e560048036038101906106e09190613a11565b611f8e565b005b60007f80ac58cd000000000000000000000000000000000000000000000000000000007bffffffffffffffffffffffffffffffffffffffffffffffffffffffff1916827bffffffffffffffffffffffffffffffffffffffffffffffffffffffff191614806107b257507f5b5e139f000000000000000000000000000000000000000000000000000000007bffffffffffffffffffffffffffffffffffffffffffffffffffffffff1916827bffffffffffffffffffffffffffffffffffffffffffffffffffffffff1916145b806107c257506107c182612385565b5b9050919050565b6060600080546107d89061478c565b80601f01602080910402602001604051908101604052809291908181526020018280546108049061478c565b80156108515780601f1061082657610100808354040283529160200191610851565b820191906000526020600020905b81548152906001019060200180831161083457829003601f168201915b5050505050905090565b6000610866826123ef565b6108a5576040517f08c379a000000000000000000000000000000000000000000000000000000000815260040161089c906143e1565b60405180910390fd5b6004600083815260200190815260200160002060009054906101000a900473ffffffffffffffffffffffffffffffffffffffff169050919050565b60006108eb826114f4565b90508073ffffffffffffffffffffffffffffffffffffffff168373ffffffffffffffffffffffffffffffffffffffff16141561095c576040517f08c379a000000000000000000000000000000000000000000000000000000000815260040161095390614461565b60405180910390fd5b8073ffffffffffffffffffffffffffffffffffffffff1661097b61245b565b73ffffffffffffffffffffffffffffffffffffffff1614806109aa57506109a9816109a461245b565b611e9e565b5b6109e9576040517f08c379a00000000000000000000000000000000000000000000000000000000081526004016109e090614301565b60405180910390fd5b6109f38383612463565b505050565b610a09610a0361245b565b8261251c565b610a48576040517f08c379a0000000000000000000000000000000000000000000000000000000008152600401610a3f90614481565b60405180910390fd5b610a538383836125fa565b505050565b60008073ffffffffffffffffffffffffffffffffffffffff163373ffffffffffffffffffffffffffffffffffffffff161415610a9357600080fd5b610a9c826123ef565b610aa557600080fd5b6000610ab0836114f4565b9050600073ffffffffffffffffffffffffffffffffffffffff168173ffffffffffffffffffffffffffffffffffffffff161415610aec57600080fd5b3373ffffffffffffffffffffffffffffffffffffffff168173ffffffffffffffffffffffffffffffffffffffff161415610b2557600080fd5b6000600c600085815260200190815260200160002060405180606001604052908160008201548152602001600182015481526020016002820160009054906101000a900460ff16151515158152505090506000600b60008681526020019081526020016000206040518061010001604052908160008201548152602001600182018054610bb19061478c565b80601f0160208091040260200160405190810160405280929190818152602001828054610bdd9061478c565b8015610c2a5780601f10610bff57610100808354040283529160200191610c2a565b820191906000526020600020905b815481529060010190602001808311610c0d57829003601f168201915b505050505081526020016002820160009054906101000a900473ffffffffffffffffffffffffffffffffffffffff1673ffffffffffffffffffffffffffffffffffffffff1673ffffffffffffffffffffffffffffffffffffffff1681526020016003820160009054906101000a900473ffffffffffffffffffffffffffffffffffffffff1673ffffffffffffffffffffffffffffffffffffffff1673ffffffffffffffffffffffffffffffffffffffff168152602001600482015481526020016005820154815260200160068201548152602001600782018054610d0d9061478c565b80601f0160208091040260200160405190810160405280929190818152602001828054610d399061478c565b8015610d865780601f10610d5b57610100808354040283529160200191610d86565b820191906000526020600020905b815481529060010190602001808311610d6957829003601f168201915b50505050508152505090508160200151341015610dd8576040517f08c379a0000000000000000000000000000000000000000000000000000000008152600401610dcf90614401565b60405180910390fd5b8160400151610de657600080fd5b610df18333876125fa565b60008160400151905060008173ffffffffffffffffffffffffffffffffffffffff1634604051610e20906140ec565b60006040518083038185875af1925050503d8060008114610e5d576040519150601f19603f3d011682016040523d82523d6000602084013e610e62565b606091505b505090508260400151836060019073ffffffffffffffffffffffffffffffffffffffff16908173ffffffffffffffffffffffffffffffffffffffff168152505033836040019073ffffffffffffffffffffffffffffffffffffffff16908173ffffffffffffffffffffffffffffffffffffffff1681525050600084604001901515908115158152505082600b6000898152602001908152602001600020600082015181600001556020820151816001019080519060200190610f2592919061346d565b5060408201518160020160006101000a81548173ffffffffffffffffffffffffffffffffffffffff021916908373ffffffffffffffffffffffffffffffffffffffff16021790555060608201518160030160006101000a81548173ffffffffffffffffffffffffffffffffffffffff021916908373ffffffffffffffffffffffffffffffffffffffff1602179055506080820151816004015560a0820151816005015560c0820151816006015560e0820151816007019080519060200190610fee92919061346d565b5090505083600c6000898152602001908152602001600020600082015181600001556020820151816001015560408201518160020160006101000a81548160ff0219169083151502179055509050508095505050505050919050565b60008060006002878761105c88612856565b60405160200161106e939291906140bb565b60405160208183030381529060405260405161108a9190614069565b602060405180830381855afa1580156110a7573d6000803e3d6000fd5b5050506040513d601f19601f820116820180604052508101906110ca9190613899565b905060006001905060005b8581101561115e57600060f81b83826020811061111b577f4e487b7100000000000000000000000000000000000000000000000000000000600052603260045260246000fd5b1a60f81b7effffffffffffffffffffffffffffffffffffffffffffffffffffffffffffff19161461114b57600091505b8080611156906147ef565b9150506110d5565b50808293509350505094509492505050565b61118b838383604051806020016040528060008152506118e9565b505050565b6000600854905090565b600043905080600960003373ffffffffffffffffffffffffffffffffffffffff1673ffffffffffffffffffffffffffffffffffffffff168152602001908152602001600020819055507fb5e8a4470f7bcac7f2c0f3e23471bd7016a9f6f049884cd27dfa8960f361287b8160405161121291906144fe565b60405180910390a150565b606060006060600080600b600087815260200190815260200160002060010180546112479061478c565b80601f01602080910402602001604051908101604052809291908181526020018280546112739061478c565b80156112c05780601f10611295576101008083540402835291602001916112c0565b820191906000526020600020905b8154815290600101906020018083116112a357829003601f168201915b505050505090506000600b60008881526020019081526020016000206004015490506000600b60008981526020019081526020016000206005015490506000600b60008a815260200190815260200160002060070180546113209061478c565b80601f016020809104026020016040519081016040528092919081815260200182805461134c9061478c565b80156113995780601f1061136e57610100808354040283529160200191611399565b820191906000526020600020905b81548152906001019060200180831161137c57829003601f168201915b50505050509050838382849750975097509750505050509193509193565b600073ffffffffffffffffffffffffffffffffffffffff163373ffffffffffffffffffffffffffffffffffffffff1614156113f157600080fd5b6113fa826123ef565b61140357600080fd5b600061140e836114f4565b90503373ffffffffffffffffffffffffffffffffffffffff168173ffffffffffffffffffffffffffffffffffffffff161461144857600080fd5b6000600c600085815260200190815260200160002060405180606001604052908160008201548152602001600182015481526020016002820160009054906101000a900460ff16151515158152505090508281602001818152505080600c6000868152602001908152602001600020600082015181600001556020820151816001015560408201518160020160006101000a81548160ff02191690831515021790555090505050505050565b6000806002600084815260200190815260200160002060009054906101000a900473ffffffffffffffffffffffffffffffffffffffff169050600073ffffffffffffffffffffffffffffffffffffffff168173ffffffffffffffffffffffffffffffffffffffff16141561159d576040517f08c379a000000000000000000000000000000000000000000000000000000000815260040161159490614341565b60405180910390fd5b80915050919050565b60008073ffffffffffffffffffffffffffffffffffffffff168273ffffffffffffffffffffffffffffffffffffffff161415611617576040517f08c379a000000000000000000000000000000000000000000000000000000000815260040161160e90614321565b60405180910390fd5b600360008373ffffffffffffffffffffffffffffffffffffffff1673ffffffffffffffffffffffffffffffffffffffff168152602001908152602001600020549050919050565b600061166a6007612a03565b905090565b60606001805461167e9061478c565b80601f01602080910402602001604051908101604052809291908181526020018280546116aa9061478c565b80156116f75780601f106116cc576101008083540402835291602001916116f7565b820191906000526020600020905b8154815290600101906020018083116116da57829003601f168201915b5050505050905090565b61170961245b565b73ffffffffffffffffffffffffffffffffffffffff168273ffffffffffffffffffffffffffffffffffffffff161415611777576040517f08c379a000000000000000000000000000000000000000000000000000000000815260040161176e906142c1565b60405180910390fd5b806005600061178461245b565b73ffffffffffffffffffffffffffffffffffffffff1673ffffffffffffffffffffffffffffffffffffffff16815260200190815260200160002060008473ffffffffffffffffffffffffffffffffffffffff1673ffffffffffffffffffffffffffffffffffffffff16815260200190815260200160002060006101000a81548160ff0219169083151502179055508173ffffffffffffffffffffffffffffffffffffffff1661183161245b565b73ffffffffffffffffffffffffffffffffffffffff167f17307eab39ab6107e8899845ad3d59bd9653f200f220920489ca2b5937696c31836040516118769190614168565b60405180910390a35050565b6000600b6000838152602001908152602001600020600401549050919050565b6000600960003373ffffffffffffffffffffffffffffffffffffffff1673ffffffffffffffffffffffffffffffffffffffff16815260200190815260200160002054905090565b6118fa6118f461245b565b8361251c565b611939576040517f08c379a000000000000000000000000000000000000000000000000000000000815260040161193090614481565b60405180910390fd5b61194584848484612a11565b50505050565b6060611956826123ef565b611995576040517f08c379a000000000000000000000000000000000000000000000000000000000815260040161198c906143c1565b60405180910390fd5b60006006600084815260200190815260200160002080546119b59061478c565b80601f01602080910402602001604051908101604052809291908181526020018280546119e19061478c565b8015611a2e5780601f10611a0357610100808354040283529160200191611a2e565b820191906000526020600020905b815481529060010190602001808311611a1157829003601f168201915b505050505090506000611a3f612a6d565b9050600081511415611a55578192505050611a98565b600082511115611a8a578082604051602001611a72929190614097565b60405160208183030381529060405292505050611a98565b611a9384612a84565b925050505b919050565b600a818051602081018201805184825260208301602085012081835280955050505050506000915054906101000a900460ff1681565b611adb6134f3565b600b60008381526020019081526020016000206040518061010001604052908160008201548152602001600182018054611b149061478c565b80601f0160208091040260200160405190810160405280929190818152602001828054611b409061478c565b8015611b8d5780601f10611b6257610100808354040283529160200191611b8d565b820191906000526020600020905b815481529060010190602001808311611b7057829003601f168201915b505050505081526020016002820160009054906101000a900473ffffffffffffffffffffffffffffffffffffffff1673ffffffffffffffffffffffffffffffffffffffff1673ffffffffffffffffffffffffffffffffffffffff1681526020016003820160009054906101000a900473ffffffffffffffffffffffffffffffffffffffff1673ffffffffffffffffffffffffffffffffffffffff1673ffffffffffffffffffffffffffffffffffffffff168152602001600482015481526020016005820154815260200160068201548152602001600782018054611c709061478c565b80601f0160208091040260200160405190810160405280929190818152602001828054611c9c9061478c565b8015611ce95780601f10611cbe57610100808354040283529160200191611ce9565b820191906000526020600020905b815481529060010190602001808311611ccc57829003601f168201915b5050505050815250509050919050565b600073ffffffffffffffffffffffffffffffffffffffff163373ffffffffffffffffffffffffffffffffffffffff161415611d3357600080fd5b611d3c826123ef565b611d4557600080fd5b6000611d50836114f4565b90503373ffffffffffffffffffffffffffffffffffffffff168173ffffffffffffffffffffffffffffffffffffffff1614611dc0576040517f08c379a0000000000000000000000000000000000000000000000000000000008152600401611db790614281565b60405180910390fd5b6000600c600085815260200190815260200160002060405180606001604052908160008201548152602001600182015481526020016002820160009054906101000a900460ff1615151515815250509050806040015115611e31576000816040019015159081151581525050611e4d565b6001816040019015159081151581525050828160200181815250505b80600c6000868152602001908152602001600020600082015181600001556020820151816001015560408201518160020160006101000a81548160ff02191690831515021790555090505050505050565b6000600560008473ffffffffffffffffffffffffffffffffffffffff1673ffffffffffffffffffffffffffffffffffffffff16815260200190815260200160002060008373ffffffffffffffffffffffffffffffffffffffff1673ffffffffffffffffffffffffffffffffffffffff16815260200190815260200160002060009054906101000a900460ff16905092915050565b611f3a613564565b600c600083815260200190815260200160002060405180606001604052908160008201548152602001600182015481526020016002820160009054906101000a900460ff1615151515815250509050919050565b43600854600960003373ffffffffffffffffffffffffffffffffffffffff1673ffffffffffffffffffffffffffffffffffffffff16815260200190815260200160002054611fdc91906145ff565b1161201c576040517f08c379a000000000000000000000000000000000000000000000000000000000815260040161201390614381565b60405180910390fd5b60001515600a846040516120309190614080565b908152602001604051809103902060009054906101000a900460ff1615151461208e576040517f08c379a0000000000000000000000000000000000000000000000000000000008152600401612085906144a1565b60405180910390fd5b6000600960003373ffffffffffffffffffffffffffffffffffffffff1673ffffffffffffffffffffffffffffffffffffffff168152602001908152602001600020541415612111576040517f08c379a000000000000000000000000000000000000000000000000000000000815260040161210890614221565b60405180910390fd5b600073ffffffffffffffffffffffffffffffffffffffff163373ffffffffffffffffffffffffffffffffffffffff16141561214b57600080fd5b600060019050600080600286866121a0600960003373ffffffffffffffffffffffffffffffffffffffff1673ffffffffffffffffffffffffffffffffffffffff16815260200190815260200160002054612856565b6040516020016121b2939291906140bb565b6040516020818303038152906040526040516121ce9190614069565b602060405180830381855afa1580156121eb573d6000803e3d6000fd5b5050506040513d601f19601f8201168201806040525081019061220e9190613899565b905060005b8781101561229c57600060f81b828260208110612259577f4e487b7100000000000000000000000000000000000000000000000000000000600052603260045260246000fd5b1a60f81b7effffffffffffffffffffffffffffffffffffffffffffffffffffffffffffff19161461228957600093505b8080612294906147ef565b915050612213565b508215612343576001600a876040516122b59190614080565b908152602001604051809103902060006101000a81548160ff0219169083151502179055506122e46007612b2b565b60006122f06007612a03565b905061233f81600960003373ffffffffffffffffffffffffffffffffffffffff1673ffffffffffffffffffffffffffffffffffffffff1681526020019081526020016000205489898c8a612b4a565b9250505b7fa3a10b160edc0bd161c49367144eeac96e21921b98aae2036aa3ca397fa4859e8382604051612374929190614183565b60405180910390a150505050505050565b60007f01ffc9a7000000000000000000000000000000000000000000000000000000007bffffffffffffffffffffffffffffffffffffffffffffffffffffffff1916827bffffffffffffffffffffffffffffffffffffffffffffffffffffffff1916149050919050565b60008073ffffffffffffffffffffffffffffffffffffffff166002600084815260200190815260200160002060009054906101000a900473ffffffffffffffffffffffffffffffffffffffff1673ffffffffffffffffffffffffffffffffffffffff1614159050919050565b600033905090565b816004600083815260200190815260200160002060006101000a81548173ffffffffffffffffffffffffffffffffffffffff021916908373ffffffffffffffffffffffffffffffffffffffff160217905550808273ffffffffffffffffffffffffffffffffffffffff166124d6836114f4565b73ffffffffffffffffffffffffffffffffffffffff167f8c5be1e5ebec7d5bd14f71427d1e84f3dd0314c0f7b2291e5b200ac8c7c3b92560405160405180910390a45050565b6000612527826123ef565b612566576040517f08c379a000000000000000000000000000000000000000000000000000000000815260040161255d906142e1565b60405180910390fd5b6000612571836114f4565b90508073ffffffffffffffffffffffffffffffffffffffff168473ffffffffffffffffffffffffffffffffffffffff1614806125e057508373ffffffffffffffffffffffffffffffffffffffff166125c88461085b565b73ffffffffffffffffffffffffffffffffffffffff16145b806125f157506125f08185611e9e565b5b91505092915050565b8273ffffffffffffffffffffffffffffffffffffffff1661261a826114f4565b73ffffffffffffffffffffffffffffffffffffffff1614612670576040517f08c379a000000000000000000000000000000000000000000000000000000000815260040161266790614421565b60405180910390fd5b600073ffffffffffffffffffffffffffffffffffffffff168273ffffffffffffffffffffffffffffffffffffffff1614156126e0576040517f08c379a00000000000000000000000000000000000000000000000000000000081526004016126d7906142a1565b60405180910390fd5b6126eb838383612ce9565b6126f6600082612463565b6001600360008573ffffffffffffffffffffffffffffffffffffffff1673ffffffffffffffffffffffffffffffffffffffff16815260200190815260200160002060008282546127469190614686565b925050819055506001600360008473ffffffffffffffffffffffffffffffffffffffff1673ffffffffffffffffffffffffffffffffffffffff168152602001908152602001600020600082825461279d91906145ff565b92505081905550816002600083815260200190815260200160002060006101000a81548173ffffffffffffffffffffffffffffffffffffffff021916908373ffffffffffffffffffffffffffffffffffffffff160217905550808273ffffffffffffffffffffffffffffffffffffffff168473ffffffffffffffffffffffffffffffffffffffff167fddf252ad1be2c89b69c2b068fc378daa952ba7f163c4a11628f55a4df523b3ef60405160405180910390a4505050565b6060600082141561289e576040518060400160405280600181526020017f300000000000000000000000000000000000000000000000000000000000000081525090506129fe565b600082905060005b600082146128d05780806128b9906147ef565b915050600a826128c99190614655565b91506128a6565b60008167ffffffffffffffff811115612912577f4e487b7100000000000000000000000000000000000000000000000000000000600052604160045260246000fd5b6040519080825280601f01601f1916602001820160405280156129445781602001600182028036833780820191505090505b5090505b600085146129f75760018261295d9190614686565b9150600a8561296c9190614838565b603061297891906145ff565b60f81b8183815181106129b4577f4e487b7100000000000000000000000000000000000000000000000000000000600052603260045260246000fd5b60200101907effffffffffffffffffffffffffffffffffffffffffffffffffffffffffffff1916908160001a905350600a856129f09190614655565b9450612948565b8093505050505b919050565b600081600001549050919050565b612a1c8484846125fa565b612a2884848484613081565b612a67576040517f08c379a0000000000000000000000000000000000000000000000000000000008152600401612a5e90614241565b60405180910390fd5b50505050565b606060405180602001604052806000815250905090565b6060612a8f826123ef565b612ace576040517f08c379a0000000000000000000000000000000000000000000000000000000008152600401612ac590614441565b60405180910390fd5b6000612ad8612a6d565b90506000815111612af85760405180602001604052806000815250612b23565b80612b0284612856565b604051602001612b13929190614097565b6040516020818303038152906040525b915050919050565b6001816000016000828254612b4091906145ff565b9250508190555050565b6000612b563388613218565b612b6087836133e6565b6000604051806101000160405280612b786007612a03565b81526020018781526020013373ffffffffffffffffffffffffffffffffffffffff168152602001600073ffffffffffffffffffffffffffffffffffffffff16815260200185815260200188815260200143815260200186815250905080600b60008a8152602001908152602001600020600082015181600001556020820151816001019080519060200190612c0e92919061346d565b5060408201518160020160006101000a81548173ffffffffffffffffffffffffffffffffffffffff021916908373ffffffffffffffffffffffffffffffffffffffff16021790555060608201518160030160006101000a81548173ffffffffffffffffffffffffffffffffffffffff021916908373ffffffffffffffffffffffffffffffffffffffff1602179055506080820151816004015560a0820151816005015560c0820151816006015560e0820151816007019080519060200190612cd792919061346d565b50905050879150509695505050505050565b6000600b60008381526020019081526020016000206040518061010001604052908160008201548152602001600182018054612d249061478c565b80601f0160208091040260200160405190810160405280929190818152602001828054612d509061478c565b8015612d9d5780601f10612d7257610100808354040283529160200191612d9d565b820191906000526020600020905b815481529060010190602001808311612d8057829003601f168201915b505050505081526020016002820160009054906101000a900473ffffffffffffffffffffffffffffffffffffffff1673ffffffffffffffffffffffffffffffffffffffff1673ffffffffffffffffffffffffffffffffffffffff1681526020016003820160009054906101000a900473ffffffffffffffffffffffffffffffffffffffff1673ffffffffffffffffffffffffffffffffffffffff1673ffffffffffffffffffffffffffffffffffffffff168152602001600482015481526020016005820154815260200160068201548152602001600782018054612e809061478c565b80601f0160208091040260200160405190810160405280929190818152602001828054612eac9061478c565b8015612ef95780601f10612ece57610100808354040283529160200191612ef9565b820191906000526020600020905b815481529060010190602001808311612edc57829003601f168201915b505050505081525050905083816060019073ffffffffffffffffffffffffffffffffffffffff16908173ffffffffffffffffffffffffffffffffffffffff168152505082816040019073ffffffffffffffffffffffffffffffffffffffff16908173ffffffffffffffffffffffffffffffffffffffff168152505080600b6000848152602001908152602001600020600082015181600001556020820151816001019080519060200190612fae92919061346d565b5060408201518160020160006101000a81548173ffffffffffffffffffffffffffffffffffffffff021916908373ffffffffffffffffffffffffffffffffffffffff16021790555060608201518160030160006101000a81548173ffffffffffffffffffffffffffffffffffffffff021916908373ffffffffffffffffffffffffffffffffffffffff1602179055506080820151816004015560a0820151816005015560c0820151816006015560e082015181600701908051906020019061307792919061346d565b5090505050505050565b60006130a28473ffffffffffffffffffffffffffffffffffffffff1661345a565b1561320b578373ffffffffffffffffffffffffffffffffffffffff1663150b7a026130cb61245b565b8786866040518563ffffffff1660e01b81526004016130ed949392919061411c565b602060405180830381600087803b15801561310757600080fd5b505af192505050801561313857506040513d601f19601f8201168201806040525081019061313591906138eb565b60015b6131bb573d8060008114613168576040519150601f19603f3d011682016040523d82523d6000602084013e61316d565b606091505b506000815114156131b3576040517f08c379a00000000000000000000000000000000000000000000000000000000081526004016131aa90614241565b60405180910390fd5b805181602001fd5b63150b7a0260e01b7bffffffffffffffffffffffffffffffffffffffffffffffffffffffff1916817bffffffffffffffffffffffffffffffffffffffffffffffffffffffff191614915050613210565b600190505b949350505050565b600073ffffffffffffffffffffffffffffffffffffffff168273ffffffffffffffffffffffffffffffffffffffff161415613288576040517f08c379a000000000000000000000000000000000000000000000000000000000815260040161327f906143a1565b60405180910390fd5b613291816123ef565b156132d1576040517f08c379a00000000000000000000000000000000000000000000000000000000081526004016132c890614261565b60405180910390fd5b6132dd60008383612ce9565b6001600360008473ffffffffffffffffffffffffffffffffffffffff1673ffffffffffffffffffffffffffffffffffffffff168152602001908152602001600020600082825461332d91906145ff565b92505081905550816002600083815260200190815260200160002060006101000a81548173ffffffffffffffffffffffffffffffffffffffff021916908373ffffffffffffffffffffffffffffffffffffffff160217905550808273ffffffffffffffffffffffffffffffffffffffff16600073ffffffffffffffffffffffffffffffffffffffff167fddf252ad1be2c89b69c2b068fc378daa952ba7f163c4a11628f55a4df523b3ef60405160405180910390a45050565b6133ef826123ef565b61342e576040517f08c379a000000000000000000000000000000000000000000000000000000000815260040161342590614361565b60405180910390fd5b8060066000848152602001908152602001600020908051906020019061345592919061346d565b505050565b600080823b905060008111915050919050565b8280546134799061478c565b90600052602060002090601f01602090048101928261349b57600085556134e2565b82601f106134b457805160ff19168380011785556134e2565b828001600101855582156134e2579182015b828111156134e15782518255916020019190600101906134c6565b5b5090506134ef9190613587565b5090565b6040518061010001604052806000815260200160608152602001600073ffffffffffffffffffffffffffffffffffffffff168152602001600073ffffffffffffffffffffffffffffffffffffffff168152602001600081526020016000815260200160008152602001606081525090565b604051806060016040528060008152602001600081526020016000151581525090565b5b808211156135a0576000816000905550600101613588565b5090565b60006135b76135b28461453e565b614519565b9050828152602081018484840111156135cf57600080fd5b6135da84828561474a565b509392505050565b60006135f56135f08461456f565b614519565b90508281526020810184848401111561360d57600080fd5b61361884828561474a565b509392505050565b60008135905061362f81614e84565b92915050565b60008135905061364481614e9b565b92915050565b60008151905061365981614eb2565b92915050565b60008135905061366e81614ec9565b92915050565b60008151905061368381614ec9565b92915050565b600082601f83011261369a57600080fd5b81356136aa8482602086016135a4565b91505092915050565b600082601f8301126136c457600080fd5b81356136d48482602086016135e2565b91505092915050565b6000813590506136ec81614ee0565b92915050565b60006020828403121561370457600080fd5b600061371284828501613620565b91505092915050565b6000806040838503121561372e57600080fd5b600061373c85828601613620565b925050602061374d85828601613620565b9150509250929050565b60008060006060848603121561376c57600080fd5b600061377a86828701613620565b935050602061378b86828701613620565b925050604061379c868287016136dd565b9150509250925092565b600080600080608085870312156137bc57600080fd5b60006137ca87828801613620565b94505060206137db87828801613620565b93505060406137ec878288016136dd565b925050606085013567ffffffffffffffff81111561380957600080fd5b61381587828801613689565b91505092959194509250565b6000806040838503121561383457600080fd5b600061384285828601613620565b925050602061385385828601613635565b9150509250929050565b6000806040838503121561387057600080fd5b600061387e85828601613620565b925050602061388f858286016136dd565b9150509250929050565b6000602082840312156138ab57600080fd5b60006138b98482850161364a565b91505092915050565b6000602082840312156138d457600080fd5b60006138e28482850161365f565b91505092915050565b6000602082840312156138fd57600080fd5b600061390b84828501613674565b91505092915050565b60006020828403121561392657600080fd5b600082013567ffffffffffffffff81111561394057600080fd5b61394c848285016136b3565b91505092915050565b6000806000806080858703121561396b57600080fd5b600085013567ffffffffffffffff81111561398557600080fd5b613991878288016136b3565b945050602085013567ffffffffffffffff8111156139ae57600080fd5b6139ba878288016136b3565b93505060406139cb878288016136dd565b92505060606139dc878288016136dd565b91505092959194509250565b6000602082840312156139fa57600080fd5b6000613a08848285016136dd565b91505092915050565b60008060008060808587031215613a2757600080fd5b6000613a35878288016136dd565b945050602085013567ffffffffffffffff811115613a5257600080fd5b613a5e878288016136b3565b935050604085013567ffffffffffffffff811115613a7b57600080fd5b613a87878288016136b3565b925050606085013567ffffffffffffffff811115613aa457600080fd5b613ab0878288016136b3565b91505092959194509250565b60008060408385031215613acf57600080fd5b6000613add858286016136dd565b9250506020613aee858286016136dd565b9150509250929050565b613b01816146cc565b82525050565b613b10816146ba565b82525050565b613b1f816146de565b82525050565b613b2e816146de565b82525050565b613b3d816146ea565b82525050565b6000613b4e826145a0565b613b5881856145b6565b9350613b68818560208601614759565b613b7181614925565b840191505092915050565b6000613b87826145a0565b613b9181856145c7565b9350613ba1818560208601614759565b80840191505092915050565b6000613bb8826145ab565b613bc281856145d2565b9350613bd2818560208601614759565b613bdb81614925565b840191505092915050565b6000613bf1826145ab565b613bfb81856145e3565b9350613c0b818560208601614759565b613c1481614925565b840191505092915050565b6000613c2a826145ab565b613c3481856145f4565b9350613c44818560208601614759565b80840191505092915050565b6000613c5d6015836145e3565b9150613c6882614936565b602082019050919050565b6000613c806032836145e3565b9150613c8b8261495f565b604082019050919050565b6000613ca3601c836145e3565b9150613cae826149ae565b602082019050919050565b6000613cc66016836145e3565b9150613cd1826149d7565b602082019050919050565b6000613ce96024836145e3565b9150613cf482614a00565b604082019050919050565b6000613d0c6019836145e3565b9150613d1782614a4f565b602082019050919050565b6000613d2f602c836145e3565b9150613d3a82614a78565b604082019050919050565b6000613d526038836145e3565b9150613d5d82614ac7565b604082019050919050565b6000613d75602a836145e3565b9150613d8082614b16565b604082019050919050565b6000613d986029836145e3565b9150613da382614b65565b604082019050919050565b6000613dbb602e836145e3565b9150613dc682614bb4565b604082019050919050565b6000613dde6013836145e3565b9150613de982614c03565b602082019050919050565b6000613e016020836145e3565b9150613e0c82614c2c565b602082019050919050565b6000613e246031836145e3565b9150613e2f82614c55565b604082019050919050565b6000613e47602c836145e3565b9150613e5282614ca4565b604082019050919050565b6000613e6a6014836145e3565b9150613e7582614cf3565b602082019050919050565b6000613e8d6029836145e3565b9150613e9882614d1c565b604082019050919050565b6000613eb0602f836145e3565b9150613ebb82614d6b565b604082019050919050565b6000613ed36021836145e3565b9150613ede82614dba565b604082019050919050565b6000613ef66000836145c7565b9150613f0182614e09565b600082019050919050565b6000613f196031836145e3565b9150613f2482614e0c565b604082019050919050565b6000613f3c600c836145e3565b9150613f4782614e5b565b602082019050919050565b600061010083016000830151613f6b600086018261404b565b5060208301518482036020860152613f838282613bad565b9150506040830151613f986040860182613af8565b506060830151613fab6060860182613af8565b506080830151613fbe608086018261404b565b5060a0830151613fd160a086018261404b565b5060c0830151613fe460c086018261404b565b5060e083015184820360e0860152613ffc8282613bad565b9150508091505092915050565b60608201600082015161401f600085018261404b565b506020820151614032602085018261404b565b5060408201516140456040850182613b16565b50505050565b61405481614740565b82525050565b61406381614740565b82525050565b60006140758284613b7c565b915081905092915050565b600061408c8284613c1f565b915081905092915050565b60006140a38285613c1f565b91506140af8284613c1f565b91508190509392505050565b60006140c78286613c1f565b91506140d38285613c1f565b91506140df8284613c1f565b9150819050949350505050565b60006140f782613ee9565b9150819050919050565b60006020820190506141166000830184613b07565b92915050565b60006080820190506141316000830187613b07565b61413e6020830186613b07565b61414b604083018561405a565b818103606083015261415d8184613b43565b905095945050505050565b600060208201905061417d6000830184613b25565b92915050565b60006040820190506141986000830185613b25565b6141a56020830184613b34565b9392505050565b600060208201905081810360008301526141c68184613be6565b905092915050565b600060808201905081810360008301526141e88187613be6565b90506141f7602083018661405a565b81810360408301526142098185613be6565b9050614218606083018461405a565b95945050505050565b6000602082019050818103600083015261423a81613c50565b9050919050565b6000602082019050818103600083015261425a81613c73565b9050919050565b6000602082019050818103600083015261427a81613c96565b9050919050565b6000602082019050818103600083015261429a81613cb9565b9050919050565b600060208201905081810360008301526142ba81613cdc565b9050919050565b600060208201905081810360008301526142da81613cff565b9050919050565b600060208201905081810360008301526142fa81613d22565b9050919050565b6000602082019050818103600083015261431a81613d45565b9050919050565b6000602082019050818103600083015261433a81613d68565b9050919050565b6000602082019050818103600083015261435a81613d8b565b9050919050565b6000602082019050818103600083015261437a81613dae565b9050919050565b6000602082019050818103600083015261439a81613dd1565b9050919050565b600060208201905081810360008301526143ba81613df4565b9050919050565b600060208201905081810360008301526143da81613e17565b9050919050565b600060208201905081810360008301526143fa81613e3a565b9050919050565b6000602082019050818103600083015261441a81613e5d565b9050919050565b6000602082019050818103600083015261443a81613e80565b9050919050565b6000602082019050818103600083015261445a81613ea3565b9050919050565b6000602082019050818103600083015261447a81613ec6565b9050919050565b6000602082019050818103600083015261449a81613f0c565b9050919050565b600060208201905081810360008301526144ba81613f2f565b9050919050565b600060208201905081810360008301526144db8184613f52565b905092915050565b60006060820190506144f86000830184614009565b92915050565b6000602082019050614513600083018461405a565b92915050565b6000614523614534565b905061452f82826147be565b919050565b6000604051905090565b600067ffffffffffffffff821115614559576145586148f6565b5b61456282614925565b9050602081019050919050565b600067ffffffffffffffff82111561458a576145896148f6565b5b61459382614925565b9050602081019050919050565b600081519050919050565b600081519050919050565b600082825260208201905092915050565b600081905092915050565b600082825260208201905092915050565b600082825260208201905092915050565b600081905092915050565b600061460a82614740565b915061461583614740565b9250827fffffffffffffffffffffffffffffffffffffffffffffffffffffffffffffffff0382111561464a57614649614869565b5b828201905092915050565b600061466082614740565b915061466b83614740565b92508261467b5761467a614898565b5b828204905092915050565b600061469182614740565b915061469c83614740565b9250828210156146af576146ae614869565b5b828203905092915050565b60006146c582614720565b9050919050565b60006146d782614720565b9050919050565b60008115159050919050565b6000819050919050565b60007fffffffff0000000000000000000000000000000000000000000000000000000082169050919050565b600073ffffffffffffffffffffffffffffffffffffffff82169050919050565b6000819050919050565b82818337600083830152505050565b60005b8381101561477757808201518184015260208101905061475c565b83811115614786576000848401525b50505050565b600060028204905060018216806147a457607f821691505b602082108114156147b8576147b76148c7565b5b50919050565b6147c782614925565b810181811067ffffffffffffffff821117156147e6576147e56148f6565b5b80604052505050565b60006147fa82614740565b91507fffffffffffffffffffffffffffffffffffffffffffffffffffffffffffffffff82141561482d5761482c614869565b5b600182019050919050565b600061484382614740565b915061484e83614740565b92508261485e5761485d614898565b5b828206905092915050565b7f4e487b7100000000000000000000000000000000000000000000000000000000600052601160045260246000fd5b7f4e487b7100000000000000000000000000000000000000000000000000000000600052601260045260246000fd5b7f4e487b7100000000000000000000000000000000000000000000000000000000600052602260045260246000fd5b7f4e487b7100000000000000000000000000000000000000000000000000000000600052604160045260246000fd5b6000601f19601f8301169050919050565b7f546f6c6572616e63652063616e6e6f7420626520300000000000000000000000600082015250565b7f4552433732313a207472616e7366657220746f206e6f6e20455243373231526560008201527f63656976657220696d706c656d656e7465720000000000000000000000000000602082015250565b7f4552433732313a20746f6b656e20616c7265616479206d696e74656400000000600082015250565b7f6f6e6c79207468652068617368696d61206f776e657200000000000000000000600082015250565b7f4552433732313a207472616e7366657220746f20746865207a65726f2061646460008201527f7265737300000000000000000000000000000000000000000000000000000000602082015250565b7f4552433732313a20617070726f766520746f2063616c6c657200000000000000600082015250565b7f4552433732313a206f70657261746f7220717565727920666f72206e6f6e657860008201527f697374656e7420746f6b656e0000000000000000000000000000000000000000602082015250565b7f4552433732313a20617070726f76652063616c6c6572206973206e6f74206f7760008201527f6e6572206e6f7220617070726f76656420666f7220616c6c0000000000000000602082015250565b7f4552433732313a2062616c616e636520717565727920666f7220746865207a6560008201527f726f206164647265737300000000000000000000000000000000000000000000602082015250565b7f4552433732313a206f776e657220717565727920666f72206e6f6e657869737460008201527f656e7420746f6b656e0000000000000000000000000000000000000000000000602082015250565b7f45524337323155524953746f726167653a2055524920736574206f66206e6f6e60008201527f6578697374656e7420746f6b656e000000000000000000000000000000000000602082015250565b7f746f6c6572616e63652069732065787069726500000000000000000000000000600082015250565b7f4552433732313a206d696e7420746f20746865207a65726f2061646472657373600082015250565b7f45524337323155524953746f726167653a2055524920717565727920666f722060008201527f6e6f6e6578697374656e7420746f6b656e000000000000000000000000000000602082015250565b7f4552433732313a20617070726f76656420717565727920666f72206e6f6e657860008201527f697374656e7420746f6b656e0000000000000000000000000000000000000000602082015250565b7f70726963652068617320746f2062652068696768000000000000000000000000600082015250565b7f4552433732313a207472616e73666572206f6620746f6b656e2074686174206960008201527f73206e6f74206f776e0000000000000000000000000000000000000000000000602082015250565b7f4552433732314d657461646174613a2055524920717565727920666f72206e6f60008201527f6e6578697374656e7420746f6b656e0000000000000000000000000000000000602082015250565b7f4552433732313a20617070726f76616c20746f2063757272656e74206f776e6560008201527f7200000000000000000000000000000000000000000000000000000000000000602082015250565b50565b7f4552433732313a207472616e736665722063616c6c6572206973206e6f74206f60008201527f776e6572206e6f7220617070726f766564000000000000000000000000000000602082015250565b7f6e616d6520697320627573790000000000000000000000000000000000000000600082015250565b614e8d816146ba565b8114614e9857600080fd5b50565b614ea4816146de565b8114614eaf57600080fd5b50565b614ebb816146ea565b8114614ec657600080fd5b50565b614ed2816146f4565b8114614edd57600080fd5b50565b614ee981614740565b8114614ef457600080fd5b5056fea2646970667358221220d9652bba30e018425c177dc355b1ca43999f05721b26dc89824f1617a4c18b6364736f6c63430008030033",
  "immutableReferences": {},
  "source": "// SPDX-License-Identifier: MIT\npragma solidity ^0.8.0;\n\nimport \"@openzeppelin/contracts/token/ERC721/extensions/ERC721URIStorage.sol\";\nimport \"@openzeppelin/contracts/utils/Counters.sol\";\nimport \"@openzeppelin/contracts/access/Ownable.sol\";\nimport \"./ERC721Hashima.sol\";\nimport \"./IHashima.sol\";\n\n\ncontract Hashima is ERC721Hashima{\n   \n\n    constructor() ERC721(\"Hashima\", \"HASHIMA\") {}\n\n    \n    struct Market{\n        uint256 hashima_id;\n        uint256 price;\n        bool forSale;\n    }\n\n    mapping(uint256=>Market) marketList;\n\n    function getMarket(uint256 _tokenId)public view returns(Market memory){\n        return marketList[_tokenId];\n    }\n \n    function buyToken(uint256 _tokenId) public payable returns(bool){\n        require(msg.sender != address(0));\n        require(_exists(_tokenId));\n        address tokenOwner = ownerOf(_tokenId);\n        require(tokenOwner != address(0));\n        // the one who wants to buy the token should not be the token's owner\n        require(tokenOwner != msg.sender);\n        // get that token from all hashimas mapping and create a memory of it defined as (struct => Hashi)\n        Market memory marketState = marketList[_tokenId];\n\n        Hashi memory hashima=_hashis[_tokenId];\n\n        require(msg.value >= marketState.price,'price has to be high');\n        \n        require(marketState.forSale);\n        // transfer the token from owner to the caller of the function (buyer)\n        _transfer(tokenOwner, msg.sender, _tokenId);\n        // get owner of the token\n        address payable sendTo = hashima.currentOwner;\n        // send token's worth of ethers to the owner\n        (bool sent, ) = sendTo.call{value: msg.value}(\"\");\n\n        // update the token's previous owner\n        hashima.previousOwner = hashima.currentOwner;\n        // update the token's current owner\n        hashima.currentOwner =payable(msg.sender);\n\n        marketState.forSale=false;\n        // set and update that token in the mapping\n        _hashis[_tokenId] = hashima;\n        marketList[_tokenId]=marketState;\n\n        return sent;\n    }\n\n\n\n    function toggleForSale(uint256 _tokenId,uint256 _newPrice) public {\n        require(msg.sender != address(0));\n        require(_exists(_tokenId));\n   \n        address tokenOwner = ownerOf(_tokenId);\n        require(tokenOwner == msg.sender,'only the hashima owner');\n\n        // Hashi memory _hashima = _hashis[_tokenId];\n        Market memory _market=marketList[_tokenId];\n\n        if(_market.forSale) {\n            _market.forSale = false;\n        } else {\n            _market.forSale = true;\n            _market.price = _newPrice;\n        }\n        \n        marketList[_tokenId] = _market;\n    }\n\n\n    function changeTokenPrice(uint256 _tokenId, uint256 _newPrice) public {\n\n        require(msg.sender != address(0));\n        require(_exists(_tokenId));\n        \n        address tokenOwner = ownerOf(_tokenId);\n        // check that token's owner should be equal to the caller of the function\n        require(tokenOwner == msg.sender);\n\n        Market memory marketState = marketList[_tokenId];\n        // update token's price with new price\n        marketState.price = _newPrice;\n        // set and update that token in the mapping\n        marketList[_tokenId] = marketState;\n    }\n\n    \n\n\n}",
  "sourcePath": "/Users/aarontolentino/Desktop/Contratos_1/hashima/contracts/Hashima.sol",
  "compiler": {
    "name": "solc",
    "version": "0.8.3+commit.8d00100c.Emscripten.clang"
  },
  "schemaVersion": "3.4.1",
  "updatedAt": "2022-05-13T05:34:37.068Z",
  "networkType": "ethereum",
  "devdoc": {
    "kind": "dev",
    "methods": {
      "approve(address,uint256)": {
        "details": "See {IERC721-approve}."
      },
      "balanceOf(address)": {
        "details": "See {IERC721-balanceOf}."
      },
      "getApproved(uint256)": {
        "details": "See {IERC721-getApproved}."
      },
      "isApprovedForAll(address,address)": {
        "details": "See {IERC721-isApprovedForAll}."
      },
      "name()": {
        "details": "See {IERC721Metadata-name}."
      },
      "ownerOf(uint256)": {
        "details": "See {IERC721-ownerOf}."
      },
      "safeTransferFrom(address,address,uint256)": {
        "details": "See {IERC721-safeTransferFrom}."
      },
      "safeTransferFrom(address,address,uint256,bytes)": {
        "details": "See {IERC721-safeTransferFrom}."
      },
      "setApprovalForAll(address,bool)": {
        "details": "See {IERC721-setApprovalForAll}."
      },
      "supportsInterface(bytes4)": {
        "details": "See {IERC165-supportsInterface}."
      },
      "symbol()": {
        "details": "See {IERC721Metadata-symbol}."
      },
      "tokenURI(uint256)": {
        "details": "See {IERC721Metadata-tokenURI}."
      },
      "transferFrom(address,address,uint256)": {
        "details": "See {IERC721-transferFrom}."
      }
    },
    "version": 1
  },
  "userdoc": {
    "kind": "user",
    "methods": {},
    "version": 1
  }
}