{
  "contractName": "Hashi",
  "abi": [
    {
      "inputs": [],
      "stateMutability": "nonpayable",
      "type": "constructor"
    },
    {
      "anonymous": false,
      "inputs": [
        {
          "indexed": true,
          "internalType": "address",
          "name": "owner",
          "type": "address"
        },
        {
          "indexed": true,
          "internalType": "address",
          "name": "spender",
          "type": "address"
        },
        {
          "indexed": false,
          "internalType": "uint256",
          "name": "value",
          "type": "uint256"
        }
      ],
      "name": "Approval",
      "type": "event"
    },
    {
      "anonymous": false,
      "inputs": [
        {
          "indexed": true,
          "internalType": "address",
          "name": "from",
          "type": "address"
        },
        {
          "indexed": true,
          "internalType": "address",
          "name": "to",
          "type": "address"
        },
        {
          "indexed": false,
          "internalType": "uint256",
          "name": "value",
          "type": "uint256"
        }
      ],
      "name": "Transfer",
      "type": "event"
    },
    {
      "inputs": [
        {
          "internalType": "address",
          "name": "owner",
          "type": "address"
        },
        {
          "internalType": "address",
          "name": "spender",
          "type": "address"
        }
      ],
      "name": "allowance",
      "outputs": [
        {
          "internalType": "uint256",
          "name": "",
          "type": "uint256"
        }
      ],
      "stateMutability": "view",
      "type": "function",
      "constant": true
    },
    {
      "inputs": [
        {
          "internalType": "address",
          "name": "spender",
          "type": "address"
        },
        {
          "internalType": "uint256",
          "name": "amount",
          "type": "uint256"
        }
      ],
      "name": "approve",
      "outputs": [
        {
          "internalType": "bool",
          "name": "",
          "type": "bool"
        }
      ],
      "stateMutability": "nonpayable",
      "type": "function"
    },
    {
      "inputs": [
        {
          "internalType": "address",
          "name": "account",
          "type": "address"
        }
      ],
      "name": "balanceOf",
      "outputs": [
        {
          "internalType": "uint256",
          "name": "",
          "type": "uint256"
        }
      ],
      "stateMutability": "view",
      "type": "function",
      "constant": true
    },
    {
      "inputs": [
        {
          "internalType": "uint256",
          "name": "amount",
          "type": "uint256"
        }
      ],
      "name": "burn",
      "outputs": [],
      "stateMutability": "nonpayable",
      "type": "function"
    },
    {
      "inputs": [
        {
          "internalType": "address",
          "name": "account",
          "type": "address"
        },
        {
          "internalType": "uint256",
          "name": "amount",
          "type": "uint256"
        }
      ],
      "name": "burnFrom",
      "outputs": [],
      "stateMutability": "nonpayable",
      "type": "function"
    },
    {
      "inputs": [
        {
          "internalType": "address",
          "name": "",
          "type": "address"
        },
        {
          "internalType": "address",
          "name": "",
          "type": "address"
        },
        {
          "internalType": "uint256",
          "name": "",
          "type": "uint256"
        }
      ],
      "name": "checkpoints",
      "outputs": [
        {
          "internalType": "uint256",
          "name": "",
          "type": "uint256"
        }
      ],
      "stateMutability": "view",
      "type": "function",
      "constant": true
    },
    {
      "inputs": [],
      "name": "decimals",
      "outputs": [
        {
          "internalType": "uint8",
          "name": "",
          "type": "uint8"
        }
      ],
      "stateMutability": "view",
      "type": "function",
      "constant": true
    },
    {
      "inputs": [
        {
          "internalType": "address",
          "name": "spender",
          "type": "address"
        },
        {
          "internalType": "uint256",
          "name": "subtractedValue",
          "type": "uint256"
        }
      ],
      "name": "decreaseAllowance",
      "outputs": [
        {
          "internalType": "bool",
          "name": "",
          "type": "bool"
        }
      ],
      "stateMutability": "nonpayable",
      "type": "function"
    },
    {
      "inputs": [
        {
          "internalType": "address",
          "name": "",
          "type": "address"
        },
        {
          "internalType": "uint256",
          "name": "",
          "type": "uint256"
        }
      ],
      "name": "has_deposited",
      "outputs": [
        {
          "internalType": "bool",
          "name": "",
          "type": "bool"
        }
      ],
      "stateMutability": "view",
      "type": "function",
      "constant": true
    },
    {
      "inputs": [
        {
          "internalType": "address",
          "name": "spender",
          "type": "address"
        },
        {
          "internalType": "uint256",
          "name": "addedValue",
          "type": "uint256"
        }
      ],
      "name": "increaseAllowance",
      "outputs": [
        {
          "internalType": "bool",
          "name": "",
          "type": "bool"
        }
      ],
      "stateMutability": "nonpayable",
      "type": "function"
    },
    {
      "inputs": [],
      "name": "name",
      "outputs": [
        {
          "internalType": "string",
          "name": "",
          "type": "string"
        }
      ],
      "stateMutability": "view",
      "type": "function",
      "constant": true
    },
    {
      "inputs": [
        {
          "internalType": "address",
          "name": "",
          "type": "address"
        },
        {
          "internalType": "uint256",
          "name": "",
          "type": "uint256"
        }
      ],
      "name": "staking_accounts",
      "outputs": [
        {
          "internalType": "address",
          "name": "",
          "type": "address"
        }
      ],
      "stateMutability": "view",
      "type": "function",
      "constant": true
    },
    {
      "inputs": [],
      "name": "symbol",
      "outputs": [
        {
          "internalType": "string",
          "name": "",
          "type": "string"
        }
      ],
      "stateMutability": "view",
      "type": "function",
      "constant": true
    },
    {
      "inputs": [],
      "name": "totalSupply",
      "outputs": [
        {
          "internalType": "uint256",
          "name": "",
          "type": "uint256"
        }
      ],
      "stateMutability": "view",
      "type": "function",
      "constant": true
    },
    {
      "inputs": [
        {
          "internalType": "address",
          "name": "recipient",
          "type": "address"
        },
        {
          "internalType": "uint256",
          "name": "amount",
          "type": "uint256"
        }
      ],
      "name": "transfer",
      "outputs": [
        {
          "internalType": "bool",
          "name": "",
          "type": "bool"
        }
      ],
      "stateMutability": "nonpayable",
      "type": "function"
    },
    {
      "inputs": [
        {
          "internalType": "address",
          "name": "sender",
          "type": "address"
        },
        {
          "internalType": "address",
          "name": "recipient",
          "type": "address"
        },
        {
          "internalType": "uint256",
          "name": "amount",
          "type": "uint256"
        }
      ],
      "name": "transferFrom",
      "outputs": [
        {
          "internalType": "bool",
          "name": "",
          "type": "bool"
        }
      ],
      "stateMutability": "nonpayable",
      "type": "function"
    },
    {
      "inputs": [
        {
          "internalType": "address",
          "name": "hashima_contract",
          "type": "address"
        },
        {
          "internalType": "uint256",
          "name": "tokenId",
          "type": "uint256"
        }
      ],
      "name": "aprovar",
      "outputs": [],
      "stateMutability": "nonpayable",
      "type": "function"
    },
    {
      "inputs": [
        {
          "internalType": "address",
          "name": "hashima_contract",
          "type": "address"
        },
        {
          "internalType": "uint256",
          "name": "tokenId",
          "type": "uint256"
        }
      ],
      "name": "deposit",
      "outputs": [],
      "stateMutability": "nonpayable",
      "type": "function"
    },
    {
      "inputs": [
        {
          "internalType": "address",
          "name": "hashima_contract",
          "type": "address"
        },
        {
          "internalType": "uint256",
          "name": "tokenId",
          "type": "uint256"
        }
      ],
      "name": "withdraw",
      "outputs": [],
      "stateMutability": "nonpayable",
      "type": "function"
    },
    {
      "inputs": [
        {
          "internalType": "address",
          "name": "hashima_contract",
          "type": "address"
        },
        {
          "internalType": "address",
          "name": "beneficiary",
          "type": "address"
        },
        {
          "internalType": "uint256",
          "name": "tokenId",
          "type": "uint256"
        }
      ],
      "name": "collect",
      "outputs": [],
      "stateMutability": "nonpayable",
      "type": "function"
    },
    {
      "inputs": [
        {
          "internalType": "address",
          "name": "hashima_contract",
          "type": "address"
        },
        {
          "internalType": "uint256",
          "name": "tokenId",
          "type": "uint256"
        }
      ],
      "name": "hashimaOnStaking",
      "outputs": [
        {
          "internalType": "bool",
          "name": "",
          "type": "bool"
        }
      ],
      "stateMutability": "view",
      "type": "function",
      "constant": true
    },
    {
      "inputs": [
        {
          "internalType": "address",
          "name": "hashima_contract",
          "type": "address"
        },
        {
          "internalType": "address",
          "name": "beneficiary",
          "type": "address"
        },
        {
          "internalType": "uint256",
          "name": "tokenId",
          "type": "uint256"
        }
      ],
      "name": "calculateReward",
      "outputs": [
        {
          "internalType": "uint256",
          "name": "",
          "type": "uint256"
        }
      ],
      "stateMutability": "view",
      "type": "function",
      "constant": true
    }
  ],
  "bytecode": "0x60806040523480156200001157600080fd5b506040518060400160405280600581526020017f48617368690000000000000000000000000000000000000000000000000000008152506040518060400160405280600581526020017f4841534849000000000000000000000000000000000000000000000000000000815250816003908051906020019062000096929190620000b8565b508060049080519060200190620000af929190620000b8565b505050620001cd565b828054620000c69062000168565b90600052602060002090601f016020900481019282620000ea576000855562000136565b82601f106200010557805160ff191683800117855562000136565b8280016001018555821562000136579182015b828111156200013557825182559160200191906001019062000118565b5b50905062000145919062000149565b5090565b5b80821115620001645760008160009055506001016200014a565b5090565b600060028204905060018216806200018157607f821691505b602082108114156200019857620001976200019e565b5b50919050565b7f4e487b7100000000000000000000000000000000000000000000000000000000600052602260045260246000fd5b61311080620001dd6000396000f3fe608060405234801561001057600080fd5b50600436106101425760003560e01c806379cc6790116100b8578063aa2263e61161007c578063aa2263e6146103c3578063c8fea2fb146103f3578063dd62ed3e1461040f578063f12005a11461043f578063f3fef3a31461045b578063f4a5453a1461047757610142565b806379cc6790146102f957806395d89b41146103155780639f0fbd2a14610333578063a457c2d714610363578063a9059cbb1461039357610142565b806323b872dd1161010a57806323b872dd14610213578063313ce56714610243578063395093511461026157806342966c681461029157806347e7ef24146102ad57806370a08231146102c957610142565b806306fdde0314610147578063075b599e14610165578063095ea7b31461019557806310597be6146101c557806318160ddd146101f5575b600080fd5b61014f6104a7565b60405161015c919061264d565b60405180910390f35b61017f600480360381019061017a91906120cf565b610539565b60405161018c919061286f565b60405180910390f35b6101af60048036038101906101aa919061211e565b61072f565b6040516101bc9190612632565b60405180910390f35b6101df60048036038101906101da91906120cf565b61074d565b6040516101ec919061286f565b60405180910390f35b6101fd61077f565b60405161020a919061286f565b60405180910390f35b61022d600480360381019061022891906120cf565b610789565b60405161023a9190612632565b60405180910390f35b61024b610881565b604051610258919061288a565b60405180910390f35b61027b6004803603810190610276919061211e565b61088a565b6040516102889190612632565b60405180910390f35b6102ab60048036038101906102a69190612216565b610936565b005b6102c760048036038101906102c2919061211e565b61094a565b005b6102e360048036038101906102de9190612041565b610dcc565b6040516102f0919061286f565b60405180910390f35b610313600480360381019061030e919061211e565b610e14565b005b61031d610e8f565b60405161032a919061264d565b60405180910390f35b61034d6004803603810190610348919061211e565b610f21565b60405161035a91906125b7565b60405180910390f35b61037d6004803603810190610378919061211e565b610f63565b60405161038a9190612632565b60405180910390f35b6103ad60048036038101906103a8919061211e565b61104e565b6040516103ba9190612632565b60405180910390f35b6103dd60048036038101906103d8919061211e565b61106c565b6040516103ea9190612632565b60405180910390f35b61040d600480360381019061040891906120cf565b6110d4565b005b61042960048036038101906104249190612093565b611185565b604051610436919061286f565b60405180910390f35b6104596004803603810190610454919061211e565b61120c565b005b6104756004803603810190610470919061211e565b61127d565b005b610491600480360381019061048c919061211e565b6114df565b60405161049e9190612632565b60405180910390f35b6060600380546104b690612adf565b80601f01602080910402602001604051908101604052809291908181526020018280546104e290612adf565b801561052f5780601f106105045761010080835404028352916020019161052f565b820191906000526020600020905b81548152906001019060200180831161051257829003601f168201915b5050505050905090565b6000600660008573ffffffffffffffffffffffffffffffffffffffff1673ffffffffffffffffffffffffffffffffffffffff168152602001908152602001600020600083815260200190815260200160002060009054906101000a900460ff166105a65760009050610728565b60008473ffffffffffffffffffffffffffffffffffffffff1663adf04f20846040518263ffffffff1660e01b81526004016105e1919061286f565b60206040518083038186803b1580156105f957600080fd5b505afa15801561060d573d6000803e3d6000fd5b505050506040513d601f19601f82011682018060405250810190610631919061223f565b9050600081604068056bc75e2d6310000084858661064f91906129bf565b61065991906129bf565b61066391906129bf565b61066d919061298e565b6106779190612a19565b90506000600560008873ffffffffffffffffffffffffffffffffffffffff1673ffffffffffffffffffffffffffffffffffffffff16815260200190815260200160002060008773ffffffffffffffffffffffffffffffffffffffff1673ffffffffffffffffffffffffffffffffffffffff168152602001908152602001600020600086815260200190815260200160002054905080436107179190612a19565b8261072291906129bf565b93505050505b9392505050565b600061074361073c61150e565b8484611516565b6001905092915050565b600560205282600052604060002060205281600052604060002060205280600052604060002060009250925050505481565b6000600254905090565b60006107968484846116e1565b6000600160008673ffffffffffffffffffffffffffffffffffffffff1673ffffffffffffffffffffffffffffffffffffffff16815260200190815260200160002060006107e161150e565b73ffffffffffffffffffffffffffffffffffffffff1673ffffffffffffffffffffffffffffffffffffffff16815260200190815260200160002054905082811015610861576040517f08c379a00000000000000000000000000000000000000000000000000000000081526004016108589061278f565b60405180910390fd5b6108758561086d61150e565b858403611516565b60019150509392505050565b60006012905090565b600061092c61089761150e565b8484600160006108a561150e565b73ffffffffffffffffffffffffffffffffffffffff1673ffffffffffffffffffffffffffffffffffffffff16815260200190815260200160002060008873ffffffffffffffffffffffffffffffffffffffff1673ffffffffffffffffffffffffffffffffffffffff168152602001908152602001600020546109279190612938565b611516565b6001905092915050565b61094761094161150e565b82611962565b50565b8173ffffffffffffffffffffffffffffffffffffffff16636352211e826040518263ffffffff1660e01b8152600401610983919061286f565b60206040518083038186803b15801561099b57600080fd5b505afa1580156109af573d6000803e3d6000fd5b505050506040513d601f19601f820116820180604052508101906109d3919061206a565b73ffffffffffffffffffffffffffffffffffffffff163373ffffffffffffffffffffffffffffffffffffffff1614610a40576040517f08c379a0000000000000000000000000000000000000000000000000000000008152600401610a379061272f565b60405180910390fd5b600660008373ffffffffffffffffffffffffffffffffffffffff1673ffffffffffffffffffffffffffffffffffffffff168152602001908152602001600020600082815260200190815260200160002060009054906101000a900460ff1615610ade576040517f08c379a0000000000000000000000000000000000000000000000000000000008152600401610ad59061276f565b60405180910390fd5b6000806000808573ffffffffffffffffffffffffffffffffffffffff16635c95f4fa866040518263ffffffff1660e01b8152600401610b1d919061286f565b60006040518083038186803b158015610b3557600080fd5b505afa158015610b49573d6000803e3d6000fd5b505050506040513d6000823e3d601f19601f82011682018060405250810190610b729190612183565b93509350935093506000610b8885848487611b39565b905080610bca576040517f08c379a0000000000000000000000000000000000000000000000000000000008152600401610bc1906126cf565b60405180910390fd5b43600560008973ffffffffffffffffffffffffffffffffffffffff1673ffffffffffffffffffffffffffffffffffffffff16815260200190815260200160002060003373ffffffffffffffffffffffffffffffffffffffff1673ffffffffffffffffffffffffffffffffffffffff16815260200190815260200160002060008881526020019081526020016000208190555033600760008973ffffffffffffffffffffffffffffffffffffffff1673ffffffffffffffffffffffffffffffffffffffff168152602001908152602001600020600088815260200190815260200160002060006101000a81548173ffffffffffffffffffffffffffffffffffffffff021916908373ffffffffffffffffffffffffffffffffffffffff1602179055506001600660008973ffffffffffffffffffffffffffffffffffffffff1673ffffffffffffffffffffffffffffffffffffffff168152602001908152602001600020600088815260200190815260200160002060006101000a81548160ff0219169083151502179055508673ffffffffffffffffffffffffffffffffffffffff166323b872dd3330896040518463ffffffff1660e01b8152600401610d91939291906125d2565b600060405180830381600087803b158015610dab57600080fd5b505af1158015610dbf573d6000803e3d6000fd5b5050505050505050505050565b60008060008373ffffffffffffffffffffffffffffffffffffffff1673ffffffffffffffffffffffffffffffffffffffff168152602001908152602001600020549050919050565b6000610e2783610e2261150e565b611185565b905081811015610e6c576040517f08c379a0000000000000000000000000000000000000000000000000000000008152600401610e63906127af565b60405180910390fd5b610e8083610e7861150e565b848403611516565b610e8a8383611962565b505050565b606060048054610e9e90612adf565b80601f0160208091040260200160405190810160405280929190818152602001828054610eca90612adf565b8015610f175780601f10610eec57610100808354040283529160200191610f17565b820191906000526020600020905b815481529060010190602001808311610efa57829003601f168201915b5050505050905090565b60076020528160005260406000206020528060005260406000206000915091509054906101000a900473ffffffffffffffffffffffffffffffffffffffff1681565b60008060016000610f7261150e565b73ffffffffffffffffffffffffffffffffffffffff1673ffffffffffffffffffffffffffffffffffffffff16815260200190815260200160002060008573ffffffffffffffffffffffffffffffffffffffff1673ffffffffffffffffffffffffffffffffffffffff1681526020019081526020016000205490508281101561102f576040517f08c379a00000000000000000000000000000000000000000000000000000000081526004016110269061282f565b60405180910390fd5b61104361103a61150e565b85858403611516565b600191505092915050565b600061106261105b61150e565b84846116e1565b6001905092915050565b6000600660008473ffffffffffffffffffffffffffffffffffffffff1673ffffffffffffffffffffffffffffffffffffffff168152602001908152602001600020600083815260200190815260200160002060009054906101000a900460ff16905092915050565b60006110e1848484610539565b905043600560008673ffffffffffffffffffffffffffffffffffffffff1673ffffffffffffffffffffffffffffffffffffffff16815260200190815260200160002060008573ffffffffffffffffffffffffffffffffffffffff1673ffffffffffffffffffffffffffffffffffffffff16815260200190815260200160002060008481526020019081526020016000208190555061117f3382611c59565b50505050565b6000600160008473ffffffffffffffffffffffffffffffffffffffff1673ffffffffffffffffffffffffffffffffffffffff16815260200190815260200160002060008373ffffffffffffffffffffffffffffffffffffffff1673ffffffffffffffffffffffffffffffffffffffff16815260200190815260200160002054905092915050565b8173ffffffffffffffffffffffffffffffffffffffff1663095ea7b330836040518363ffffffff1660e01b8152600401611247929190612609565b600060405180830381600087803b15801561126157600080fd5b505af1158015611275573d6000803e3d6000fd5b505050505050565b600660008373ffffffffffffffffffffffffffffffffffffffff1673ffffffffffffffffffffffffffffffffffffffff168152602001908152602001600020600082815260200190815260200160002060009054906101000a900460ff1661131a576040517f08c379a00000000000000000000000000000000000000000000000000000000081526004016113119061270f565b60405180910390fd5b3373ffffffffffffffffffffffffffffffffffffffff16600760008473ffffffffffffffffffffffffffffffffffffffff1673ffffffffffffffffffffffffffffffffffffffff168152602001908152602001600020600083815260200190815260200160002060009054906101000a900473ffffffffffffffffffffffffffffffffffffffff1673ffffffffffffffffffffffffffffffffffffffff16146113f8576040517f08c379a00000000000000000000000000000000000000000000000000000000081526004016113ef9061268f565b60405180910390fd5b6114038233836110d4565b8173ffffffffffffffffffffffffffffffffffffffff166323b872dd3033846040518463ffffffff1660e01b8152600401611440939291906125d2565b600060405180830381600087803b15801561145a57600080fd5b505af115801561146e573d6000803e3d6000fd5b505050506000600660008473ffffffffffffffffffffffffffffffffffffffff1673ffffffffffffffffffffffffffffffffffffffff168152602001908152602001600020600083815260200190815260200160002060006101000a81548160ff0219169083151502179055505050565b60066020528160005260406000206020528060005260406000206000915091509054906101000a900460ff1681565b600033905090565b600073ffffffffffffffffffffffffffffffffffffffff168373ffffffffffffffffffffffffffffffffffffffff161415611586576040517f08c379a000000000000000000000000000000000000000000000000000000000815260040161157d9061280f565b60405180910390fd5b600073ffffffffffffffffffffffffffffffffffffffff168273ffffffffffffffffffffffffffffffffffffffff1614156115f6576040517f08c379a00000000000000000000000000000000000000000000000000000000081526004016115ed906126ef565b60405180910390fd5b80600160008573ffffffffffffffffffffffffffffffffffffffff1673ffffffffffffffffffffffffffffffffffffffff16815260200190815260200160002060008473ffffffffffffffffffffffffffffffffffffffff1673ffffffffffffffffffffffffffffffffffffffff168152602001908152602001600020819055508173ffffffffffffffffffffffffffffffffffffffff168373ffffffffffffffffffffffffffffffffffffffff167f8c5be1e5ebec7d5bd14f71427d1e84f3dd0314c0f7b2291e5b200ac8c7c3b925836040516116d4919061286f565b60405180910390a3505050565b600073ffffffffffffffffffffffffffffffffffffffff168373ffffffffffffffffffffffffffffffffffffffff161415611751576040517f08c379a0000000000000000000000000000000000000000000000000000000008152600401611748906127ef565b60405180910390fd5b600073ffffffffffffffffffffffffffffffffffffffff168273ffffffffffffffffffffffffffffffffffffffff1614156117c1576040517f08c379a00000000000000000000000000000000000000000000000000000000081526004016117b89061266f565b60405180910390fd5b6117cc838383611db9565b60008060008573ffffffffffffffffffffffffffffffffffffffff1673ffffffffffffffffffffffffffffffffffffffff16815260200190815260200160002054905081811015611852576040517f08c379a00000000000000000000000000000000000000000000000000000000081526004016118499061274f565b60405180910390fd5b8181036000808673ffffffffffffffffffffffffffffffffffffffff1673ffffffffffffffffffffffffffffffffffffffff16815260200190815260200160002081905550816000808573ffffffffffffffffffffffffffffffffffffffff1673ffffffffffffffffffffffffffffffffffffffff16815260200190815260200160002060008282546118e59190612938565b925050819055508273ffffffffffffffffffffffffffffffffffffffff168473ffffffffffffffffffffffffffffffffffffffff167fddf252ad1be2c89b69c2b068fc378daa952ba7f163c4a11628f55a4df523b3ef84604051611949919061286f565b60405180910390a361195c848484611dbe565b50505050565b600073ffffffffffffffffffffffffffffffffffffffff168273ffffffffffffffffffffffffffffffffffffffff1614156119d2576040517f08c379a00000000000000000000000000000000000000000000000000000000081526004016119c9906127cf565b60405180910390fd5b6119de82600083611db9565b60008060008473ffffffffffffffffffffffffffffffffffffffff1673ffffffffffffffffffffffffffffffffffffffff16815260200190815260200160002054905081811015611a64576040517f08c379a0000000000000000000000000000000000000000000000000000000008152600401611a5b906126af565b60405180910390fd5b8181036000808573ffffffffffffffffffffffffffffffffffffffff1673ffffffffffffffffffffffffffffffffffffffff168152602001908152602001600020819055508160026000828254611abb9190612a19565b92505081905550600073ffffffffffffffffffffffffffffffffffffffff168373ffffffffffffffffffffffffffffffffffffffff167fddf252ad1be2c89b69c2b068fc378daa952ba7f163c4a11628f55a4df523b3ef84604051611b20919061286f565b60405180910390a3611b3483600084611dbe565b505050565b60008060028686611b4987611dc3565b604051602001611b5b93929190612586565b604051602081830303815290604052604051611b77919061256f565b602060405180830381855afa158015611b94573d6000803e3d6000fd5b5050506040513d601f19601f82011682018060405250810190611bb7919061215a565b905060006001905060005b84811015611c4b57600060f81b838260208110611c08577f4e487b7100000000000000000000000000000000000000000000000000000000600052603260045260246000fd5b1a60f81b7effffffffffffffffffffffffffffffffffffffffffffffffffffffffffffff191614611c3857600091505b8080611c4390612b42565b915050611bc2565b508092505050949350505050565b600073ffffffffffffffffffffffffffffffffffffffff168273ffffffffffffffffffffffffffffffffffffffff161415611cc9576040517f08c379a0000000000000000000000000000000000000000000000000000000008152600401611cc09061284f565b60405180910390fd5b611cd560008383611db9565b8060026000828254611ce79190612938565b92505081905550806000808473ffffffffffffffffffffffffffffffffffffffff1673ffffffffffffffffffffffffffffffffffffffff1681526020019081526020016000206000828254611d3c9190612938565b925050819055508173ffffffffffffffffffffffffffffffffffffffff16600073ffffffffffffffffffffffffffffffffffffffff167fddf252ad1be2c89b69c2b068fc378daa952ba7f163c4a11628f55a4df523b3ef83604051611da1919061286f565b60405180910390a3611db560008383611dbe565b5050565b505050565b505050565b60606000821415611e0b576040518060400160405280600181526020017f30000000000000000000000000000000000000000000000000000000000000008152509050611f6b565b600082905060005b60008214611e3d578080611e2690612b42565b915050600a82611e36919061298e565b9150611e13565b60008167ffffffffffffffff811115611e7f577f4e487b7100000000000000000000000000000000000000000000000000000000600052604160045260246000fd5b6040519080825280601f01601f191660200182016040528015611eb15781602001600182028036833780820191505090505b5090505b60008514611f6457600182611eca9190612a19565b9150600a85611ed99190612b8b565b6030611ee59190612938565b60f81b818381518110611f21577f4e487b7100000000000000000000000000000000000000000000000000000000600052603260045260246000fd5b60200101907effffffffffffffffffffffffffffffffffffffffffffffffffffffffffffff1916908160001a905350600a85611f5d919061298e565b9450611eb5565b8093505050505b919050565b6000611f83611f7e846128ca565b6128a5565b905082815260208101848484011115611f9b57600080fd5b611fa6848285612aac565b509392505050565b600081359050611fbd81613095565b92915050565b600081519050611fd281613095565b92915050565b600081519050611fe7816130ac565b92915050565b600082601f830112611ffe57600080fd5b815161200e848260208601611f70565b91505092915050565b600081359050612026816130c3565b92915050565b60008151905061203b816130c3565b92915050565b60006020828403121561205357600080fd5b600061206184828501611fae565b91505092915050565b60006020828403121561207c57600080fd5b600061208a84828501611fc3565b91505092915050565b600080604083850312156120a657600080fd5b60006120b485828601611fae565b92505060206120c585828601611fae565b9150509250929050565b6000806000606084860312156120e457600080fd5b60006120f286828701611fae565b935050602061210386828701611fae565b925050604061211486828701612017565b9150509250925092565b6000806040838503121561213157600080fd5b600061213f85828601611fae565b925050602061215085828601612017565b9150509250929050565b60006020828403121561216c57600080fd5b600061217a84828501611fd8565b91505092915050565b6000806000806080858703121561219957600080fd5b600085015167ffffffffffffffff8111156121b357600080fd5b6121bf87828801611fed565b94505060206121d08782880161202c565b935050604085015167ffffffffffffffff8111156121ed57600080fd5b6121f987828801611fed565b925050606061220a8782880161202c565b91505092959194509250565b60006020828403121561222857600080fd5b600061223684828501612017565b91505092915050565b60006020828403121561225157600080fd5b600061225f8482850161202c565b91505092915050565b61227181612a4d565b82525050565b61228081612a5f565b82525050565b6000612291826128fb565b61229b8185612911565b93506122ab818560208601612aac565b80840191505092915050565b60006122c282612906565b6122cc818561291c565b93506122dc818560208601612aac565b6122e581612c78565b840191505092915050565b60006122fb82612906565b612305818561292d565b9350612315818560208601612aac565b80840191505092915050565b600061232e60238361291c565b915061233982612c89565b604082019050919050565b6000612351600f8361291c565b915061235c82612cd8565b602082019050919050565b600061237460228361291c565b915061237f82612d01565b604082019050919050565b6000612397600d8361291c565b91506123a282612d50565b602082019050919050565b60006123ba60228361291c565b91506123c582612d79565b604082019050919050565b60006123dd60158361291c565b91506123e882612dc8565b602082019050919050565b600061240060148361291c565b915061240b82612df1565b602082019050919050565b600061242360268361291c565b915061242e82612e1a565b604082019050919050565b600061244660188361291c565b915061245182612e69565b602082019050919050565b600061246960288361291c565b915061247482612e92565b604082019050919050565b600061248c60248361291c565b915061249782612ee1565b604082019050919050565b60006124af60218361291c565b91506124ba82612f30565b604082019050919050565b60006124d260258361291c565b91506124dd82612f7f565b604082019050919050565b60006124f560248361291c565b915061250082612fce565b604082019050919050565b600061251860258361291c565b91506125238261301d565b604082019050919050565b600061253b601f8361291c565b91506125468261306c565b602082019050919050565b61255a81612a95565b82525050565b61256981612a9f565b82525050565b600061257b8284612286565b915081905092915050565b600061259282866122f0565b915061259e82856122f0565b91506125aa82846122f0565b9150819050949350505050565b60006020820190506125cc6000830184612268565b92915050565b60006060820190506125e76000830186612268565b6125f46020830185612268565b6126016040830184612551565b949350505050565b600060408201905061261e6000830185612268565b61262b6020830184612551565b9392505050565b60006020820190506126476000830184612277565b92915050565b6000602082019050818103600083015261266781846122b7565b905092915050565b6000602082019050818103600083015261268881612321565b9050919050565b600060208201905081810360008301526126a881612344565b9050919050565b600060208201905081810360008301526126c881612367565b9050919050565b600060208201905081810360008301526126e88161238a565b9050919050565b60006020820190508181036000830152612708816123ad565b9050919050565b60006020820190508181036000830152612728816123d0565b9050919050565b60006020820190508181036000830152612748816123f3565b9050919050565b6000602082019050818103600083015261276881612416565b9050919050565b6000602082019050818103600083015261278881612439565b9050919050565b600060208201905081810360008301526127a88161245c565b9050919050565b600060208201905081810360008301526127c88161247f565b9050919050565b600060208201905081810360008301526127e8816124a2565b9050919050565b60006020820190508181036000830152612808816124c5565b9050919050565b60006020820190508181036000830152612828816124e8565b9050919050565b600060208201905081810360008301526128488161250b565b9050919050565b600060208201905081810360008301526128688161252e565b9050919050565b60006020820190506128846000830184612551565b92915050565b600060208201905061289f6000830184612560565b92915050565b60006128af6128c0565b90506128bb8282612b11565b919050565b6000604051905090565b600067ffffffffffffffff8211156128e5576128e4612c49565b5b6128ee82612c78565b9050602081019050919050565b600081519050919050565b600081519050919050565b600081905092915050565b600082825260208201905092915050565b600081905092915050565b600061294382612a95565b915061294e83612a95565b9250827fffffffffffffffffffffffffffffffffffffffffffffffffffffffffffffffff0382111561298357612982612bbc565b5b828201905092915050565b600061299982612a95565b91506129a483612a95565b9250826129b4576129b3612beb565b5b828204905092915050565b60006129ca82612a95565b91506129d583612a95565b9250817fffffffffffffffffffffffffffffffffffffffffffffffffffffffffffffffff0483118215151615612a0e57612a0d612bbc565b5b828202905092915050565b6000612a2482612a95565b9150612a2f83612a95565b925082821015612a4257612a41612bbc565b5b828203905092915050565b6000612a5882612a75565b9050919050565b60008115159050919050565b6000819050919050565b600073ffffffffffffffffffffffffffffffffffffffff82169050919050565b6000819050919050565b600060ff82169050919050565b60005b83811015612aca578082015181840152602081019050612aaf565b83811115612ad9576000848401525b50505050565b60006002820490506001821680612af757607f821691505b60208210811415612b0b57612b0a612c1a565b5b50919050565b612b1a82612c78565b810181811067ffffffffffffffff82111715612b3957612b38612c49565b5b80604052505050565b6000612b4d82612a95565b91507fffffffffffffffffffffffffffffffffffffffffffffffffffffffffffffffff821415612b8057612b7f612bbc565b5b600182019050919050565b6000612b9682612a95565b9150612ba183612a95565b925082612bb157612bb0612beb565b5b828206905092915050565b7f4e487b7100000000000000000000000000000000000000000000000000000000600052601160045260246000fd5b7f4e487b7100000000000000000000000000000000000000000000000000000000600052601260045260246000fd5b7f4e487b7100000000000000000000000000000000000000000000000000000000600052602260045260246000fd5b7f4e487b7100000000000000000000000000000000000000000000000000000000600052604160045260246000fd5b6000601f19601f8301169050919050565b7f45524332303a207472616e7366657220746f20746865207a65726f206164647260008201527f6573730000000000000000000000000000000000000000000000000000000000602082015250565b7f4f6e6c7920746865205374616b65720000000000000000000000000000000000600082015250565b7f45524332303a206275726e20616d6f756e7420657863656564732062616c616e60008201527f6365000000000000000000000000000000000000000000000000000000000000602082015250565b7f4e6f742076616c696420506f5700000000000000000000000000000000000000600082015250565b7f45524332303a20617070726f766520746f20746865207a65726f20616464726560008201527f7373000000000000000000000000000000000000000000000000000000000000602082015250565b7f4e6f20746f6b656e7320746f2077697468646172770000000000000000000000600082015250565b7f53656e646572206d757374206265206f776e6572000000000000000000000000600082015250565b7f45524332303a207472616e7366657220616d6f756e742065786365656473206260008201527f616c616e63650000000000000000000000000000000000000000000000000000602082015250565b7f53656e64657220616c7265616479206465706f73697465640000000000000000600082015250565b7f45524332303a207472616e7366657220616d6f756e742065786365656473206160008201527f6c6c6f77616e6365000000000000000000000000000000000000000000000000602082015250565b7f45524332303a206275726e20616d6f756e74206578636565647320616c6c6f7760008201527f616e636500000000000000000000000000000000000000000000000000000000602082015250565b7f45524332303a206275726e2066726f6d20746865207a65726f2061646472657360008201527f7300000000000000000000000000000000000000000000000000000000000000602082015250565b7f45524332303a207472616e736665722066726f6d20746865207a65726f20616460008201527f6472657373000000000000000000000000000000000000000000000000000000602082015250565b7f45524332303a20617070726f76652066726f6d20746865207a65726f2061646460008201527f7265737300000000000000000000000000000000000000000000000000000000602082015250565b7f45524332303a2064656372656173656420616c6c6f77616e63652062656c6f7760008201527f207a65726f000000000000000000000000000000000000000000000000000000602082015250565b7f45524332303a206d696e7420746f20746865207a65726f206164647265737300600082015250565b61309e81612a4d565b81146130a957600080fd5b50565b6130b581612a6b565b81146130c057600080fd5b50565b6130cc81612a95565b81146130d757600080fd5b5056fea264697066735822122020ac6e099a9786fe04a6190ff619631a4f72d7b489fc02d4e7e17267c79121f264736f6c63430008030033",
  "immutableReferences": {},
  "source": "// SPDX-License-Identifier: MIT\npragma solidity ^0.8.0;\n\nimport '@openzeppelin/contracts/token/ERC20/extensions/ERC20Burnable.sol';\nimport \"./Hashima.sol\";\nimport \"./IHashima.sol\";\nimport \"./ERC721Hashima.sol\";\n\ncontract Hashi is ERC20Burnable{\n    mapping(address => mapping(address=>mapping(uint256=>uint256))) public checkpoints;\n    mapping(address => mapping(uint256=>bool)) public has_deposited;\n    mapping(address=>mapping(uint256 => address)) public staking_accounts;\n\n    constructor() ERC20(\"Hashi\", \"HASHI\"){\n\n    }\n\n    function aprovar(address hashima_contract,uint256 tokenId)external{\n        IHashima(hashima_contract).approve(address(this), tokenId);\n        \n    }\n\n    function deposit(address hashima_contract,uint256 tokenId) external{\n        require (msg.sender ==  ERC721Hashima(hashima_contract).ownerOf(tokenId), 'Sender must be owner');\n        require (!has_deposited[hashima_contract][tokenId], 'Sender already deposited');\n        \n   \n        (string memory _data,\n        uint256 _stars,\n        string memory _nonce,\n        uint256 _tolerance)=ERC721Hashima(hashima_contract).getProofOfWorkData(tokenId);\n\n        bool coolProofOfWork=checkingHash(_data, _nonce, _tolerance, _stars);\n\n        require(coolProofOfWork,'Not valid PoW');\n        \n        //La altura del bloque de partida\n        checkpoints[hashima_contract][msg.sender][tokenId] = block.number;\n\n        staking_accounts[hashima_contract][tokenId]=msg.sender;\n        has_deposited[hashima_contract][tokenId]=true;\n        \n        //El hashima es transferido a este contrato\n        IHashima(hashima_contract).transferFrom(msg.sender, address(this), tokenId);\n\n   }\n\n    function withdraw(address hashima_contract,uint256 tokenId) external{\n        require(has_deposited[hashima_contract][tokenId], 'No tokens to withdarw');\n        require(staking_accounts[hashima_contract][tokenId]==msg.sender,'Only the Staker');\n        \n        collect(hashima_contract,msg.sender,tokenId);\n        ERC721Hashima(hashima_contract).transferFrom(address(this), msg.sender, tokenId);\n        \n        has_deposited[hashima_contract][tokenId]=false;\n    }\n\n    function collect(address hashima_contract,address beneficiary,uint256 tokenId) public{\n        uint256 reward = calculateReward(hashima_contract,beneficiary,tokenId);\n        checkpoints[hashima_contract][beneficiary][tokenId] = block.number;      \n        _mint(msg.sender, reward);\n    }\n\n    function hashimaOnStaking(address hashima_contract,uint256 tokenId)public view returns(bool){\n        return has_deposited[hashima_contract][tokenId];\n    }\n\n    function calculateReward(\n        address hashima_contract,\n        address beneficiary,uint256 tokenId) \n        public view returns(uint256){\n\n        if(!has_deposited[hashima_contract][tokenId])return 0;\n        \n        uint256 _stars= ERC721Hashima(hashima_contract).getStars(tokenId);\n        uint256 pesoEstrella=_stars*_stars*_stars*10**20/64-_stars;\n        uint256 checkpoint = checkpoints[hashima_contract][beneficiary][tokenId];\n        return pesoEstrella*(block.number-checkpoint);\n    }\n\n\n    function checkingHash(\n    string memory _data,\n    string memory _nonce,\n    uint256 _tolerance,\n    uint256 _stars)private pure returns(bool){\n      bytes32 _hashFinal=sha256(abi.encodePacked(_data,_nonce,Strings.toString(_tolerance)));\n      bool respuesta=true;\n\n      for (uint256 index = 0; index < _stars; index++) {\n      if (_hashFinal[index]!=0x00) {\n              respuesta=false;  \n          }\n      \n      }\n      return respuesta;\n\n  }\n\n  \n}",
  "sourcePath": "/Users/aarontolentino/Desktop/Contratos_1/hashima/contracts/Hashi.sol",
  "compiler": {
    "name": "solc",
    "version": "0.8.3+commit.8d00100c.Emscripten.clang"
  },
  "schemaVersion": "3.4.1",
  "updatedAt": "2022-05-13T05:34:37.106Z",
  "networkType": "ethereum",
  "devdoc": {
    "kind": "dev",
    "methods": {
      "allowance(address,address)": {
        "details": "See {IERC20-allowance}."
      },
      "approve(address,uint256)": {
        "details": "See {IERC20-approve}. Requirements: - `spender` cannot be the zero address."
      },
      "balanceOf(address)": {
        "details": "See {IERC20-balanceOf}."
      },
      "burn(uint256)": {
        "details": "Destroys `amount` tokens from the caller. See {ERC20-_burn}."
      },
      "burnFrom(address,uint256)": {
        "details": "Destroys `amount` tokens from `account`, deducting from the caller's allowance. See {ERC20-_burn} and {ERC20-allowance}. Requirements: - the caller must have allowance for ``accounts``'s tokens of at least `amount`."
      },
      "decimals()": {
        "details": "Returns the number of decimals used to get its user representation. For example, if `decimals` equals `2`, a balance of `505` tokens should be displayed to a user as `5.05` (`505 / 10 ** 2`). Tokens usually opt for a value of 18, imitating the relationship between Ether and Wei. This is the value {ERC20} uses, unless this function is overridden; NOTE: This information is only used for _display_ purposes: it in no way affects any of the arithmetic of the contract, including {IERC20-balanceOf} and {IERC20-transfer}."
      },
      "decreaseAllowance(address,uint256)": {
        "details": "Atomically decreases the allowance granted to `spender` by the caller. This is an alternative to {approve} that can be used as a mitigation for problems described in {IERC20-approve}. Emits an {Approval} event indicating the updated allowance. Requirements: - `spender` cannot be the zero address. - `spender` must have allowance for the caller of at least `subtractedValue`."
      },
      "increaseAllowance(address,uint256)": {
        "details": "Atomically increases the allowance granted to `spender` by the caller. This is an alternative to {approve} that can be used as a mitigation for problems described in {IERC20-approve}. Emits an {Approval} event indicating the updated allowance. Requirements: - `spender` cannot be the zero address."
      },
      "name()": {
        "details": "Returns the name of the token."
      },
      "symbol()": {
        "details": "Returns the symbol of the token, usually a shorter version of the name."
      },
      "totalSupply()": {
        "details": "See {IERC20-totalSupply}."
      },
      "transfer(address,uint256)": {
        "details": "See {IERC20-transfer}. Requirements: - `recipient` cannot be the zero address. - the caller must have a balance of at least `amount`."
      },
      "transferFrom(address,address,uint256)": {
        "details": "See {IERC20-transferFrom}. Emits an {Approval} event indicating the updated allowance. This is not required by the EIP. See the note at the beginning of {ERC20}. Requirements: - `sender` and `recipient` cannot be the zero address. - `sender` must have a balance of at least `amount`. - the caller must have allowance for ``sender``'s tokens of at least `amount`."
      }
    },
    "version": 1
  },
  "userdoc": {
    "kind": "user",
    "methods": {},
    "version": 1
  }
}