{
  "contractName": "MyNFTLiquidityPool",
  "abi": [
    {
      "inputs": [],
      "stateMutability": "nonpayable",
      "type": "constructor"
    },
    {
      "anonymous": false,
      "inputs": [
        {
          "indexed": true,
          "internalType": "address",
          "name": "owner",
          "type": "address"
        },
        {
          "indexed": true,
          "internalType": "address",
          "name": "spender",
          "type": "address"
        },
        {
          "indexed": false,
          "internalType": "uint256",
          "name": "value",
          "type": "uint256"
        }
      ],
      "name": "Approval",
      "type": "event"
    },
    {
      "anonymous": false,
      "inputs": [
        {
          "indexed": true,
          "internalType": "address",
          "name": "from",
          "type": "address"
        },
        {
          "indexed": true,
          "internalType": "address",
          "name": "to",
          "type": "address"
        },
        {
          "indexed": false,
          "internalType": "uint256",
          "name": "value",
          "type": "uint256"
        }
      ],
      "name": "Transfer",
      "type": "event"
    },
    {
      "inputs": [],
      "name": "REWARD_PER_BLOCK",
      "outputs": [
        {
          "internalType": "uint256",
          "name": "",
          "type": "uint256"
        }
      ],
      "stateMutability": "view",
      "type": "function"
    },
    {
      "inputs": [
        {
          "internalType": "address",
          "name": "owner",
          "type": "address"
        },
        {
          "internalType": "address",
          "name": "spender",
          "type": "address"
        }
      ],
      "name": "allowance",
      "outputs": [
        {
          "internalType": "uint256",
          "name": "",
          "type": "uint256"
        }
      ],
      "stateMutability": "view",
      "type": "function"
    },
    {
      "inputs": [
        {
          "internalType": "address",
          "name": "spender",
          "type": "address"
        },
        {
          "internalType": "uint256",
          "name": "amount",
          "type": "uint256"
        }
      ],
      "name": "approve",
      "outputs": [
        {
          "internalType": "bool",
          "name": "",
          "type": "bool"
        }
      ],
      "stateMutability": "nonpayable",
      "type": "function"
    },
    {
      "inputs": [
        {
          "internalType": "address",
          "name": "account",
          "type": "address"
        }
      ],
      "name": "balanceOf",
      "outputs": [
        {
          "internalType": "uint256",
          "name": "",
          "type": "uint256"
        }
      ],
      "stateMutability": "view",
      "type": "function"
    },
    {
      "inputs": [
        {
          "internalType": "address",
          "name": "",
          "type": "address"
        }
      ],
      "name": "checkpoints",
      "outputs": [
        {
          "internalType": "uint256",
          "name": "",
          "type": "uint256"
        }
      ],
      "stateMutability": "view",
      "type": "function"
    },
    {
      "inputs": [],
      "name": "decimals",
      "outputs": [
        {
          "internalType": "uint8",
          "name": "",
          "type": "uint8"
        }
      ],
      "stateMutability": "view",
      "type": "function"
    },
    {
      "inputs": [
        {
          "internalType": "address",
          "name": "spender",
          "type": "address"
        },
        {
          "internalType": "uint256",
          "name": "subtractedValue",
          "type": "uint256"
        }
      ],
      "name": "decreaseAllowance",
      "outputs": [
        {
          "internalType": "bool",
          "name": "",
          "type": "bool"
        }
      ],
      "stateMutability": "nonpayable",
      "type": "function"
    },
    {
      "inputs": [
        {
          "internalType": "address",
          "name": "",
          "type": "address"
        }
      ],
      "name": "deposited_tokens",
      "outputs": [
        {
          "internalType": "uint256",
          "name": "",
          "type": "uint256"
        }
      ],
      "stateMutability": "view",
      "type": "function"
    },
    {
      "inputs": [
        {
          "internalType": "address",
          "name": "",
          "type": "address"
        }
      ],
      "name": "has_deposited",
      "outputs": [
        {
          "internalType": "bool",
          "name": "",
          "type": "bool"
        }
      ],
      "stateMutability": "view",
      "type": "function"
    },
    {
      "inputs": [
        {
          "internalType": "address",
          "name": "spender",
          "type": "address"
        },
        {
          "internalType": "uint256",
          "name": "addedValue",
          "type": "uint256"
        }
      ],
      "name": "increaseAllowance",
      "outputs": [
        {
          "internalType": "bool",
          "name": "",
          "type": "bool"
        }
      ],
      "stateMutability": "nonpayable",
      "type": "function"
    },
    {
      "inputs": [],
      "name": "my_token",
      "outputs": [
        {
          "internalType": "contract ERC721",
          "name": "",
          "type": "address"
        }
      ],
      "stateMutability": "view",
      "type": "function"
    },
    {
      "inputs": [],
      "name": "name",
      "outputs": [
        {
          "internalType": "string",
          "name": "",
          "type": "string"
        }
      ],
      "stateMutability": "view",
      "type": "function"
    },
    {
      "inputs": [],
      "name": "symbol",
      "outputs": [
        {
          "internalType": "string",
          "name": "",
          "type": "string"
        }
      ],
      "stateMutability": "view",
      "type": "function"
    },
    {
      "inputs": [],
      "name": "totalSupply",
      "outputs": [
        {
          "internalType": "uint256",
          "name": "",
          "type": "uint256"
        }
      ],
      "stateMutability": "view",
      "type": "function"
    },
    {
      "inputs": [
        {
          "internalType": "address",
          "name": "recipient",
          "type": "address"
        },
        {
          "internalType": "uint256",
          "name": "amount",
          "type": "uint256"
        }
      ],
      "name": "transfer",
      "outputs": [
        {
          "internalType": "bool",
          "name": "",
          "type": "bool"
        }
      ],
      "stateMutability": "nonpayable",
      "type": "function"
    },
    {
      "inputs": [
        {
          "internalType": "address",
          "name": "sender",
          "type": "address"
        },
        {
          "internalType": "address",
          "name": "recipient",
          "type": "address"
        },
        {
          "internalType": "uint256",
          "name": "amount",
          "type": "uint256"
        }
      ],
      "name": "transferFrom",
      "outputs": [
        {
          "internalType": "bool",
          "name": "",
          "type": "bool"
        }
      ],
      "stateMutability": "nonpayable",
      "type": "function"
    },
    {
      "inputs": [
        {
          "internalType": "uint256",
          "name": "tokenId",
          "type": "uint256"
        }
      ],
      "name": "deposit",
      "outputs": [],
      "stateMutability": "nonpayable",
      "type": "function"
    },
    {
      "inputs": [],
      "name": "withdraw",
      "outputs": [],
      "stateMutability": "nonpayable",
      "type": "function"
    },
    {
      "inputs": [
        {
          "internalType": "address",
          "name": "beneficiary",
          "type": "address"
        }
      ],
      "name": "collect",
      "outputs": [],
      "stateMutability": "nonpayable",
      "type": "function"
    },
    {
      "inputs": [
        {
          "internalType": "address",
          "name": "beneficiary",
          "type": "address"
        }
      ],
      "name": "calculateReward",
      "outputs": [
        {
          "internalType": "uint256",
          "name": "",
          "type": "uint256"
        }
      ],
      "stateMutability": "view",
      "type": "function"
    }
  ],
  "bytecode": "0x608060405267016345785d8a00006009553480156200001d57600080fd5b506040518060400160405280601081526020017f4d79205374616b696e6720546f6b656e000000000000000000000000000000008152506040518060400160405280600481526020017f4d595354000000000000000000000000000000000000000000000000000000008152508160039080519060200190620000a292919062000106565b508060049080519060200190620000bb92919062000106565b5050506000600860006101000a81548173ffffffffffffffffffffffffffffffffffffffff021916908373ffffffffffffffffffffffffffffffffffffffff1602179055506200021b565b8280546200011490620001b6565b90600052602060002090601f01602090048101928262000138576000855562000184565b82601f106200015357805160ff191683800117855562000184565b8280016001018555821562000184579182015b828111156200018357825182559160200191906001019062000166565b5b50905062000193919062000197565b5090565b5b80821115620001b257600081600090555060010162000198565b5090565b60006002820490506001821680620001cf57607f821691505b60208210811415620001e657620001e5620001ec565b5b50919050565b7f4e487b7100000000000000000000000000000000000000000000000000000000600052602260045260246000fd5b6120b6806200022b6000396000f3fe608060405234801561001057600080fd5b506004361061012c5760003560e01c80635db28484116100ad578063a9059cbb11610071578063a9059cbb1461035b578063b6b55f251461038b578063d82e3962146103a7578063dbb51d6e146103d7578063dd62ed3e146104075761012c565b80635db284841461028f57806370a08231146102bf57806395d89b41146102ef578063975532dc1461030d578063a457c2d71461032b5761012c565b806330359951116100f457806330359951146101e9578063313ce5671461020757806339509351146102255780633ccfd60b146102555780633f48d0101461025f5761012c565b806306ec16f81461013157806306fdde031461014d578063095ea7b31461016b57806318160ddd1461019b57806323b872dd146101b9575b600080fd5b61014b600480360381019061014691906115cc565b610437565b005b610155610496565b6040516101629190611980565b60405180910390f35b610185600480360381019061018091906116a9565b610528565b604051610192919061194a565b60405180910390f35b6101a3610546565b6040516101b09190611b02565b60405180910390f35b6101d360048036038101906101ce919061165a565b610550565b6040516101e0919061194a565b60405180910390f35b6101f1610648565b6040516101fe9190611965565b60405180910390f35b61020f61066e565b60405161021c9190611b1d565b60405180910390f35b61023f600480360381019061023a91906116a9565b610677565b60405161024c919061194a565b60405180910390f35b61025d610723565b005b610279600480360381019061027491906115cc565b6108e2565b604051610286919061194a565b60405180910390f35b6102a960048036038101906102a491906115cc565b610902565b6040516102b69190611b02565b60405180910390f35b6102d960048036038101906102d491906115cc565b61091a565b6040516102e69190611b02565b60405180910390f35b6102f7610962565b6040516103049190611980565b60405180910390f35b6103156109f4565b6040516103229190611b02565b60405180910390f35b610345600480360381019061034091906116a9565b6109fa565b604051610352919061194a565b60405180910390f35b610375600480360381019061037091906116a9565b610ae5565b604051610382919061194a565b60405180910390f35b6103a560048036038101906103a091906116e5565b610b03565b005b6103c160048036038101906103bc91906115cc565b610e6e565b6040516103ce9190611b02565b60405180910390f35b6103f160048036038101906103ec91906115cc565b610f30565b6040516103fe9190611b02565b60405180910390f35b610421600480360381019061041c919061161e565b610f48565b60405161042e9190611b02565b60405180910390f35b600061044282610e6e565b905043600560008473ffffffffffffffffffffffffffffffffffffffff1673ffffffffffffffffffffffffffffffffffffffff168152602001908152602001600020819055506104923382610fcf565b5050565b6060600380546104a590611ce4565b80601f01602080910402602001604051908101604052809291908181526020018280546104d190611ce4565b801561051e5780601f106104f35761010080835404028352916020019161051e565b820191906000526020600020905b81548152906001019060200180831161050157829003601f168201915b5050505050905090565b600061053c61053561112f565b8484611137565b6001905092915050565b6000600254905090565b600061055d848484611302565b6000600160008673ffffffffffffffffffffffffffffffffffffffff1673ffffffffffffffffffffffffffffffffffffffff16815260200190815260200160002060006105a861112f565b73ffffffffffffffffffffffffffffffffffffffff1673ffffffffffffffffffffffffffffffffffffffff16815260200190815260200160002054905082811015610628576040517f08c379a000000000000000000000000000000000000000000000000000000000815260040161061f90611a62565b60405180910390fd5b61063c8561063461112f565b858403611137565b60019150509392505050565b600860009054906101000a900473ffffffffffffffffffffffffffffffffffffffff1681565b60006012905090565b600061071961068461112f565b84846001600061069261112f565b73ffffffffffffffffffffffffffffffffffffffff1673ffffffffffffffffffffffffffffffffffffffff16815260200190815260200160002060008873ffffffffffffffffffffffffffffffffffffffff1673ffffffffffffffffffffffffffffffffffffffff168152602001908152602001600020546107149190611b54565b611137565b6001905092915050565b600760003373ffffffffffffffffffffffffffffffffffffffff1673ffffffffffffffffffffffffffffffffffffffff16815260200190815260200160002060009054906101000a900460ff166107af576040517f08c379a00000000000000000000000000000000000000000000000000000000081526004016107a6906119e2565b60405180910390fd5b6107b833610437565b600860009054906101000a900473ffffffffffffffffffffffffffffffffffffffff1673ffffffffffffffffffffffffffffffffffffffff166323b872dd3033600660003373ffffffffffffffffffffffffffffffffffffffff1673ffffffffffffffffffffffffffffffffffffffff168152602001908152602001600020546040518463ffffffff1660e01b815260040161085693929190611913565b600060405180830381600087803b15801561087057600080fd5b505af1158015610884573d6000803e3d6000fd5b505050506000600760003373ffffffffffffffffffffffffffffffffffffffff1673ffffffffffffffffffffffffffffffffffffffff16815260200190815260200160002060006101000a81548160ff021916908315150217905550565b60076020528060005260406000206000915054906101000a900460ff1681565b60066020528060005260406000206000915090505481565b60008060008373ffffffffffffffffffffffffffffffffffffffff1673ffffffffffffffffffffffffffffffffffffffff168152602001908152602001600020549050919050565b60606004805461097190611ce4565b80601f016020809104026020016040519081016040528092919081815260200182805461099d90611ce4565b80156109ea5780601f106109bf576101008083540402835291602001916109ea565b820191906000526020600020905b8154815290600101906020018083116109cd57829003601f168201915b5050505050905090565b60095481565b60008060016000610a0961112f565b73ffffffffffffffffffffffffffffffffffffffff1673ffffffffffffffffffffffffffffffffffffffff16815260200190815260200160002060008573ffffffffffffffffffffffffffffffffffffffff1673ffffffffffffffffffffffffffffffffffffffff16815260200190815260200160002054905082811015610ac6576040517f08c379a0000000000000000000000000000000000000000000000000000000008152600401610abd90611ac2565b60405180910390fd5b610ada610ad161112f565b85858403611137565b600191505092915050565b6000610af9610af261112f565b8484611302565b6001905092915050565b600860009054906101000a900473ffffffffffffffffffffffffffffffffffffffff1673ffffffffffffffffffffffffffffffffffffffff16636352211e826040518263ffffffff1660e01b8152600401610b5e9190611b02565b60206040518083038186803b158015610b7657600080fd5b505afa158015610b8a573d6000803e3d6000fd5b505050506040513d601f19601f82011682018060405250810190610bae91906115f5565b73ffffffffffffffffffffffffffffffffffffffff163373ffffffffffffffffffffffffffffffffffffffff1614610c1b576040517f08c379a0000000000000000000000000000000000000000000000000000000008152600401610c1290611a02565b60405180910390fd5b600760003373ffffffffffffffffffffffffffffffffffffffff1673ffffffffffffffffffffffffffffffffffffffff16815260200190815260200160002060009054906101000a900460ff1615610ca8576040517f08c379a0000000000000000000000000000000000000000000000000000000008152600401610c9f90611a42565b60405180910390fd5b6000600560003373ffffffffffffffffffffffffffffffffffffffff1673ffffffffffffffffffffffffffffffffffffffff168152602001908152602001600020541415610d355743600560003373ffffffffffffffffffffffffffffffffffffffff1673ffffffffffffffffffffffffffffffffffffffff168152602001908152602001600020819055505b610d3e33610437565b600860009054906101000a900473ffffffffffffffffffffffffffffffffffffffff1673ffffffffffffffffffffffffffffffffffffffff166323b872dd3330846040518463ffffffff1660e01b8152600401610d9d93929190611913565b600060405180830381600087803b158015610db757600080fd5b505af1158015610dcb573d6000803e3d6000fd5b5050505080600660003373ffffffffffffffffffffffffffffffffffffffff1673ffffffffffffffffffffffffffffffffffffffff168152602001908152602001600020819055506001600760003373ffffffffffffffffffffffffffffffffffffffff1673ffffffffffffffffffffffffffffffffffffffff16815260200190815260200160002060006101000a81548160ff02191690831515021790555050565b6000600760003373ffffffffffffffffffffffffffffffffffffffff1673ffffffffffffffffffffffffffffffffffffffff16815260200190815260200160002060009054906101000a900460ff16610eca5760009050610f2b565b6000600560008473ffffffffffffffffffffffffffffffffffffffff1673ffffffffffffffffffffffffffffffffffffffff1681526020019081526020016000205490508043610f1a9190611c04565b600954610f279190611baa565b9150505b919050565b60056020528060005260406000206000915090505481565b6000600160008473ffffffffffffffffffffffffffffffffffffffff1673ffffffffffffffffffffffffffffffffffffffff16815260200190815260200160002060008373ffffffffffffffffffffffffffffffffffffffff1673ffffffffffffffffffffffffffffffffffffffff16815260200190815260200160002054905092915050565b600073ffffffffffffffffffffffffffffffffffffffff168273ffffffffffffffffffffffffffffffffffffffff16141561103f576040517f08c379a000000000000000000000000000000000000000000000000000000000815260040161103690611ae2565b60405180910390fd5b61104b60008383611583565b806002600082825461105d9190611b54565b92505081905550806000808473ffffffffffffffffffffffffffffffffffffffff1673ffffffffffffffffffffffffffffffffffffffff16815260200190815260200160002060008282546110b29190611b54565b925050819055508173ffffffffffffffffffffffffffffffffffffffff16600073ffffffffffffffffffffffffffffffffffffffff167fddf252ad1be2c89b69c2b068fc378daa952ba7f163c4a11628f55a4df523b3ef836040516111179190611b02565b60405180910390a361112b60008383611588565b5050565b600033905090565b600073ffffffffffffffffffffffffffffffffffffffff168373ffffffffffffffffffffffffffffffffffffffff1614156111a7576040517f08c379a000000000000000000000000000000000000000000000000000000000815260040161119e90611aa2565b60405180910390fd5b600073ffffffffffffffffffffffffffffffffffffffff168273ffffffffffffffffffffffffffffffffffffffff161415611217576040517f08c379a000000000000000000000000000000000000000000000000000000000815260040161120e906119c2565b60405180910390fd5b80600160008573ffffffffffffffffffffffffffffffffffffffff1673ffffffffffffffffffffffffffffffffffffffff16815260200190815260200160002060008473ffffffffffffffffffffffffffffffffffffffff1673ffffffffffffffffffffffffffffffffffffffff168152602001908152602001600020819055508173ffffffffffffffffffffffffffffffffffffffff168373ffffffffffffffffffffffffffffffffffffffff167f8c5be1e5ebec7d5bd14f71427d1e84f3dd0314c0f7b2291e5b200ac8c7c3b925836040516112f59190611b02565b60405180910390a3505050565b600073ffffffffffffffffffffffffffffffffffffffff168373ffffffffffffffffffffffffffffffffffffffff161415611372576040517f08c379a000000000000000000000000000000000000000000000000000000000815260040161136990611a82565b60405180910390fd5b600073ffffffffffffffffffffffffffffffffffffffff168273ffffffffffffffffffffffffffffffffffffffff1614156113e2576040517f08c379a00000000000000000000000000000000000000000000000000000000081526004016113d9906119a2565b60405180910390fd5b6113ed838383611583565b60008060008573ffffffffffffffffffffffffffffffffffffffff1673ffffffffffffffffffffffffffffffffffffffff16815260200190815260200160002054905081811015611473576040517f08c379a000000000000000000000000000000000000000000000000000000000815260040161146a90611a22565b60405180910390fd5b8181036000808673ffffffffffffffffffffffffffffffffffffffff1673ffffffffffffffffffffffffffffffffffffffff16815260200190815260200160002081905550816000808573ffffffffffffffffffffffffffffffffffffffff1673ffffffffffffffffffffffffffffffffffffffff16815260200190815260200160002060008282546115069190611b54565b925050819055508273ffffffffffffffffffffffffffffffffffffffff168473ffffffffffffffffffffffffffffffffffffffff167fddf252ad1be2c89b69c2b068fc378daa952ba7f163c4a11628f55a4df523b3ef8460405161156a9190611b02565b60405180910390a361157d848484611588565b50505050565b505050565b505050565b60008135905061159c81612052565b92915050565b6000815190506115b181612052565b92915050565b6000813590506115c681612069565b92915050565b6000602082840312156115de57600080fd5b60006115ec8482850161158d565b91505092915050565b60006020828403121561160757600080fd5b6000611615848285016115a2565b91505092915050565b6000806040838503121561163157600080fd5b600061163f8582860161158d565b92505060206116508582860161158d565b9150509250929050565b60008060006060848603121561166f57600080fd5b600061167d8682870161158d565b935050602061168e8682870161158d565b925050604061169f868287016115b7565b9150509250925092565b600080604083850312156116bc57600080fd5b60006116ca8582860161158d565b92505060206116db858286016115b7565b9150509250929050565b6000602082840312156116f757600080fd5b6000611705848285016115b7565b91505092915050565b61171781611c38565b82525050565b61172681611c4a565b82525050565b61173581611c8d565b82525050565b600061174682611b38565b6117508185611b43565b9350611760818560208601611cb1565b61176981611d74565b840191505092915050565b6000611781602383611b43565b915061178c82611d85565b604082019050919050565b60006117a4602283611b43565b91506117af82611dd4565b604082019050919050565b60006117c7601583611b43565b91506117d282611e23565b602082019050919050565b60006117ea601483611b43565b91506117f582611e4c565b602082019050919050565b600061180d602683611b43565b915061181882611e75565b604082019050919050565b6000611830601883611b43565b915061183b82611ec4565b602082019050919050565b6000611853602883611b43565b915061185e82611eed565b604082019050919050565b6000611876602583611b43565b915061188182611f3c565b604082019050919050565b6000611899602483611b43565b91506118a482611f8b565b604082019050919050565b60006118bc602583611b43565b91506118c782611fda565b604082019050919050565b60006118df601f83611b43565b91506118ea82612029565b602082019050919050565b6118fe81611c76565b82525050565b61190d81611c80565b82525050565b6000606082019050611928600083018661170e565b611935602083018561170e565b61194260408301846118f5565b949350505050565b600060208201905061195f600083018461171d565b92915050565b600060208201905061197a600083018461172c565b92915050565b6000602082019050818103600083015261199a818461173b565b905092915050565b600060208201905081810360008301526119bb81611774565b9050919050565b600060208201905081810360008301526119db81611797565b9050919050565b600060208201905081810360008301526119fb816117ba565b9050919050565b60006020820190508181036000830152611a1b816117dd565b9050919050565b60006020820190508181036000830152611a3b81611800565b9050919050565b60006020820190508181036000830152611a5b81611823565b9050919050565b60006020820190508181036000830152611a7b81611846565b9050919050565b60006020820190508181036000830152611a9b81611869565b9050919050565b60006020820190508181036000830152611abb8161188c565b9050919050565b60006020820190508181036000830152611adb816118af565b9050919050565b60006020820190508181036000830152611afb816118d2565b9050919050565b6000602082019050611b1760008301846118f5565b92915050565b6000602082019050611b326000830184611904565b92915050565b600081519050919050565b600082825260208201905092915050565b6000611b5f82611c76565b9150611b6a83611c76565b9250827fffffffffffffffffffffffffffffffffffffffffffffffffffffffffffffffff03821115611b9f57611b9e611d16565b5b828201905092915050565b6000611bb582611c76565b9150611bc083611c76565b9250817fffffffffffffffffffffffffffffffffffffffffffffffffffffffffffffffff0483118215151615611bf957611bf8611d16565b5b828202905092915050565b6000611c0f82611c76565b9150611c1a83611c76565b925082821015611c2d57611c2c611d16565b5b828203905092915050565b6000611c4382611c56565b9050919050565b60008115159050919050565b600073ffffffffffffffffffffffffffffffffffffffff82169050919050565b6000819050919050565b600060ff82169050919050565b6000611c9882611c9f565b9050919050565b6000611caa82611c56565b9050919050565b60005b83811015611ccf578082015181840152602081019050611cb4565b83811115611cde576000848401525b50505050565b60006002820490506001821680611cfc57607f821691505b60208210811415611d1057611d0f611d45565b5b50919050565b7f4e487b7100000000000000000000000000000000000000000000000000000000600052601160045260246000fd5b7f4e487b7100000000000000000000000000000000000000000000000000000000600052602260045260246000fd5b6000601f19601f8301169050919050565b7f45524332303a207472616e7366657220746f20746865207a65726f206164647260008201527f6573730000000000000000000000000000000000000000000000000000000000602082015250565b7f45524332303a20617070726f766520746f20746865207a65726f20616464726560008201527f7373000000000000000000000000000000000000000000000000000000000000602082015250565b7f4e6f20746f6b656e7320746f2077697468646172770000000000000000000000600082015250565b7f53656e646572206d757374206265206f776e6572000000000000000000000000600082015250565b7f45524332303a207472616e7366657220616d6f756e742065786365656473206260008201527f616c616e63650000000000000000000000000000000000000000000000000000602082015250565b7f53656e64657220616c7265616479206465706f73697465640000000000000000600082015250565b7f45524332303a207472616e7366657220616d6f756e742065786365656473206160008201527f6c6c6f77616e6365000000000000000000000000000000000000000000000000602082015250565b7f45524332303a207472616e736665722066726f6d20746865207a65726f20616460008201527f6472657373000000000000000000000000000000000000000000000000000000602082015250565b7f45524332303a20617070726f76652066726f6d20746865207a65726f2061646460008201527f7265737300000000000000000000000000000000000000000000000000000000602082015250565b7f45524332303a2064656372656173656420616c6c6f77616e63652062656c6f7760008201527f207a65726f000000000000000000000000000000000000000000000000000000602082015250565b7f45524332303a206d696e7420746f20746865207a65726f206164647265737300600082015250565b61205b81611c38565b811461206657600080fd5b50565b61207281611c76565b811461207d57600080fd5b5056fea26469706673582212201a436f3cc1dcfd2476d39b9a3837cbd9ca06890fc2467ec2eca01689e41f402464736f6c63430008030033",
  "immutableReferences": {},
  "source": "// SPDX-License-Identifier: MIT\npragma solidity >=0.4.22 <0.9.0;\nimport '@openzeppelin/contracts/token/ERC20/ERC20.sol';\nimport \"@openzeppelin/contracts/token/ERC721/ERC721.sol\";\n\ncontract MyNFTLiquidityPool is ERC20\n{\n    mapping(address => uint256) public checkpoints;\n    mapping(address => uint256) public deposited_tokens;\n    mapping(address => bool) public has_deposited;\n    ERC721 public my_token;\n\n    uint public REWARD_PER_BLOCK = 0.1 ether;\n\n    constructor() ERC20(\"My Staking Token\", \"MYST\"){\n        my_token = ERC721(0x0000000000000000000000000000000000000000);\n    }\n\n    function deposit(uint256 tokenId) external\n    {\n        require (msg.sender == my_token.ownerOf(tokenId), 'Sender must be owner');\n        require (!has_deposited[msg.sender], 'Sender already deposited');\n        if(checkpoints[msg.sender] == 0){\n            checkpoints[msg.sender] = block.number;\n        }\n        collect(msg.sender);\n        my_token.transferFrom(msg.sender, address(this), tokenId);\n        deposited_tokens[msg.sender] = tokenId;\n        has_deposited[msg.sender] = true;\n   }\n\n    function withdraw() external\n    {\n        require(has_deposited[msg.sender], 'No tokens to withdarw');\n        collect(msg.sender);\n        my_token.transferFrom(address(this), msg.sender, deposited_tokens[msg.sender]);\n        has_deposited[msg.sender] = false;\n    }\n\n    function collect(address beneficiary) public\n    {\n        uint256 reward = calculateReward(beneficiary);\n        checkpoints[beneficiary] = block.number;      \n        _mint(msg.sender, reward);\n    }\n\n    function calculateReward(address beneficiary) public view returns(uint256)\n    {\n        if(!has_deposited[msg.sender])\n        {\n            return 0;\n        }\n        uint256 checkpoint = checkpoints[beneficiary];\n        return REWARD_PER_BLOCK * (block.number-checkpoint);\n    }\n}",
  "sourcePath": "/Users/aarontolentino/Desktop/hashima/contracts/StakingHashima.sol",
  "compiler": {
    "name": "solc",
    "version": "0.8.3+commit.8d00100c.Emscripten.clang"
  },
  "schemaVersion": "3.4.1",
  "updatedAt": "2022-02-03T03:13:38.736Z",
  "devdoc": {
    "kind": "dev",
    "methods": {
      "allowance(address,address)": {
        "details": "See {IERC20-allowance}."
      },
      "approve(address,uint256)": {
        "details": "See {IERC20-approve}. Requirements: - `spender` cannot be the zero address."
      },
      "balanceOf(address)": {
        "details": "See {IERC20-balanceOf}."
      },
      "decimals()": {
        "details": "Returns the number of decimals used to get its user representation. For example, if `decimals` equals `2`, a balance of `505` tokens should be displayed to a user as `5.05` (`505 / 10 ** 2`). Tokens usually opt for a value of 18, imitating the relationship between Ether and Wei. This is the value {ERC20} uses, unless this function is overridden; NOTE: This information is only used for _display_ purposes: it in no way affects any of the arithmetic of the contract, including {IERC20-balanceOf} and {IERC20-transfer}."
      },
      "decreaseAllowance(address,uint256)": {
        "details": "Atomically decreases the allowance granted to `spender` by the caller. This is an alternative to {approve} that can be used as a mitigation for problems described in {IERC20-approve}. Emits an {Approval} event indicating the updated allowance. Requirements: - `spender` cannot be the zero address. - `spender` must have allowance for the caller of at least `subtractedValue`."
      },
      "increaseAllowance(address,uint256)": {
        "details": "Atomically increases the allowance granted to `spender` by the caller. This is an alternative to {approve} that can be used as a mitigation for problems described in {IERC20-approve}. Emits an {Approval} event indicating the updated allowance. Requirements: - `spender` cannot be the zero address."
      },
      "name()": {
        "details": "Returns the name of the token."
      },
      "symbol()": {
        "details": "Returns the symbol of the token, usually a shorter version of the name."
      },
      "totalSupply()": {
        "details": "See {IERC20-totalSupply}."
      },
      "transfer(address,uint256)": {
        "details": "See {IERC20-transfer}. Requirements: - `recipient` cannot be the zero address. - the caller must have a balance of at least `amount`."
      },
      "transferFrom(address,address,uint256)": {
        "details": "See {IERC20-transferFrom}. Emits an {Approval} event indicating the updated allowance. This is not required by the EIP. See the note at the beginning of {ERC20}. Requirements: - `sender` and `recipient` cannot be the zero address. - `sender` must have a balance of at least `amount`. - the caller must have allowance for ``sender``'s tokens of at least `amount`."
      }
    },
    "version": 1
  },
  "userdoc": {
    "kind": "user",
    "methods": {},
    "version": 1
  }
}