{
  "contractName": "NewHashima",
  "abi": [
    {
      "inputs": [],
      "stateMutability": "nonpayable",
      "type": "constructor"
    },
    {
      "anonymous": false,
      "inputs": [
        {
          "indexed": true,
          "internalType": "address",
          "name": "owner",
          "type": "address"
        },
        {
          "indexed": true,
          "internalType": "address",
          "name": "approved",
          "type": "address"
        },
        {
          "indexed": true,
          "internalType": "uint256",
          "name": "tokenId",
          "type": "uint256"
        }
      ],
      "name": "Approval",
      "type": "event"
    },
    {
      "anonymous": false,
      "inputs": [
        {
          "indexed": true,
          "internalType": "address",
          "name": "owner",
          "type": "address"
        },
        {
          "indexed": true,
          "internalType": "address",
          "name": "operator",
          "type": "address"
        },
        {
          "indexed": false,
          "internalType": "bool",
          "name": "approved",
          "type": "bool"
        }
      ],
      "name": "ApprovalForAll",
      "type": "event"
    },
    {
      "anonymous": false,
      "inputs": [
        {
          "indexed": false,
          "internalType": "uint256",
          "name": "_blocknumber",
          "type": "uint256"
        }
      ],
      "name": "GameStart",
      "type": "event"
    },
    {
      "anonymous": false,
      "inputs": [
        {
          "indexed": false,
          "internalType": "bool",
          "name": "respuesta",
          "type": "bool"
        },
        {
          "indexed": false,
          "internalType": "bytes32",
          "name": "hashResultado",
          "type": "bytes32"
        }
      ],
      "name": "Minted",
      "type": "event"
    },
    {
      "anonymous": false,
      "inputs": [
        {
          "indexed": true,
          "internalType": "address",
          "name": "from",
          "type": "address"
        },
        {
          "indexed": true,
          "internalType": "address",
          "name": "to",
          "type": "address"
        },
        {
          "indexed": true,
          "internalType": "uint256",
          "name": "tokenId",
          "type": "uint256"
        }
      ],
      "name": "Transfer",
      "type": "event"
    },
    {
      "inputs": [],
      "name": "Init",
      "outputs": [],
      "stateMutability": "nonpayable",
      "type": "function"
    },
    {
      "inputs": [
        {
          "internalType": "uint256",
          "name": "_stars",
          "type": "uint256"
        },
        {
          "internalType": "string",
          "name": "_data",
          "type": "string"
        },
        {
          "internalType": "string",
          "name": "_nonce",
          "type": "string"
        },
        {
          "internalType": "string",
          "name": "_uri",
          "type": "string"
        }
      ],
      "name": "Mint",
      "outputs": [],
      "stateMutability": "nonpayable",
      "type": "function"
    },
    {
      "inputs": [
        {
          "internalType": "string",
          "name": "",
          "type": "string"
        }
      ],
      "name": "_names",
      "outputs": [
        {
          "internalType": "bool",
          "name": "",
          "type": "bool"
        }
      ],
      "stateMutability": "view",
      "type": "function",
      "constant": true
    },
    {
      "inputs": [
        {
          "internalType": "address",
          "name": "to",
          "type": "address"
        },
        {
          "internalType": "uint256",
          "name": "tokenId",
          "type": "uint256"
        }
      ],
      "name": "approve",
      "outputs": [],
      "stateMutability": "nonpayable",
      "type": "function"
    },
    {
      "inputs": [
        {
          "internalType": "address",
          "name": "owner",
          "type": "address"
        }
      ],
      "name": "balanceOf",
      "outputs": [
        {
          "internalType": "uint256",
          "name": "",
          "type": "uint256"
        }
      ],
      "stateMutability": "view",
      "type": "function",
      "constant": true
    },
    {
      "inputs": [],
      "name": "checkGame",
      "outputs": [
        {
          "internalType": "uint256",
          "name": "",
          "type": "uint256"
        }
      ],
      "stateMutability": "view",
      "type": "function",
      "constant": true
    },
    {
      "inputs": [
        {
          "internalType": "string",
          "name": "_data",
          "type": "string"
        },
        {
          "internalType": "string",
          "name": "_nonce",
          "type": "string"
        },
        {
          "internalType": "uint256",
          "name": "_tolerance",
          "type": "uint256"
        },
        {
          "internalType": "uint256",
          "name": "_stars",
          "type": "uint256"
        }
      ],
      "name": "checkingHash",
      "outputs": [
        {
          "internalType": "bool",
          "name": "",
          "type": "bool"
        },
        {
          "internalType": "bytes32",
          "name": "",
          "type": "bytes32"
        }
      ],
      "stateMutability": "pure",
      "type": "function",
      "constant": true
    },
    {
      "inputs": [
        {
          "internalType": "uint256",
          "name": "tokenId",
          "type": "uint256"
        }
      ],
      "name": "getApproved",
      "outputs": [
        {
          "internalType": "address",
          "name": "",
          "type": "address"
        }
      ],
      "stateMutability": "view",
      "type": "function",
      "constant": true
    },
    {
      "inputs": [],
      "name": "getBlockTolerance",
      "outputs": [
        {
          "internalType": "uint256",
          "name": "",
          "type": "uint256"
        }
      ],
      "stateMutability": "view",
      "type": "function",
      "constant": true
    },
    {
      "inputs": [
        {
          "internalType": "uint256",
          "name": "_index",
          "type": "uint256"
        }
      ],
      "name": "getHashima",
      "outputs": [
        {
          "components": [
            {
              "internalType": "uint256",
              "name": "tokenId",
              "type": "uint256"
            },
            {
              "internalType": "string",
              "name": "data",
              "type": "string"
            },
            {
              "internalType": "address payable",
              "name": "currentOwner",
              "type": "address"
            },
            {
              "internalType": "address payable",
              "name": "previousOwner",
              "type": "address"
            },
            {
              "internalType": "uint256",
              "name": "stars",
              "type": "uint256"
            },
            {
              "internalType": "uint256",
              "name": "blockTolerance",
              "type": "uint256"
            },
            {
              "internalType": "uint256",
              "name": "blockEnd",
              "type": "uint256"
            },
            {
              "internalType": "string",
              "name": "nonce",
              "type": "string"
            }
          ],
          "internalType": "struct ERC721Hashima.Hashi",
          "name": "",
          "type": "tuple"
        }
      ],
      "stateMutability": "view",
      "type": "function",
      "constant": true
    },
    {
      "inputs": [
        {
          "internalType": "uint256",
          "name": "_index",
          "type": "uint256"
        }
      ],
      "name": "getProofOfWorkData",
      "outputs": [
        {
          "internalType": "string",
          "name": "",
          "type": "string"
        },
        {
          "internalType": "uint256",
          "name": "",
          "type": "uint256"
        },
        {
          "internalType": "string",
          "name": "",
          "type": "string"
        },
        {
          "internalType": "uint256",
          "name": "",
          "type": "uint256"
        }
      ],
      "stateMutability": "view",
      "type": "function",
      "constant": true
    },
    {
      "inputs": [
        {
          "internalType": "uint256",
          "name": "_index",
          "type": "uint256"
        }
      ],
      "name": "getStars",
      "outputs": [
        {
          "internalType": "uint256",
          "name": "",
          "type": "uint256"
        }
      ],
      "stateMutability": "view",
      "type": "function",
      "constant": true
    },
    {
      "inputs": [],
      "name": "getTotal",
      "outputs": [
        {
          "internalType": "uint256",
          "name": "",
          "type": "uint256"
        }
      ],
      "stateMutability": "view",
      "type": "function",
      "constant": true
    },
    {
      "inputs": [
        {
          "internalType": "address",
          "name": "owner",
          "type": "address"
        },
        {
          "internalType": "address",
          "name": "operator",
          "type": "address"
        }
      ],
      "name": "isApprovedForAll",
      "outputs": [
        {
          "internalType": "bool",
          "name": "",
          "type": "bool"
        }
      ],
      "stateMutability": "view",
      "type": "function",
      "constant": true
    },
    {
      "inputs": [],
      "name": "name",
      "outputs": [
        {
          "internalType": "string",
          "name": "",
          "type": "string"
        }
      ],
      "stateMutability": "view",
      "type": "function",
      "constant": true
    },
    {
      "inputs": [
        {
          "internalType": "uint256",
          "name": "tokenId",
          "type": "uint256"
        }
      ],
      "name": "ownerOf",
      "outputs": [
        {
          "internalType": "address",
          "name": "",
          "type": "address"
        }
      ],
      "stateMutability": "view",
      "type": "function",
      "constant": true
    },
    {
      "inputs": [
        {
          "internalType": "address",
          "name": "from",
          "type": "address"
        },
        {
          "internalType": "address",
          "name": "to",
          "type": "address"
        },
        {
          "internalType": "uint256",
          "name": "tokenId",
          "type": "uint256"
        }
      ],
      "name": "safeTransferFrom",
      "outputs": [],
      "stateMutability": "nonpayable",
      "type": "function"
    },
    {
      "inputs": [
        {
          "internalType": "address",
          "name": "from",
          "type": "address"
        },
        {
          "internalType": "address",
          "name": "to",
          "type": "address"
        },
        {
          "internalType": "uint256",
          "name": "tokenId",
          "type": "uint256"
        },
        {
          "internalType": "bytes",
          "name": "_data",
          "type": "bytes"
        }
      ],
      "name": "safeTransferFrom",
      "outputs": [],
      "stateMutability": "nonpayable",
      "type": "function"
    },
    {
      "inputs": [
        {
          "internalType": "address",
          "name": "operator",
          "type": "address"
        },
        {
          "internalType": "bool",
          "name": "approved",
          "type": "bool"
        }
      ],
      "name": "setApprovalForAll",
      "outputs": [],
      "stateMutability": "nonpayable",
      "type": "function"
    },
    {
      "inputs": [
        {
          "internalType": "bytes4",
          "name": "interfaceId",
          "type": "bytes4"
        }
      ],
      "name": "supportsInterface",
      "outputs": [
        {
          "internalType": "bool",
          "name": "",
          "type": "bool"
        }
      ],
      "stateMutability": "view",
      "type": "function",
      "constant": true
    },
    {
      "inputs": [],
      "name": "symbol",
      "outputs": [
        {
          "internalType": "string",
          "name": "",
          "type": "string"
        }
      ],
      "stateMutability": "view",
      "type": "function",
      "constant": true
    },
    {
      "inputs": [
        {
          "internalType": "uint256",
          "name": "tokenId",
          "type": "uint256"
        }
      ],
      "name": "tokenURI",
      "outputs": [
        {
          "internalType": "string",
          "name": "",
          "type": "string"
        }
      ],
      "stateMutability": "view",
      "type": "function",
      "constant": true
    },
    {
      "inputs": [
        {
          "internalType": "address",
          "name": "from",
          "type": "address"
        },
        {
          "internalType": "address",
          "name": "to",
          "type": "address"
        },
        {
          "internalType": "uint256",
          "name": "tokenId",
          "type": "uint256"
        }
      ],
      "name": "transferFrom",
      "outputs": [],
      "stateMutability": "nonpayable",
      "type": "function"
    }
  ],
  "bytecode": "0x608060405260c86008553480156200001657600080fd5b506040518060400160405280600881526020017f48617368696d61320000000000000000000000000000000000000000000000008152506040518060400160405280600881526020017f48415348494d413200000000000000000000000000000000000000000000000081525081600090805190602001906200009b929190620000bd565b508060019080519060200190620000b4929190620000bd565b505050620001d2565b828054620000cb906200016d565b90600052602060002090601f016020900481019282620000ef57600085556200013b565b82601f106200010a57805160ff19168380011785556200013b565b828001600101855582156200013b579182015b828111156200013a5782518255916020019190600101906200011d565b5b5090506200014a91906200014e565b5090565b5b80821115620001695760008160009055506001016200014f565b5090565b600060028204905060018216806200018657607f821691505b602082108114156200019d576200019c620001a3565b5b50919050565b7f4e487b7100000000000000000000000000000000000000000000000000000000600052602260045260246000fd5b6141e680620001e26000396000f3fe608060405234801561001057600080fd5b506004361061014d5760003560e01c806370a08231116100c3578063b88d4fde1161007c578063b88d4fde146103b6578063c87b56dd146103d2578063d1760fac14610402578063d43525c314610432578063e985e9c514610462578063f81175c3146104925761014d565b806370a08231146102e0578063775a25e31461031057806395d89b411461032e578063a22cb4651461034c578063adf04f2014610368578063b35a194e146103985761014d565b80633a22e0cb116101155780633a22e0cb1461020857806342842e0e14610239578063503950731461025557806357a86f7d146102735780635c95f4fa1461027d5780636352211e146102b05761014d565b806301ffc9a71461015257806306fdde0314610182578063081812fc146101a0578063095ea7b3146101d057806323b872dd146101ec575b600080fd5b61016c60048036038101906101679190612d36565b6104ae565b60405161017991906134d1565b60405180910390f35b61018a610590565b6040516101979190613515565b60405180910390f35b6101ba60048036038101906101b59190612e5c565b610622565b6040516101c7919061346a565b60405180910390f35b6101ea60048036038101906101e59190612cd1565b6106a7565b005b61020660048036038101906102019190612bcb565b6107bf565b005b610222600480360381019061021d9190612dc9565b61081f565b6040516102309291906134ec565b60405180910390f35b610253600480360381019061024e9190612bcb565b610945565b005b61025d610965565b60405161026a919061380c565b60405180910390f35b61027b61096f565b005b61029760048036038101906102929190612e5c565b6109f2565b6040516102a79493929190613537565b60405180910390f35b6102ca60048036038101906102c59190612e5c565b610b8c565b6040516102d7919061346a565b60405180910390f35b6102fa60048036038101906102f59190612b66565b610c3e565b604051610307919061380c565b60405180910390f35b610318610cf6565b604051610325919061380c565b60405180910390f35b610336610d07565b6040516103439190613515565b60405180910390f35b61036660048036038101906103619190612c95565b610d99565b005b610382600480360381019061037d9190612e5c565b610f1a565b60405161038f919061380c565b60405180910390f35b6103a0610f3a565b6040516103ad919061380c565b60405180910390f35b6103d060048036038101906103cb9190612c1a565b610f81565b005b6103ec60048036038101906103e79190612e5c565b610fe3565b6040516103f99190613515565b60405180910390f35b61041c60048036038101906104179190612d88565b611135565b60405161042991906134d1565b60405180910390f35b61044c60048036038101906104479190612e5c565b61116b565b60405161045991906137ea565b60405180910390f35b61047c60048036038101906104779190612b8f565b611391565b60405161048991906134d1565b60405180910390f35b6104ac60048036038101906104a79190612e85565b611425565b005b60007f80ac58cd000000000000000000000000000000000000000000000000000000007bffffffffffffffffffffffffffffffffffffffffffffffffffffffff1916827bffffffffffffffffffffffffffffffffffffffffffffffffffffffff1916148061057957507f5b5e139f000000000000000000000000000000000000000000000000000000007bffffffffffffffffffffffffffffffffffffffffffffffffffffffff1916827bffffffffffffffffffffffffffffffffffffffffffffffffffffffff1916145b8061058957506105888261181c565b5b9050919050565b60606000805461059f90613a9a565b80601f01602080910402602001604051908101604052809291908181526020018280546105cb90613a9a565b80156106185780601f106105ed57610100808354040283529160200191610618565b820191906000526020600020905b8154815290600101906020018083116105fb57829003601f168201915b5050505050905090565b600061062d82611886565b61066c576040517f08c379a00000000000000000000000000000000000000000000000000000000081526004016106639061372a565b60405180910390fd5b6004600083815260200190815260200160002060009054906101000a900473ffffffffffffffffffffffffffffffffffffffff169050919050565b60006106b282610b8c565b90508073ffffffffffffffffffffffffffffffffffffffff168373ffffffffffffffffffffffffffffffffffffffff161415610723576040517f08c379a000000000000000000000000000000000000000000000000000000000815260040161071a9061378a565b60405180910390fd5b8073ffffffffffffffffffffffffffffffffffffffff166107426118f2565b73ffffffffffffffffffffffffffffffffffffffff16148061077157506107708161076b6118f2565b611391565b5b6107b0576040517f08c379a00000000000000000000000000000000000000000000000000000000081526004016107a79061364a565b60405180910390fd5b6107ba83836118fa565b505050565b6107d06107ca6118f2565b826119b3565b61080f576040517f08c379a0000000000000000000000000000000000000000000000000000000008152600401610806906137aa565b60405180910390fd5b61081a838383611a91565b505050565b60008060006002878761083188611ced565b60405160200161084393929190613439565b60405160208183030381529060405260405161085f91906133e7565b602060405180830381855afa15801561087c573d6000803e3d6000fd5b5050506040513d601f19601f8201168201806040525081019061089f9190612d0d565b905060006001905060005b8581101561093357600060f81b8382602081106108f0577f4e487b7100000000000000000000000000000000000000000000000000000000600052603260045260246000fd5b1a60f81b7effffffffffffffffffffffffffffffffffffffffffffffffffffffffffffff19161461092057600091505b808061092b90613afd565b9150506108aa565b50808293509350505094509492505050565b61096083838360405180602001604052806000815250610f81565b505050565b6000600854905090565b600043905080600960003373ffffffffffffffffffffffffffffffffffffffff1673ffffffffffffffffffffffffffffffffffffffff168152602001908152602001600020819055507fb5e8a4470f7bcac7f2c0f3e23471bd7016a9f6f049884cd27dfa8960f361287b816040516109e7919061380c565b60405180910390a150565b606060006060600080600b60008781526020019081526020016000206001018054610a1c90613a9a565b80601f0160208091040260200160405190810160405280929190818152602001828054610a4890613a9a565b8015610a955780601f10610a6a57610100808354040283529160200191610a95565b820191906000526020600020905b815481529060010190602001808311610a7857829003601f168201915b505050505090506000600b60008881526020019081526020016000206004015490506000600b60008981526020019081526020016000206005015490506000600b60008a81526020019081526020016000206007018054610af590613a9a565b80601f0160208091040260200160405190810160405280929190818152602001828054610b2190613a9a565b8015610b6e5780601f10610b4357610100808354040283529160200191610b6e565b820191906000526020600020905b815481529060010190602001808311610b5157829003601f168201915b50505050509050838382849750975097509750505050509193509193565b6000806002600084815260200190815260200160002060009054906101000a900473ffffffffffffffffffffffffffffffffffffffff169050600073ffffffffffffffffffffffffffffffffffffffff168173ffffffffffffffffffffffffffffffffffffffff161415610c35576040517f08c379a0000000000000000000000000000000000000000000000000000000008152600401610c2c9061368a565b60405180910390fd5b80915050919050565b60008073ffffffffffffffffffffffffffffffffffffffff168273ffffffffffffffffffffffffffffffffffffffff161415610caf576040517f08c379a0000000000000000000000000000000000000000000000000000000008152600401610ca69061366a565b60405180910390fd5b600360008373ffffffffffffffffffffffffffffffffffffffff1673ffffffffffffffffffffffffffffffffffffffff168152602001908152602001600020549050919050565b6000610d026007611e9a565b905090565b606060018054610d1690613a9a565b80601f0160208091040260200160405190810160405280929190818152602001828054610d4290613a9a565b8015610d8f5780601f10610d6457610100808354040283529160200191610d8f565b820191906000526020600020905b815481529060010190602001808311610d7257829003601f168201915b5050505050905090565b610da16118f2565b73ffffffffffffffffffffffffffffffffffffffff168273ffffffffffffffffffffffffffffffffffffffff161415610e0f576040517f08c379a0000000000000000000000000000000000000000000000000000000008152600401610e069061360a565b60405180910390fd5b8060056000610e1c6118f2565b73ffffffffffffffffffffffffffffffffffffffff1673ffffffffffffffffffffffffffffffffffffffff16815260200190815260200160002060008473ffffffffffffffffffffffffffffffffffffffff1673ffffffffffffffffffffffffffffffffffffffff16815260200190815260200160002060006101000a81548160ff0219169083151502179055508173ffffffffffffffffffffffffffffffffffffffff16610ec96118f2565b73ffffffffffffffffffffffffffffffffffffffff167f17307eab39ab6107e8899845ad3d59bd9653f200f220920489ca2b5937696c3183604051610f0e91906134d1565b60405180910390a35050565b6000600b6000838152602001908152602001600020600401549050919050565b6000600960003373ffffffffffffffffffffffffffffffffffffffff1673ffffffffffffffffffffffffffffffffffffffff16815260200190815260200160002054905090565b610f92610f8c6118f2565b836119b3565b610fd1576040517f08c379a0000000000000000000000000000000000000000000000000000000008152600401610fc8906137aa565b60405180910390fd5b610fdd84848484611ea8565b50505050565b6060610fee82611886565b61102d576040517f08c379a00000000000000000000000000000000000000000000000000000000081526004016110249061370a565b60405180910390fd5b600060066000848152602001908152602001600020805461104d90613a9a565b80601f016020809104026020016040519081016040528092919081815260200182805461107990613a9a565b80156110c65780601f1061109b576101008083540402835291602001916110c6565b820191906000526020600020905b8154815290600101906020018083116110a957829003601f168201915b5050505050905060006110d7611f04565b90506000815114156110ed578192505050611130565b60008251111561112257808260405160200161110a929190613415565b60405160208183030381529060405292505050611130565b61112b84611f1b565b925050505b919050565b600a818051602081018201805184825260208301602085012081835280955050505050506000915054906101000a900460ff1681565b611173612904565b600b600083815260200190815260200160002060405180610100016040529081600082015481526020016001820180546111ac90613a9a565b80601f01602080910402602001604051908101604052809291908181526020018280546111d890613a9a565b80156112255780601f106111fa57610100808354040283529160200191611225565b820191906000526020600020905b81548152906001019060200180831161120857829003601f168201915b505050505081526020016002820160009054906101000a900473ffffffffffffffffffffffffffffffffffffffff1673ffffffffffffffffffffffffffffffffffffffff1673ffffffffffffffffffffffffffffffffffffffff1681526020016003820160009054906101000a900473ffffffffffffffffffffffffffffffffffffffff1673ffffffffffffffffffffffffffffffffffffffff1673ffffffffffffffffffffffffffffffffffffffff16815260200160048201548152602001600582015481526020016006820154815260200160078201805461130890613a9a565b80601f016020809104026020016040519081016040528092919081815260200182805461133490613a9a565b80156113815780601f1061135657610100808354040283529160200191611381565b820191906000526020600020905b81548152906001019060200180831161136457829003601f168201915b5050505050815250509050919050565b6000600560008473ffffffffffffffffffffffffffffffffffffffff1673ffffffffffffffffffffffffffffffffffffffff16815260200190815260200160002060008373ffffffffffffffffffffffffffffffffffffffff1673ffffffffffffffffffffffffffffffffffffffff16815260200190815260200160002060009054906101000a900460ff16905092915050565b43600854600960003373ffffffffffffffffffffffffffffffffffffffff1673ffffffffffffffffffffffffffffffffffffffff16815260200190815260200160002054611473919061390d565b116114b3576040517f08c379a00000000000000000000000000000000000000000000000000000000081526004016114aa906136ca565b60405180910390fd5b60001515600a846040516114c791906133fe565b908152602001604051809103902060009054906101000a900460ff16151514611525576040517f08c379a000000000000000000000000000000000000000000000000000000000815260040161151c906137ca565b60405180910390fd5b6000600960003373ffffffffffffffffffffffffffffffffffffffff1673ffffffffffffffffffffffffffffffffffffffff1681526020019081526020016000205414156115a8576040517f08c379a000000000000000000000000000000000000000000000000000000000815260040161159f9061358a565b60405180910390fd5b600073ffffffffffffffffffffffffffffffffffffffff163373ffffffffffffffffffffffffffffffffffffffff1614156115e257600080fd5b60006001905060008060028686611637600960003373ffffffffffffffffffffffffffffffffffffffff1673ffffffffffffffffffffffffffffffffffffffff16815260200190815260200160002054611ced565b60405160200161164993929190613439565b60405160208183030381529060405260405161166591906133e7565b602060405180830381855afa158015611682573d6000803e3d6000fd5b5050506040513d601f19601f820116820180604052508101906116a59190612d0d565b905060005b8781101561173357600060f81b8282602081106116f0577f4e487b7100000000000000000000000000000000000000000000000000000000600052603260045260246000fd5b1a60f81b7effffffffffffffffffffffffffffffffffffffffffffffffffffffffffffff19161461172057600093505b808061172b90613afd565b9150506116aa565b5082156117da576001600a8760405161174c91906133fe565b908152602001604051809103902060006101000a81548160ff02191690831515021790555061177b6007611fc2565b60006117876007611e9a565b90506117d681600960003373ffffffffffffffffffffffffffffffffffffffff1673ffffffffffffffffffffffffffffffffffffffff1681526020019081526020016000205489898c8a611fe1565b9250505b7fa3a10b160edc0bd161c49367144eeac96e21921b98aae2036aa3ca397fa4859e838260405161180b9291906134ec565b60405180910390a150505050505050565b60007f01ffc9a7000000000000000000000000000000000000000000000000000000007bffffffffffffffffffffffffffffffffffffffffffffffffffffffff1916827bffffffffffffffffffffffffffffffffffffffffffffffffffffffff1916149050919050565b60008073ffffffffffffffffffffffffffffffffffffffff166002600084815260200190815260200160002060009054906101000a900473ffffffffffffffffffffffffffffffffffffffff1673ffffffffffffffffffffffffffffffffffffffff1614159050919050565b600033905090565b816004600083815260200190815260200160002060006101000a81548173ffffffffffffffffffffffffffffffffffffffff021916908373ffffffffffffffffffffffffffffffffffffffff160217905550808273ffffffffffffffffffffffffffffffffffffffff1661196d83610b8c565b73ffffffffffffffffffffffffffffffffffffffff167f8c5be1e5ebec7d5bd14f71427d1e84f3dd0314c0f7b2291e5b200ac8c7c3b92560405160405180910390a45050565b60006119be82611886565b6119fd576040517f08c379a00000000000000000000000000000000000000000000000000000000081526004016119f49061362a565b60405180910390fd5b6000611a0883610b8c565b90508073ffffffffffffffffffffffffffffffffffffffff168473ffffffffffffffffffffffffffffffffffffffff161480611a7757508373ffffffffffffffffffffffffffffffffffffffff16611a5f84610622565b73ffffffffffffffffffffffffffffffffffffffff16145b80611a885750611a878185611391565b5b91505092915050565b8273ffffffffffffffffffffffffffffffffffffffff16611ab182610b8c565b73ffffffffffffffffffffffffffffffffffffffff1614611b07576040517f08c379a0000000000000000000000000000000000000000000000000000000008152600401611afe9061374a565b60405180910390fd5b600073ffffffffffffffffffffffffffffffffffffffff168273ffffffffffffffffffffffffffffffffffffffff161415611b77576040517f08c379a0000000000000000000000000000000000000000000000000000000008152600401611b6e906135ea565b60405180910390fd5b611b82838383612180565b611b8d6000826118fa565b6001600360008573ffffffffffffffffffffffffffffffffffffffff1673ffffffffffffffffffffffffffffffffffffffff1681526020019081526020016000206000828254611bdd9190613994565b925050819055506001600360008473ffffffffffffffffffffffffffffffffffffffff1673ffffffffffffffffffffffffffffffffffffffff1681526020019081526020016000206000828254611c34919061390d565b92505081905550816002600083815260200190815260200160002060006101000a81548173ffffffffffffffffffffffffffffffffffffffff021916908373ffffffffffffffffffffffffffffffffffffffff160217905550808273ffffffffffffffffffffffffffffffffffffffff168473ffffffffffffffffffffffffffffffffffffffff167fddf252ad1be2c89b69c2b068fc378daa952ba7f163c4a11628f55a4df523b3ef60405160405180910390a4505050565b60606000821415611d35576040518060400160405280600181526020017f30000000000000000000000000000000000000000000000000000000000000008152509050611e95565b600082905060005b60008214611d67578080611d5090613afd565b915050600a82611d609190613963565b9150611d3d565b60008167ffffffffffffffff811115611da9577f4e487b7100000000000000000000000000000000000000000000000000000000600052604160045260246000fd5b6040519080825280601f01601f191660200182016040528015611ddb5781602001600182028036833780820191505090505b5090505b60008514611e8e57600182611df49190613994565b9150600a85611e039190613b46565b6030611e0f919061390d565b60f81b818381518110611e4b577f4e487b7100000000000000000000000000000000000000000000000000000000600052603260045260246000fd5b60200101907effffffffffffffffffffffffffffffffffffffffffffffffffffffffffffff1916908160001a905350600a85611e879190613963565b9450611ddf565b8093505050505b919050565b600081600001549050919050565b611eb3848484611a91565b611ebf84848484612518565b611efe576040517f08c379a0000000000000000000000000000000000000000000000000000000008152600401611ef5906135aa565b60405180910390fd5b50505050565b606060405180602001604052806000815250905090565b6060611f2682611886565b611f65576040517f08c379a0000000000000000000000000000000000000000000000000000000008152600401611f5c9061376a565b60405180910390fd5b6000611f6f611f04565b90506000815111611f8f5760405180602001604052806000815250611fba565b80611f9984611ced565b604051602001611faa929190613415565b6040516020818303038152906040525b915050919050565b6001816000016000828254611fd7919061390d565b9250508190555050565b6000611fed33886126af565b611ff7878361287d565b600060405180610100016040528061200f6007611e9a565b81526020018781526020013373ffffffffffffffffffffffffffffffffffffffff168152602001600073ffffffffffffffffffffffffffffffffffffffff16815260200185815260200188815260200143815260200186815250905080600b60008a81526020019081526020016000206000820151816000015560208201518160010190805190602001906120a5929190612975565b5060408201518160020160006101000a81548173ffffffffffffffffffffffffffffffffffffffff021916908373ffffffffffffffffffffffffffffffffffffffff16021790555060608201518160030160006101000a81548173ffffffffffffffffffffffffffffffffffffffff021916908373ffffffffffffffffffffffffffffffffffffffff1602179055506080820151816004015560a0820151816005015560c0820151816006015560e082015181600701908051906020019061216e929190612975565b50905050879150509695505050505050565b6000600b600083815260200190815260200160002060405180610100016040529081600082015481526020016001820180546121bb90613a9a565b80601f01602080910402602001604051908101604052809291908181526020018280546121e790613a9a565b80156122345780601f1061220957610100808354040283529160200191612234565b820191906000526020600020905b81548152906001019060200180831161221757829003601f168201915b505050505081526020016002820160009054906101000a900473ffffffffffffffffffffffffffffffffffffffff1673ffffffffffffffffffffffffffffffffffffffff1673ffffffffffffffffffffffffffffffffffffffff1681526020016003820160009054906101000a900473ffffffffffffffffffffffffffffffffffffffff1673ffffffffffffffffffffffffffffffffffffffff1673ffffffffffffffffffffffffffffffffffffffff16815260200160048201548152602001600582015481526020016006820154815260200160078201805461231790613a9a565b80601f016020809104026020016040519081016040528092919081815260200182805461234390613a9a565b80156123905780601f1061236557610100808354040283529160200191612390565b820191906000526020600020905b81548152906001019060200180831161237357829003601f168201915b505050505081525050905083816060019073ffffffffffffffffffffffffffffffffffffffff16908173ffffffffffffffffffffffffffffffffffffffff168152505082816040019073ffffffffffffffffffffffffffffffffffffffff16908173ffffffffffffffffffffffffffffffffffffffff168152505080600b6000848152602001908152602001600020600082015181600001556020820151816001019080519060200190612445929190612975565b5060408201518160020160006101000a81548173ffffffffffffffffffffffffffffffffffffffff021916908373ffffffffffffffffffffffffffffffffffffffff16021790555060608201518160030160006101000a81548173ffffffffffffffffffffffffffffffffffffffff021916908373ffffffffffffffffffffffffffffffffffffffff1602179055506080820151816004015560a0820151816005015560c0820151816006015560e082015181600701908051906020019061250e929190612975565b5090505050505050565b60006125398473ffffffffffffffffffffffffffffffffffffffff166128f1565b156126a2578373ffffffffffffffffffffffffffffffffffffffff1663150b7a026125626118f2565b8786866040518563ffffffff1660e01b81526004016125849493929190613485565b602060405180830381600087803b15801561259e57600080fd5b505af19250505080156125cf57506040513d601f19601f820116820180604052508101906125cc9190612d5f565b60015b612652573d80600081146125ff576040519150601f19603f3d011682016040523d82523d6000602084013e612604565b606091505b5060008151141561264a576040517f08c379a0000000000000000000000000000000000000000000000000000000008152600401612641906135aa565b60405180910390fd5b805181602001fd5b63150b7a0260e01b7bffffffffffffffffffffffffffffffffffffffffffffffffffffffff1916817bffffffffffffffffffffffffffffffffffffffffffffffffffffffff1916149150506126a7565b600190505b949350505050565b600073ffffffffffffffffffffffffffffffffffffffff168273ffffffffffffffffffffffffffffffffffffffff16141561271f576040517f08c379a0000000000000000000000000000000000000000000000000000000008152600401612716906136ea565b60405180910390fd5b61272881611886565b15612768576040517f08c379a000000000000000000000000000000000000000000000000000000000815260040161275f906135ca565b60405180910390fd5b61277460008383612180565b6001600360008473ffffffffffffffffffffffffffffffffffffffff1673ffffffffffffffffffffffffffffffffffffffff16815260200190815260200160002060008282546127c4919061390d565b92505081905550816002600083815260200190815260200160002060006101000a81548173ffffffffffffffffffffffffffffffffffffffff021916908373ffffffffffffffffffffffffffffffffffffffff160217905550808273ffffffffffffffffffffffffffffffffffffffff16600073ffffffffffffffffffffffffffffffffffffffff167fddf252ad1be2c89b69c2b068fc378daa952ba7f163c4a11628f55a4df523b3ef60405160405180910390a45050565b61288682611886565b6128c5576040517f08c379a00000000000000000000000000000000000000000000000000000000081526004016128bc906136aa565b60405180910390fd5b806006600084815260200190815260200160002090805190602001906128ec929190612975565b505050565b600080823b905060008111915050919050565b6040518061010001604052806000815260200160608152602001600073ffffffffffffffffffffffffffffffffffffffff168152602001600073ffffffffffffffffffffffffffffffffffffffff168152602001600081526020016000815260200160008152602001606081525090565b82805461298190613a9a565b90600052602060002090601f0160209004810192826129a357600085556129ea565b82601f106129bc57805160ff19168380011785556129ea565b828001600101855582156129ea579182015b828111156129e95782518255916020019190600101906129ce565b5b5090506129f791906129fb565b5090565b5b80821115612a145760008160009055506001016129fc565b5090565b6000612a2b612a268461384c565b613827565b905082815260208101848484011115612a4357600080fd5b612a4e848285613a58565b509392505050565b6000612a69612a648461387d565b613827565b905082815260208101848484011115612a8157600080fd5b612a8c848285613a58565b509392505050565b600081359050612aa38161413d565b92915050565b600081359050612ab881614154565b92915050565b600081519050612acd8161416b565b92915050565b600081359050612ae281614182565b92915050565b600081519050612af781614182565b92915050565b600082601f830112612b0e57600080fd5b8135612b1e848260208601612a18565b91505092915050565b600082601f830112612b3857600080fd5b8135612b48848260208601612a56565b91505092915050565b600081359050612b6081614199565b92915050565b600060208284031215612b7857600080fd5b6000612b8684828501612a94565b91505092915050565b60008060408385031215612ba257600080fd5b6000612bb085828601612a94565b9250506020612bc185828601612a94565b9150509250929050565b600080600060608486031215612be057600080fd5b6000612bee86828701612a94565b9350506020612bff86828701612a94565b9250506040612c1086828701612b51565b9150509250925092565b60008060008060808587031215612c3057600080fd5b6000612c3e87828801612a94565b9450506020612c4f87828801612a94565b9350506040612c6087828801612b51565b925050606085013567ffffffffffffffff811115612c7d57600080fd5b612c8987828801612afd565b91505092959194509250565b60008060408385031215612ca857600080fd5b6000612cb685828601612a94565b9250506020612cc785828601612aa9565b9150509250929050565b60008060408385031215612ce457600080fd5b6000612cf285828601612a94565b9250506020612d0385828601612b51565b9150509250929050565b600060208284031215612d1f57600080fd5b6000612d2d84828501612abe565b91505092915050565b600060208284031215612d4857600080fd5b6000612d5684828501612ad3565b91505092915050565b600060208284031215612d7157600080fd5b6000612d7f84828501612ae8565b91505092915050565b600060208284031215612d9a57600080fd5b600082013567ffffffffffffffff811115612db457600080fd5b612dc084828501612b27565b91505092915050565b60008060008060808587031215612ddf57600080fd5b600085013567ffffffffffffffff811115612df957600080fd5b612e0587828801612b27565b945050602085013567ffffffffffffffff811115612e2257600080fd5b612e2e87828801612b27565b9350506040612e3f87828801612b51565b9250506060612e5087828801612b51565b91505092959194509250565b600060208284031215612e6e57600080fd5b6000612e7c84828501612b51565b91505092915050565b60008060008060808587031215612e9b57600080fd5b6000612ea987828801612b51565b945050602085013567ffffffffffffffff811115612ec657600080fd5b612ed287828801612b27565b935050604085013567ffffffffffffffff811115612eef57600080fd5b612efb87828801612b27565b925050606085013567ffffffffffffffff811115612f1857600080fd5b612f2487828801612b27565b91505092959194509250565b612f39816139da565b82525050565b612f48816139c8565b82525050565b612f57816139ec565b82525050565b612f66816139f8565b82525050565b6000612f77826138ae565b612f8181856138c4565b9350612f91818560208601613a67565b612f9a81613c33565b840191505092915050565b6000612fb0826138ae565b612fba81856138d5565b9350612fca818560208601613a67565b80840191505092915050565b6000612fe1826138b9565b612feb81856138e0565b9350612ffb818560208601613a67565b61300481613c33565b840191505092915050565b600061301a826138b9565b61302481856138f1565b9350613034818560208601613a67565b61303d81613c33565b840191505092915050565b6000613053826138b9565b61305d8185613902565b935061306d818560208601613a67565b80840191505092915050565b60006130866015836138f1565b915061309182613c44565b602082019050919050565b60006130a96032836138f1565b91506130b482613c6d565b604082019050919050565b60006130cc601c836138f1565b91506130d782613cbc565b602082019050919050565b60006130ef6024836138f1565b91506130fa82613ce5565b604082019050919050565b60006131126019836138f1565b915061311d82613d34565b602082019050919050565b6000613135602c836138f1565b915061314082613d5d565b604082019050919050565b60006131586038836138f1565b915061316382613dac565b604082019050919050565b600061317b602a836138f1565b915061318682613dfb565b604082019050919050565b600061319e6029836138f1565b91506131a982613e4a565b604082019050919050565b60006131c1602e836138f1565b91506131cc82613e99565b604082019050919050565b60006131e46013836138f1565b91506131ef82613ee8565b602082019050919050565b60006132076020836138f1565b915061321282613f11565b602082019050919050565b600061322a6031836138f1565b915061323582613f3a565b604082019050919050565b600061324d602c836138f1565b915061325882613f89565b604082019050919050565b60006132706029836138f1565b915061327b82613fd8565b604082019050919050565b6000613293602f836138f1565b915061329e82614027565b604082019050919050565b60006132b66021836138f1565b91506132c182614076565b604082019050919050565b60006132d96031836138f1565b91506132e4826140c5565b604082019050919050565b60006132fc600c836138f1565b915061330782614114565b602082019050919050565b60006101008301600083015161332b60008601826133c9565b50602083015184820360208601526133438282612fd6565b91505060408301516133586040860182612f30565b50606083015161336b6060860182612f30565b50608083015161337e60808601826133c9565b5060a083015161339160a08601826133c9565b5060c08301516133a460c08601826133c9565b5060e083015184820360e08601526133bc8282612fd6565b9150508091505092915050565b6133d281613a4e565b82525050565b6133e181613a4e565b82525050565b60006133f38284612fa5565b915081905092915050565b600061340a8284613048565b915081905092915050565b60006134218285613048565b915061342d8284613048565b91508190509392505050565b60006134458286613048565b91506134518285613048565b915061345d8284613048565b9150819050949350505050565b600060208201905061347f6000830184612f3f565b92915050565b600060808201905061349a6000830187612f3f565b6134a76020830186612f3f565b6134b460408301856133d8565b81810360608301526134c68184612f6c565b905095945050505050565b60006020820190506134e66000830184612f4e565b92915050565b60006040820190506135016000830185612f4e565b61350e6020830184612f5d565b9392505050565b6000602082019050818103600083015261352f818461300f565b905092915050565b60006080820190508181036000830152613551818761300f565b905061356060208301866133d8565b8181036040830152613572818561300f565b905061358160608301846133d8565b95945050505050565b600060208201905081810360008301526135a381613079565b9050919050565b600060208201905081810360008301526135c38161309c565b9050919050565b600060208201905081810360008301526135e3816130bf565b9050919050565b60006020820190508181036000830152613603816130e2565b9050919050565b6000602082019050818103600083015261362381613105565b9050919050565b6000602082019050818103600083015261364381613128565b9050919050565b600060208201905081810360008301526136638161314b565b9050919050565b600060208201905081810360008301526136838161316e565b9050919050565b600060208201905081810360008301526136a381613191565b9050919050565b600060208201905081810360008301526136c3816131b4565b9050919050565b600060208201905081810360008301526136e3816131d7565b9050919050565b60006020820190508181036000830152613703816131fa565b9050919050565b600060208201905081810360008301526137238161321d565b9050919050565b6000602082019050818103600083015261374381613240565b9050919050565b6000602082019050818103600083015261376381613263565b9050919050565b6000602082019050818103600083015261378381613286565b9050919050565b600060208201905081810360008301526137a3816132a9565b9050919050565b600060208201905081810360008301526137c3816132cc565b9050919050565b600060208201905081810360008301526137e3816132ef565b9050919050565b600060208201905081810360008301526138048184613312565b905092915050565b600060208201905061382160008301846133d8565b92915050565b6000613831613842565b905061383d8282613acc565b919050565b6000604051905090565b600067ffffffffffffffff82111561386757613866613c04565b5b61387082613c33565b9050602081019050919050565b600067ffffffffffffffff82111561389857613897613c04565b5b6138a182613c33565b9050602081019050919050565b600081519050919050565b600081519050919050565b600082825260208201905092915050565b600081905092915050565b600082825260208201905092915050565b600082825260208201905092915050565b600081905092915050565b600061391882613a4e565b915061392383613a4e565b9250827fffffffffffffffffffffffffffffffffffffffffffffffffffffffffffffffff0382111561395857613957613b77565b5b828201905092915050565b600061396e82613a4e565b915061397983613a4e565b92508261398957613988613ba6565b5b828204905092915050565b600061399f82613a4e565b91506139aa83613a4e565b9250828210156139bd576139bc613b77565b5b828203905092915050565b60006139d382613a2e565b9050919050565b60006139e582613a2e565b9050919050565b60008115159050919050565b6000819050919050565b60007fffffffff0000000000000000000000000000000000000000000000000000000082169050919050565b600073ffffffffffffffffffffffffffffffffffffffff82169050919050565b6000819050919050565b82818337600083830152505050565b60005b83811015613a85578082015181840152602081019050613a6a565b83811115613a94576000848401525b50505050565b60006002820490506001821680613ab257607f821691505b60208210811415613ac657613ac5613bd5565b5b50919050565b613ad582613c33565b810181811067ffffffffffffffff82111715613af457613af3613c04565b5b80604052505050565b6000613b0882613a4e565b91507fffffffffffffffffffffffffffffffffffffffffffffffffffffffffffffffff821415613b3b57613b3a613b77565b5b600182019050919050565b6000613b5182613a4e565b9150613b5c83613a4e565b925082613b6c57613b6b613ba6565b5b828206905092915050565b7f4e487b7100000000000000000000000000000000000000000000000000000000600052601160045260246000fd5b7f4e487b7100000000000000000000000000000000000000000000000000000000600052601260045260246000fd5b7f4e487b7100000000000000000000000000000000000000000000000000000000600052602260045260246000fd5b7f4e487b7100000000000000000000000000000000000000000000000000000000600052604160045260246000fd5b6000601f19601f8301169050919050565b7f546f6c6572616e63652063616e6e6f7420626520300000000000000000000000600082015250565b7f4552433732313a207472616e7366657220746f206e6f6e20455243373231526560008201527f63656976657220696d706c656d656e7465720000000000000000000000000000602082015250565b7f4552433732313a20746f6b656e20616c7265616479206d696e74656400000000600082015250565b7f4552433732313a207472616e7366657220746f20746865207a65726f2061646460008201527f7265737300000000000000000000000000000000000000000000000000000000602082015250565b7f4552433732313a20617070726f766520746f2063616c6c657200000000000000600082015250565b7f4552433732313a206f70657261746f7220717565727920666f72206e6f6e657860008201527f697374656e7420746f6b656e0000000000000000000000000000000000000000602082015250565b7f4552433732313a20617070726f76652063616c6c6572206973206e6f74206f7760008201527f6e6572206e6f7220617070726f76656420666f7220616c6c0000000000000000602082015250565b7f4552433732313a2062616c616e636520717565727920666f7220746865207a6560008201527f726f206164647265737300000000000000000000000000000000000000000000602082015250565b7f4552433732313a206f776e657220717565727920666f72206e6f6e657869737460008201527f656e7420746f6b656e0000000000000000000000000000000000000000000000602082015250565b7f45524337323155524953746f726167653a2055524920736574206f66206e6f6e60008201527f6578697374656e7420746f6b656e000000000000000000000000000000000000602082015250565b7f746f6c6572616e63652069732065787069726500000000000000000000000000600082015250565b7f4552433732313a206d696e7420746f20746865207a65726f2061646472657373600082015250565b7f45524337323155524953746f726167653a2055524920717565727920666f722060008201527f6e6f6e6578697374656e7420746f6b656e000000000000000000000000000000602082015250565b7f4552433732313a20617070726f76656420717565727920666f72206e6f6e657860008201527f697374656e7420746f6b656e0000000000000000000000000000000000000000602082015250565b7f4552433732313a207472616e73666572206f6620746f6b656e2074686174206960008201527f73206e6f74206f776e0000000000000000000000000000000000000000000000602082015250565b7f4552433732314d657461646174613a2055524920717565727920666f72206e6f60008201527f6e6578697374656e7420746f6b656e0000000000000000000000000000000000602082015250565b7f4552433732313a20617070726f76616c20746f2063757272656e74206f776e6560008201527f7200000000000000000000000000000000000000000000000000000000000000602082015250565b7f4552433732313a207472616e736665722063616c6c6572206973206e6f74206f60008201527f776e6572206e6f7220617070726f766564000000000000000000000000000000602082015250565b7f6e616d6520697320627573790000000000000000000000000000000000000000600082015250565b614146816139c8565b811461415157600080fd5b50565b61415d816139ec565b811461416857600080fd5b50565b614174816139f8565b811461417f57600080fd5b50565b61418b81613a02565b811461419657600080fd5b50565b6141a281613a4e565b81146141ad57600080fd5b5056fea26469706673582212205f9aaa23562db7073c9710eb11924b04610c781cfd529fa70dbcfa9e95c185c064736f6c63430008030033",
  "immutableReferences": {},
  "source": "// SPDX-License-Identifier: MIT\npragma solidity ^0.8.0;\n\nimport \"./IHashima.sol\";\nimport \"./ERC721Hashima.sol\";\nimport \"@openzeppelin/contracts/utils/Counters.sol\";\nimport \"@openzeppelin/contracts/token/ERC721/extensions/ERC721URIStorage.sol\";\nimport \"@openzeppelin/contracts/access/Ownable.sol\";\n\n\n\ncontract NewHashima is ERC721Hashima{\n\n\n  constructor() ERC721(\"Hashima2\", \"HASHIMA2\") {}\n\n\n\n}",
  "sourcePath": "/Users/aarontolentino/Desktop/Contratos_1/hashima/contracts/NewHashima.sol",
  "compiler": {
    "name": "solc",
    "version": "0.8.3+commit.8d00100c.Emscripten.clang"
  },
  "schemaVersion": "3.4.1",
  "updatedAt": "2022-05-13T05:34:37.118Z",
  "networkType": "ethereum",
  "devdoc": {
    "kind": "dev",
    "methods": {
      "approve(address,uint256)": {
        "details": "See {IERC721-approve}."
      },
      "balanceOf(address)": {
        "details": "See {IERC721-balanceOf}."
      },
      "getApproved(uint256)": {
        "details": "See {IERC721-getApproved}."
      },
      "isApprovedForAll(address,address)": {
        "details": "See {IERC721-isApprovedForAll}."
      },
      "name()": {
        "details": "See {IERC721Metadata-name}."
      },
      "ownerOf(uint256)": {
        "details": "See {IERC721-ownerOf}."
      },
      "safeTransferFrom(address,address,uint256)": {
        "details": "See {IERC721-safeTransferFrom}."
      },
      "safeTransferFrom(address,address,uint256,bytes)": {
        "details": "See {IERC721-safeTransferFrom}."
      },
      "setApprovalForAll(address,bool)": {
        "details": "See {IERC721-setApprovalForAll}."
      },
      "supportsInterface(bytes4)": {
        "details": "See {IERC165-supportsInterface}."
      },
      "symbol()": {
        "details": "See {IERC721Metadata-symbol}."
      },
      "tokenURI(uint256)": {
        "details": "See {IERC721Metadata-tokenURI}."
      },
      "transferFrom(address,address,uint256)": {
        "details": "See {IERC721-transferFrom}."
      }
    },
    "version": 1
  },
  "userdoc": {
    "kind": "user",
    "methods": {},
    "version": 1
  }
}