{
  "contractName": "NFTAuction",
  "abi": [
    {
      "inputs": [],
      "stateMutability": "nonpayable",
      "type": "constructor"
    },
    {
      "anonymous": false,
      "inputs": [
        {
          "indexed": false,
          "internalType": "address",
          "name": "nftContractAddress",
          "type": "address"
        },
        {
          "indexed": false,
          "internalType": "uint256",
          "name": "tokenId",
          "type": "uint256"
        },
        {
          "indexed": false,
          "internalType": "uint64",
          "name": "auctionEndPeriod",
          "type": "uint64"
        }
      ],
      "name": "AuctionPeriodUpdated",
      "type": "event"
    },
    {
      "anonymous": false,
      "inputs": [
        {
          "indexed": false,
          "internalType": "address",
          "name": "nftContractAddress",
          "type": "address"
        },
        {
          "indexed": false,
          "internalType": "uint256",
          "name": "tokenId",
          "type": "uint256"
        },
        {
          "indexed": false,
          "internalType": "address",
          "name": "auctionSettler",
          "type": "address"
        }
      ],
      "name": "AuctionSettled",
      "type": "event"
    },
    {
      "anonymous": false,
      "inputs": [
        {
          "indexed": false,
          "internalType": "address",
          "name": "nftContractAddress",
          "type": "address"
        },
        {
          "indexed": false,
          "internalType": "uint256",
          "name": "tokenId",
          "type": "uint256"
        },
        {
          "indexed": false,
          "internalType": "address",
          "name": "nftOwner",
          "type": "address"
        }
      ],
      "name": "AuctionWithdrawn",
      "type": "event"
    },
    {
      "anonymous": false,
      "inputs": [
        {
          "indexed": false,
          "internalType": "address",
          "name": "nftContractAddress",
          "type": "address"
        },
        {
          "indexed": false,
          "internalType": "uint256",
          "name": "tokenId",
          "type": "uint256"
        },
        {
          "indexed": false,
          "internalType": "address",
          "name": "bidder",
          "type": "address"
        },
        {
          "indexed": false,
          "internalType": "uint256",
          "name": "ethAmount",
          "type": "uint256"
        },
        {
          "indexed": false,
          "internalType": "address",
          "name": "erc20Token",
          "type": "address"
        },
        {
          "indexed": false,
          "internalType": "uint256",
          "name": "tokenAmount",
          "type": "uint256"
        }
      ],
      "name": "BidMade",
      "type": "event"
    },
    {
      "anonymous": false,
      "inputs": [
        {
          "indexed": false,
          "internalType": "address",
          "name": "nftContractAddress",
          "type": "address"
        },
        {
          "indexed": false,
          "internalType": "uint256",
          "name": "tokenId",
          "type": "uint256"
        },
        {
          "indexed": false,
          "internalType": "address",
          "name": "highestBidder",
          "type": "address"
        }
      ],
      "name": "BidWithdrawn",
      "type": "event"
    },
    {
      "anonymous": false,
      "inputs": [
        {
          "indexed": false,
          "internalType": "address",
          "name": "nftContractAddress",
          "type": "address"
        },
        {
          "indexed": false,
          "internalType": "uint256",
          "name": "tokenId",
          "type": "uint256"
        },
        {
          "indexed": false,
          "internalType": "uint128",
          "name": "newBuyNowPrice",
          "type": "uint128"
        }
      ],
      "name": "BuyNowPriceUpdated",
      "type": "event"
    },
    {
      "anonymous": false,
      "inputs": [
        {
          "indexed": false,
          "internalType": "address",
          "name": "nftContractAddress",
          "type": "address"
        },
        {
          "indexed": false,
          "internalType": "uint256",
          "name": "tokenId",
          "type": "uint256"
        }
      ],
      "name": "HighestBidTaken",
      "type": "event"
    },
    {
      "anonymous": false,
      "inputs": [
        {
          "indexed": false,
          "internalType": "address",
          "name": "nftContractAddress",
          "type": "address"
        },
        {
          "indexed": false,
          "internalType": "uint256",
          "name": "tokenId",
          "type": "uint256"
        },
        {
          "indexed": false,
          "internalType": "uint256",
          "name": "newMinPrice",
          "type": "uint256"
        }
      ],
      "name": "MinimumPriceUpdated",
      "type": "event"
    },
    {
      "anonymous": false,
      "inputs": [
        {
          "indexed": false,
          "internalType": "address",
          "name": "nftContractAddress",
          "type": "address"
        },
        {
          "indexed": false,
          "internalType": "uint256",
          "name": "tokenId",
          "type": "uint256"
        },
        {
          "indexed": false,
          "internalType": "address",
          "name": "nftSeller",
          "type": "address"
        },
        {
          "indexed": false,
          "internalType": "uint128",
          "name": "nftHighestBid",
          "type": "uint128"
        },
        {
          "indexed": false,
          "internalType": "address",
          "name": "nftHighestBidder",
          "type": "address"
        },
        {
          "indexed": false,
          "internalType": "address",
          "name": "nftRecipient",
          "type": "address"
        }
      ],
      "name": "NFTTransferredAndSellerPaid",
      "type": "event"
    },
    {
      "anonymous": false,
      "inputs": [
        {
          "indexed": false,
          "internalType": "address",
          "name": "nftContractAddress",
          "type": "address"
        },
        {
          "indexed": false,
          "internalType": "uint256",
          "name": "tokenId",
          "type": "uint256"
        },
        {
          "indexed": false,
          "internalType": "address",
          "name": "nftSeller",
          "type": "address"
        },
        {
          "indexed": false,
          "internalType": "address",
          "name": "erc20Token",
          "type": "address"
        },
        {
          "indexed": false,
          "internalType": "uint128",
          "name": "minPrice",
          "type": "uint128"
        },
        {
          "indexed": false,
          "internalType": "uint128",
          "name": "buyNowPrice",
          "type": "uint128"
        },
        {
          "indexed": false,
          "internalType": "uint32",
          "name": "auctionBidPeriod",
          "type": "uint32"
        },
        {
          "indexed": false,
          "internalType": "uint32",
          "name": "bidIncreasePercentage",
          "type": "uint32"
        },
        {
          "indexed": false,
          "internalType": "address[]",
          "name": "feeRecipients",
          "type": "address[]"
        },
        {
          "indexed": false,
          "internalType": "uint32[]",
          "name": "feePercentages",
          "type": "uint32[]"
        }
      ],
      "name": "NftAuctionCreated",
      "type": "event"
    },
    {
      "anonymous": false,
      "inputs": [
        {
          "indexed": false,
          "internalType": "address",
          "name": "nftContractAddress",
          "type": "address"
        },
        {
          "indexed": false,
          "internalType": "uint256",
          "name": "tokenId",
          "type": "uint256"
        },
        {
          "indexed": false,
          "internalType": "address",
          "name": "nftSeller",
          "type": "address"
        },
        {
          "indexed": false,
          "internalType": "address",
          "name": "erc20Token",
          "type": "address"
        },
        {
          "indexed": false,
          "internalType": "uint128",
          "name": "buyNowPrice",
          "type": "uint128"
        },
        {
          "indexed": false,
          "internalType": "address",
          "name": "whitelistedBuyer",
          "type": "address"
        },
        {
          "indexed": false,
          "internalType": "address[]",
          "name": "feeRecipients",
          "type": "address[]"
        },
        {
          "indexed": false,
          "internalType": "uint32[]",
          "name": "feePercentages",
          "type": "uint32[]"
        }
      ],
      "name": "SaleCreated",
      "type": "event"
    },
    {
      "anonymous": false,
      "inputs": [
        {
          "indexed": false,
          "internalType": "address",
          "name": "nftContractAddress",
          "type": "address"
        },
        {
          "indexed": false,
          "internalType": "uint256",
          "name": "tokenId",
          "type": "uint256"
        },
        {
          "indexed": false,
          "internalType": "address",
          "name": "newWhitelistedBuyer",
          "type": "address"
        }
      ],
      "name": "WhitelistedBuyerUpdated",
      "type": "event"
    },
    {
      "inputs": [],
      "name": "defaultAuctionBidPeriod",
      "outputs": [
        {
          "internalType": "uint32",
          "name": "",
          "type": "uint32"
        }
      ],
      "stateMutability": "view",
      "type": "function"
    },
    {
      "inputs": [],
      "name": "defaultBidIncreasePercentage",
      "outputs": [
        {
          "internalType": "uint32",
          "name": "",
          "type": "uint32"
        }
      ],
      "stateMutability": "view",
      "type": "function"
    },
    {
      "inputs": [],
      "name": "maximumMinPricePercentage",
      "outputs": [
        {
          "internalType": "uint32",
          "name": "",
          "type": "uint32"
        }
      ],
      "stateMutability": "view",
      "type": "function"
    },
    {
      "inputs": [],
      "name": "minimumSettableIncreasePercentage",
      "outputs": [
        {
          "internalType": "uint32",
          "name": "",
          "type": "uint32"
        }
      ],
      "stateMutability": "view",
      "type": "function"
    },
    {
      "inputs": [
        {
          "internalType": "address",
          "name": "",
          "type": "address"
        },
        {
          "internalType": "uint256",
          "name": "",
          "type": "uint256"
        }
      ],
      "name": "nftContractAuctions",
      "outputs": [
        {
          "internalType": "uint32",
          "name": "bidIncreasePercentage",
          "type": "uint32"
        },
        {
          "internalType": "uint32",
          "name": "auctionBidPeriod",
          "type": "uint32"
        },
        {
          "internalType": "uint64",
          "name": "auctionEnd",
          "type": "uint64"
        },
        {
          "internalType": "uint128",
          "name": "minPrice",
          "type": "uint128"
        },
        {
          "internalType": "uint128",
          "name": "buyNowPrice",
          "type": "uint128"
        },
        {
          "internalType": "uint128",
          "name": "nftHighestBid",
          "type": "uint128"
        },
        {
          "internalType": "address",
          "name": "nftHighestBidder",
          "type": "address"
        },
        {
          "internalType": "address",
          "name": "nftSeller",
          "type": "address"
        },
        {
          "internalType": "address",
          "name": "whitelistedBuyer",
          "type": "address"
        },
        {
          "internalType": "address",
          "name": "nftRecipient",
          "type": "address"
        },
        {
          "internalType": "address",
          "name": "ERC20Token",
          "type": "address"
        }
      ],
      "stateMutability": "view",
      "type": "function"
    },
    {
      "inputs": [
        {
          "internalType": "address",
          "name": "_nftContractAddress",
          "type": "address"
        },
        {
          "internalType": "uint256",
          "name": "_tokenId",
          "type": "uint256"
        },
        {
          "internalType": "address",
          "name": "_erc20Token",
          "type": "address"
        },
        {
          "internalType": "uint128",
          "name": "_minPrice",
          "type": "uint128"
        },
        {
          "internalType": "uint128",
          "name": "_buyNowPrice",
          "type": "uint128"
        },
        {
          "internalType": "address[]",
          "name": "_feeRecipients",
          "type": "address[]"
        },
        {
          "internalType": "uint32[]",
          "name": "_feePercentages",
          "type": "uint32[]"
        }
      ],
      "name": "createDefaultNftAuction",
      "outputs": [],
      "stateMutability": "nonpayable",
      "type": "function"
    },
    {
      "inputs": [
        {
          "internalType": "address",
          "name": "_nftContractAddress",
          "type": "address"
        },
        {
          "internalType": "uint256",
          "name": "_tokenId",
          "type": "uint256"
        },
        {
          "internalType": "address",
          "name": "_erc20Token",
          "type": "address"
        },
        {
          "internalType": "uint128",
          "name": "_minPrice",
          "type": "uint128"
        },
        {
          "internalType": "uint128",
          "name": "_buyNowPrice",
          "type": "uint128"
        },
        {
          "internalType": "uint32",
          "name": "_auctionBidPeriod",
          "type": "uint32"
        },
        {
          "internalType": "uint32",
          "name": "_bidIncreasePercentage",
          "type": "uint32"
        },
        {
          "internalType": "address[]",
          "name": "_feeRecipients",
          "type": "address[]"
        },
        {
          "internalType": "uint32[]",
          "name": "_feePercentages",
          "type": "uint32[]"
        }
      ],
      "name": "createNewNftAuction",
      "outputs": [],
      "stateMutability": "nonpayable",
      "type": "function"
    },
    {
      "inputs": [
        {
          "internalType": "address",
          "name": "_nftContractAddress",
          "type": "address"
        },
        {
          "internalType": "uint256",
          "name": "_tokenId",
          "type": "uint256"
        },
        {
          "internalType": "address",
          "name": "_erc20Token",
          "type": "address"
        },
        {
          "internalType": "uint128",
          "name": "_buyNowPrice",
          "type": "uint128"
        },
        {
          "internalType": "address",
          "name": "_whitelistedBuyer",
          "type": "address"
        },
        {
          "internalType": "address[]",
          "name": "_feeRecipients",
          "type": "address[]"
        },
        {
          "internalType": "uint32[]",
          "name": "_feePercentages",
          "type": "uint32[]"
        }
      ],
      "name": "createSale",
      "outputs": [],
      "stateMutability": "nonpayable",
      "type": "function"
    },
    {
      "inputs": [
        {
          "internalType": "address",
          "name": "_nftContractAddress",
          "type": "address"
        },
        {
          "internalType": "uint256",
          "name": "_tokenId",
          "type": "uint256"
        },
        {
          "internalType": "address",
          "name": "_erc20Token",
          "type": "address"
        },
        {
          "internalType": "uint128",
          "name": "_tokenAmount",
          "type": "uint128"
        }
      ],
      "name": "makeBid",
      "outputs": [],
      "stateMutability": "payable",
      "type": "function"
    },
    {
      "inputs": [
        {
          "internalType": "address",
          "name": "_nftContractAddress",
          "type": "address"
        },
        {
          "internalType": "uint256",
          "name": "_tokenId",
          "type": "uint256"
        },
        {
          "internalType": "address",
          "name": "_erc20Token",
          "type": "address"
        },
        {
          "internalType": "uint128",
          "name": "_tokenAmount",
          "type": "uint128"
        },
        {
          "internalType": "address",
          "name": "_nftRecipient",
          "type": "address"
        }
      ],
      "name": "makeCustomBid",
      "outputs": [],
      "stateMutability": "payable",
      "type": "function"
    },
    {
      "inputs": [
        {
          "internalType": "address",
          "name": "_nftContractAddress",
          "type": "address"
        },
        {
          "internalType": "uint256",
          "name": "_tokenId",
          "type": "uint256"
        }
      ],
      "name": "settleAuction",
      "outputs": [],
      "stateMutability": "nonpayable",
      "type": "function"
    },
    {
      "inputs": [
        {
          "internalType": "address",
          "name": "_nftContractAddress",
          "type": "address"
        },
        {
          "internalType": "uint256",
          "name": "_tokenId",
          "type": "uint256"
        }
      ],
      "name": "withdrawAuction",
      "outputs": [],
      "stateMutability": "nonpayable",
      "type": "function"
    },
    {
      "inputs": [
        {
          "internalType": "address",
          "name": "_nftContractAddress",
          "type": "address"
        },
        {
          "internalType": "uint256",
          "name": "_tokenId",
          "type": "uint256"
        }
      ],
      "name": "withdrawBid",
      "outputs": [],
      "stateMutability": "nonpayable",
      "type": "function"
    },
    {
      "inputs": [
        {
          "internalType": "address",
          "name": "_nftContractAddress",
          "type": "address"
        },
        {
          "internalType": "uint256",
          "name": "_tokenId",
          "type": "uint256"
        },
        {
          "internalType": "address",
          "name": "_newWhitelistedBuyer",
          "type": "address"
        }
      ],
      "name": "updateWhitelistedBuyer",
      "outputs": [],
      "stateMutability": "nonpayable",
      "type": "function"
    },
    {
      "inputs": [
        {
          "internalType": "address",
          "name": "_nftContractAddress",
          "type": "address"
        },
        {
          "internalType": "uint256",
          "name": "_tokenId",
          "type": "uint256"
        },
        {
          "internalType": "uint128",
          "name": "_newMinPrice",
          "type": "uint128"
        }
      ],
      "name": "updateMinimumPrice",
      "outputs": [],
      "stateMutability": "nonpayable",
      "type": "function"
    },
    {
      "inputs": [
        {
          "internalType": "address",
          "name": "_nftContractAddress",
          "type": "address"
        },
        {
          "internalType": "uint256",
          "name": "_tokenId",
          "type": "uint256"
        },
        {
          "internalType": "uint128",
          "name": "_newBuyNowPrice",
          "type": "uint128"
        }
      ],
      "name": "updateBuyNowPrice",
      "outputs": [],
      "stateMutability": "nonpayable",
      "type": "function"
    },
    {
      "inputs": [
        {
          "internalType": "address",
          "name": "_nftContractAddress",
          "type": "address"
        },
        {
          "internalType": "uint256",
          "name": "_tokenId",
          "type": "uint256"
        }
      ],
      "name": "takeHighestBid",
      "outputs": [],
      "stateMutability": "nonpayable",
      "type": "function"
    },
    {
      "inputs": [
        {
          "internalType": "address",
          "name": "_nftContractAddress",
          "type": "address"
        },
        {
          "internalType": "uint256",
          "name": "_tokenId",
          "type": "uint256"
        }
      ],
      "name": "ownerOfNFT",
      "outputs": [
        {
          "internalType": "address",
          "name": "",
          "type": "address"
        }
      ],
      "stateMutability": "view",
      "type": "function"
    },
    {
      "inputs": [],
      "name": "withdrawAllFailedCredits",
      "outputs": [],
      "stateMutability": "nonpayable",
      "type": "function"
    }
  ],
  "bytecode": "0x608060405234801561001057600080fd5b506064600260006101000a81548163ffffffff021916908363ffffffff160217905550620151806002600c6101000a81548163ffffffff021916908363ffffffff1602179055506064600260046101000a81548163ffffffff021916908363ffffffff160217905550611f40600260086101000a81548163ffffffff021916908363ffffffff1602179055506173db80620000ac6000396000f3fe6080604052600436106101145760003560e01c8063848e5c77116100a0578063cd4eda1c11610064578063cd4eda1c14610363578063ebea60251461038e578063f45671f1146103b7578063f583bac7146103e0578063f7f829a41461040957610114565b8063848e5c77146102b35780639041e273146102dc5780639c0b996614610305578063b6ad691414610330578063c24d5a5c1461034757610114565b80632f9c9576116100e75780632f9c9576146101f15780633d87d5fb1461021a5780634cb8ef5b146102455780635138b08c1461026e578063565c51721461029757610114565b8063041fa0b814610119578063076b73ac14610160578063186779d51461018957806320950fc6146101b4575b600080fd5b34801561012557600080fd5b50610140600480360381019061013b9190615900565b610432565b6040516101579b9a99989796959493929190616995565b60405180910390f35b34801561016c57600080fd5b506101876004803603810190610182919061593c565b6105c1565b005b34801561019557600080fd5b5061019e610927565b6040516101ab919061697a565b60405180910390f35b3480156101c057600080fd5b506101db60048036038101906101d69190615900565b61093d565b6040516101e89190616299565b60405180910390f35b3480156101fd57600080fd5b5061021860048036038101906102139190615cf7565b610a2f565b005b34801561022657600080fd5b5061022f610e0a565b60405161023c919061697a565b60405180910390f35b34801561025157600080fd5b5061026c60048036038101906102679190615900565b610e20565b005b34801561027a57600080fd5b5061029560048036038101906102909190615900565b61102f565b005b6102b160048036038101906102ac91906159ee565b6110c6565b005b3480156102bf57600080fd5b506102da60048036038101906102d59190615900565b61131f565b005b3480156102e857600080fd5b5061030360048036038101906102fe9190615b33565b61149d565b005b34801561031157600080fd5b5061031a611798565b604051610327919061697a565b60405180910390f35b34801561033c57600080fd5b506103456117ae565b005b610361600480360381019061035c919061598b565b611930565b005b34801561036f57600080fd5b50610378611a85565b604051610385919061697a565b60405180910390f35b34801561039a57600080fd5b506103b560048036038101906103b09190615900565b611a9b565b005b3480156103c357600080fd5b506103de60048036038101906103d99190615a65565b611bda565b005b3480156103ec57600080fd5b5061040760048036038101906104029190615c01565b611f6d565b005b34801561041557600080fd5b50610430600480360381019061042b9190615cf7565b6123af565b005b6000602052816000526040600020602052806000526040600020600091509150508060000160009054906101000a900463ffffffff16908060000160049054906101000a900463ffffffff16908060000160089054906101000a900467ffffffffffffffff16908060000160109054906101000a90046fffffffffffffffffffffffffffffffff16908060010160009054906101000a90046fffffffffffffffffffffffffffffffff16908060010160109054906101000a90046fffffffffffffffffffffffffffffffff16908060020160009054906101000a900473ffffffffffffffffffffffffffffffffffffffff16908060030160009054906101000a900473ffffffffffffffffffffffffffffffffffffffff16908060040160009054906101000a900473ffffffffffffffffffffffffffffffffffffffff16908060050160009054906101000a900473ffffffffffffffffffffffffffffffffffffffff16908060060160009054906101000a900473ffffffffffffffffffffffffffffffffffffffff1690508b565b82826000808373ffffffffffffffffffffffffffffffffffffffff1673ffffffffffffffffffffffffffffffffffffffff168152602001908152602001600020600082815260200190815260200160002060030160009054906101000a900473ffffffffffffffffffffffffffffffffffffffff1673ffffffffffffffffffffffffffffffffffffffff163373ffffffffffffffffffffffffffffffffffffffff16146106a3576040517f08c379a000000000000000000000000000000000000000000000000000000000815260040161069a906166ff565b60405180910390fd5b6106ad85856126ee565b6106ec576040517f08c379a00000000000000000000000000000000000000000000000000000000081526004016106e39061687f565b60405180910390fd5b826000808773ffffffffffffffffffffffffffffffffffffffff1673ffffffffffffffffffffffffffffffffffffffff168152602001908152602001600020600086815260200190815260200160002060040160006101000a81548173ffffffffffffffffffffffffffffffffffffffff021916908373ffffffffffffffffffffffffffffffffffffffff16021790555060008060008773ffffffffffffffffffffffffffffffffffffffff1673ffffffffffffffffffffffffffffffffffffffff168152602001908152602001600020600086815260200190815260200160002060020160009054906101000a900473ffffffffffffffffffffffffffffffffffffffff16905060008060008873ffffffffffffffffffffffffffffffffffffffff1673ffffffffffffffffffffffffffffffffffffffff168152602001908152602001600020600087815260200190815260200160002060010160109054906101000a90046fffffffffffffffffffffffffffffffff1690506000816fffffffffffffffffffffffffffffffff161180156108b557508473ffffffffffffffffffffffffffffffffffffffff168273ffffffffffffffffffffffffffffffffffffffff1614155b156108e3576108c48787612807565b6108e2878784846fffffffffffffffffffffffffffffffff166129b9565b5b7f7502912f483c1fb3f89bf8664bea10db517c2093040d379e78e169e0675236468787876040516109169392919061634b565b60405180910390a150505050505050565b6002600c9054906101000a900463ffffffff1681565b6000806000808573ffffffffffffffffffffffffffffffffffffffff1673ffffffffffffffffffffffffffffffffffffffff168152602001908152602001600020600084815260200190815260200160002060030160009054906101000a900473ffffffffffffffffffffffffffffffffffffffff169050600073ffffffffffffffffffffffffffffffffffffffff168173ffffffffffffffffffffffffffffffffffffffff161415610a25576040517f08c379a0000000000000000000000000000000000000000000000000000000008152600401610a1c906166df565b60405180910390fd5b8091505092915050565b82826000808373ffffffffffffffffffffffffffffffffffffffff1673ffffffffffffffffffffffffffffffffffffffff168152602001908152602001600020600082815260200190815260200160002060030160009054906101000a900473ffffffffffffffffffffffffffffffffffffffff1673ffffffffffffffffffffffffffffffffffffffff163373ffffffffffffffffffffffffffffffffffffffff1614610b11576040517f08c379a0000000000000000000000000000000000000000000000000000000008152600401610b08906166ff565b60405180910390fd5b8484610b1d8282612bdf565b15610b5d576040517f08c379a0000000000000000000000000000000000000000000000000000000008152600401610b549061665f565b60405180910390fd5b8686610b6982826126ee565b15610ba9576040517f08c379a0000000000000000000000000000000000000000000000000000000008152600401610ba09061669f565b60405180910390fd5b866fffffffffffffffffffffffffffffffff1660008111610bff576040517f08c379a0000000000000000000000000000000000000000000000000000000008152600401610bf69061667f565b60405180910390fd5b6000808b73ffffffffffffffffffffffffffffffffffffffff1673ffffffffffffffffffffffffffffffffffffffff16815260200190815260200160002060008a815260200190815260200160002060010160009054906101000a90046fffffffffffffffffffffffffffffffff16886000826fffffffffffffffffffffffffffffffff161480610cd55750806fffffffffffffffffffffffffffffffff16610cd2836fffffffffffffffffffffffffffffffff16600260089054906101000a900463ffffffff1663ffffffff16612d10565b10155b610d14576040517f08c379a0000000000000000000000000000000000000000000000000000000008152600401610d0b9061677f565b60405180910390fd5b896000808e73ffffffffffffffffffffffffffffffffffffffff1673ffffffffffffffffffffffffffffffffffffffff16815260200190815260200160002060008d815260200190815260200160002060000160106101000a8154816fffffffffffffffffffffffffffffffff02191690836fffffffffffffffffffffffffffffffff1602179055507fdcf27af4c564afa0c536dd1fa48e5fef0d9833378a1bddacc95922b902ebfc328c8c8c604051610dd0939291906165b1565b60405180910390a1610de28c8c612bdf565b15610dfc57610df18c8c612d33565b610dfb8c8c6130cc565b5b505050505050505050505050565b600260049054906101000a900463ffffffff1681565b8181610e2c8282612bdf565b15610e6c576040517f08c379a0000000000000000000000000000000000000000000000000000000008152600401610e639061665f565b60405180910390fd5b60008060008673ffffffffffffffffffffffffffffffffffffffff1673ffffffffffffffffffffffffffffffffffffffff168152602001908152602001600020600085815260200190815260200160002060020160009054906101000a900473ffffffffffffffffffffffffffffffffffffffff1690508073ffffffffffffffffffffffffffffffffffffffff163373ffffffffffffffffffffffffffffffffffffffff1614610f51576040517f08c379a0000000000000000000000000000000000000000000000000000000008152600401610f48906167df565b60405180910390fd5b60008060008773ffffffffffffffffffffffffffffffffffffffff1673ffffffffffffffffffffffffffffffffffffffff168152602001908152602001600020600086815260200190815260200160002060010160109054906101000a90046fffffffffffffffffffffffffffffffff169050610fce8686612807565b610fec868684846fffffffffffffffffffffffffffffffff166129b9565b7f10d9bddf66f639dd3c5a6ad2db5ae3102c2b468dfb90a4b0da219435f24a970d86863360405161101f9392919061634b565b60405180910390a1505050505050565b818161103b8282613204565b1561107b576040517f08c379a00000000000000000000000000000000000000000000000000000000081526004016110729061683f565b60405180910390fd5b611085848461329b565b7fe6b94748c5d6e0d188a0fcb9b7f2973b01fc0095627f1ec5accdcd9d2e65ca368484336040516110b89392919061634b565b60405180910390a150505050565b84846110d28282613204565b611111576040517f08c379a00000000000000000000000000000000000000000000000000000000081526004016111089061673f565b60405180910390fd5b82600073ffffffffffffffffffffffffffffffffffffffff168173ffffffffffffffffffffffffffffffffffffffff161415611182576040517f08c379a0000000000000000000000000000000000000000000000000000000008152600401611179906168ff565b60405180910390fd5b878761118e82826134f4565b158061123757503373ffffffffffffffffffffffffffffffffffffffff166000808473ffffffffffffffffffffffffffffffffffffffff1673ffffffffffffffffffffffffffffffffffffffff168152602001908152602001600020600083815260200190815260200160002060040160009054906101000a900473ffffffffffffffffffffffffffffffffffffffff1673ffffffffffffffffffffffffffffffffffffffff16145b611276576040517f08c379a000000000000000000000000000000000000000000000000000000000815260040161126d9061661f565b60405180910390fd5b856000808c73ffffffffffffffffffffffffffffffffffffffff1673ffffffffffffffffffffffffffffffffffffffff16815260200190815260200160002060008b815260200190815260200160002060050160006101000a81548173ffffffffffffffffffffffffffffffffffffffff021916908373ffffffffffffffffffffffffffffffffffffffff1602179055506113138a8a8a8a6135a0565b50505050505050505050565b81816000808373ffffffffffffffffffffffffffffffffffffffff1673ffffffffffffffffffffffffffffffffffffffff168152602001908152602001600020600082815260200190815260200160002060030160009054906101000a900473ffffffffffffffffffffffffffffffffffffffff1673ffffffffffffffffffffffffffffffffffffffff163373ffffffffffffffffffffffffffffffffffffffff1614611401576040517f08c379a00000000000000000000000000000000000000000000000000000000081526004016113f8906166ff565b60405180910390fd5b61140b8484613784565b61144a576040517f08c379a00000000000000000000000000000000000000000000000000000000081526004016114419061685f565b60405180910390fd5b6114548484612d33565b61145e848461329b565b7f711f4eae05533b90c24ff0ae762d6e9e1ef1b2c85d4c484a2913c5201bcbb7c9848460405161148f929190616322565b60405180910390a150505050565b86863373ffffffffffffffffffffffffffffffffffffffff166000808473ffffffffffffffffffffffffffffffffffffffff1673ffffffffffffffffffffffffffffffffffffffff168152602001908152602001600020600083815260200190815260200160002060030160009054906101000a900473ffffffffffffffffffffffffffffffffffffffff1673ffffffffffffffffffffffffffffffffffffffff161415611580576040517f08c379a0000000000000000000000000000000000000000000000000000000008152600401611577906167bf565b60405180910390fd5b600073ffffffffffffffffffffffffffffffffffffffff166000808473ffffffffffffffffffffffffffffffffffffffff1673ffffffffffffffffffffffffffffffffffffffff168152602001908152602001600020600083815260200190815260200160002060030160009054906101000a900473ffffffffffffffffffffffffffffffffffffffff1673ffffffffffffffffffffffffffffffffffffffff1614611727578173ffffffffffffffffffffffffffffffffffffffff16636352211e826040518263ffffffff1660e01b815260040161165f919061695f565b60206040518083038186803b15801561167757600080fd5b505afa15801561168b573d6000803e3d6000fd5b505050506040513d601f19601f820116820180604052508101906116af91906158d7565b73ffffffffffffffffffffffffffffffffffffffff163373ffffffffffffffffffffffffffffffffffffffff161461171c576040517f08c379a00000000000000000000000000000000000000000000000000000000081526004016117139061675f565b60405180910390fd5b6117268282613811565b5b856fffffffffffffffffffffffffffffffff166000811161177d576040517f08c379a00000000000000000000000000000000000000000000000000000000081526004016117749061667f565b60405180910390fd5b61178c8a8a8a8a8a8a8a613c3d565b50505050505050505050565b600260009054906101000a900463ffffffff1681565b6000600160003373ffffffffffffffffffffffffffffffffffffffff1673ffffffffffffffffffffffffffffffffffffffff1681526020019081526020016000205490506000811415611836576040517f08c379a000000000000000000000000000000000000000000000000000000000815260040161182d9061679f565b60405180910390fd5b6000600160003373ffffffffffffffffffffffffffffffffffffffff1673ffffffffffffffffffffffffffffffffffffffff1681526020019081526020016000208190555060003373ffffffffffffffffffffffffffffffffffffffff1682614e20906040516118a590616284565b600060405180830381858888f193505050503d80600081146118e3576040519150601f19603f3d011682016040523d82523d6000602084013e6118e8565b606091505b505090508061192c576040517f08c379a00000000000000000000000000000000000000000000000000000000081526004016119239061691f565b60405180910390fd5b5050565b838361193c8282613204565b61197b576040517f08c379a00000000000000000000000000000000000000000000000000000000081526004016119729061673f565b60405180910390fd5b858561198782826134f4565b1580611a3057503373ffffffffffffffffffffffffffffffffffffffff166000808473ffffffffffffffffffffffffffffffffffffffff1673ffffffffffffffffffffffffffffffffffffffff168152602001908152602001600020600083815260200190815260200160002060040160009054906101000a900473ffffffffffffffffffffffffffffffffffffffff1673ffffffffffffffffffffffffffffffffffffffff16145b611a6f576040517f08c379a0000000000000000000000000000000000000000000000000000000008152600401611a669061661f565b60405180910390fd5b611a7b888888886135a0565b5050505050505050565b600260089054906101000a900463ffffffff1681565b3373ffffffffffffffffffffffffffffffffffffffff168273ffffffffffffffffffffffffffffffffffffffff16636352211e836040518263ffffffff1660e01b8152600401611aeb919061695f565b60206040518083038186803b158015611b0357600080fd5b505afa158015611b17573d6000803e3d6000fd5b505050506040513d601f19601f82011682018060405250810190611b3b91906158d7565b73ffffffffffffffffffffffffffffffffffffffff1614611b91576040517f08c379a0000000000000000000000000000000000000000000000000000000008152600401611b889061693f565b60405180910390fd5b611b9b8282613811565b7fec19f84af4aad6523d37faa19e243c77717842cca9bf492dc5379830cac958d0828233604051611bce9392919061634b565b60405180910390a15050565b86863373ffffffffffffffffffffffffffffffffffffffff166000808473ffffffffffffffffffffffffffffffffffffffff1673ffffffffffffffffffffffffffffffffffffffff168152602001908152602001600020600083815260200190815260200160002060030160009054906101000a900473ffffffffffffffffffffffffffffffffffffffff1673ffffffffffffffffffffffffffffffffffffffff161415611cbd576040517f08c379a0000000000000000000000000000000000000000000000000000000008152600401611cb4906167bf565b60405180910390fd5b600073ffffffffffffffffffffffffffffffffffffffff166000808473ffffffffffffffffffffffffffffffffffffffff1673ffffffffffffffffffffffffffffffffffffffff168152602001908152602001600020600083815260200190815260200160002060030160009054906101000a900473ffffffffffffffffffffffffffffffffffffffff1673ffffffffffffffffffffffffffffffffffffffff1614611e64578173ffffffffffffffffffffffffffffffffffffffff16636352211e826040518263ffffffff1660e01b8152600401611d9c919061695f565b60206040518083038186803b158015611db457600080fd5b505afa158015611dc8573d6000803e3d6000fd5b505050506040513d601f19601f82011682018060405250810190611dec91906158d7565b73ffffffffffffffffffffffffffffffffffffffff163373ffffffffffffffffffffffffffffffffffffffff1614611e59576040517f08c379a0000000000000000000000000000000000000000000000000000000008152600401611e509061675f565b60405180910390fd5b611e638282613811565b5b856fffffffffffffffffffffffffffffffff1660008111611eba576040517f08c379a0000000000000000000000000000000000000000000000000000000008152600401611eb19061667f565b60405180910390fd5b611ec98a8a8a8a8a8a8a613cba565b7fb4cb1faa7b4f2b837334e4a12fb94a1cfc320c32b70dd31e113d1795b9d0f0568a8a338b8b8b8b8b604051611f06989796959493929190616382565b60405180910390a1611f188a8a613784565b15611f6157611f278a8a61410b565b15611f5557611f368a8a614131565b15611f5057611f458a8a612d33565b611f4f8a8a61329b565b5b611f60565b611f5f8a8a614262565b5b5b50505050505050505050565b88883373ffffffffffffffffffffffffffffffffffffffff166000808473ffffffffffffffffffffffffffffffffffffffff1673ffffffffffffffffffffffffffffffffffffffff168152602001908152602001600020600083815260200190815260200160002060030160009054906101000a900473ffffffffffffffffffffffffffffffffffffffff1673ffffffffffffffffffffffffffffffffffffffff161415612050576040517f08c379a0000000000000000000000000000000000000000000000000000000008152600401612047906167bf565b60405180910390fd5b600073ffffffffffffffffffffffffffffffffffffffff166000808473ffffffffffffffffffffffffffffffffffffffff1673ffffffffffffffffffffffffffffffffffffffff168152602001908152602001600020600083815260200190815260200160002060030160009054906101000a900473ffffffffffffffffffffffffffffffffffffffff1673ffffffffffffffffffffffffffffffffffffffff16146121f7578173ffffffffffffffffffffffffffffffffffffffff16636352211e826040518263ffffffff1660e01b815260040161212f919061695f565b60206040518083038186803b15801561214757600080fd5b505afa15801561215b573d6000803e3d6000fd5b505050506040513d601f19601f8201168201806040525081019061217f91906158d7565b73ffffffffffffffffffffffffffffffffffffffff163373ffffffffffffffffffffffffffffffffffffffff16146121ec576040517f08c379a00000000000000000000000000000000000000000000000000000000081526004016121e39061675f565b60405180910390fd5b6121f68282613811565b5b876fffffffffffffffffffffffffffffffff166000811161224d576040517f08c379a00000000000000000000000000000000000000000000000000000000081526004016122449061667f565b60405180910390fd5b85600260049054906101000a900463ffffffff1663ffffffff168163ffffffff1610156122af576040517f08c379a00000000000000000000000000000000000000000000000000000000081526004016122a69061663f565b60405180910390fd5b876000808f73ffffffffffffffffffffffffffffffffffffffff1673ffffffffffffffffffffffffffffffffffffffff16815260200190815260200160002060008e815260200190815260200160002060000160046101000a81548163ffffffff021916908363ffffffff160217905550866000808f73ffffffffffffffffffffffffffffffffffffffff1673ffffffffffffffffffffffffffffffffffffffff16815260200190815260200160002060008e815260200190815260200160002060000160006101000a81548163ffffffff021916908363ffffffff1602179055506123a08d8d8d8d8d8b8b613c3d565b50505050505050505050505050565b82826000808373ffffffffffffffffffffffffffffffffffffffff1673ffffffffffffffffffffffffffffffffffffffff168152602001908152602001600020600082815260200190815260200160002060030160009054906101000a900473ffffffffffffffffffffffffffffffffffffffff1673ffffffffffffffffffffffffffffffffffffffff163373ffffffffffffffffffffffffffffffffffffffff1614612491576040517f08c379a0000000000000000000000000000000000000000000000000000000008152600401612488906166ff565b60405180910390fd5b826fffffffffffffffffffffffffffffffff16600081116124e7576040517f08c379a00000000000000000000000000000000000000000000000000000000081526004016124de9061667f565b60405180910390fd5b836000808873ffffffffffffffffffffffffffffffffffffffff1673ffffffffffffffffffffffffffffffffffffffff168152602001908152602001600020600087815260200190815260200160002060000160109054906101000a90046fffffffffffffffffffffffffffffffff166000826fffffffffffffffffffffffffffffffff1614806125bd5750806fffffffffffffffffffffffffffffffff166125ba836fffffffffffffffffffffffffffffffff16600260089054906101000a900463ffffffff1663ffffffff16612d10565b10155b6125fc576040517f08c379a00000000000000000000000000000000000000000000000000000000081526004016125f39061677f565b60405180910390fd5b856000808a73ffffffffffffffffffffffffffffffffffffffff1673ffffffffffffffffffffffffffffffffffffffff168152602001908152602001600020600089815260200190815260200160002060010160006101000a8154816fffffffffffffffffffffffffffffffff02191690836fffffffffffffffffffffffffffffffff1602179055507fcc66420416a999e685e3938d2c6252ed709db214d0435f13da0b1e5339bcac768888886040516126b89392919061657a565b60405180910390a16126ca8888614131565b156126e4576126d98888612d33565b6126e3888861329b565b5b5050505050505050565b6000806000808573ffffffffffffffffffffffffffffffffffffffff1673ffffffffffffffffffffffffffffffffffffffff168152602001908152602001600020600084815260200190815260200160002060010160009054906101000a90046fffffffffffffffffffffffffffffffff166fffffffffffffffffffffffffffffffff161180156127ff575060008060008573ffffffffffffffffffffffffffffffffffffffff1673ffffffffffffffffffffffffffffffffffffffff168152602001908152602001600020600084815260200190815260200160002060000160109054906101000a90046fffffffffffffffffffffffffffffffff166fffffffffffffffffffffffffffffffff16145b905092915050565b60008060008473ffffffffffffffffffffffffffffffffffffffff1673ffffffffffffffffffffffffffffffffffffffff168152602001908152602001600020600083815260200190815260200160002060020160006101000a81548173ffffffffffffffffffffffffffffffffffffffff021916908373ffffffffffffffffffffffffffffffffffffffff16021790555060008060008473ffffffffffffffffffffffffffffffffffffffff1673ffffffffffffffffffffffffffffffffffffffff168152602001908152602001600020600083815260200190815260200160002060010160106101000a8154816fffffffffffffffffffffffffffffffff02191690836fffffffffffffffffffffffffffffffff16021790555060008060008473ffffffffffffffffffffffffffffffffffffffff1673ffffffffffffffffffffffffffffffffffffffff168152602001908152602001600020600083815260200190815260200160002060050160006101000a81548173ffffffffffffffffffffffffffffffffffffffff021916908373ffffffffffffffffffffffffffffffffffffffff1602179055505050565b60008060008673ffffffffffffffffffffffffffffffffffffffff1673ffffffffffffffffffffffffffffffffffffffff168152602001908152602001600020600085815260200190815260200160002060060160009054906101000a900473ffffffffffffffffffffffffffffffffffffffff169050612a398161437a565b15612ad1578073ffffffffffffffffffffffffffffffffffffffff1663a9059cbb84846040518363ffffffff1660e01b8152600401612a79929190616322565b602060405180830381600087803b158015612a9357600080fd5b505af1158015612aa7573d6000803e3d6000fd5b505050506040513d601f19601f82011682018060405250810190612acb9190615d46565b50612bd8565b60008373ffffffffffffffffffffffffffffffffffffffff1683614e2090604051612afb90616284565b600060405180830381858888f193505050503d8060008114612b39576040519150601f19603f3d011682016040523d82523d6000602084013e612b3e565b606091505b5050905080612bd65782600160008673ffffffffffffffffffffffffffffffffffffffff1673ffffffffffffffffffffffffffffffffffffffff16815260200190815260200160002054612b929190616b4b565b600160008673ffffffffffffffffffffffffffffffffffffffff1673ffffffffffffffffffffffffffffffffffffffff168152602001908152602001600020819055505b505b5050505050565b6000806000808573ffffffffffffffffffffffffffffffffffffffff1673ffffffffffffffffffffffffffffffffffffffff168152602001908152602001600020600084815260200190815260200160002060000160109054906101000a90046fffffffffffffffffffffffffffffffff1690506000816fffffffffffffffffffffffffffffffff16118015612d075750806fffffffffffffffffffffffffffffffff166000808673ffffffffffffffffffffffffffffffffffffffff1673ffffffffffffffffffffffffffffffffffffffff168152602001908152602001600020600085815260200190815260200160002060010160109054906101000a90046fffffffffffffffffffffffffffffffff166fffffffffffffffffffffffffffffffff1610155b91505092915050565b60006127108284612d219190616cc5565b612d2b9190616c4a565b905092915050565b60008060008473ffffffffffffffffffffffffffffffffffffffff1673ffffffffffffffffffffffffffffffffffffffff168152602001908152602001600020600083815260200190815260200160002060030160009054906101000a900473ffffffffffffffffffffffffffffffffffffffff1690508073ffffffffffffffffffffffffffffffffffffffff168373ffffffffffffffffffffffffffffffffffffffff16636352211e846040518263ffffffff1660e01b8152600401612dfa919061695f565b60206040518083038186803b158015612e1257600080fd5b505afa158015612e26573d6000803e3d6000fd5b505050506040513d601f19601f82011682018060405250810190612e4a91906158d7565b73ffffffffffffffffffffffffffffffffffffffff161415612fd0578273ffffffffffffffffffffffffffffffffffffffff166323b872dd8230856040518463ffffffff1660e01b8152600401612ea3939291906162eb565b600060405180830381600087803b158015612ebd57600080fd5b505af1158015612ed1573d6000803e3d6000fd5b505050503073ffffffffffffffffffffffffffffffffffffffff168373ffffffffffffffffffffffffffffffffffffffff16636352211e846040518263ffffffff1660e01b8152600401612f25919061695f565b60206040518083038186803b158015612f3d57600080fd5b505afa158015612f51573d6000803e3d6000fd5b505050506040513d601f19601f82011682018060405250810190612f7591906158d7565b73ffffffffffffffffffffffffffffffffffffffff1614612fcb576040517f08c379a0000000000000000000000000000000000000000000000000000000008152600401612fc29061671f565b60405180910390fd5b6130c7565b3073ffffffffffffffffffffffffffffffffffffffff168373ffffffffffffffffffffffffffffffffffffffff16636352211e846040518263ffffffff1660e01b8152600401613020919061695f565b60206040518083038186803b15801561303857600080fd5b505afa15801561304c573d6000803e3d6000fd5b505050506040513d601f19601f8201168201806040525081019061307091906158d7565b73ffffffffffffffffffffffffffffffffffffffff16146130c6576040517f08c379a00000000000000000000000000000000000000000000000000000000081526004016130bd9061681f565b60405180910390fd5b5b505050565b426130d783836143b3565b63ffffffff166130e79190616bdb565b6000808473ffffffffffffffffffffffffffffffffffffffff1673ffffffffffffffffffffffffffffffffffffffff168152602001908152602001600020600083815260200190815260200160002060000160086101000a81548167ffffffffffffffff021916908367ffffffffffffffff1602179055507fc1ce6cc1337b95ed3c849e00bffc0d93e89e5e80cc5d198db838140827ac759482826000808673ffffffffffffffffffffffffffffffffffffffff1673ffffffffffffffffffffffffffffffffffffffff168152602001908152602001600020600085815260200190815260200160002060000160089054906101000a900467ffffffffffffffff166040516131f8939291906165e8565b60405180910390a15050565b6000806000808573ffffffffffffffffffffffffffffffffffffffff1673ffffffffffffffffffffffffffffffffffffffff168152602001908152602001600020600084815260200190815260200160002060000160089054906101000a900467ffffffffffffffff16905060008167ffffffffffffffff16148061329257508067ffffffffffffffff1642105b91505092915050565b60008060008473ffffffffffffffffffffffffffffffffffffffff1673ffffffffffffffffffffffffffffffffffffffff168152602001908152602001600020600083815260200190815260200160002060030160009054906101000a900473ffffffffffffffffffffffffffffffffffffffff16905060008060008573ffffffffffffffffffffffffffffffffffffffff1673ffffffffffffffffffffffffffffffffffffffff168152602001908152602001600020600084815260200190815260200160002060020160009054906101000a900473ffffffffffffffffffffffffffffffffffffffff16905060006133958585614450565b905060008060008773ffffffffffffffffffffffffffffffffffffffff1673ffffffffffffffffffffffffffffffffffffffff168152602001908152602001600020600086815260200190815260200160002060010160109054906101000a90046fffffffffffffffffffffffffffffffff1690506134148686612807565b613432868686846fffffffffffffffffffffffffffffffff16614583565b8573ffffffffffffffffffffffffffffffffffffffff166323b872dd3084886040518463ffffffff1660e01b815260040161346f939291906162eb565b600060405180830381600087803b15801561348957600080fd5b505af115801561349d573d6000803e3d6000fd5b505050506134ab8686613811565b7f8df77c988c9550e96e43a66277f716818a74ed2188cdacb49d790623e6f225718686868487876040516134e4969594939291906164b8565b60405180910390a1505050505050565b60008073ffffffffffffffffffffffffffffffffffffffff166000808573ffffffffffffffffffffffffffffffffffffffff1673ffffffffffffffffffffffffffffffffffffffff168152602001908152602001600020600084815260200190815260200160002060040160009054906101000a900473ffffffffffffffffffffffffffffffffffffffff1673ffffffffffffffffffffffffffffffffffffffff161415905092915050565b83836000808373ffffffffffffffffffffffffffffffffffffffff1673ffffffffffffffffffffffffffffffffffffffff168152602001908152602001600020600082815260200190815260200160002060030160009054906101000a900473ffffffffffffffffffffffffffffffffffffffff1673ffffffffffffffffffffffffffffffffffffffff163373ffffffffffffffffffffffffffffffffffffffff161415613683576040517f08c379a000000000000000000000000000000000000000000000000000000000815260040161367a906168df565b60405180910390fd5b85858585613693848484846147ac565b6136d2576040517f08c379a00000000000000000000000000000000000000000000000000000000081526004016136c9906168bf565b60405180910390fd5b8989886136e08383836148fa565b61371f576040517f08c379a0000000000000000000000000000000000000000000000000000000008152600401613716906166bf565b60405180910390fd5b61372a8d8d8c614ac6565b7fdfd4ac8cb43d5458b7a6f74f2d6461d77d4985704bdbc2fd4c4816444bbfd5e08d8d33348f8f60405161376396959493929190616519565b60405180910390a16137758d8d614c15565b50505050505050505050505050565b6000806000808573ffffffffffffffffffffffffffffffffffffffff1673ffffffffffffffffffffffffffffffffffffffff168152602001908152602001600020600084815260200190815260200160002060010160109054906101000a90046fffffffffffffffffffffffffffffffff166fffffffffffffffffffffffffffffffff1611905092915050565b60008060008473ffffffffffffffffffffffffffffffffffffffff1673ffffffffffffffffffffffffffffffffffffffff168152602001908152602001600020600083815260200190815260200160002060000160106101000a8154816fffffffffffffffffffffffffffffffff02191690836fffffffffffffffffffffffffffffffff16021790555060008060008473ffffffffffffffffffffffffffffffffffffffff1673ffffffffffffffffffffffffffffffffffffffff168152602001908152602001600020600083815260200190815260200160002060010160006101000a8154816fffffffffffffffffffffffffffffffff02191690836fffffffffffffffffffffffffffffffff16021790555060008060008473ffffffffffffffffffffffffffffffffffffffff1673ffffffffffffffffffffffffffffffffffffffff168152602001908152602001600020600083815260200190815260200160002060000160086101000a81548167ffffffffffffffff021916908367ffffffffffffffff16021790555060008060008473ffffffffffffffffffffffffffffffffffffffff1673ffffffffffffffffffffffffffffffffffffffff168152602001908152602001600020600083815260200190815260200160002060000160046101000a81548163ffffffff021916908363ffffffff16021790555060008060008473ffffffffffffffffffffffffffffffffffffffff1673ffffffffffffffffffffffffffffffffffffffff168152602001908152602001600020600083815260200190815260200160002060000160006101000a81548163ffffffff021916908363ffffffff16021790555060008060008473ffffffffffffffffffffffffffffffffffffffff1673ffffffffffffffffffffffffffffffffffffffff168152602001908152602001600020600083815260200190815260200160002060030160006101000a81548173ffffffffffffffffffffffffffffffffffffffff021916908373ffffffffffffffffffffffffffffffffffffffff16021790555060008060008473ffffffffffffffffffffffffffffffffffffffff1673ffffffffffffffffffffffffffffffffffffffff168152602001908152602001600020600083815260200190815260200160002060040160006101000a81548173ffffffffffffffffffffffffffffffffffffffff021916908373ffffffffffffffffffffffffffffffffffffffff16021790555060008060008473ffffffffffffffffffffffffffffffffffffffff1673ffffffffffffffffffffffffffffffffffffffff168152602001908152602001600020600083815260200190815260200160002060060160006101000a81548173ffffffffffffffffffffffffffffffffffffffff021916908373ffffffffffffffffffffffffffffffffffffffff1602179055505050565b613c4c87878787878787614c66565b7f3379e969de5522101a0f0912ffe00daf15361dbcbf9cd5c328e0dd97aa25cdf9878733888888613c7d8e8e6143b3565b613c878f8f615158565b8a8a604051613c9f9a9998979695949392919061640e565b60405180910390a1613cb18787614c15565b50505050505050565b81518151808214613d00576040517f08c379a0000000000000000000000000000000000000000000000000000000008152600401613cf79061689f565b60405180910390fd5b82600080600090505b8251811015613d7357828181518110613d4b577f4e487b7100000000000000000000000000000000000000000000000000000000600052603260045260246000fd5b602002602001015182613d5e9190616ba1565b91508080613d6b90616e1e565b915050613d09565b506127108163ffffffff161115613dbf576040517f08c379a0000000000000000000000000000000000000000000000000000000008152600401613db6906167ff565b60405180910390fd5b600073ffffffffffffffffffffffffffffffffffffffff168973ffffffffffffffffffffffffffffffffffffffff1614613e8557886000808d73ffffffffffffffffffffffffffffffffffffffff1673ffffffffffffffffffffffffffffffffffffffff16815260200190815260200160002060008c815260200190815260200160002060060160006101000a81548173ffffffffffffffffffffffffffffffffffffffff021916908373ffffffffffffffffffffffffffffffffffffffff1602179055505b856000808d73ffffffffffffffffffffffffffffffffffffffff1673ffffffffffffffffffffffffffffffffffffffff16815260200190815260200160002060008c81526020019081526020016000206007019080519060200190613eeb9291906155d6565b50846000808d73ffffffffffffffffffffffffffffffffffffffff1673ffffffffffffffffffffffffffffffffffffffff16815260200190815260200160002060008c81526020019081526020016000206008019080519060200190613f52929190615660565b50876000808d73ffffffffffffffffffffffffffffffffffffffff1673ffffffffffffffffffffffffffffffffffffffff16815260200190815260200160002060008c815260200190815260200160002060010160006101000a8154816fffffffffffffffffffffffffffffffff02191690836fffffffffffffffffffffffffffffffff160217905550866000808d73ffffffffffffffffffffffffffffffffffffffff1673ffffffffffffffffffffffffffffffffffffffff16815260200190815260200160002060008c815260200190815260200160002060040160006101000a81548173ffffffffffffffffffffffffffffffffffffffff021916908373ffffffffffffffffffffffffffffffffffffffff160217905550336000808d73ffffffffffffffffffffffffffffffffffffffff1673ffffffffffffffffffffffffffffffffffffffff16815260200190815260200160002060008c815260200190815260200160002060030160006101000a81548173ffffffffffffffffffffffffffffffffffffffff021916908373ffffffffffffffffffffffffffffffffffffffff1602179055505050505050505050505050565b600061411783836134f4565b1580614129575061412883836151f5565b5b905092915050565b6000806000808573ffffffffffffffffffffffffffffffffffffffff1673ffffffffffffffffffffffffffffffffffffffff168152602001908152602001600020600084815260200190815260200160002060010160009054906101000a90046fffffffffffffffffffffffffffffffff1690506000816fffffffffffffffffffffffffffffffff161180156142595750806fffffffffffffffffffffffffffffffff166000808673ffffffffffffffffffffffffffffffffffffffff1673ffffffffffffffffffffffffffffffffffffffff168152602001908152602001600020600085815260200190815260200160002060010160109054906101000a90046fffffffffffffffffffffffffffffffff166fffffffffffffffffffffffffffffffff1610155b91505092915050565b60008060008473ffffffffffffffffffffffffffffffffffffffff1673ffffffffffffffffffffffffffffffffffffffff168152602001908152602001600020600083815260200190815260200160002060020160009054906101000a900473ffffffffffffffffffffffffffffffffffffffff16905060008060008573ffffffffffffffffffffffffffffffffffffffff1673ffffffffffffffffffffffffffffffffffffffff168152602001908152602001600020600084815260200190815260200160002060010160109054906101000a90046fffffffffffffffffffffffffffffffff1690506143568484612807565b614374848484846fffffffffffffffffffffffffffffffff166129b9565b50505050565b60008073ffffffffffffffffffffffffffffffffffffffff168273ffffffffffffffffffffffffffffffffffffffff1614159050919050565b6000806000808573ffffffffffffffffffffffffffffffffffffffff1673ffffffffffffffffffffffffffffffffffffffff168152602001908152602001600020600084815260200190815260200160002060000160049054906101000a900463ffffffff16905060008163ffffffff161415614445576002600c9054906101000a900463ffffffff1691505061444a565b809150505b92915050565b6000806000808573ffffffffffffffffffffffffffffffffffffffff1673ffffffffffffffffffffffffffffffffffffffff168152602001908152602001600020600084815260200190815260200160002060050160009054906101000a900473ffffffffffffffffffffffffffffffffffffffff169050600073ffffffffffffffffffffffffffffffffffffffff168173ffffffffffffffffffffffffffffffffffffffff161415614578576000808573ffffffffffffffffffffffffffffffffffffffff1673ffffffffffffffffffffffffffffffffffffffff168152602001908152602001600020600084815260200190815260200160002060020160009054906101000a900473ffffffffffffffffffffffffffffffffffffffff1691505061457d565b809150505b92915050565b600080600090505b6000808773ffffffffffffffffffffffffffffffffffffffff1673ffffffffffffffffffffffffffffffffffffffff16815260200190815260200160002060008681526020019081526020016000206007018054905081101561478d5760006146a9846000808a73ffffffffffffffffffffffffffffffffffffffff1673ffffffffffffffffffffffffffffffffffffffff16815260200190815260200160002060008981526020019081526020016000206008018481548110614678577f4e487b7100000000000000000000000000000000000000000000000000000000600052603260045260246000fd5b90600052602060002090600891828204019190066004029054906101000a900463ffffffff1663ffffffff16612d10565b905080836146b79190616b4b565b925061477987876000808b73ffffffffffffffffffffffffffffffffffffffff1673ffffffffffffffffffffffffffffffffffffffff16815260200190815260200160002060008a81526020019081526020016000206007018581548110614748577f4e487b7100000000000000000000000000000000000000000000000000000000600052603260045260246000fd5b9060005260206000200160009054906101000a900473ffffffffffffffffffffffffffffffffffffffff16846129b9565b50808061478590616e1e565b91505061458b565b506147a585858584866147a09190616d1f565b6129b9565b5050505050565b6000806000808773ffffffffffffffffffffffffffffffffffffffff1673ffffffffffffffffffffffffffffffffffffffff168152602001908152602001600020600086815260200190815260200160002060060160009054906101000a900473ffffffffffffffffffffffffffffffffffffffff16905061482d8161437a565b156148935760003414801561486d57508373ffffffffffffffffffffffffffffffffffffffff168173ffffffffffffffffffffffffffffffffffffffff16145b801561488b57506000836fffffffffffffffffffffffffffffffff16115b9150506148f2565b600034141580156148d05750600073ffffffffffffffffffffffffffffffffffffffff168473ffffffffffffffffffffffffffffffffffffffff16145b80156148ee57506000836fffffffffffffffffffffffffffffffff16145b9150505b949350505050565b6000806000808673ffffffffffffffffffffffffffffffffffffffff1673ffffffffffffffffffffffffffffffffffffffff168152602001908152602001600020600085815260200190815260200160002060010160009054906101000a90046fffffffffffffffffffffffffffffffff1690506000816fffffffffffffffffffffffffffffffff161180156149d15750806fffffffffffffffffffffffffffffffff16341015806149d05750806fffffffffffffffffffffffffffffffff16836fffffffffffffffffffffffffffffffff1610155b5b156149e0576001915050614abf565b60006127106149ef8787615158565b6127106149fc9190616ba1565b63ffffffff166000808973ffffffffffffffffffffffffffffffffffffffff1673ffffffffffffffffffffffffffffffffffffffff168152602001908152602001600020600088815260200190815260200160002060010160109054906101000a90046fffffffffffffffffffffffffffffffff16614a7b9190616c7b565b614a859190616c19565b6fffffffffffffffffffffffffffffffff1690508034101580614aba575080846fffffffffffffffffffffffffffffffff1610155b925050505b9392505050565b60008060008573ffffffffffffffffffffffffffffffffffffffff1673ffffffffffffffffffffffffffffffffffffffff168152602001908152602001600020600084815260200190815260200160002060020160009054906101000a900473ffffffffffffffffffffffffffffffffffffffff16905060008060008673ffffffffffffffffffffffffffffffffffffffff1673ffffffffffffffffffffffffffffffffffffffff168152602001908152602001600020600085815260200190815260200160002060010160109054906101000a90046fffffffffffffffffffffffffffffffff166fffffffffffffffffffffffffffffffff169050614bcd858585615312565b600073ffffffffffffffffffffffffffffffffffffffff168273ffffffffffffffffffffffffffffffffffffffff1614614c0e57614c0d858584846129b9565b5b5050505050565b614c1f8282614131565b15614c3d57614c2e8282612d33565b614c38828261329b565b614c62565b614c478282612bdf565b15614c6157614c568282612d33565b614c6082826130cc565b5b5b5050565b82846000826fffffffffffffffffffffffffffffffff161480614cce5750806fffffffffffffffffffffffffffffffff16614ccb836fffffffffffffffffffffffffffffffff16600260089054906101000a900463ffffffff1663ffffffff16612d10565b10155b614d0d576040517f08c379a0000000000000000000000000000000000000000000000000000000008152600401614d049061677f565b60405180910390fd5b83518351808214614d53576040517f08c379a0000000000000000000000000000000000000000000000000000000008152600401614d4a9061689f565b60405180910390fd5b84600080600090505b8251811015614dc657828181518110614d9e577f4e487b7100000000000000000000000000000000000000000000000000000000600052603260045260246000fd5b602002602001015182614db19190616ba1565b91508080614dbe90616e1e565b915050614d5c565b506127108163ffffffff161115614e12576040517f08c379a0000000000000000000000000000000000000000000000000000000008152600401614e09906167ff565b60405180910390fd5b600073ffffffffffffffffffffffffffffffffffffffff168b73ffffffffffffffffffffffffffffffffffffffff1614614ed8578a6000808f73ffffffffffffffffffffffffffffffffffffffff1673ffffffffffffffffffffffffffffffffffffffff16815260200190815260200160002060008e815260200190815260200160002060060160006101000a81548173ffffffffffffffffffffffffffffffffffffffff021916908373ffffffffffffffffffffffffffffffffffffffff1602179055505b876000808f73ffffffffffffffffffffffffffffffffffffffff1673ffffffffffffffffffffffffffffffffffffffff16815260200190815260200160002060008e81526020019081526020016000206007019080519060200190614f3e9291906155d6565b50866000808f73ffffffffffffffffffffffffffffffffffffffff1673ffffffffffffffffffffffffffffffffffffffff16815260200190815260200160002060008e81526020019081526020016000206008019080519060200190614fa5929190615660565b50886000808f73ffffffffffffffffffffffffffffffffffffffff1673ffffffffffffffffffffffffffffffffffffffff16815260200190815260200160002060008e815260200190815260200160002060010160006101000a8154816fffffffffffffffffffffffffffffffff02191690836fffffffffffffffffffffffffffffffff160217905550896000808f73ffffffffffffffffffffffffffffffffffffffff1673ffffffffffffffffffffffffffffffffffffffff16815260200190815260200160002060008e815260200190815260200160002060000160106101000a8154816fffffffffffffffffffffffffffffffff02191690836fffffffffffffffffffffffffffffffff160217905550336000808f73ffffffffffffffffffffffffffffffffffffffff1673ffffffffffffffffffffffffffffffffffffffff16815260200190815260200160002060008e815260200190815260200160002060030160006101000a81548173ffffffffffffffffffffffffffffffffffffffff021916908373ffffffffffffffffffffffffffffffffffffffff16021790555050505050505050505050505050565b6000806000808573ffffffffffffffffffffffffffffffffffffffff1673ffffffffffffffffffffffffffffffffffffffff168152602001908152602001600020600084815260200190815260200160002060000160009054906101000a900463ffffffff16905060008163ffffffff1614156151ea57600260009054906101000a900463ffffffff169150506151ef565b809150505b92915050565b60008060008473ffffffffffffffffffffffffffffffffffffffff1673ffffffffffffffffffffffffffffffffffffffff168152602001908152602001600020600083815260200190815260200160002060040160009054906101000a900473ffffffffffffffffffffffffffffffffffffffff1673ffffffffffffffffffffffffffffffffffffffff166000808573ffffffffffffffffffffffffffffffffffffffff1673ffffffffffffffffffffffffffffffffffffffff168152602001908152602001600020600084815260200190815260200160002060020160009054906101000a900473ffffffffffffffffffffffffffffffffffffffff1673ffffffffffffffffffffffffffffffffffffffff1614905092915050565b60008060008573ffffffffffffffffffffffffffffffffffffffff1673ffffffffffffffffffffffffffffffffffffffff168152602001908152602001600020600084815260200190815260200160002060060160009054906101000a900473ffffffffffffffffffffffffffffffffffffffff1690506153928161437a565b156154b5578073ffffffffffffffffffffffffffffffffffffffff166323b872dd3330856040518463ffffffff1660e01b81526004016153d4939291906162b4565b602060405180830381600087803b1580156153ee57600080fd5b505af1158015615402573d6000803e3d6000fd5b505050506040513d601f19601f820116820180604052508101906154269190615d46565b50816000808673ffffffffffffffffffffffffffffffffffffffff1673ffffffffffffffffffffffffffffffffffffffff168152602001908152602001600020600085815260200190815260200160002060010160106101000a8154816fffffffffffffffffffffffffffffffff02191690836fffffffffffffffffffffffffffffffff16021790555061553f565b346000808673ffffffffffffffffffffffffffffffffffffffff1673ffffffffffffffffffffffffffffffffffffffff168152602001908152602001600020600085815260200190815260200160002060010160106101000a8154816fffffffffffffffffffffffffffffffff02191690836fffffffffffffffffffffffffffffffff1602179055505b336000808673ffffffffffffffffffffffffffffffffffffffff1673ffffffffffffffffffffffffffffffffffffffff168152602001908152602001600020600085815260200190815260200160002060020160006101000a81548173ffffffffffffffffffffffffffffffffffffffff021916908373ffffffffffffffffffffffffffffffffffffffff16021790555050505050565b82805482825590600052602060002090810192821561564f579160200282015b8281111561564e5782518260006101000a81548173ffffffffffffffffffffffffffffffffffffffff021916908373ffffffffffffffffffffffffffffffffffffffff160217905550916020019190600101906155f6565b5b50905061565c9190615710565b5090565b828054828255906000526020600020906007016008900481019282156156ff5791602002820160005b838211156156cd57835183826101000a81548163ffffffff021916908363ffffffff1602179055509260200192600401602081600301049283019260010302615689565b80156156fd5782816101000a81549063ffffffff02191690556004016020816003010492830192600103026156cd565b505b50905061570c9190615710565b5090565b5b80821115615729576000816000905550600101615711565b5090565b600061574061573b84616a65565b616a40565b9050808382526020820190508285602086028201111561575f57600080fd5b60005b8581101561578f57816157758882615805565b845260208401935060208301925050600181019050615762565b5050509392505050565b60006157ac6157a784616a91565b616a40565b905080838252602082019050828560208602820111156157cb57600080fd5b60005b858110156157fb57816157e188826158c2565b8452602084019350602083019250506001810190506157ce565b5050509392505050565b60008135905061581481617332565b92915050565b60008151905061582981617332565b92915050565b600082601f83011261584057600080fd5b813561585084826020860161572d565b91505092915050565b600082601f83011261586a57600080fd5b813561587a848260208601615799565b91505092915050565b60008151905061589281617349565b92915050565b6000813590506158a781617360565b92915050565b6000813590506158bc81617377565b92915050565b6000813590506158d18161738e565b92915050565b6000602082840312156158e957600080fd5b60006158f78482850161581a565b91505092915050565b6000806040838503121561591357600080fd5b600061592185828601615805565b9250506020615932858286016158ad565b9150509250929050565b60008060006060848603121561595157600080fd5b600061595f86828701615805565b9350506020615970868287016158ad565b925050604061598186828701615805565b9150509250925092565b600080600080608085870312156159a157600080fd5b60006159af87828801615805565b94505060206159c0878288016158ad565b93505060406159d187828801615805565b92505060606159e287828801615898565b91505092959194509250565b600080600080600060a08688031215615a0657600080fd5b6000615a1488828901615805565b9550506020615a25888289016158ad565b9450506040615a3688828901615805565b9350506060615a4788828901615898565b9250506080615a5888828901615805565b9150509295509295909350565b600080600080600080600060e0888a031215615a8057600080fd5b6000615a8e8a828b01615805565b9750506020615a9f8a828b016158ad565b9650506040615ab08a828b01615805565b9550506060615ac18a828b01615898565b9450506080615ad28a828b01615805565b93505060a088013567ffffffffffffffff811115615aef57600080fd5b615afb8a828b0161582f565b92505060c088013567ffffffffffffffff811115615b1857600080fd5b615b248a828b01615859565b91505092959891949750929550565b600080600080600080600060e0888a031215615b4e57600080fd5b6000615b5c8a828b01615805565b9750506020615b6d8a828b016158ad565b9650506040615b7e8a828b01615805565b9550506060615b8f8a828b01615898565b9450506080615ba08a828b01615898565b93505060a088013567ffffffffffffffff811115615bbd57600080fd5b615bc98a828b0161582f565b92505060c088013567ffffffffffffffff811115615be657600080fd5b615bf28a828b01615859565b91505092959891949750929550565b60008060008060008060008060006101208a8c031215615c2057600080fd5b6000615c2e8c828d01615805565b9950506020615c3f8c828d016158ad565b9850506040615c508c828d01615805565b9750506060615c618c828d01615898565b9650506080615c728c828d01615898565b95505060a0615c838c828d016158c2565b94505060c0615c948c828d016158c2565b93505060e08a013567ffffffffffffffff811115615cb157600080fd5b615cbd8c828d0161582f565b9250506101008a013567ffffffffffffffff811115615cdb57600080fd5b615ce78c828d01615859565b9150509295985092959850929598565b600080600060608486031215615d0c57600080fd5b6000615d1a86828701615805565b9350506020615d2b868287016158ad565b9250506040615d3c86828701615898565b9150509250925092565b600060208284031215615d5857600080fd5b6000615d6684828501615883565b91505092915050565b6000615d7b8383615d9f565b60208301905092915050565b6000615d938383616257565b60208301905092915050565b615da881616d53565b82525050565b615db781616d53565b82525050565b6000615dc882616add565b615dd28185616b0d565b9350615ddd83616abd565b8060005b83811015615e0e578151615df58882615d6f565b9750615e0083616af3565b925050600181019050615de1565b5085935050505092915050565b6000615e2682616ae8565b615e308185616b1e565b9350615e3b83616acd565b8060005b83811015615e6c578151615e538882615d87565b9750615e5e83616b00565b925050600181019050615e3f565b5085935050505092915050565b6000615e86601a83616b3a565b9150615e9182616f05565b602082019050919050565b6000615ea9601f83616b3a565b9150615eb482616f2e565b602082019050919050565b6000615ecc602083616b3a565b9150615ed782616f57565b602082019050919050565b6000615eef601183616b3a565b9150615efa82616f80565b602082019050919050565b6000615f12601983616b3a565b9150615f1d82616fa9565b602082019050919050565b6000615f35601e83616b3a565b9150615f4082616fd2565b602082019050919050565b6000615f58601183616b3a565b9150615f6382616ffb565b602082019050919050565b6000615f7b600f83616b3a565b9150615f8682617024565b602082019050919050565b6000615f9e601383616b3a565b9150615fa98261704d565b602082019050919050565b6000615fc1601183616b3a565b9150615fcc82617076565b602082019050919050565b6000615fe4601683616b3a565b9150615fef8261709f565b602082019050919050565b6000616007601d83616b3a565b9150616012826170c8565b602082019050919050565b600061602a601683616b3a565b9150616035826170f1565b602082019050919050565b600061604d602083616b3a565b91506160588261711a565b602082019050919050565b6000616070601583616b3a565b915061607b82617143565b602082019050919050565b6000616093601e83616b3a565b915061609e8261716c565b602082019050919050565b60006160b6601683616b3a565b91506160c182617195565b602082019050919050565b60006160d9601783616b3a565b91506160e4826171be565b602082019050919050565b60006160fc601383616b3a565b9150616107826171e7565b602082019050919050565b600061611f600a83616b3a565b915061612a82617210565b602082019050919050565b6000616142600083616b2f565b915061614d82617239565b600082019050919050565b6000616165601983616b3a565b91506161708261723c565b602082019050919050565b6000616188602083616b3a565b915061619382617265565b602082019050919050565b60006161ab601b83616b3a565b91506161b68261728e565b602082019050919050565b60006161ce601883616b3a565b91506161d9826172b7565b602082019050919050565b60006161f1600f83616b3a565b91506161fc826172e0565b602082019050919050565b6000616214600d83616b3a565b915061621f82617309565b602082019050919050565b61623381616d71565b82525050565b61624281616ddb565b82525050565b61625181616dad565b82525050565b61626081616db7565b82525050565b61626f81616db7565b82525050565b61627e81616dc7565b82525050565b600061628f82616135565b9150819050919050565b60006020820190506162ae6000830184615dae565b92915050565b60006060820190506162c96000830186615dae565b6162d66020830185615dae565b6162e36040830184616239565b949350505050565b60006060820190506163006000830186615dae565b61630d6020830185615dae565b61631a6040830184616248565b949350505050565b60006040820190506163376000830185615dae565b6163446020830184616248565b9392505050565b60006060820190506163606000830186615dae565b61636d6020830185616248565b61637a6040830184615dae565b949350505050565b600061010082019050616398600083018b615dae565b6163a5602083018a616248565b6163b26040830189615dae565b6163bf6060830188615dae565b6163cc608083018761622a565b6163d960a0830186615dae565b81810360c08301526163eb8185615dbd565b905081810360e08301526163ff8184615e1b565b90509998505050505050505050565b600061014082019050616424600083018d615dae565b616431602083018c616248565b61643e604083018b615dae565b61644b606083018a615dae565b616458608083018961622a565b61646560a083018861622a565b61647260c0830187616266565b61647f60e0830186616266565b8181036101008301526164928185615dbd565b90508181036101208301526164a78184615e1b565b90509b9a5050505050505050505050565b600060c0820190506164cd6000830189615dae565b6164da6020830188616248565b6164e76040830187615dae565b6164f4606083018661622a565b6165016080830185615dae565b61650e60a0830184615dae565b979650505050505050565b600060c08201905061652e6000830189615dae565b61653b6020830188616248565b6165486040830187615dae565b6165556060830186616248565b6165626080830185615dae565b61656f60a0830184616239565b979650505050505050565b600060608201905061658f6000830186615dae565b61659c6020830185616248565b6165a9604083018461622a565b949350505050565b60006060820190506165c66000830186615dae565b6165d36020830185616248565b6165e06040830184616239565b949350505050565b60006060820190506165fd6000830186615dae565b61660a6020830185616248565b6166176040830184616275565b949350505050565b6000602082019050818103600083015261663881615e79565b9050919050565b6000602082019050818103600083015261665881615e9c565b9050919050565b6000602082019050818103600083015261667881615ebf565b9050919050565b6000602082019050818103600083015261669881615ee2565b9050919050565b600060208201905081810360008301526166b881615f05565b9050919050565b600060208201905081810360008301526166d881615f28565b9050919050565b600060208201905081810360008301526166f881615f4b565b9050919050565b6000602082019050818103600083015261671881615f6e565b9050919050565b6000602082019050818103600083015261673881615f91565b9050919050565b6000602082019050818103600083015261675881615fb4565b9050919050565b6000602082019050818103600083015261677881615fd7565b9050919050565b6000602082019050818103600083015261679881615ffa565b9050919050565b600060208201905081810360008301526167b88161601d565b9050919050565b600060208201905081810360008301526167d881616040565b9050919050565b600060208201905081810360008301526167f881616063565b9050919050565b6000602082019050818103600083015261681881616086565b9050919050565b60006020820190508181036000830152616838816160a9565b9050919050565b60006020820190508181036000830152616858816160cc565b9050919050565b60006020820190508181036000830152616878816160ef565b9050919050565b6000602082019050818103600083015261689881616112565b9050919050565b600060208201905081810360008301526168b881616158565b9050919050565b600060208201905081810360008301526168d88161617b565b9050919050565b600060208201905081810360008301526168f88161619e565b9050919050565b60006020820190508181036000830152616918816161c1565b9050919050565b60006020820190508181036000830152616938816161e4565b9050919050565b6000602082019050818103600083015261695881616207565b9050919050565b60006020820190506169746000830184616248565b92915050565b600060208201905061698f6000830184616266565b92915050565b6000610160820190506169ab600083018e616266565b6169b8602083018d616266565b6169c5604083018c616275565b6169d2606083018b61622a565b6169df608083018a61622a565b6169ec60a083018961622a565b6169f960c0830188615dae565b616a0660e0830187615dae565b616a14610100830186615dae565b616a22610120830185615dae565b616a30610140830184615dae565b9c9b505050505050505050505050565b6000616a4a616a5b565b9050616a568282616ded565b919050565b6000604051905090565b600067ffffffffffffffff821115616a8057616a7f616ec5565b5b602082029050602081019050919050565b600067ffffffffffffffff821115616aac57616aab616ec5565b5b602082029050602081019050919050565b6000819050602082019050919050565b6000819050602082019050919050565b600081519050919050565b600081519050919050565b6000602082019050919050565b6000602082019050919050565b600082825260208201905092915050565b600082825260208201905092915050565b600081905092915050565b600082825260208201905092915050565b6000616b5682616dad565b9150616b6183616dad565b9250827fffffffffffffffffffffffffffffffffffffffffffffffffffffffffffffffff03821115616b9657616b95616e67565b5b828201905092915050565b6000616bac82616db7565b9150616bb783616db7565b92508263ffffffff03821115616bd057616bcf616e67565b5b828201905092915050565b6000616be682616dc7565b9150616bf183616dc7565b92508267ffffffffffffffff03821115616c0e57616c0d616e67565b5b828201905092915050565b6000616c2482616d71565b9150616c2f83616d71565b925082616c3f57616c3e616e96565b5b828204905092915050565b6000616c5582616dad565b9150616c6083616dad565b925082616c7057616c6f616e96565b5b828204905092915050565b6000616c8682616d71565b9150616c9183616d71565b9250816fffffffffffffffffffffffffffffffff0483118215151615616cba57616cb9616e67565b5b828202905092915050565b6000616cd082616dad565b9150616cdb83616dad565b9250817fffffffffffffffffffffffffffffffffffffffffffffffffffffffffffffffff0483118215151615616d1457616d13616e67565b5b828202905092915050565b6000616d2a82616dad565b9150616d3583616dad565b925082821015616d4857616d47616e67565b5b828203905092915050565b6000616d5e82616d8d565b9050919050565b60008115159050919050565b60006fffffffffffffffffffffffffffffffff82169050919050565b600073ffffffffffffffffffffffffffffffffffffffff82169050919050565b6000819050919050565b600063ffffffff82169050919050565b600067ffffffffffffffff82169050919050565b6000616de682616d71565b9050919050565b616df682616ef4565b810181811067ffffffffffffffff82111715616e1557616e14616ec5565b5b80604052505050565b6000616e2982616dad565b91507fffffffffffffffffffffffffffffffffffffffffffffffffffffffffffffffff821415616e5c57616e5b616e67565b5b600182019050919050565b7f4e487b7100000000000000000000000000000000000000000000000000000000600052601160045260246000fd5b7f4e487b7100000000000000000000000000000000000000000000000000000000600052601260045260246000fd5b7f4e487b7100000000000000000000000000000000000000000000000000000000600052604160045260246000fd5b6000601f19601f8301169050919050565b7f4f6e6c79207468652077686974656c6973746564206275796572000000000000600082015250565b7f42696420696e6372656173652070657263656e7461676520746f6f206c6f7700600082015250565b7f5468652061756374696f6e2068617320612076616c696420626964206d616465600082015250565b7f50726963652063616e6e6f742062652030000000000000000000000000000000600082015250565b7f4e6f74206170706c696361626c6520666f7220612073616c6500000000000000600082015250565b7f4e6f7420656e6f7567682066756e647320746f20626964206f6e204e46540000600082015250565b7f4e4654206e6f74206465706f7369746564000000000000000000000000000000600082015250565b7f4f6e6c79206e66742073656c6c65720000000000000000000000000000000000600082015250565b7f6e6674207472616e73666572206661696c656400000000000000000000000000600082015250565b7f41756374696f6e2068617320656e646564000000000000000000000000000000600082015250565b7f53656e64657220646f65736e2774206f776e204e465400000000000000000000600082015250565b7f4d696e5072696365203e20383025206f66206275794e6f775072696365000000600082015250565b7f6e6f206372656469747320746f20776974686472617700000000000000000000600082015250565b7f41756374696f6e20616c72656164792073746172746564206279206f776e6572600082015250565b7f43616e6e6f742077697468647261772066756e64730000000000000000000000600082015250565b7f4665652070657263656e746167657320657863656564206d6178696d756d0000600082015250565b7f53656c6c657220646f65736e2774206f776e204e465400000000000000000000600082015250565b7f41756374696f6e206973206e6f7420796574206f766572000000000000000000600082015250565b7f63616e6e6f74207061796f757420302062696400000000000000000000000000600082015250565b7f4e6f7420612073616c6500000000000000000000000000000000000000000000600082015250565b50565b7f526563697069656e747320213d2070657263656e746167657300000000000000600082015250565b7f42696420746f20626520696e207370656369666965642045524332302f457468600082015250565b7f4f776e65722063616e6e6f7420626964206f6e206f776e204e46540000000000600082015250565b7f43616e6e6f742073706563696679203020616464726573730000000000000000600082015250565b7f7769746864726177206661696c65640000000000000000000000000000000000600082015250565b7f4e6f74204e4654206f776e657200000000000000000000000000000000000000600082015250565b61733b81616d53565b811461734657600080fd5b50565b61735281616d65565b811461735d57600080fd5b50565b61736981616d71565b811461737457600080fd5b50565b61738081616dad565b811461738b57600080fd5b50565b61739781616db7565b81146173a257600080fd5b5056fea26469706673582212207cc90466d2aab62a99cf7c48e08e9a967274f7e8d5dc0d1b8df696ba4990b9d264736f6c63430008030033",
  "immutableReferences": {},
  "source": "// SPDX-License-Identifier: MIT\npragma solidity ^0.8.0;\n\nimport \"@openzeppelin/contracts/token/ERC721/IERC721.sol\";\nimport \"@openzeppelin/contracts/token/ERC721/IERC721Receiver.sol\";\nimport \"@openzeppelin/contracts/token/ERC20/IERC20.sol\";\n\n/// @title An Auction Contract for bidding and selling single and batched NFTs\n/// @author Avo Labs GmbH\n/// @notice This contract can be used for auctioning any NFTs, and accepts any ERC20 token as payment\ncontract NFTAuction {\n    mapping(address => mapping(uint256 => Auction)) public nftContractAuctions;\n    mapping(address => uint256) failedTransferCredits;\n    \n    //Each Auction is unique to each NFT (contract + id pairing).\n    struct Auction {\n        //map token ID to\n        uint32 bidIncreasePercentage;\n        uint32 auctionBidPeriod; //Increments the length of time the auction is open in which a new bid can be made after each bid.\n        uint64 auctionEnd;\n        uint128 minPrice;\n        uint128 buyNowPrice;\n        uint128 nftHighestBid;\n        address nftHighestBidder;\n        address nftSeller;\n        address whitelistedBuyer; //The seller can specify a whitelisted address for a sale (this is effectively a direct sale).\n        address nftRecipient; //The bidder can specify a recipient for the NFT if their bid is successful.\n        address ERC20Token; // The seller can specify an ERC20 token that can be used to bid or purchase the NFT.\n        address[] feeRecipients;\n        uint32[] feePercentages;\n    }\n    /*\n     * Default values that are used if not specified by the NFT seller.\n     */\n    uint32 public defaultBidIncreasePercentage;\n    uint32 public minimumSettableIncreasePercentage;\n    uint32 public maximumMinPricePercentage;\n    uint32 public defaultAuctionBidPeriod;\n\n    /*\n                 EVENTS            \n      */\n\n    event NftAuctionCreated(\n        address nftContractAddress,\n        uint256 tokenId,\n        address nftSeller,\n        address erc20Token,\n        uint128 minPrice,\n        uint128 buyNowPrice,\n        uint32 auctionBidPeriod,\n        uint32 bidIncreasePercentage,\n        address[] feeRecipients,\n        uint32[] feePercentages\n    );\n\n    event SaleCreated(\n        address nftContractAddress,\n        uint256 tokenId,\n        address nftSeller,\n        address erc20Token,\n        uint128 buyNowPrice,\n        address whitelistedBuyer,\n        address[] feeRecipients,\n        uint32[] feePercentages\n    );\n\n    event BidMade(\n        address nftContractAddress,\n        uint256 tokenId,\n        address bidder,\n        uint256 ethAmount,\n        address erc20Token,\n        uint256 tokenAmount\n    );\n\n    event AuctionPeriodUpdated(\n        address nftContractAddress,\n        uint256 tokenId,\n        uint64 auctionEndPeriod\n    );\n\n    event NFTTransferredAndSellerPaid(\n        address nftContractAddress,\n        uint256 tokenId,\n        address nftSeller,\n        uint128 nftHighestBid,\n        address nftHighestBidder,\n        address nftRecipient\n    );\n\n    event AuctionSettled(\n        address nftContractAddress,\n        uint256 tokenId,\n        address auctionSettler\n    );\n\n    event AuctionWithdrawn(\n        address nftContractAddress,\n        uint256 tokenId,\n        address nftOwner\n    );\n\n    event BidWithdrawn(\n        address nftContractAddress,\n        uint256 tokenId,\n        address highestBidder\n    );\n\n    event WhitelistedBuyerUpdated(\n        address nftContractAddress,\n        uint256 tokenId,\n        address newWhitelistedBuyer\n    );\n\n    event MinimumPriceUpdated(\n        address nftContractAddress,\n        uint256 tokenId,\n        uint256 newMinPrice\n    );\n\n    event BuyNowPriceUpdated(\n        address nftContractAddress,\n        uint256 tokenId,\n        uint128 newBuyNowPrice\n    );\n\n    event HighestBidTaken(address nftContractAddress, uint256 tokenId);\n    /**********************************/\n    /*\n                   END             \n                  EVENTS           \n      */\n    /**********************************/\n    /*\n                MODIFIERS          \n      */\n\n    modifier isAuctionNotStartedByOwner(\n        address _nftContractAddress,\n        uint256 _tokenId\n    ) {\n        require(\n            nftContractAuctions[_nftContractAddress][_tokenId].nftSeller !=\n                msg.sender,\n            \"Auction already started by owner\"\n        );\n\n        if (\n            nftContractAuctions[_nftContractAddress][_tokenId].nftSeller !=\n            address(0)\n        ) {\n            require(\n                msg.sender == IERC721(_nftContractAddress).ownerOf(_tokenId),\n                \"Sender doesn't own NFT\"\n            );\n\n            _resetAuction(_nftContractAddress, _tokenId);\n        }\n        _;\n    }\n\n    modifier auctionOngoing(address _nftContractAddress, uint256 _tokenId) {\n        require(\n            _isAuctionOngoing(_nftContractAddress, _tokenId),\n            \"Auction has ended\"\n        );\n        _;\n    }\n\n    modifier priceGreaterThanZero(uint256 _price) {\n        require(_price > 0, \"Price cannot be 0\");\n        _;\n    }\n    /*\n     * The minimum price must be 80% of the buyNowPrice(if set).\n     */\n    modifier minPriceDoesNotExceedLimit(\n        uint128 _buyNowPrice,\n        uint128 _minPrice\n    ) {\n        require(\n            _buyNowPrice == 0 ||\n                _getPortionOfBid(_buyNowPrice, maximumMinPricePercentage) >=\n                _minPrice,\n            \"MinPrice > 80% of buyNowPrice\"\n        );\n        _;\n    }\n\n    modifier notNftSeller(address _nftContractAddress, uint256 _tokenId) {\n        require(\n            msg.sender !=\n                nftContractAuctions[_nftContractAddress][_tokenId].nftSeller,\n            \"Owner cannot bid on own NFT\"\n        );\n        _;\n    }\n    modifier onlyNftSeller(address _nftContractAddress, uint256 _tokenId) {\n        require(\n            msg.sender ==\n                nftContractAuctions[_nftContractAddress][_tokenId].nftSeller,\n            \"Only nft seller\"\n        );\n        _;\n    }\n    /*\n     * The bid amount was either equal the buyNowPrice or it must be higher than the previous\n     * bid by the specified bid increase percentage.\n     */\n    modifier bidAmountMeetsBidRequirements(\n        address _nftContractAddress,\n        uint256 _tokenId,\n        uint128 _tokenAmount\n    ) {\n        require(\n            _doesBidMeetBidRequirements(\n                _nftContractAddress,\n                _tokenId,\n                _tokenAmount\n            ),\n            \"Not enough funds to bid on NFT\"\n        );\n        _;\n    }\n    // check if the highest bidder can purchase this NFT.\n    modifier onlyApplicableBuyer(\n        address _nftContractAddress,\n        uint256 _tokenId\n    ) {\n        require(\n            !_isWhitelistedSale(_nftContractAddress, _tokenId) ||\n                nftContractAuctions[_nftContractAddress][_tokenId]\n                    .whitelistedBuyer ==\n                msg.sender,\n            \"Only the whitelisted buyer\"\n        );\n        _;\n    }\n\n    modifier minimumBidNotMade(address _nftContractAddress, uint256 _tokenId) {\n        require(\n            !_isMinimumBidMade(_nftContractAddress, _tokenId),\n            \"The auction has a valid bid made\"\n        );\n        _;\n    }\n\n    /*\n     * Payment is accepted if the payment is made in the ERC20 token or ETH specified by the seller.\n     * Early bids on NFTs not yet up for auction must be made in ETH.\n     */\n    modifier paymentAccepted(\n        address _nftContractAddress,\n        uint256 _tokenId,\n        address _erc20Token,\n        uint128 _tokenAmount\n    ) {\n        require(\n            _isPaymentAccepted(\n                _nftContractAddress,\n                _tokenId,\n                _erc20Token,\n                _tokenAmount\n            ),\n            \"Bid to be in specified ERC20/Eth\"\n        );\n        _;\n    }\n\n    modifier isAuctionOver(address _nftContractAddress, uint256 _tokenId) {\n        require(\n            !_isAuctionOngoing(_nftContractAddress, _tokenId),\n            \"Auction is not yet over\"\n        );\n        _;\n    }\n\n    modifier notZeroAddress(address _address) {\n        require(_address != address(0), \"Cannot specify 0 address\");\n        _;\n    }\n\n    modifier increasePercentageAboveMinimum(uint32 _bidIncreasePercentage) {\n        require(\n            _bidIncreasePercentage >= minimumSettableIncreasePercentage,\n            \"Bid increase percentage too low\"\n        );\n        _;\n    }\n\n    modifier isFeePercentagesLessThanMaximum(uint32[] memory _feePercentages) {\n        uint32 totalPercent;\n        for (uint256 i = 0; i < _feePercentages.length; i++) {\n            totalPercent = totalPercent + _feePercentages[i];\n        }\n        require(totalPercent <= 10000, \"Fee percentages exceed maximum\");\n        _;\n    }\n\n    modifier correctFeeRecipientsAndPercentages(\n        uint256 _recipientsLength,\n        uint256 _percentagesLength\n    ) {\n        require(\n            _recipientsLength == _percentagesLength,\n            \"Recipients != percentages\"\n        );\n        _;\n    }\n\n    modifier isNotASale(address _nftContractAddress, uint256 _tokenId) {\n        require(\n            !_isASale(_nftContractAddress, _tokenId),\n            \"Not applicable for a sale\"\n        );\n        _;\n    }\n\n    /**********************************/\n    /*\n                   END             \n                MODIFIERS          \n      */\n    /**********************************/\n    // constructor\n    constructor() {\n        defaultBidIncreasePercentage = 100;\n        defaultAuctionBidPeriod = 86400; //1 day\n        minimumSettableIncreasePercentage = 100;\n        maximumMinPricePercentage = 8000;\n    }\n\n    /*\n          AUCTION CHECK FUNCTIONS   \n      */\n    function _isAuctionOngoing(address _nftContractAddress, uint256 _tokenId)\n        internal\n        view\n        returns (bool)\n    {\n        uint64 auctionEndTimestamp = nftContractAuctions[_nftContractAddress][\n            _tokenId\n        ].auctionEnd;\n        //if the auctionEnd is set to 0, the auction is technically on-going, however\n        //the minimum bid price (minPrice) has not yet been met.\n        return (auctionEndTimestamp == 0 ||\n            block.timestamp < auctionEndTimestamp);\n    }\n\n    /*\n     * Check if a bid has been made. This is applicable in the early bid scenario\n     * to ensure that if an auction is created after an early bid, the auction\n     * begins appropriately or is settled if the buy now price is met.\n     */\n    function _isABidMade(address _nftContractAddress, uint256 _tokenId)\n        internal\n        view\n        returns (bool)\n    {\n        return (nftContractAuctions[_nftContractAddress][_tokenId]\n            .nftHighestBid > 0);\n    }\n\n    /*\n     *if the minPrice is set by the seller, check that the highest bid meets or exceeds that price.\n     */\n    function _isMinimumBidMade(address _nftContractAddress, uint256 _tokenId)\n        internal\n        view\n        returns (bool)\n    {\n        uint128 minPrice = nftContractAuctions[_nftContractAddress][_tokenId]\n            .minPrice;\n        return\n            minPrice > 0 &&\n            (nftContractAuctions[_nftContractAddress][_tokenId].nftHighestBid >=\n                minPrice);\n    }\n\n    /*\n     * If the buy now price is set by the seller, check that the highest bid meets that price.\n     */\n    function _isBuyNowPriceMet(address _nftContractAddress, uint256 _tokenId)\n        internal\n        view\n        returns (bool)\n    {\n        uint128 buyNowPrice = nftContractAuctions[_nftContractAddress][_tokenId]\n            .buyNowPrice;\n        return\n            buyNowPrice > 0 &&\n            nftContractAuctions[_nftContractAddress][_tokenId].nftHighestBid >=\n            buyNowPrice;\n    }\n\n    /*\n     * Check that a bid is applicable for the purchase of the NFT.\n     * In the case of a sale: the bid needs to meet the buyNowPrice.\n     * In the case of an auction: the bid needs to be a % higher than the previous bid.\n     */\n    function _doesBidMeetBidRequirements(\n        address _nftContractAddress,\n        uint256 _tokenId,\n        uint128 _tokenAmount\n    ) internal view returns (bool) {\n        uint128 buyNowPrice = nftContractAuctions[_nftContractAddress][_tokenId]\n            .buyNowPrice;\n        //if buyNowPrice is met, ignore increase percentage\n        if (\n            buyNowPrice > 0 &&\n            (msg.value >= buyNowPrice || _tokenAmount >= buyNowPrice)\n        ) {\n            return true;\n        }\n        //if the NFT is up for auction, the bid needs to be a % higher than the previous bid\n        uint256 bidIncreaseAmount = (nftContractAuctions[_nftContractAddress][\n            _tokenId\n        ].nftHighestBid *\n            (10000 +\n                _getBidIncreasePercentage(_nftContractAddress, _tokenId))) /\n            10000;\n        return (msg.value >= bidIncreaseAmount ||\n            _tokenAmount >= bidIncreaseAmount);\n    }\n\n    /*\n     * An NFT is up for sale if the buyNowPrice is set, but the minPrice is not set.\n     * Therefore the only way to conclude the NFT sale is to meet the buyNowPrice.\n     */\n    function _isASale(address _nftContractAddress, uint256 _tokenId)\n        internal\n        view\n        returns (bool)\n    {\n        return (nftContractAuctions[_nftContractAddress][_tokenId].buyNowPrice >\n            0 &&\n            nftContractAuctions[_nftContractAddress][_tokenId].minPrice == 0);\n    }\n\n    function _isWhitelistedSale(address _nftContractAddress, uint256 _tokenId)\n        internal\n        view\n        returns (bool)\n    {\n        return (nftContractAuctions[_nftContractAddress][_tokenId]\n            .whitelistedBuyer != address(0));\n    }\n\n    /*\n     * The highest bidder is allowed to purchase the NFT if\n     * no whitelisted buyer is set by the NFT seller.\n     * Otherwise, the highest bidder must equal the whitelisted buyer.\n     */\n    function _isHighestBidderAllowedToPurchaseNFT(\n        address _nftContractAddress,\n        uint256 _tokenId\n    ) internal view returns (bool) {\n        return\n            (!_isWhitelistedSale(_nftContractAddress, _tokenId)) ||\n            _isHighestBidderWhitelisted(_nftContractAddress, _tokenId);\n    }\n\n    function _isHighestBidderWhitelisted(\n        address _nftContractAddress,\n        uint256 _tokenId\n    ) internal view returns (bool) {\n        return (nftContractAuctions[_nftContractAddress][_tokenId]\n            .nftHighestBidder ==\n            nftContractAuctions[_nftContractAddress][_tokenId]\n                .whitelistedBuyer);\n    }\n\n    /**\n     * Payment is accepted in the following scenarios:\n     * (1) Auction already created - can accept ETH or Specified Token\n     *  --------> Cannot bid with ETH & an ERC20 Token together in any circumstance<------\n     * (2) Auction not created - only ETH accepted (cannot early bid with an ERC20 Token\n     * (3) Cannot make a zero bid (no ETH or Token amount)\n     */\n    function _isPaymentAccepted(\n        address _nftContractAddress,\n        uint256 _tokenId,\n        address _bidERC20Token,\n        uint128 _tokenAmount\n    ) internal view returns (bool) {\n        address auctionERC20Token = nftContractAuctions[_nftContractAddress][\n            _tokenId\n        ].ERC20Token;\n        if (_isERC20Auction(auctionERC20Token)) {\n            return\n                msg.value == 0 &&\n                auctionERC20Token == _bidERC20Token &&\n                _tokenAmount > 0;\n        } else {\n            return\n                msg.value != 0 &&\n                _bidERC20Token == address(0) &&\n                _tokenAmount == 0;\n        }\n    }\n\n    function _isERC20Auction(address _auctionERC20Token)\n        internal\n        pure\n        returns (bool)\n    {\n        return _auctionERC20Token != address(0);\n    }\n\n    /*\n     * Returns the percentage of the total bid (used to calculate fee payments)\n     */\n    function _getPortionOfBid(uint256 _totalBid, uint256 _percentage)\n        internal\n        pure\n        returns (uint256)\n    {\n        return (_totalBid * (_percentage)) / 10000;\n    }\n\n    /**********************************/\n    /*\n                   END              \n          AUCTION CHECK FUNCTIONS   \n      */\n    /**********************************/\n    /*\n          DEFAULT GETTER FUNCTIONS  \n      */\n    /*****************************************************************\n     * These functions check if the applicable auction parameter has *\n     * been set by the NFT seller. If not, return the default value. *\n     *****************************************************************/\n\n    function _getBidIncreasePercentage(\n        address _nftContractAddress,\n        uint256 _tokenId\n    ) internal view returns (uint32) {\n        uint32 bidIncreasePercentage = nftContractAuctions[_nftContractAddress][\n            _tokenId\n        ].bidIncreasePercentage;\n\n        if (bidIncreasePercentage == 0) {\n            return defaultBidIncreasePercentage;\n        } else {\n            return bidIncreasePercentage;\n        }\n    }\n\n    function _getAuctionBidPeriod(address _nftContractAddress, uint256 _tokenId)\n        internal\n        view\n        returns (uint32)\n    {\n        uint32 auctionBidPeriod = nftContractAuctions[_nftContractAddress][\n            _tokenId\n        ].auctionBidPeriod;\n\n        if (auctionBidPeriod == 0) {\n            return defaultAuctionBidPeriod;\n        } else {\n            return auctionBidPeriod;\n        }\n    }\n\n    /*\n     * The default value for the NFT recipient is the highest bidder\n     */\n    function _getNftRecipient(address _nftContractAddress, uint256 _tokenId)\n        internal\n        view\n        returns (address)\n    {\n        address nftRecipient = nftContractAuctions[_nftContractAddress][\n            _tokenId\n        ].nftRecipient;\n\n        if (nftRecipient == address(0)) {\n            return\n                nftContractAuctions[_nftContractAddress][_tokenId]\n                    .nftHighestBidder;\n        } else {\n            return nftRecipient;\n        }\n    }\n\n    /**********************************/\n    /*\n                   END              \n          DEFAULT GETTER FUNCTIONS  \n      */\n    /**********************************/\n\n    /*\n        TRANSFER NFTS TO CONTRACT   \n      */\n    function _transferNftToAuctionContract(\n        address _nftContractAddress,\n        uint256 _tokenId\n    ) internal {\n        address _nftSeller = nftContractAuctions[_nftContractAddress][_tokenId]\n            .nftSeller;\n        if (IERC721(_nftContractAddress).ownerOf(_tokenId) == _nftSeller) {\n            IERC721(_nftContractAddress).transferFrom(\n                _nftSeller,\n                address(this),\n                _tokenId\n            );\n            require(\n                IERC721(_nftContractAddress).ownerOf(_tokenId) == address(this),\n                \"nft transfer failed\"\n            );\n        } else {\n            require(\n                IERC721(_nftContractAddress).ownerOf(_tokenId) == address(this),\n                \"Seller doesn't own NFT\"\n            );\n        }\n    }\n\n    /**********************************/\n    /*\n                   END              \n        TRANSFER NFTS TO CONTRACT   \n      */\n    /**********************************/\n\n    /*\n             AUCTION CREATION       \n      */\n\n    /**\n     * Setup parameters applicable to all auctions and whitelised sales:\n     * -> ERC20 Token for payment (if specified by the seller) : _erc20Token\n     * -> minimum price : _minPrice\n     * -> buy now price : _buyNowPrice\n     * -> the nft seller: msg.sender\n     * -> The fee recipients & their respective percentages for a sucessful auction/sale\n     */\n    function _setupAuction(\n        address _nftContractAddress,\n        uint256 _tokenId,\n        address _erc20Token,\n        uint128 _minPrice,\n        uint128 _buyNowPrice,\n        address[] memory _feeRecipients,\n        uint32[] memory _feePercentages\n    )\n        internal\n        minPriceDoesNotExceedLimit(_buyNowPrice, _minPrice)\n        correctFeeRecipientsAndPercentages(\n            _feeRecipients.length,\n            _feePercentages.length\n        )\n        isFeePercentagesLessThanMaximum(_feePercentages)\n    {\n        if (_erc20Token != address(0)) {\n            nftContractAuctions[_nftContractAddress][_tokenId]\n                .ERC20Token = _erc20Token;\n        }\n        nftContractAuctions[_nftContractAddress][_tokenId]\n            .feeRecipients = _feeRecipients;\n        nftContractAuctions[_nftContractAddress][_tokenId]\n            .feePercentages = _feePercentages;\n        nftContractAuctions[_nftContractAddress][_tokenId]\n            .buyNowPrice = _buyNowPrice;\n        nftContractAuctions[_nftContractAddress][_tokenId].minPrice = _minPrice;\n        nftContractAuctions[_nftContractAddress][_tokenId].nftSeller = msg\n            .sender;\n    }\n\n    function _createNewNftAuction(\n        address _nftContractAddress,\n        uint256 _tokenId,\n        address _erc20Token,\n        uint128 _minPrice,\n        uint128 _buyNowPrice,\n        address[] memory _feeRecipients,\n        uint32[] memory _feePercentages\n    ) internal {\n        // Sending the NFT to this contract\n        _setupAuction(\n            _nftContractAddress,\n            _tokenId,\n            _erc20Token,\n            _minPrice,\n            _buyNowPrice,\n            _feeRecipients,\n            _feePercentages\n        );\n        emit NftAuctionCreated(\n            _nftContractAddress,\n            _tokenId,\n            msg.sender,\n            _erc20Token,\n            _minPrice,\n            _buyNowPrice,\n            _getAuctionBidPeriod(_nftContractAddress, _tokenId),\n            _getBidIncreasePercentage(_nftContractAddress, _tokenId),\n            _feeRecipients,\n            _feePercentages\n        );\n        _updateOngoingAuction(_nftContractAddress, _tokenId);\n    }\n\n    /**\n     * Create an auction that uses the default bid increase percentage\n     * & the default auction bid period.\n     */\n    function createDefaultNftAuction(\n        address _nftContractAddress,\n        uint256 _tokenId,\n        address _erc20Token,\n        uint128 _minPrice,\n        uint128 _buyNowPrice,\n        address[] memory _feeRecipients,\n        uint32[] memory _feePercentages\n    )\n        external\n        isAuctionNotStartedByOwner(_nftContractAddress, _tokenId)\n        priceGreaterThanZero(_minPrice)\n    {\n        _createNewNftAuction(\n            _nftContractAddress,\n            _tokenId,\n            _erc20Token,\n            _minPrice,\n            _buyNowPrice,\n            _feeRecipients,\n            _feePercentages\n        );\n    }\n\n    function createNewNftAuction(\n        address _nftContractAddress,\n        uint256 _tokenId,\n        address _erc20Token,\n        uint128 _minPrice,\n        uint128 _buyNowPrice,\n        uint32 _auctionBidPeriod, //this is the time that the auction lasts until another bid occurs\n        uint32 _bidIncreasePercentage,\n        address[] memory _feeRecipients,\n        uint32[] memory _feePercentages\n    )\n        external\n        isAuctionNotStartedByOwner(_nftContractAddress, _tokenId)\n        priceGreaterThanZero(_minPrice)\n        increasePercentageAboveMinimum(_bidIncreasePercentage)\n    {\n        nftContractAuctions[_nftContractAddress][_tokenId]\n            .auctionBidPeriod = _auctionBidPeriod;\n        nftContractAuctions[_nftContractAddress][_tokenId]\n            .bidIncreasePercentage = _bidIncreasePercentage;\n        _createNewNftAuction(\n            _nftContractAddress,\n            _tokenId,\n            _erc20Token,\n            _minPrice,\n            _buyNowPrice,\n            _feeRecipients,\n            _feePercentages\n        );\n    }\n\n    /**********************************/\n    /*\n                   END              \n             AUCTION CREATION       \n      */\n    /**********************************/\n\n    /*\n                  SALES             \n      */\n\n    /********************************************************************\n     * Allows for a standard sale mechanism where the NFT seller can    *\n     * can select an address to be whitelisted. This address is then    *\n     * allowed to make a bid on the NFT. No other address can bid on    *\n     * the NFT.                                                         *\n     ********************************************************************/\n    function _setupSale(\n        address _nftContractAddress,\n        uint256 _tokenId,\n        address _erc20Token,\n        uint128 _buyNowPrice,\n        address _whitelistedBuyer,\n        address[] memory _feeRecipients,\n        uint32[] memory _feePercentages\n    )\n        internal\n        correctFeeRecipientsAndPercentages(\n            _feeRecipients.length,\n            _feePercentages.length\n        )\n        isFeePercentagesLessThanMaximum(_feePercentages)\n    {\n        if (_erc20Token != address(0)) {\n            nftContractAuctions[_nftContractAddress][_tokenId]\n                .ERC20Token = _erc20Token;\n        }\n        nftContractAuctions[_nftContractAddress][_tokenId]\n            .feeRecipients = _feeRecipients;\n        nftContractAuctions[_nftContractAddress][_tokenId]\n            .feePercentages = _feePercentages;\n        nftContractAuctions[_nftContractAddress][_tokenId]\n            .buyNowPrice = _buyNowPrice;\n        nftContractAuctions[_nftContractAddress][_tokenId]\n            .whitelistedBuyer = _whitelistedBuyer;\n        nftContractAuctions[_nftContractAddress][_tokenId].nftSeller = msg\n            .sender;\n    }\n\n    function createSale(\n        address _nftContractAddress,\n        uint256 _tokenId,\n        address _erc20Token,\n        uint128 _buyNowPrice,\n        address _whitelistedBuyer,\n        address[] memory _feeRecipients,\n        uint32[] memory _feePercentages\n    )\n        external\n        isAuctionNotStartedByOwner(_nftContractAddress, _tokenId)\n        priceGreaterThanZero(_buyNowPrice)\n    {\n        //min price = 0\n        _setupSale(\n            _nftContractAddress,\n            _tokenId,\n            _erc20Token,\n            _buyNowPrice,\n            _whitelistedBuyer,\n            _feeRecipients,\n            _feePercentages\n        );\n\n        emit SaleCreated(\n            _nftContractAddress,\n            _tokenId,\n            msg.sender,\n            _erc20Token,\n            _buyNowPrice,\n            _whitelistedBuyer,\n            _feeRecipients,\n            _feePercentages\n        );\n        //check if buyNowPrice is meet and conclude sale, otherwise reverse the early bid\n        if (_isABidMade(_nftContractAddress, _tokenId)) {\n            if (\n                //we only revert the underbid if the seller specifies a different\n                //whitelisted buyer to the highest bidder\n                _isHighestBidderAllowedToPurchaseNFT(\n                    _nftContractAddress,\n                    _tokenId\n                )\n            ) {\n                if (_isBuyNowPriceMet(_nftContractAddress, _tokenId)) {\n                    _transferNftToAuctionContract(\n                        _nftContractAddress,\n                        _tokenId\n                    );\n                    _transferNftAndPaySeller(_nftContractAddress, _tokenId);\n                }\n            } else {\n                _reverseAndResetPreviousBid(_nftContractAddress, _tokenId);\n            }\n        }\n    }\n\n    /**********************************/\n    /*\n                   END              \n                  SALES             \n      */\n    /**********************************/\n\n    /*\n              BID FUNCTIONS        \n      */\n\n    /********************************************************************\n     * Make bids with ETH or an ERC20 Token specified by the NFT seller.*\n     * Additionally, a buyer can pay the asking price to conclude a sale*\n     * of an NFT.                                                      *\n     ********************************************************************/\n\n    function _makeBid(\n        address _nftContractAddress,\n        uint256 _tokenId,\n        address _erc20Token,\n        uint128 _tokenAmount\n    )\n        internal\n        notNftSeller(_nftContractAddress, _tokenId)\n        paymentAccepted(\n            _nftContractAddress,\n            _tokenId,\n            _erc20Token,\n            _tokenAmount\n        )\n        bidAmountMeetsBidRequirements(\n            _nftContractAddress,\n            _tokenId,\n            _tokenAmount\n        )\n    {\n        _reversePreviousBidAndUpdateHighestBid(\n            _nftContractAddress,\n            _tokenId,\n            _tokenAmount\n        );\n        emit BidMade(\n            _nftContractAddress,\n            _tokenId,\n            msg.sender,\n            msg.value,\n            _erc20Token,\n            _tokenAmount\n        );\n        _updateOngoingAuction(_nftContractAddress, _tokenId);\n    }\n\n    function makeBid(\n        address _nftContractAddress,\n        uint256 _tokenId,\n        address _erc20Token,\n        uint128 _tokenAmount\n    )\n        external\n        payable\n        auctionOngoing(_nftContractAddress, _tokenId)\n        onlyApplicableBuyer(_nftContractAddress, _tokenId)\n    {\n        _makeBid(_nftContractAddress, _tokenId, _erc20Token, _tokenAmount);\n    }\n\n    function makeCustomBid(\n        address _nftContractAddress,\n        uint256 _tokenId,\n        address _erc20Token,\n        uint128 _tokenAmount,\n        address _nftRecipient\n    )\n        external\n        payable\n        auctionOngoing(_nftContractAddress, _tokenId)\n        notZeroAddress(_nftRecipient)\n        onlyApplicableBuyer(_nftContractAddress, _tokenId)\n    {\n        nftContractAuctions[_nftContractAddress][_tokenId]\n            .nftRecipient = _nftRecipient;\n        _makeBid(_nftContractAddress, _tokenId, _erc20Token, _tokenAmount);\n    }\n\n    /**********************************/\n    /*\n                   END              \n              BID FUNCTIONS         \n      */\n    /**********************************/\n\n    /*\n             UPDATE AUCTION         \n      */\n\n    /***************************************************************\n     * Settle an auction or sale if the buyNowPrice is met or set  *\n     *  auction period to begin if the minimum price has been met. *\n     ***************************************************************/\n    function _updateOngoingAuction(\n        address _nftContractAddress,\n        uint256 _tokenId\n    ) internal {\n        if (_isBuyNowPriceMet(_nftContractAddress, _tokenId)) {\n            _transferNftToAuctionContract(_nftContractAddress, _tokenId);\n            _transferNftAndPaySeller(_nftContractAddress, _tokenId);\n            return;\n        }\n        //min price not set, nft not up for auction yet\n        if (_isMinimumBidMade(_nftContractAddress, _tokenId)) {\n            _transferNftToAuctionContract(_nftContractAddress, _tokenId);\n            _updateAuctionEnd(_nftContractAddress, _tokenId);\n        }\n    }\n\n    function _updateAuctionEnd(address _nftContractAddress, uint256 _tokenId)\n        internal\n    {\n        //the auction end is always set to now + the bid period\n        nftContractAuctions[_nftContractAddress][_tokenId].auctionEnd =\n            _getAuctionBidPeriod(_nftContractAddress, _tokenId) +\n            uint64(block.timestamp);\n        emit AuctionPeriodUpdated(\n            _nftContractAddress,\n            _tokenId,\n            nftContractAuctions[_nftContractAddress][_tokenId].auctionEnd\n        );\n    }\n\n    /**********************************/\n    /*\n                   END              \n             UPDATE AUCTION         \n      */\n    /**********************************/\n\n    /*\n             RESET FUNCTIONS        \n      */\n\n    /*\n     * Reset all auction related parameters for an NFT.\n     * This effectively removes an EFT as an item up for auction\n     */\n    function _resetAuction(address _nftContractAddress, uint256 _tokenId)\n        internal\n    {\n        nftContractAuctions[_nftContractAddress][_tokenId].minPrice = 0;\n        nftContractAuctions[_nftContractAddress][_tokenId].buyNowPrice = 0;\n        nftContractAuctions[_nftContractAddress][_tokenId].auctionEnd = 0;\n        nftContractAuctions[_nftContractAddress][_tokenId].auctionBidPeriod = 0;\n        nftContractAuctions[_nftContractAddress][_tokenId]\n            .bidIncreasePercentage = 0;\n        nftContractAuctions[_nftContractAddress][_tokenId].nftSeller = address(\n            0\n        );\n        nftContractAuctions[_nftContractAddress][_tokenId]\n            .whitelistedBuyer = address(0);\n        nftContractAuctions[_nftContractAddress][_tokenId].ERC20Token = address(\n            0\n        );\n    }\n\n    /*\n     * Reset all bid related parameters for an NFT.\n     * This effectively sets an NFT as having no active bids\n     */\n    function _resetBids(address _nftContractAddress, uint256 _tokenId)\n        internal\n    {\n        nftContractAuctions[_nftContractAddress][_tokenId]\n            .nftHighestBidder = address(0);\n        nftContractAuctions[_nftContractAddress][_tokenId].nftHighestBid = 0;\n        nftContractAuctions[_nftContractAddress][_tokenId]\n            .nftRecipient = address(0);\n    }\n\n    /**********************************/\n    /*\n                   END              \n             RESET FUNCTIONS        \n      */\n    /**********************************/\n\n    /*\n               UPDATE BIDS          \n      */\n    /******************************************************************\n     * Internal functions that update bid parameters and reverse bids *\n     * to ensure contract only holds the highest bid.                 *\n     ******************************************************************/\n    function _updateHighestBid(\n        address _nftContractAddress,\n        uint256 _tokenId,\n        uint128 _tokenAmount\n    ) internal {\n        address auctionERC20Token = nftContractAuctions[_nftContractAddress][\n            _tokenId\n        ].ERC20Token;\n        if (_isERC20Auction(auctionERC20Token)) {\n            IERC20(auctionERC20Token).transferFrom(\n                msg.sender,\n                address(this),\n                _tokenAmount\n            );\n            nftContractAuctions[_nftContractAddress][_tokenId]\n                .nftHighestBid = _tokenAmount;\n        } else {\n            nftContractAuctions[_nftContractAddress][_tokenId]\n                .nftHighestBid = uint128(msg.value);\n        }\n        nftContractAuctions[_nftContractAddress][_tokenId]\n            .nftHighestBidder = msg.sender;\n    }\n\n    function _reverseAndResetPreviousBid(\n        address _nftContractAddress,\n        uint256 _tokenId\n    ) internal {\n        address nftHighestBidder = nftContractAuctions[_nftContractAddress][\n            _tokenId\n        ].nftHighestBidder;\n\n        uint128 nftHighestBid = nftContractAuctions[_nftContractAddress][\n            _tokenId\n        ].nftHighestBid;\n        _resetBids(_nftContractAddress, _tokenId);\n\n        _payout(_nftContractAddress, _tokenId, nftHighestBidder, nftHighestBid);\n    }\n\n    function _reversePreviousBidAndUpdateHighestBid(\n        address _nftContractAddress,\n        uint256 _tokenId,\n        uint128 _tokenAmount\n    ) internal {\n        address prevNftHighestBidder = nftContractAuctions[_nftContractAddress][\n            _tokenId\n        ].nftHighestBidder;\n\n        uint256 prevNftHighestBid = nftContractAuctions[_nftContractAddress][\n            _tokenId\n        ].nftHighestBid;\n        _updateHighestBid(_nftContractAddress, _tokenId, _tokenAmount);\n\n        if (prevNftHighestBidder != address(0)) {\n            _payout(\n                _nftContractAddress,\n                _tokenId,\n                prevNftHighestBidder,\n                prevNftHighestBid\n            );\n        }\n    }\n\n    /**********************************/\n    /*\n                   END              \n               UPDATE BIDS          \n      */\n    /**********************************/\n\n    /*\n        TRANSFER NFT & PAY SELLER   \n      */\n    function _transferNftAndPaySeller(\n        address _nftContractAddress,\n        uint256 _tokenId\n    ) internal {\n        address _nftSeller = nftContractAuctions[_nftContractAddress][_tokenId]\n            .nftSeller;\n        address _nftHighestBidder = nftContractAuctions[_nftContractAddress][\n            _tokenId\n        ].nftHighestBidder;\n        address _nftRecipient = _getNftRecipient(_nftContractAddress, _tokenId);\n        uint128 _nftHighestBid = nftContractAuctions[_nftContractAddress][\n            _tokenId\n        ].nftHighestBid;\n        _resetBids(_nftContractAddress, _tokenId);\n\n        _payFeesAndSeller(\n            _nftContractAddress,\n            _tokenId,\n            _nftSeller,\n            _nftHighestBid\n        );\n        IERC721(_nftContractAddress).transferFrom(\n            address(this),\n            _nftRecipient,\n            _tokenId\n        );\n\n        _resetAuction(_nftContractAddress, _tokenId);\n        emit NFTTransferredAndSellerPaid(\n            _nftContractAddress,\n            _tokenId,\n            _nftSeller,\n            _nftHighestBid,\n            _nftHighestBidder,\n            _nftRecipient\n        );\n    }\n\n    function _payFeesAndSeller(\n        address _nftContractAddress,\n        uint256 _tokenId,\n        address _nftSeller,\n        uint256 _highestBid\n    ) internal {\n        uint256 feesPaid;\n        for (\n            uint256 i = 0;\n            i <\n            nftContractAuctions[_nftContractAddress][_tokenId]\n                .feeRecipients\n                .length;\n            i++\n        ) {\n            uint256 fee = _getPortionOfBid(\n                _highestBid,\n                nftContractAuctions[_nftContractAddress][_tokenId]\n                    .feePercentages[i]\n            );\n            feesPaid = feesPaid + fee;\n            _payout(\n                _nftContractAddress,\n                _tokenId,\n                nftContractAuctions[_nftContractAddress][_tokenId]\n                    .feeRecipients[i],\n                fee\n            );\n        }\n        _payout(\n            _nftContractAddress,\n            _tokenId,\n            _nftSeller,\n            (_highestBid - feesPaid)\n        );\n    }\n\n    function _payout(\n        address _nftContractAddress,\n        uint256 _tokenId,\n        address _recipient,\n        uint256 _amount\n    ) internal {\n        address auctionERC20Token = nftContractAuctions[_nftContractAddress][\n            _tokenId\n        ].ERC20Token;\n        if (_isERC20Auction(auctionERC20Token)) {\n            IERC20(auctionERC20Token).transfer(_recipient, _amount);\n        } else {\n            // attempt to send the funds to the recipient\n            (bool success, ) = payable(_recipient).call{\n                value: _amount,\n                gas: 20000\n            }(\"\");\n            // if it failed, update their credit balance so they can pull it later\n            if (!success) {\n                failedTransferCredits[_recipient] =\n                    failedTransferCredits[_recipient] +\n                    _amount;\n            }\n        }\n    }\n\n    /**********************************/\n    /*\n                   END              \n        TRANSFER NFT & PAY SELLER   \n      */\n    /**********************************/\n\n    /*\n            SETTLE & WITHDRAW       \n      */\n    function settleAuction(address _nftContractAddress, uint256 _tokenId)\n        external\n        isAuctionOver(_nftContractAddress, _tokenId)\n    {\n        _transferNftAndPaySeller(_nftContractAddress, _tokenId);\n        emit AuctionSettled(_nftContractAddress, _tokenId, msg.sender);\n    }\n\n    function withdrawAuction(address _nftContractAddress, uint256 _tokenId)\n        external\n    {\n        //only the NFT owner can prematurely close and auction\n        require(\n            IERC721(_nftContractAddress).ownerOf(_tokenId) == msg.sender,\n            \"Not NFT owner\"\n        );\n        _resetAuction(_nftContractAddress, _tokenId);\n        emit AuctionWithdrawn(_nftContractAddress, _tokenId, msg.sender);\n    }\n\n    function withdrawBid(address _nftContractAddress, uint256 _tokenId)\n        external\n        minimumBidNotMade(_nftContractAddress, _tokenId)\n    {\n        address nftHighestBidder = nftContractAuctions[_nftContractAddress][\n            _tokenId\n        ].nftHighestBidder;\n        require(msg.sender == nftHighestBidder, \"Cannot withdraw funds\");\n\n        uint128 nftHighestBid = nftContractAuctions[_nftContractAddress][\n            _tokenId\n        ].nftHighestBid;\n        _resetBids(_nftContractAddress, _tokenId);\n\n        _payout(_nftContractAddress, _tokenId, nftHighestBidder, nftHighestBid);\n\n        emit BidWithdrawn(_nftContractAddress, _tokenId, msg.sender);\n    }\n\n    /**********************************/\n    /*\n                   END              \n            SETTLE & WITHDRAW       \n      */\n    /**********************************/\n\n    /*\n             UPDATE AUCTION         \n      */\n    function updateWhitelistedBuyer(\n        address _nftContractAddress,\n        uint256 _tokenId,\n        address _newWhitelistedBuyer\n    ) external onlyNftSeller(_nftContractAddress, _tokenId) {\n        require(_isASale(_nftContractAddress, _tokenId), \"Not a sale\");\n        nftContractAuctions[_nftContractAddress][_tokenId]\n            .whitelistedBuyer = _newWhitelistedBuyer;\n        //if an underbid is by a non whitelisted buyer,reverse that bid\n        address nftHighestBidder = nftContractAuctions[_nftContractAddress][\n            _tokenId\n        ].nftHighestBidder;\n        uint128 nftHighestBid = nftContractAuctions[_nftContractAddress][\n            _tokenId\n        ].nftHighestBid;\n        if (nftHighestBid > 0 && !(nftHighestBidder == _newWhitelistedBuyer)) {\n            //we only revert the underbid if the seller specifies a different\n            //whitelisted buyer to the highest bider\n\n            _resetBids(_nftContractAddress, _tokenId);\n\n            _payout(\n                _nftContractAddress,\n                _tokenId,\n                nftHighestBidder,\n                nftHighestBid\n            );\n        }\n\n        emit WhitelistedBuyerUpdated(\n            _nftContractAddress,\n            _tokenId,\n            _newWhitelistedBuyer\n        );\n    }\n\n    function updateMinimumPrice(\n        address _nftContractAddress,\n        uint256 _tokenId,\n        uint128 _newMinPrice\n    )\n        external\n        onlyNftSeller(_nftContractAddress, _tokenId)\n        minimumBidNotMade(_nftContractAddress, _tokenId)\n        isNotASale(_nftContractAddress, _tokenId)\n        priceGreaterThanZero(_newMinPrice)\n        minPriceDoesNotExceedLimit(\n            nftContractAuctions[_nftContractAddress][_tokenId].buyNowPrice,\n            _newMinPrice\n        )\n    {\n        nftContractAuctions[_nftContractAddress][_tokenId]\n            .minPrice = _newMinPrice;\n\n        emit MinimumPriceUpdated(_nftContractAddress, _tokenId, _newMinPrice);\n\n        if (_isMinimumBidMade(_nftContractAddress, _tokenId)) {\n            _transferNftToAuctionContract(_nftContractAddress, _tokenId);\n            _updateAuctionEnd(_nftContractAddress, _tokenId);\n        }\n    }\n\n    function updateBuyNowPrice(\n        address _nftContractAddress,\n        uint256 _tokenId,\n        uint128 _newBuyNowPrice\n    )\n        external\n        onlyNftSeller(_nftContractAddress, _tokenId)\n        priceGreaterThanZero(_newBuyNowPrice)\n        minPriceDoesNotExceedLimit(\n            _newBuyNowPrice,\n            nftContractAuctions[_nftContractAddress][_tokenId].minPrice\n        )\n    {\n        nftContractAuctions[_nftContractAddress][_tokenId]\n            .buyNowPrice = _newBuyNowPrice;\n        emit BuyNowPriceUpdated(_nftContractAddress, _tokenId, _newBuyNowPrice);\n        if (_isBuyNowPriceMet(_nftContractAddress, _tokenId)) {\n            _transferNftToAuctionContract(_nftContractAddress, _tokenId);\n            _transferNftAndPaySeller(_nftContractAddress, _tokenId);\n        }\n    }\n\n    /*\n     * The NFT seller can opt to end an auction by taking the current highest bid.\n     */\n    function takeHighestBid(address _nftContractAddress, uint256 _tokenId)\n        external\n        onlyNftSeller(_nftContractAddress, _tokenId)\n    {\n        require(\n            _isABidMade(_nftContractAddress, _tokenId),\n            \"cannot payout 0 bid\"\n        );\n        _transferNftToAuctionContract(_nftContractAddress, _tokenId);\n        _transferNftAndPaySeller(_nftContractAddress, _tokenId);\n        emit HighestBidTaken(_nftContractAddress, _tokenId);\n    }\n\n    /*\n     * Query the owner of an NFT deposited for auction\n     */\n    function ownerOfNFT(address _nftContractAddress, uint256 _tokenId)\n        external\n        view\n        returns (address)\n    {\n        address nftSeller = nftContractAuctions[_nftContractAddress][_tokenId]\n            .nftSeller;\n        require(nftSeller != address(0), \"NFT not deposited\");\n\n        return nftSeller;\n    }\n\n    /*\n     * If the transfer of a bid has failed, allow the recipient to reclaim their amount later.\n     */\n    function withdrawAllFailedCredits() external {\n        uint256 amount = failedTransferCredits[msg.sender];\n\n        require(amount != 0, \"no credits to withdraw\");\n\n        failedTransferCredits[msg.sender] = 0;\n\n        (bool successfulWithdraw, ) = msg.sender.call{\n            value: amount,\n            gas: 20000\n        }(\"\");\n        require(successfulWithdraw, \"withdraw failed\");\n    }\n\n    /**********************************/\n    /*\n                   END              \n             UPDATE AUCTION         \n      */\n    /**********************************/\n}",
  "sourcePath": "/Users/aarontolentino/Desktop/hashima/contracts/AuctionNFT.sol",
  "compiler": {
    "name": "solc",
    "version": "0.8.3+commit.8d00100c.Emscripten.clang"
  },
  "schemaVersion": "3.4.1",
  "updatedAt": "2022-01-10T15:05:50.172Z",
  "devdoc": {
    "author": "Avo Labs GmbH",
    "kind": "dev",
    "methods": {},
    "title": "An Auction Contract for bidding and selling single and batched NFTs",
    "version": 1
  },
  "userdoc": {
    "kind": "user",
    "methods": {
      "createDefaultNftAuction(address,uint256,address,uint128,uint128,address[],uint32[])": {
        "notice": "Create an auction that uses the default bid increase percentage & the default auction bid period."
      }
    },
    "notice": "This contract can be used for auctioning any NFTs, and accepts any ERC20 token as payment",
    "version": 1
  }
}