{
  "contractName": "NoHashima",
  "abi": [
    {
      "inputs": [],
      "stateMutability": "nonpayable",
      "type": "constructor"
    },
    {
      "anonymous": false,
      "inputs": [
        {
          "indexed": true,
          "internalType": "address",
          "name": "owner",
          "type": "address"
        },
        {
          "indexed": true,
          "internalType": "address",
          "name": "approved",
          "type": "address"
        },
        {
          "indexed": true,
          "internalType": "uint256",
          "name": "tokenId",
          "type": "uint256"
        }
      ],
      "name": "Approval",
      "type": "event"
    },
    {
      "anonymous": false,
      "inputs": [
        {
          "indexed": true,
          "internalType": "address",
          "name": "owner",
          "type": "address"
        },
        {
          "indexed": true,
          "internalType": "address",
          "name": "operator",
          "type": "address"
        },
        {
          "indexed": false,
          "internalType": "bool",
          "name": "approved",
          "type": "bool"
        }
      ],
      "name": "ApprovalForAll",
      "type": "event"
    },
    {
      "anonymous": false,
      "inputs": [
        {
          "indexed": false,
          "internalType": "uint256",
          "name": "_blocknumber",
          "type": "uint256"
        }
      ],
      "name": "GameStart",
      "type": "event"
    },
    {
      "anonymous": false,
      "inputs": [
        {
          "indexed": false,
          "internalType": "bool",
          "name": "respuesta",
          "type": "bool"
        },
        {
          "indexed": false,
          "internalType": "bytes32",
          "name": "hashResultado",
          "type": "bytes32"
        }
      ],
      "name": "Minted",
      "type": "event"
    },
    {
      "anonymous": false,
      "inputs": [
        {
          "indexed": true,
          "internalType": "address",
          "name": "from",
          "type": "address"
        },
        {
          "indexed": true,
          "internalType": "address",
          "name": "to",
          "type": "address"
        },
        {
          "indexed": true,
          "internalType": "uint256",
          "name": "tokenId",
          "type": "uint256"
        }
      ],
      "name": "Transfer",
      "type": "event"
    },
    {
      "inputs": [
        {
          "internalType": "string",
          "name": "",
          "type": "string"
        }
      ],
      "name": "_names",
      "outputs": [
        {
          "internalType": "bool",
          "name": "",
          "type": "bool"
        }
      ],
      "stateMutability": "view",
      "type": "function",
      "constant": true
    },
    {
      "inputs": [
        {
          "internalType": "address",
          "name": "to",
          "type": "address"
        },
        {
          "internalType": "uint256",
          "name": "tokenId",
          "type": "uint256"
        }
      ],
      "name": "approve",
      "outputs": [],
      "stateMutability": "nonpayable",
      "type": "function"
    },
    {
      "inputs": [
        {
          "internalType": "address",
          "name": "owner",
          "type": "address"
        }
      ],
      "name": "balanceOf",
      "outputs": [
        {
          "internalType": "uint256",
          "name": "",
          "type": "uint256"
        }
      ],
      "stateMutability": "view",
      "type": "function",
      "constant": true
    },
    {
      "inputs": [
        {
          "internalType": "uint256",
          "name": "tokenId",
          "type": "uint256"
        }
      ],
      "name": "getApproved",
      "outputs": [
        {
          "internalType": "address",
          "name": "",
          "type": "address"
        }
      ],
      "stateMutability": "view",
      "type": "function",
      "constant": true
    },
    {
      "inputs": [
        {
          "internalType": "address",
          "name": "owner",
          "type": "address"
        },
        {
          "internalType": "address",
          "name": "operator",
          "type": "address"
        }
      ],
      "name": "isApprovedForAll",
      "outputs": [
        {
          "internalType": "bool",
          "name": "",
          "type": "bool"
        }
      ],
      "stateMutability": "view",
      "type": "function",
      "constant": true
    },
    {
      "inputs": [],
      "name": "name",
      "outputs": [
        {
          "internalType": "string",
          "name": "",
          "type": "string"
        }
      ],
      "stateMutability": "view",
      "type": "function",
      "constant": true
    },
    {
      "inputs": [
        {
          "internalType": "uint256",
          "name": "tokenId",
          "type": "uint256"
        }
      ],
      "name": "ownerOf",
      "outputs": [
        {
          "internalType": "address",
          "name": "",
          "type": "address"
        }
      ],
      "stateMutability": "view",
      "type": "function",
      "constant": true
    },
    {
      "inputs": [
        {
          "internalType": "address",
          "name": "from",
          "type": "address"
        },
        {
          "internalType": "address",
          "name": "to",
          "type": "address"
        },
        {
          "internalType": "uint256",
          "name": "tokenId",
          "type": "uint256"
        }
      ],
      "name": "safeTransferFrom",
      "outputs": [],
      "stateMutability": "nonpayable",
      "type": "function"
    },
    {
      "inputs": [
        {
          "internalType": "address",
          "name": "from",
          "type": "address"
        },
        {
          "internalType": "address",
          "name": "to",
          "type": "address"
        },
        {
          "internalType": "uint256",
          "name": "tokenId",
          "type": "uint256"
        },
        {
          "internalType": "bytes",
          "name": "_data",
          "type": "bytes"
        }
      ],
      "name": "safeTransferFrom",
      "outputs": [],
      "stateMutability": "nonpayable",
      "type": "function"
    },
    {
      "inputs": [
        {
          "internalType": "address",
          "name": "operator",
          "type": "address"
        },
        {
          "internalType": "bool",
          "name": "approved",
          "type": "bool"
        }
      ],
      "name": "setApprovalForAll",
      "outputs": [],
      "stateMutability": "nonpayable",
      "type": "function"
    },
    {
      "inputs": [
        {
          "internalType": "bytes4",
          "name": "interfaceId",
          "type": "bytes4"
        }
      ],
      "name": "supportsInterface",
      "outputs": [
        {
          "internalType": "bool",
          "name": "",
          "type": "bool"
        }
      ],
      "stateMutability": "view",
      "type": "function",
      "constant": true
    },
    {
      "inputs": [],
      "name": "symbol",
      "outputs": [
        {
          "internalType": "string",
          "name": "",
          "type": "string"
        }
      ],
      "stateMutability": "view",
      "type": "function",
      "constant": true
    },
    {
      "inputs": [
        {
          "internalType": "uint256",
          "name": "tokenId",
          "type": "uint256"
        }
      ],
      "name": "tokenURI",
      "outputs": [
        {
          "internalType": "string",
          "name": "",
          "type": "string"
        }
      ],
      "stateMutability": "view",
      "type": "function",
      "constant": true
    },
    {
      "inputs": [
        {
          "internalType": "address",
          "name": "from",
          "type": "address"
        },
        {
          "internalType": "address",
          "name": "to",
          "type": "address"
        },
        {
          "internalType": "uint256",
          "name": "tokenId",
          "type": "uint256"
        }
      ],
      "name": "transferFrom",
      "outputs": [],
      "stateMutability": "nonpayable",
      "type": "function"
    },
    {
      "inputs": [
        {
          "internalType": "uint256",
          "name": "_index",
          "type": "uint256"
        }
      ],
      "name": "getHashima",
      "outputs": [
        {
          "components": [
            {
              "internalType": "uint256",
              "name": "tokenId",
              "type": "uint256"
            },
            {
              "internalType": "string",
              "name": "tokenURI",
              "type": "string"
            },
            {
              "internalType": "address payable",
              "name": "currentOwner",
              "type": "address"
            },
            {
              "internalType": "address payable",
              "name": "previousOwner",
              "type": "address"
            },
            {
              "internalType": "uint256",
              "name": "stars",
              "type": "uint256"
            },
            {
              "internalType": "uint256",
              "name": "blockTolerance",
              "type": "uint256"
            },
            {
              "internalType": "uint256",
              "name": "blockEnd",
              "type": "uint256"
            },
            {
              "internalType": "string",
              "name": "nonce",
              "type": "string"
            }
          ],
          "internalType": "struct NoHashima.Hashi",
          "name": "",
          "type": "tuple"
        }
      ],
      "stateMutability": "view",
      "type": "function",
      "constant": true
    },
    {
      "inputs": [
        {
          "internalType": "uint256",
          "name": "_index",
          "type": "uint256"
        }
      ],
      "name": "getStars",
      "outputs": [
        {
          "internalType": "uint256",
          "name": "",
          "type": "uint256"
        }
      ],
      "stateMutability": "view",
      "type": "function",
      "constant": true
    },
    {
      "inputs": [
        {
          "internalType": "uint256",
          "name": "_index",
          "type": "uint256"
        }
      ],
      "name": "getProofOfWorkData",
      "outputs": [
        {
          "internalType": "string",
          "name": "",
          "type": "string"
        },
        {
          "internalType": "uint256",
          "name": "",
          "type": "uint256"
        },
        {
          "internalType": "string",
          "name": "",
          "type": "string"
        },
        {
          "internalType": "uint256",
          "name": "",
          "type": "uint256"
        },
        {
          "internalType": "uint256",
          "name": "",
          "type": "uint256"
        }
      ],
      "stateMutability": "view",
      "type": "function",
      "constant": true
    },
    {
      "inputs": [],
      "name": "Init",
      "outputs": [],
      "stateMutability": "nonpayable",
      "type": "function"
    },
    {
      "inputs": [
        {
          "internalType": "uint256",
          "name": "_stars",
          "type": "uint256"
        },
        {
          "internalType": "string",
          "name": "_data",
          "type": "string"
        },
        {
          "internalType": "string",
          "name": "_nonce",
          "type": "string"
        }
      ],
      "name": "Mint",
      "outputs": [],
      "stateMutability": "nonpayable",
      "type": "function"
    },
    {
      "inputs": [
        {
          "internalType": "uint256",
          "name": "toleranceBlock",
          "type": "uint256"
        },
        {
          "internalType": "string",
          "name": "_data",
          "type": "string"
        },
        {
          "internalType": "string",
          "name": "_nonce",
          "type": "string"
        },
        {
          "internalType": "uint256",
          "name": "_stars",
          "type": "uint256"
        }
      ],
      "name": "createHashimaItem",
      "outputs": [
        {
          "internalType": "uint256",
          "name": "",
          "type": "uint256"
        }
      ],
      "stateMutability": "nonpayable",
      "type": "function"
    },
    {
      "inputs": [],
      "name": "checkGame",
      "outputs": [
        {
          "internalType": "uint256",
          "name": "",
          "type": "uint256"
        }
      ],
      "stateMutability": "view",
      "type": "function",
      "constant": true
    },
    {
      "inputs": [],
      "name": "getBlockTolerance",
      "outputs": [
        {
          "internalType": "uint256",
          "name": "",
          "type": "uint256"
        }
      ],
      "stateMutability": "view",
      "type": "function",
      "constant": true
    },
    {
      "inputs": [
        {
          "internalType": "string",
          "name": "_data",
          "type": "string"
        },
        {
          "internalType": "string",
          "name": "_nonce",
          "type": "string"
        },
        {
          "internalType": "uint256",
          "name": "_tolerance",
          "type": "uint256"
        },
        {
          "internalType": "uint256",
          "name": "_stars",
          "type": "uint256"
        }
      ],
      "name": "checkingHash",
      "outputs": [
        {
          "internalType": "bool",
          "name": "",
          "type": "bool"
        },
        {
          "internalType": "bytes32",
          "name": "",
          "type": "bytes32"
        }
      ],
      "stateMutability": "pure",
      "type": "function",
      "constant": true
    }
  ],
  "bytecode": "0x608060405260c86007553480156200001657600080fd5b506040518060400160405280600a81526020017f4e6f7448617368696d61000000000000000000000000000000000000000000008152506040518060400160405280600a81526020017f4e4f5448415348494d410000000000000000000000000000000000000000000081525081600090805190602001906200009b929190620000bd565b508060019080519060200190620000b4929190620000bd565b505050620001d2565b828054620000cb906200016d565b90600052602060002090601f016020900481019282620000ef57600085556200013b565b82601f106200010a57805160ff19168380011785556200013b565b828001600101855582156200013b579182015b828111156200013a5782518255916020019190600101906200011d565b5b5090506200014a91906200014e565b5090565b5b80821115620001695760008160009055506001016200014f565b5090565b600060028204905060018216806200018657607f821691505b602082108114156200019d576200019c620001a3565b5b50919050565b7f4e487b7100000000000000000000000000000000000000000000000000000000600052602260045260246000fd5b613f8780620001e26000396000f3fe608060405234801561001057600080fd5b506004361061014d5760003560e01c80636352211e116100c3578063b35a194e1161007c578063b35a194e146103c7578063b88d4fde146103e5578063c87b56dd14610401578063d1760fac14610431578063d43525c314610461578063e985e9c5146104915761014d565b80636352211e146102cd57806370a08231146102fd5780638b8955a71461032d57806395d89b411461035d578063a22cb4651461037b578063adf04f20146103975761014d565b806323b872dd1161011557806323b872dd146102085780633a22e0cb1461022457806342842e0e14610255578063503950731461027157806357a86f7d1461028f5780635c95f4fa146102995761014d565b806301ffc9a71461015257806306fdde0314610182578063081812fc146101a0578063095ea7b3146101d05780631d617969146101ec575b600080fd5b61016c60048036038101906101679190612b86565b6104c1565b6040516101799190613342565b60405180910390f35b61018a6105a3565b6040516101979190613386565b60405180910390f35b6101ba60048036038101906101b59190612cac565b610635565b6040516101c791906132db565b60405180910390f35b6101ea60048036038101906101e59190612b21565b6106ba565b005b61020660048036038101906102019190612cd5565b6107d2565b005b610222600480360381019061021d9190612a1b565b610bad565b005b61023e60048036038101906102399190612c19565b610c0d565b60405161024c92919061335d565b60405180910390f35b61026f600480360381019061026a9190612a1b565b610d33565b005b610279610d53565b604051610286919061364b565b60405180910390f35b610297610d5d565b005b6102b360048036038101906102ae9190612cac565b610de0565b6040516102c49594939291906133a8565b60405180910390f35b6102e760048036038101906102e29190612cac565b610f9d565b6040516102f491906132db565b60405180910390f35b610317600480360381019061031291906129b6565b61104f565b604051610324919061364b565b60405180910390f35b61034760048036038101906103429190612d54565b611107565b604051610354919061364b565b60405180910390f35b6103656112b3565b6040516103729190613386565b60405180910390f35b61039560048036038101906103909190612ae5565b611345565b005b6103b160048036038101906103ac9190612cac565b6114c6565b6040516103be919061364b565b60405180910390f35b6103cf6114e6565b6040516103dc919061364b565b60405180910390f35b6103ff60048036038101906103fa9190612a6a565b61152d565b005b61041b60048036038101906104169190612cac565b61158f565b6040516104289190613386565b60405180910390f35b61044b60048036038101906104469190612bd8565b611636565b6040516104589190613342565b60405180910390f35b61047b60048036038101906104769190612cac565b61166c565b6040516104889190613629565b60405180910390f35b6104ab60048036038101906104a691906129df565b611892565b6040516104b89190613342565b60405180910390f35b60007f80ac58cd000000000000000000000000000000000000000000000000000000007bffffffffffffffffffffffffffffffffffffffffffffffffffffffff1916827bffffffffffffffffffffffffffffffffffffffffffffffffffffffff1916148061058c57507f5b5e139f000000000000000000000000000000000000000000000000000000007bffffffffffffffffffffffffffffffffffffffffffffffffffffffff1916827bffffffffffffffffffffffffffffffffffffffffffffffffffffffff1916145b8061059c575061059b82611926565b5b9050919050565b6060600080546105b2906138d9565b80601f01602080910402602001604051908101604052809291908181526020018280546105de906138d9565b801561062b5780601f106106005761010080835404028352916020019161062b565b820191906000526020600020905b81548152906001019060200180831161060e57829003601f168201915b5050505050905090565b600061064082611990565b61067f576040517f08c379a000000000000000000000000000000000000000000000000000000000815260040161067690613569565b60405180910390fd5b6004600083815260200190815260200160002060009054906101000a900473ffffffffffffffffffffffffffffffffffffffff169050919050565b60006106c582610f9d565b90508073ffffffffffffffffffffffffffffffffffffffff168373ffffffffffffffffffffffffffffffffffffffff161415610736576040517f08c379a000000000000000000000000000000000000000000000000000000000815260040161072d906135c9565b60405180910390fd5b8073ffffffffffffffffffffffffffffffffffffffff166107556119fc565b73ffffffffffffffffffffffffffffffffffffffff16148061078457506107838161077e6119fc565b611892565b5b6107c3576040517f08c379a00000000000000000000000000000000000000000000000000000000081526004016107ba906134c9565b60405180910390fd5b6107cd8383611a04565b505050565b43600754600860003373ffffffffffffffffffffffffffffffffffffffff1673ffffffffffffffffffffffffffffffffffffffff16815260200190815260200160002054610820919061374c565b11610860576040517f08c379a000000000000000000000000000000000000000000000000000000000815260040161085790613529565b60405180910390fd5b60001515600983604051610874919061326f565b908152602001604051809103902060009054906101000a900460ff161515146108d2576040517f08c379a00000000000000000000000000000000000000000000000000000000081526004016108c990613609565b60405180910390fd5b6000600860003373ffffffffffffffffffffffffffffffffffffffff1673ffffffffffffffffffffffffffffffffffffffff168152602001908152602001600020541415610955576040517f08c379a000000000000000000000000000000000000000000000000000000000815260040161094c90613409565b60405180910390fd5b600073ffffffffffffffffffffffffffffffffffffffff163373ffffffffffffffffffffffffffffffffffffffff16141561098f57600080fd5b600060019050600080600285856109e4600860003373ffffffffffffffffffffffffffffffffffffffff1673ffffffffffffffffffffffffffffffffffffffff16815260200190815260200160002054611abd565b6040516020016109f6939291906132aa565b604051602081830303815290604052604051610a129190613258565b602060405180830381855afa158015610a2f573d6000803e3d6000fd5b5050506040513d601f19601f82011682018060405250810190610a529190612b5d565b905060005b86811015610ae057600060f81b828260208110610a9d577f4e487b7100000000000000000000000000000000000000000000000000000000600052603260045260246000fd5b1a60f81b7effffffffffffffffffffffffffffffffffffffffffffffffffffffffffffff191614610acd57600093505b8080610ad89061393c565b915050610a57565b508215610b6c576001600986604051610af9919061326f565b908152602001604051809103902060006101000a81548160ff021916908315150217905550610b69600860003373ffffffffffffffffffffffffffffffffffffffff1673ffffffffffffffffffffffffffffffffffffffff16815260200190815260200160002054868689611107565b91505b7fa3a10b160edc0bd161c49367144eeac96e21921b98aae2036aa3ca397fa4859e8382604051610b9d92919061335d565b60405180910390a1505050505050565b610bbe610bb86119fc565b82611c6a565b610bfd576040517f08c379a0000000000000000000000000000000000000000000000000000000008152600401610bf4906135e9565b60405180910390fd5b610c08838383611d48565b505050565b600080600060028787610c1f88611abd565b604051602001610c31939291906132aa565b604051602081830303815290604052604051610c4d9190613258565b602060405180830381855afa158015610c6a573d6000803e3d6000fd5b5050506040513d601f19601f82011682018060405250810190610c8d9190612b5d565b905060006001905060005b85811015610d2157600060f81b838260208110610cde577f4e487b7100000000000000000000000000000000000000000000000000000000600052603260045260246000fd5b1a60f81b7effffffffffffffffffffffffffffffffffffffffffffffffffffffffffffff191614610d0e57600091505b8080610d199061393c565b915050610c98565b50808293509350505094509492505050565b610d4e8383836040518060200160405280600081525061152d565b505050565b6000600754905090565b600043905080600860003373ffffffffffffffffffffffffffffffffffffffff1673ffffffffffffffffffffffffffffffffffffffff168152602001908152602001600020819055507fb5e8a4470f7bcac7f2c0f3e23471bd7016a9f6f049884cd27dfa8960f361287b81604051610dd5919061364b565b60405180910390a150565b6060600060606000806000600a60008881526020019081526020016000206001018054610e0c906138d9565b80601f0160208091040260200160405190810160405280929190818152602001828054610e38906138d9565b8015610e855780601f10610e5a57610100808354040283529160200191610e85565b820191906000526020600020905b815481529060010190602001808311610e6857829003601f168201915b505050505090506000600a60008981526020019081526020016000206004015490506000600a60008a81526020019081526020016000206005015490506000600a60008b81526020019081526020016000206006015490506000600a60008c81526020019081526020016000206007018054610f00906138d9565b80601f0160208091040260200160405190810160405280929190818152602001828054610f2c906138d9565b8015610f795780601f10610f4e57610100808354040283529160200191610f79565b820191906000526020600020905b815481529060010190602001808311610f5c57829003601f168201915b50505050509050848482858599509950995099509950505050505091939590929450565b6000806002600084815260200190815260200160002060009054906101000a900473ffffffffffffffffffffffffffffffffffffffff169050600073ffffffffffffffffffffffffffffffffffffffff168173ffffffffffffffffffffffffffffffffffffffff161415611046576040517f08c379a000000000000000000000000000000000000000000000000000000000815260040161103d90613509565b60405180910390fd5b80915050919050565b60008073ffffffffffffffffffffffffffffffffffffffff168273ffffffffffffffffffffffffffffffffffffffff1614156110c0576040517f08c379a00000000000000000000000000000000000000000000000000000000081526004016110b7906134e9565b60405180910390fd5b600360008373ffffffffffffffffffffffffffffffffffffffff1673ffffffffffffffffffffffffffffffffffffffff168152602001908152602001600020549050919050565b60006111136006611fa4565b600061111f6006611fc3565b905061112b3382611fd1565b60006040518061010001604052806111436006611fc3565b81526020018781526020013373ffffffffffffffffffffffffffffffffffffffff168152602001600073ffffffffffffffffffffffffffffffffffffffff16815260200185815260200188815260200143815260200186815250905080600a60008481526020019081526020016000206000820151816000015560208201518160010190805190602001906111d9929190612754565b5060408201518160020160006101000a81548173ffffffffffffffffffffffffffffffffffffffff021916908373ffffffffffffffffffffffffffffffffffffffff16021790555060608201518160030160006101000a81548173ffffffffffffffffffffffffffffffffffffffff021916908373ffffffffffffffffffffffffffffffffffffffff1602179055506080820151816004015560a0820151816005015560c0820151816006015560e08201518160070190805190602001906112a2929190612754565b509050508192505050949350505050565b6060600180546112c2906138d9565b80601f01602080910402602001604051908101604052809291908181526020018280546112ee906138d9565b801561133b5780601f106113105761010080835404028352916020019161133b565b820191906000526020600020905b81548152906001019060200180831161131e57829003601f168201915b5050505050905090565b61134d6119fc565b73ffffffffffffffffffffffffffffffffffffffff168273ffffffffffffffffffffffffffffffffffffffff1614156113bb576040517f08c379a00000000000000000000000000000000000000000000000000000000081526004016113b290613489565b60405180910390fd5b80600560006113c86119fc565b73ffffffffffffffffffffffffffffffffffffffff1673ffffffffffffffffffffffffffffffffffffffff16815260200190815260200160002060008473ffffffffffffffffffffffffffffffffffffffff1673ffffffffffffffffffffffffffffffffffffffff16815260200190815260200160002060006101000a81548160ff0219169083151502179055508173ffffffffffffffffffffffffffffffffffffffff166114756119fc565b73ffffffffffffffffffffffffffffffffffffffff167f17307eab39ab6107e8899845ad3d59bd9653f200f220920489ca2b5937696c31836040516114ba9190613342565b60405180910390a35050565b6000600a6000838152602001908152602001600020600401549050919050565b6000600860003373ffffffffffffffffffffffffffffffffffffffff1673ffffffffffffffffffffffffffffffffffffffff16815260200190815260200160002054905090565b61153e6115386119fc565b83611c6a565b61157d576040517f08c379a0000000000000000000000000000000000000000000000000000000008152600401611574906135e9565b60405180910390fd5b6115898484848461219f565b50505050565b606061159a82611990565b6115d9576040517f08c379a00000000000000000000000000000000000000000000000000000000081526004016115d0906135a9565b60405180910390fd5b60006115e36121fb565b90506000815111611603576040518060200160405280600081525061162e565b8061160d84611abd565b60405160200161161e929190613286565b6040516020818303038152906040525b915050919050565b6009818051602081018201805184825260208301602085012081835280955050505050506000915054906101000a900460ff1681565b6116746127da565b600a600083815260200190815260200160002060405180610100016040529081600082015481526020016001820180546116ad906138d9565b80601f01602080910402602001604051908101604052809291908181526020018280546116d9906138d9565b80156117265780601f106116fb57610100808354040283529160200191611726565b820191906000526020600020905b81548152906001019060200180831161170957829003601f168201915b505050505081526020016002820160009054906101000a900473ffffffffffffffffffffffffffffffffffffffff1673ffffffffffffffffffffffffffffffffffffffff1673ffffffffffffffffffffffffffffffffffffffff1681526020016003820160009054906101000a900473ffffffffffffffffffffffffffffffffffffffff1673ffffffffffffffffffffffffffffffffffffffff1673ffffffffffffffffffffffffffffffffffffffff168152602001600482015481526020016005820154815260200160068201548152602001600782018054611809906138d9565b80601f0160208091040260200160405190810160405280929190818152602001828054611835906138d9565b80156118825780601f1061185757610100808354040283529160200191611882565b820191906000526020600020905b81548152906001019060200180831161186557829003601f168201915b5050505050815250509050919050565b6000600560008473ffffffffffffffffffffffffffffffffffffffff1673ffffffffffffffffffffffffffffffffffffffff16815260200190815260200160002060008373ffffffffffffffffffffffffffffffffffffffff1673ffffffffffffffffffffffffffffffffffffffff16815260200190815260200160002060009054906101000a900460ff16905092915050565b60007f01ffc9a7000000000000000000000000000000000000000000000000000000007bffffffffffffffffffffffffffffffffffffffffffffffffffffffff1916827bffffffffffffffffffffffffffffffffffffffffffffffffffffffff1916149050919050565b60008073ffffffffffffffffffffffffffffffffffffffff166002600084815260200190815260200160002060009054906101000a900473ffffffffffffffffffffffffffffffffffffffff1673ffffffffffffffffffffffffffffffffffffffff1614159050919050565b600033905090565b816004600083815260200190815260200160002060006101000a81548173ffffffffffffffffffffffffffffffffffffffff021916908373ffffffffffffffffffffffffffffffffffffffff160217905550808273ffffffffffffffffffffffffffffffffffffffff16611a7783610f9d565b73ffffffffffffffffffffffffffffffffffffffff167f8c5be1e5ebec7d5bd14f71427d1e84f3dd0314c0f7b2291e5b200ac8c7c3b92560405160405180910390a45050565b60606000821415611b05576040518060400160405280600181526020017f30000000000000000000000000000000000000000000000000000000000000008152509050611c65565b600082905060005b60008214611b37578080611b209061393c565b915050600a82611b3091906137a2565b9150611b0d565b60008167ffffffffffffffff811115611b79577f4e487b7100000000000000000000000000000000000000000000000000000000600052604160045260246000fd5b6040519080825280601f01601f191660200182016040528015611bab5781602001600182028036833780820191505090505b5090505b60008514611c5e57600182611bc491906137d3565b9150600a85611bd39190613985565b6030611bdf919061374c565b60f81b818381518110611c1b577f4e487b7100000000000000000000000000000000000000000000000000000000600052603260045260246000fd5b60200101907effffffffffffffffffffffffffffffffffffffffffffffffffffffffffffff1916908160001a905350600a85611c5791906137a2565b9450611baf565b8093505050505b919050565b6000611c7582611990565b611cb4576040517f08c379a0000000000000000000000000000000000000000000000000000000008152600401611cab906134a9565b60405180910390fd5b6000611cbf83610f9d565b90508073ffffffffffffffffffffffffffffffffffffffff168473ffffffffffffffffffffffffffffffffffffffff161480611d2e57508373ffffffffffffffffffffffffffffffffffffffff16611d1684610635565b73ffffffffffffffffffffffffffffffffffffffff16145b80611d3f5750611d3e8185611892565b5b91505092915050565b8273ffffffffffffffffffffffffffffffffffffffff16611d6882610f9d565b73ffffffffffffffffffffffffffffffffffffffff1614611dbe576040517f08c379a0000000000000000000000000000000000000000000000000000000008152600401611db590613589565b60405180910390fd5b600073ffffffffffffffffffffffffffffffffffffffff168273ffffffffffffffffffffffffffffffffffffffff161415611e2e576040517f08c379a0000000000000000000000000000000000000000000000000000000008152600401611e2590613469565b60405180910390fd5b611e39838383612212565b611e44600082611a04565b6001600360008573ffffffffffffffffffffffffffffffffffffffff1673ffffffffffffffffffffffffffffffffffffffff1681526020019081526020016000206000828254611e9491906137d3565b925050819055506001600360008473ffffffffffffffffffffffffffffffffffffffff1673ffffffffffffffffffffffffffffffffffffffff1681526020019081526020016000206000828254611eeb919061374c565b92505081905550816002600083815260200190815260200160002060006101000a81548173ffffffffffffffffffffffffffffffffffffffff021916908373ffffffffffffffffffffffffffffffffffffffff160217905550808273ffffffffffffffffffffffffffffffffffffffff168473ffffffffffffffffffffffffffffffffffffffff167fddf252ad1be2c89b69c2b068fc378daa952ba7f163c4a11628f55a4df523b3ef60405160405180910390a4505050565b6001816000016000828254611fb9919061374c565b9250508190555050565b600081600001549050919050565b600073ffffffffffffffffffffffffffffffffffffffff168273ffffffffffffffffffffffffffffffffffffffff161415612041576040517f08c379a000000000000000000000000000000000000000000000000000000000815260040161203890613549565b60405180910390fd5b61204a81611990565b1561208a576040517f08c379a000000000000000000000000000000000000000000000000000000000815260040161208190613449565b60405180910390fd5b61209660008383612212565b6001600360008473ffffffffffffffffffffffffffffffffffffffff1673ffffffffffffffffffffffffffffffffffffffff16815260200190815260200160002060008282546120e6919061374c565b92505081905550816002600083815260200190815260200160002060006101000a81548173ffffffffffffffffffffffffffffffffffffffff021916908373ffffffffffffffffffffffffffffffffffffffff160217905550808273ffffffffffffffffffffffffffffffffffffffff16600073ffffffffffffffffffffffffffffffffffffffff167fddf252ad1be2c89b69c2b068fc378daa952ba7f163c4a11628f55a4df523b3ef60405160405180910390a45050565b6121aa848484611d48565b6121b6848484846125aa565b6121f5576040517f08c379a00000000000000000000000000000000000000000000000000000000081526004016121ec90613429565b60405180910390fd5b50505050565b606060405180602001604052806000815250905090565b6000600a6000838152602001908152602001600020604051806101000160405290816000820154815260200160018201805461224d906138d9565b80601f0160208091040260200160405190810160405280929190818152602001828054612279906138d9565b80156122c65780601f1061229b576101008083540402835291602001916122c6565b820191906000526020600020905b8154815290600101906020018083116122a957829003601f168201915b505050505081526020016002820160009054906101000a900473ffffffffffffffffffffffffffffffffffffffff1673ffffffffffffffffffffffffffffffffffffffff1673ffffffffffffffffffffffffffffffffffffffff1681526020016003820160009054906101000a900473ffffffffffffffffffffffffffffffffffffffff1673ffffffffffffffffffffffffffffffffffffffff1673ffffffffffffffffffffffffffffffffffffffff1681526020016004820154815260200160058201548152602001600682015481526020016007820180546123a9906138d9565b80601f01602080910402602001604051908101604052809291908181526020018280546123d5906138d9565b80156124225780601f106123f757610100808354040283529160200191612422565b820191906000526020600020905b81548152906001019060200180831161240557829003601f168201915b505050505081525050905083816060019073ffffffffffffffffffffffffffffffffffffffff16908173ffffffffffffffffffffffffffffffffffffffff168152505082816040019073ffffffffffffffffffffffffffffffffffffffff16908173ffffffffffffffffffffffffffffffffffffffff168152505080600a60008481526020019081526020016000206000820151816000015560208201518160010190805190602001906124d7929190612754565b5060408201518160020160006101000a81548173ffffffffffffffffffffffffffffffffffffffff021916908373ffffffffffffffffffffffffffffffffffffffff16021790555060608201518160030160006101000a81548173ffffffffffffffffffffffffffffffffffffffff021916908373ffffffffffffffffffffffffffffffffffffffff1602179055506080820151816004015560a0820151816005015560c0820151816006015560e08201518160070190805190602001906125a0929190612754565b5090505050505050565b60006125cb8473ffffffffffffffffffffffffffffffffffffffff16612741565b15612734578373ffffffffffffffffffffffffffffffffffffffff1663150b7a026125f46119fc565b8786866040518563ffffffff1660e01b815260040161261694939291906132f6565b602060405180830381600087803b15801561263057600080fd5b505af192505050801561266157506040513d601f19601f8201168201806040525081019061265e9190612baf565b60015b6126e4573d8060008114612691576040519150601f19603f3d011682016040523d82523d6000602084013e612696565b606091505b506000815114156126dc576040517f08c379a00000000000000000000000000000000000000000000000000000000081526004016126d390613429565b60405180910390fd5b805181602001fd5b63150b7a0260e01b7bffffffffffffffffffffffffffffffffffffffffffffffffffffffff1916817bffffffffffffffffffffffffffffffffffffffffffffffffffffffff191614915050612739565b600190505b949350505050565b600080823b905060008111915050919050565b828054612760906138d9565b90600052602060002090601f01602090048101928261278257600085556127c9565b82601f1061279b57805160ff19168380011785556127c9565b828001600101855582156127c9579182015b828111156127c85782518255916020019190600101906127ad565b5b5090506127d6919061284b565b5090565b6040518061010001604052806000815260200160608152602001600073ffffffffffffffffffffffffffffffffffffffff168152602001600073ffffffffffffffffffffffffffffffffffffffff168152602001600081526020016000815260200160008152602001606081525090565b5b8082111561286457600081600090555060010161284c565b5090565b600061287b6128768461368b565b613666565b90508281526020810184848401111561289357600080fd5b61289e848285613897565b509392505050565b60006128b96128b4846136bc565b613666565b9050828152602081018484840111156128d157600080fd5b6128dc848285613897565b509392505050565b6000813590506128f381613ede565b92915050565b60008135905061290881613ef5565b92915050565b60008151905061291d81613f0c565b92915050565b60008135905061293281613f23565b92915050565b60008151905061294781613f23565b92915050565b600082601f83011261295e57600080fd5b813561296e848260208601612868565b91505092915050565b600082601f83011261298857600080fd5b81356129988482602086016128a6565b91505092915050565b6000813590506129b081613f3a565b92915050565b6000602082840312156129c857600080fd5b60006129d6848285016128e4565b91505092915050565b600080604083850312156129f257600080fd5b6000612a00858286016128e4565b9250506020612a11858286016128e4565b9150509250929050565b600080600060608486031215612a3057600080fd5b6000612a3e868287016128e4565b9350506020612a4f868287016128e4565b9250506040612a60868287016129a1565b9150509250925092565b60008060008060808587031215612a8057600080fd5b6000612a8e878288016128e4565b9450506020612a9f878288016128e4565b9350506040612ab0878288016129a1565b925050606085013567ffffffffffffffff811115612acd57600080fd5b612ad98782880161294d565b91505092959194509250565b60008060408385031215612af857600080fd5b6000612b06858286016128e4565b9250506020612b17858286016128f9565b9150509250929050565b60008060408385031215612b3457600080fd5b6000612b42858286016128e4565b9250506020612b53858286016129a1565b9150509250929050565b600060208284031215612b6f57600080fd5b6000612b7d8482850161290e565b91505092915050565b600060208284031215612b9857600080fd5b6000612ba684828501612923565b91505092915050565b600060208284031215612bc157600080fd5b6000612bcf84828501612938565b91505092915050565b600060208284031215612bea57600080fd5b600082013567ffffffffffffffff811115612c0457600080fd5b612c1084828501612977565b91505092915050565b60008060008060808587031215612c2f57600080fd5b600085013567ffffffffffffffff811115612c4957600080fd5b612c5587828801612977565b945050602085013567ffffffffffffffff811115612c7257600080fd5b612c7e87828801612977565b9350506040612c8f878288016129a1565b9250506060612ca0878288016129a1565b91505092959194509250565b600060208284031215612cbe57600080fd5b6000612ccc848285016129a1565b91505092915050565b600080600060608486031215612cea57600080fd5b6000612cf8868287016129a1565b935050602084013567ffffffffffffffff811115612d1557600080fd5b612d2186828701612977565b925050604084013567ffffffffffffffff811115612d3e57600080fd5b612d4a86828701612977565b9150509250925092565b60008060008060808587031215612d6a57600080fd5b6000612d78878288016129a1565b945050602085013567ffffffffffffffff811115612d9557600080fd5b612da187828801612977565b935050604085013567ffffffffffffffff811115612dbe57600080fd5b612dca87828801612977565b9250506060612ddb878288016129a1565b91505092959194509250565b612df081613819565b82525050565b612dff81613807565b82525050565b612e0e8161382b565b82525050565b612e1d81613837565b82525050565b6000612e2e826136ed565b612e388185613703565b9350612e488185602086016138a6565b612e5181613a72565b840191505092915050565b6000612e67826136ed565b612e718185613714565b9350612e818185602086016138a6565b80840191505092915050565b6000612e98826136f8565b612ea2818561371f565b9350612eb28185602086016138a6565b612ebb81613a72565b840191505092915050565b6000612ed1826136f8565b612edb8185613730565b9350612eeb8185602086016138a6565b612ef481613a72565b840191505092915050565b6000612f0a826136f8565b612f148185613741565b9350612f248185602086016138a6565b80840191505092915050565b6000612f3d601583613730565b9150612f4882613a83565b602082019050919050565b6000612f60603283613730565b9150612f6b82613aac565b604082019050919050565b6000612f83601c83613730565b9150612f8e82613afb565b602082019050919050565b6000612fa6602483613730565b9150612fb182613b24565b604082019050919050565b6000612fc9601983613730565b9150612fd482613b73565b602082019050919050565b6000612fec602c83613730565b9150612ff782613b9c565b604082019050919050565b600061300f603883613730565b915061301a82613beb565b604082019050919050565b6000613032602a83613730565b915061303d82613c3a565b604082019050919050565b6000613055602983613730565b915061306082613c89565b604082019050919050565b6000613078601383613730565b915061308382613cd8565b602082019050919050565b600061309b602083613730565b91506130a682613d01565b602082019050919050565b60006130be602c83613730565b91506130c982613d2a565b604082019050919050565b60006130e1602983613730565b91506130ec82613d79565b604082019050919050565b6000613104602f83613730565b915061310f82613dc8565b604082019050919050565b6000613127602183613730565b915061313282613e17565b604082019050919050565b600061314a603183613730565b915061315582613e66565b604082019050919050565b600061316d600c83613730565b915061317882613eb5565b602082019050919050565b60006101008301600083015161319c600086018261323a565b50602083015184820360208601526131b48282612e8d565b91505060408301516131c96040860182612de7565b5060608301516131dc6060860182612de7565b5060808301516131ef608086018261323a565b5060a083015161320260a086018261323a565b5060c083015161321560c086018261323a565b5060e083015184820360e086015261322d8282612e8d565b9150508091505092915050565b6132438161388d565b82525050565b6132528161388d565b82525050565b60006132648284612e5c565b915081905092915050565b600061327b8284612eff565b915081905092915050565b60006132928285612eff565b915061329e8284612eff565b91508190509392505050565b60006132b68286612eff565b91506132c28285612eff565b91506132ce8284612eff565b9150819050949350505050565b60006020820190506132f06000830184612df6565b92915050565b600060808201905061330b6000830187612df6565b6133186020830186612df6565b6133256040830185613249565b81810360608301526133378184612e23565b905095945050505050565b60006020820190506133576000830184612e05565b92915050565b60006040820190506133726000830185612e05565b61337f6020830184612e14565b9392505050565b600060208201905081810360008301526133a08184612ec6565b905092915050565b600060a08201905081810360008301526133c28188612ec6565b90506133d16020830187613249565b81810360408301526133e38186612ec6565b90506133f26060830185613249565b6133ff6080830184613249565b9695505050505050565b6000602082019050818103600083015261342281612f30565b9050919050565b6000602082019050818103600083015261344281612f53565b9050919050565b6000602082019050818103600083015261346281612f76565b9050919050565b6000602082019050818103600083015261348281612f99565b9050919050565b600060208201905081810360008301526134a281612fbc565b9050919050565b600060208201905081810360008301526134c281612fdf565b9050919050565b600060208201905081810360008301526134e281613002565b9050919050565b6000602082019050818103600083015261350281613025565b9050919050565b6000602082019050818103600083015261352281613048565b9050919050565b600060208201905081810360008301526135428161306b565b9050919050565b600060208201905081810360008301526135628161308e565b9050919050565b60006020820190508181036000830152613582816130b1565b9050919050565b600060208201905081810360008301526135a2816130d4565b9050919050565b600060208201905081810360008301526135c2816130f7565b9050919050565b600060208201905081810360008301526135e28161311a565b9050919050565b600060208201905081810360008301526136028161313d565b9050919050565b6000602082019050818103600083015261362281613160565b9050919050565b600060208201905081810360008301526136438184613183565b905092915050565b60006020820190506136606000830184613249565b92915050565b6000613670613681565b905061367c828261390b565b919050565b6000604051905090565b600067ffffffffffffffff8211156136a6576136a5613a43565b5b6136af82613a72565b9050602081019050919050565b600067ffffffffffffffff8211156136d7576136d6613a43565b5b6136e082613a72565b9050602081019050919050565b600081519050919050565b600081519050919050565b600082825260208201905092915050565b600081905092915050565b600082825260208201905092915050565b600082825260208201905092915050565b600081905092915050565b60006137578261388d565b91506137628361388d565b9250827fffffffffffffffffffffffffffffffffffffffffffffffffffffffffffffffff03821115613797576137966139b6565b5b828201905092915050565b60006137ad8261388d565b91506137b88361388d565b9250826137c8576137c76139e5565b5b828204905092915050565b60006137de8261388d565b91506137e98361388d565b9250828210156137fc576137fb6139b6565b5b828203905092915050565b60006138128261386d565b9050919050565b60006138248261386d565b9050919050565b60008115159050919050565b6000819050919050565b60007fffffffff0000000000000000000000000000000000000000000000000000000082169050919050565b600073ffffffffffffffffffffffffffffffffffffffff82169050919050565b6000819050919050565b82818337600083830152505050565b60005b838110156138c45780820151818401526020810190506138a9565b838111156138d3576000848401525b50505050565b600060028204905060018216806138f157607f821691505b6020821081141561390557613904613a14565b5b50919050565b61391482613a72565b810181811067ffffffffffffffff8211171561393357613932613a43565b5b80604052505050565b60006139478261388d565b91507fffffffffffffffffffffffffffffffffffffffffffffffffffffffffffffffff82141561397a576139796139b6565b5b600182019050919050565b60006139908261388d565b915061399b8361388d565b9250826139ab576139aa6139e5565b5b828206905092915050565b7f4e487b7100000000000000000000000000000000000000000000000000000000600052601160045260246000fd5b7f4e487b7100000000000000000000000000000000000000000000000000000000600052601260045260246000fd5b7f4e487b7100000000000000000000000000000000000000000000000000000000600052602260045260246000fd5b7f4e487b7100000000000000000000000000000000000000000000000000000000600052604160045260246000fd5b6000601f19601f8301169050919050565b7f546f6c6572616e63652063616e6e6f7420626520300000000000000000000000600082015250565b7f4552433732313a207472616e7366657220746f206e6f6e20455243373231526560008201527f63656976657220696d706c656d656e7465720000000000000000000000000000602082015250565b7f4552433732313a20746f6b656e20616c7265616479206d696e74656400000000600082015250565b7f4552433732313a207472616e7366657220746f20746865207a65726f2061646460008201527f7265737300000000000000000000000000000000000000000000000000000000602082015250565b7f4552433732313a20617070726f766520746f2063616c6c657200000000000000600082015250565b7f4552433732313a206f70657261746f7220717565727920666f72206e6f6e657860008201527f697374656e7420746f6b656e0000000000000000000000000000000000000000602082015250565b7f4552433732313a20617070726f76652063616c6c6572206973206e6f74206f7760008201527f6e6572206e6f7220617070726f76656420666f7220616c6c0000000000000000602082015250565b7f4552433732313a2062616c616e636520717565727920666f7220746865207a6560008201527f726f206164647265737300000000000000000000000000000000000000000000602082015250565b7f4552433732313a206f776e657220717565727920666f72206e6f6e657869737460008201527f656e7420746f6b656e0000000000000000000000000000000000000000000000602082015250565b7f746f6c6572616e63652069732065787069726500000000000000000000000000600082015250565b7f4552433732313a206d696e7420746f20746865207a65726f2061646472657373600082015250565b7f4552433732313a20617070726f76656420717565727920666f72206e6f6e657860008201527f697374656e7420746f6b656e0000000000000000000000000000000000000000602082015250565b7f4552433732313a207472616e73666572206f6620746f6b656e2074686174206960008201527f73206e6f74206f776e0000000000000000000000000000000000000000000000602082015250565b7f4552433732314d657461646174613a2055524920717565727920666f72206e6f60008201527f6e6578697374656e7420746f6b656e0000000000000000000000000000000000602082015250565b7f4552433732313a20617070726f76616c20746f2063757272656e74206f776e6560008201527f7200000000000000000000000000000000000000000000000000000000000000602082015250565b7f4552433732313a207472616e736665722063616c6c6572206973206e6f74206f60008201527f776e6572206e6f7220617070726f766564000000000000000000000000000000602082015250565b7f6e616d6520697320627573790000000000000000000000000000000000000000600082015250565b613ee781613807565b8114613ef257600080fd5b50565b613efe8161382b565b8114613f0957600080fd5b50565b613f1581613837565b8114613f2057600080fd5b50565b613f2c81613841565b8114613f3757600080fd5b50565b613f438161388d565b8114613f4e57600080fd5b5056fea264697066735822122062a09ccfea0b2fc943f0c0b5a9096292c5d442d46d120ac6a1af99c5c8fd7c9c64736f6c63430008030033",
  "immutableReferences": {},
  "source": "// SPDX-License-Identifier: MIT\n\npragma solidity ^0.8.0;\n\nimport \"@openzeppelin/contracts/token/ERC721/ERC721.sol\";\nimport \"@openzeppelin/contracts/utils/Counters.sol\";\nimport \"@openzeppelin/contracts/utils/Context.sol\";\n\n\n\n\ncontract NoHashima is ERC721{\n\n    constructor() ERC721(\"NotHashima\", \"NOTHASHIMA\") {}\n\n\n  using Counters for Counters.Counter;\n  using Strings for uint256;\n\n  Counters.Counter private _tokenIds;\n  uint256 BLOCK_TOLERANCE=200;\n\n  mapping(address=>uint256) private tolerance;\n  //check the string use by the user is not repeat\n  mapping(string=>bool)public _names;\n\n\n  event GameStart(uint256 _blocknumber);\n\n  event Minted(bool respuesta,bytes32 hashResultado);\n\n\n  struct Hashi {\n      uint256 tokenId;\n      string tokenURI;\n      address payable currentOwner;\n      address payable previousOwner;\n      uint256 stars;\n      uint256 blockTolerance;\n      uint256 blockEnd;\n      string nonce;\n  }\n  \n  mapping(uint256=>Hashi) _hashis ;\n\n\n  function getHashima(uint256 _index)public view returns(Hashi memory){\n        return _hashis[_index];\n  }\n\n  function getStars(uint256 _index)public view returns(uint256){\n    return _hashis[_index].stars;\n  }\n\n  function getProofOfWorkData(uint256 _index)public view \n  returns(string memory,uint256,string memory,uint256,uint256){\n        string memory _data=_hashis[_index].tokenURI;\n        uint256 _stars=_hashis[_index].stars;\n        uint256 _tolerance=_hashis[_index].blockTolerance;\n        uint256 _endBlock=_hashis[_index].blockEnd;\n        string memory _nonce=_hashis[_index].nonce;\n        return (_data,_stars,_nonce,_tolerance,_endBlock);\n  }\n\n  function _beforeTokenTransfer(address from,address to,uint256 tokenId)internal override{\n          Hashi memory _hashima = _hashis[tokenId];\n          // update the token's previous owner\n          _hashima.previousOwner = payable(from);\n          // update the token's current owner\n          _hashima.currentOwner =payable(to);\n          _hashis[tokenId] = _hashima;\n\n  }\n  \n\n\n\n  function Init()public{\n        uint256 _block=block.number;\n        tolerance[msg.sender]=_block;\n        emit GameStart(_block);\n        // return _block;\n  }\n\n\n  function Mint(\n    uint256 _stars,\n    string memory _data,\n    string memory _nonce) external  \n    // returns(bool,bytes32,uint256) \n    {\n      require(tolerance[msg.sender]+BLOCK_TOLERANCE>block.number,\"tolerance is expire\");\n      require(_names[_data]==false,\"name is busy\");\n      require(tolerance[msg.sender]!=0,\"Tolerance cannot be 0\");\n      require(msg.sender != address(0));\n\n      bool respuesta=true;\n      uint256 _id=0;\n\n      bytes32 _hashFinal=sha256(abi.encodePacked(_data,_nonce,Strings.toString(tolerance[msg.sender])));\n      for (uint256 index = 0; index < _stars; index++) {\n      if (_hashFinal[index]!=0x00) {\n              respuesta=false;  \n          }\n      \n      }\n      if (respuesta) {\n          //convierto la string utilizada a true para que no pueda ser utilizada.    \n          _names[_data]=true; \n          \n          _id=createHashimaItem(\n              tolerance[msg.sender],\n              _data,\n              _nonce,\n              _stars);\n\n\n      \n      }\n      \n      emit Minted(respuesta,_hashFinal);\n      // return(respuesta,_hashFinal,_id);\n\n\n  }\n\n\n  function createHashimaItem(\n    uint256  toleranceBlock,\n    string memory _data,\n    string memory _nonce,\n    uint256 _stars) public virtual returns (uint256){\n\n    _tokenIds.increment();\n\n    uint256 newItemId = _tokenIds.current();\n    _mint(msg.sender, newItemId);\n\n\n    Hashi memory newHashima= Hashi(\n    _tokenIds.current(),//token id of hashima\n    _data,//string pick by the miner\n    payable(msg.sender),\n    payable(address(0)),\n    _stars,\n    toleranceBlock,\n    block.number,\n    _nonce\n    );\n\n\n    _hashis[newItemId] = newHashima;\n\n    return newItemId;\n\n  }\n\n  function checkGame()public view returns(uint256){\n        return tolerance[msg.sender];\n  }\n  \n  function getBlockTolerance()public view returns(uint256){\n        return BLOCK_TOLERANCE;\n\n    }\n\n\n\n\n  function checkingHash(\n    string memory _data,\n    string memory _nonce,\n    uint256 _tolerance,\n    uint256 _stars)public pure returns(bool,bytes32){\n      bytes32 _hashFinal=sha256(abi.encodePacked(_data,_nonce,Strings.toString(_tolerance)));\n      bool respuesta=true;\n\n      for (uint256 index = 0; index < _stars; index++) {\n      if (_hashFinal[index]!=0x00) {\n              respuesta=false;  \n          }\n      \n      }\n      return (respuesta,_hashFinal);\n\n  }\n\n}",
  "sourcePath": "/Users/aarontolentino/Desktop/Contratos_1/hashima/contracts/NoHashima.sol",
  "compiler": {
    "name": "solc",
    "version": "0.8.3+commit.8d00100c.Emscripten.clang"
  },
  "schemaVersion": "3.4.1",
  "updatedAt": "2022-05-13T05:34:37.083Z",
  "networkType": "ethereum",
  "devdoc": {
    "kind": "dev",
    "methods": {
      "approve(address,uint256)": {
        "details": "See {IERC721-approve}."
      },
      "balanceOf(address)": {
        "details": "See {IERC721-balanceOf}."
      },
      "getApproved(uint256)": {
        "details": "See {IERC721-getApproved}."
      },
      "isApprovedForAll(address,address)": {
        "details": "See {IERC721-isApprovedForAll}."
      },
      "name()": {
        "details": "See {IERC721Metadata-name}."
      },
      "ownerOf(uint256)": {
        "details": "See {IERC721-ownerOf}."
      },
      "safeTransferFrom(address,address,uint256)": {
        "details": "See {IERC721-safeTransferFrom}."
      },
      "safeTransferFrom(address,address,uint256,bytes)": {
        "details": "See {IERC721-safeTransferFrom}."
      },
      "setApprovalForAll(address,bool)": {
        "details": "See {IERC721-setApprovalForAll}."
      },
      "supportsInterface(bytes4)": {
        "details": "See {IERC165-supportsInterface}."
      },
      "symbol()": {
        "details": "See {IERC721Metadata-symbol}."
      },
      "tokenURI(uint256)": {
        "details": "See {IERC721Metadata-tokenURI}."
      },
      "transferFrom(address,address,uint256)": {
        "details": "See {IERC721-transferFrom}."
      }
    },
    "version": 1
  },
  "userdoc": {
    "kind": "user",
    "methods": {},
    "version": 1
  }
}