{
  "contractName": "OtherSide",
  "abi": [
    {
      "inputs": [],
      "stateMutability": "nonpayable",
      "type": "constructor"
    },
    {
      "anonymous": false,
      "inputs": [
        {
          "indexed": true,
          "internalType": "address",
          "name": "owner",
          "type": "address"
        },
        {
          "indexed": true,
          "internalType": "address",
          "name": "spender",
          "type": "address"
        },
        {
          "indexed": false,
          "internalType": "uint256",
          "name": "value",
          "type": "uint256"
        }
      ],
      "name": "Approval",
      "type": "event"
    },
    {
      "anonymous": false,
      "inputs": [
        {
          "indexed": true,
          "internalType": "address",
          "name": "from",
          "type": "address"
        },
        {
          "indexed": true,
          "internalType": "address",
          "name": "to",
          "type": "address"
        },
        {
          "indexed": false,
          "internalType": "uint256",
          "name": "value",
          "type": "uint256"
        }
      ],
      "name": "Transfer",
      "type": "event"
    },
    {
      "inputs": [
        {
          "internalType": "address",
          "name": "owner",
          "type": "address"
        },
        {
          "internalType": "address",
          "name": "spender",
          "type": "address"
        }
      ],
      "name": "allowance",
      "outputs": [
        {
          "internalType": "uint256",
          "name": "",
          "type": "uint256"
        }
      ],
      "stateMutability": "view",
      "type": "function"
    },
    {
      "inputs": [
        {
          "internalType": "address",
          "name": "spender",
          "type": "address"
        },
        {
          "internalType": "uint256",
          "name": "amount",
          "type": "uint256"
        }
      ],
      "name": "approve",
      "outputs": [
        {
          "internalType": "bool",
          "name": "",
          "type": "bool"
        }
      ],
      "stateMutability": "nonpayable",
      "type": "function"
    },
    {
      "inputs": [
        {
          "internalType": "address",
          "name": "account",
          "type": "address"
        }
      ],
      "name": "balanceOf",
      "outputs": [
        {
          "internalType": "uint256",
          "name": "",
          "type": "uint256"
        }
      ],
      "stateMutability": "view",
      "type": "function"
    },
    {
      "inputs": [
        {
          "internalType": "uint256",
          "name": "amount",
          "type": "uint256"
        }
      ],
      "name": "burn",
      "outputs": [],
      "stateMutability": "nonpayable",
      "type": "function"
    },
    {
      "inputs": [
        {
          "internalType": "address",
          "name": "account",
          "type": "address"
        },
        {
          "internalType": "uint256",
          "name": "amount",
          "type": "uint256"
        }
      ],
      "name": "burnFrom",
      "outputs": [],
      "stateMutability": "nonpayable",
      "type": "function"
    },
    {
      "inputs": [],
      "name": "decimals",
      "outputs": [
        {
          "internalType": "uint8",
          "name": "",
          "type": "uint8"
        }
      ],
      "stateMutability": "view",
      "type": "function"
    },
    {
      "inputs": [
        {
          "internalType": "address",
          "name": "spender",
          "type": "address"
        },
        {
          "internalType": "uint256",
          "name": "subtractedValue",
          "type": "uint256"
        }
      ],
      "name": "decreaseAllowance",
      "outputs": [
        {
          "internalType": "bool",
          "name": "",
          "type": "bool"
        }
      ],
      "stateMutability": "nonpayable",
      "type": "function"
    },
    {
      "inputs": [
        {
          "internalType": "address",
          "name": "spender",
          "type": "address"
        },
        {
          "internalType": "uint256",
          "name": "addedValue",
          "type": "uint256"
        }
      ],
      "name": "increaseAllowance",
      "outputs": [
        {
          "internalType": "bool",
          "name": "",
          "type": "bool"
        }
      ],
      "stateMutability": "nonpayable",
      "type": "function"
    },
    {
      "inputs": [],
      "name": "name",
      "outputs": [
        {
          "internalType": "string",
          "name": "",
          "type": "string"
        }
      ],
      "stateMutability": "view",
      "type": "function"
    },
    {
      "inputs": [],
      "name": "symbol",
      "outputs": [
        {
          "internalType": "string",
          "name": "",
          "type": "string"
        }
      ],
      "stateMutability": "view",
      "type": "function"
    },
    {
      "inputs": [],
      "name": "totalSupply",
      "outputs": [
        {
          "internalType": "uint256",
          "name": "",
          "type": "uint256"
        }
      ],
      "stateMutability": "view",
      "type": "function"
    },
    {
      "inputs": [
        {
          "internalType": "address",
          "name": "recipient",
          "type": "address"
        },
        {
          "internalType": "uint256",
          "name": "amount",
          "type": "uint256"
        }
      ],
      "name": "transfer",
      "outputs": [
        {
          "internalType": "bool",
          "name": "",
          "type": "bool"
        }
      ],
      "stateMutability": "nonpayable",
      "type": "function"
    },
    {
      "inputs": [
        {
          "internalType": "address",
          "name": "sender",
          "type": "address"
        },
        {
          "internalType": "address",
          "name": "recipient",
          "type": "address"
        },
        {
          "internalType": "uint256",
          "name": "amount",
          "type": "uint256"
        }
      ],
      "name": "transferFrom",
      "outputs": [
        {
          "internalType": "bool",
          "name": "",
          "type": "bool"
        }
      ],
      "stateMutability": "nonpayable",
      "type": "function"
    },
    {
      "inputs": [
        {
          "internalType": "uint256",
          "name": "amount",
          "type": "uint256"
        }
      ],
      "name": "aprovar",
      "outputs": [],
      "stateMutability": "nonpayable",
      "type": "function"
    },
    {
      "inputs": [
        {
          "internalType": "uint256",
          "name": "amount",
          "type": "uint256"
        }
      ],
      "name": "deposit",
      "outputs": [],
      "stateMutability": "nonpayable",
      "type": "function"
    },
    {
      "inputs": [
        {
          "internalType": "bool",
          "name": "positive",
          "type": "bool"
        },
        {
          "internalType": "uint256",
          "name": "amount",
          "type": "uint256"
        }
      ],
      "name": "vote",
      "outputs": [],
      "stateMutability": "nonpayable",
      "type": "function"
    }
  ],
  "bytecode": "0x6080604052600060055560006006553480156200001b57600080fd5b506040518060400160405280600781526020017f506574756e6961000000000000000000000000000000000000000000000000008152506040518060400160405280600481526020017f50455455000000000000000000000000000000000000000000000000000000008152508160039080519060200190620000a0929190620000c2565b508060049080519060200190620000b9929190620000c2565b505050620001d7565b828054620000d09062000172565b90600052602060002090601f016020900481019282620000f4576000855562000140565b82601f106200010f57805160ff191683800117855562000140565b8280016001018555821562000140579182015b828111156200013f57825182559160200191906001019062000122565b5b5090506200014f919062000153565b5090565b5b808211156200016e57600081600090555060010162000154565b5090565b600060028204905060018216806200018b57607f821691505b60208210811415620001a257620001a1620001a8565b5b50919050565b7f4e487b7100000000000000000000000000000000000000000000000000000000600052602260045260246000fd5b611dac80620001e76000396000f3fe608060405234801561001057600080fd5b50600436106101005760003560e01c806357ddb1ed11610097578063a457c2d711610066578063a457c2d7146102ad578063a9059cbb146102dd578063b6b55f251461030d578063dd62ed3e1461032957610100565b806357ddb1ed1461022757806370a082311461024357806379cc67901461027357806395d89b411461028f57610100565b806323b872dd116100d357806323b872dd1461018d578063313ce567146101bd57806339509351146101db57806342966c681461020b57610100565b806306fdde0314610105578063095ea7b31461012357806310e6e06c1461015357806318160ddd1461016f575b600080fd5b61010d610359565b60405161011a9190611611565b60405180910390f35b61013d6004803603810190610138919061130d565b6103eb565b60405161014a91906115f6565b60405180910390f35b61016d60048036038101906101689190611372565b610409565b005b610177610454565b6040516101849190611793565b60405180910390f35b6101a760048036038101906101a291906112be565b61045e565b6040516101b491906115f6565b60405180910390f35b6101c5610556565b6040516101d291906117ae565b60405180910390f35b6101f560048036038101906101f0919061130d565b61055f565b60405161020291906115f6565b60405180910390f35b610225600480360381019061022091906113ae565b61060b565b005b610241600480360381019061023c91906113ae565b61061f565b005b61025d60048036038101906102589190611259565b6106d2565b60405161026a9190611793565b60405180910390f35b61028d6004803603810190610288919061130d565b61071a565b005b610297610795565b6040516102a49190611611565b60405180910390f35b6102c760048036038101906102c2919061130d565b610827565b6040516102d491906115f6565b60405180910390f35b6102f760048036038101906102f2919061130d565b610912565b60405161030491906115f6565b60405180910390f35b610327600480360381019061032291906113ae565b610930565b005b610343600480360381019061033e9190611282565b6109e9565b6040516103509190611793565b60405180910390f35b60606003805461036890611951565b80601f016020809104026020016040519081016040528092919081815260200182805461039490611951565b80156103e15780601f106103b6576101008083540402835291602001916103e1565b820191906000526020600020905b8154815290600101906020018083116103c457829003601f168201915b5050505050905090565b60006103ff6103f8610a70565b8484610a78565b6001905092915050565b6104128161060b565b811561043657806006600082825461042a91906117e5565b92505081905550610450565b806005600082825461044891906117e5565b925050819055505b5050565b6000600254905090565b600061046b848484610c43565b6000600160008673ffffffffffffffffffffffffffffffffffffffff1673ffffffffffffffffffffffffffffffffffffffff16815260200190815260200160002060006104b6610a70565b73ffffffffffffffffffffffffffffffffffffffff1673ffffffffffffffffffffffffffffffffffffffff16815260200190815260200160002054905082811015610536576040517f08c379a000000000000000000000000000000000000000000000000000000000815260040161052d906116b3565b60405180910390fd5b61054a85610542610a70565b858403610a78565b60019150509392505050565b60006012905090565b600061060161056c610a70565b84846001600061057a610a70565b73ffffffffffffffffffffffffffffffffffffffff1673ffffffffffffffffffffffffffffffffffffffff16815260200190815260200160002060008873ffffffffffffffffffffffffffffffffffffffff1673ffffffffffffffffffffffffffffffffffffffff168152602001908152602001600020546105fc91906117e5565b610a78565b6001905092915050565b61061c610616610a70565b82610ec4565b50565b600760019054906101000a900473ffffffffffffffffffffffffffffffffffffffff1673ffffffffffffffffffffffffffffffffffffffff1663095ea7b330836040518363ffffffff1660e01b815260040161067c9291906115cd565b602060405180830381600087803b15801561069657600080fd5b505af11580156106aa573d6000803e3d6000fd5b505050506040513d601f19601f820116820180604052508101906106ce9190611349565b5050565b60008060008373ffffffffffffffffffffffffffffffffffffffff1673ffffffffffffffffffffffffffffffffffffffff168152602001908152602001600020549050919050565b600061072d83610728610a70565b6109e9565b905081811015610772576040517f08c379a0000000000000000000000000000000000000000000000000000000008152600401610769906116d3565b60405180910390fd5b6107868361077e610a70565b848403610a78565b6107908383610ec4565b505050565b6060600480546107a490611951565b80601f01602080910402602001604051908101604052809291908181526020018280546107d090611951565b801561081d5780601f106107f25761010080835404028352916020019161081d565b820191906000526020600020905b81548152906001019060200180831161080057829003601f168201915b5050505050905090565b60008060016000610836610a70565b73ffffffffffffffffffffffffffffffffffffffff1673ffffffffffffffffffffffffffffffffffffffff16815260200190815260200160002060008573ffffffffffffffffffffffffffffffffffffffff1673ffffffffffffffffffffffffffffffffffffffff168152602001908152602001600020549050828110156108f3576040517f08c379a00000000000000000000000000000000000000000000000000000000081526004016108ea90611753565b60405180910390fd5b6109076108fe610a70565b85858403610a78565b600191505092915050565b600061092661091f610a70565b8484610c43565b6001905092915050565b600760019054906101000a900473ffffffffffffffffffffffffffffffffffffffff1673ffffffffffffffffffffffffffffffffffffffff166379cc679033836040518363ffffffff1660e01b815260040161098d9291906115cd565b600060405180830381600087803b1580156109a757600080fd5b505af11580156109bb573d6000803e3d6000fd5b505050506109e633600760009054906101000a900460ff1660ff16836109e1919061183b565b61109b565b50565b6000600160008473ffffffffffffffffffffffffffffffffffffffff1673ffffffffffffffffffffffffffffffffffffffff16815260200190815260200160002060008373ffffffffffffffffffffffffffffffffffffffff1673ffffffffffffffffffffffffffffffffffffffff16815260200190815260200160002054905092915050565b600033905090565b600073ffffffffffffffffffffffffffffffffffffffff168373ffffffffffffffffffffffffffffffffffffffff161415610ae8576040517f08c379a0000000000000000000000000000000000000000000000000000000008152600401610adf90611733565b60405180910390fd5b600073ffffffffffffffffffffffffffffffffffffffff168273ffffffffffffffffffffffffffffffffffffffff161415610b58576040517f08c379a0000000000000000000000000000000000000000000000000000000008152600401610b4f90611673565b60405180910390fd5b80600160008573ffffffffffffffffffffffffffffffffffffffff1673ffffffffffffffffffffffffffffffffffffffff16815260200190815260200160002060008473ffffffffffffffffffffffffffffffffffffffff1673ffffffffffffffffffffffffffffffffffffffff168152602001908152602001600020819055508173ffffffffffffffffffffffffffffffffffffffff168373ffffffffffffffffffffffffffffffffffffffff167f8c5be1e5ebec7d5bd14f71427d1e84f3dd0314c0f7b2291e5b200ac8c7c3b92583604051610c369190611793565b60405180910390a3505050565b600073ffffffffffffffffffffffffffffffffffffffff168373ffffffffffffffffffffffffffffffffffffffff161415610cb3576040517f08c379a0000000000000000000000000000000000000000000000000000000008152600401610caa90611713565b60405180910390fd5b600073ffffffffffffffffffffffffffffffffffffffff168273ffffffffffffffffffffffffffffffffffffffff161415610d23576040517f08c379a0000000000000000000000000000000000000000000000000000000008152600401610d1a90611633565b60405180910390fd5b610d2e8383836111fb565b60008060008573ffffffffffffffffffffffffffffffffffffffff1673ffffffffffffffffffffffffffffffffffffffff16815260200190815260200160002054905081811015610db4576040517f08c379a0000000000000000000000000000000000000000000000000000000008152600401610dab90611693565b60405180910390fd5b8181036000808673ffffffffffffffffffffffffffffffffffffffff1673ffffffffffffffffffffffffffffffffffffffff16815260200190815260200160002081905550816000808573ffffffffffffffffffffffffffffffffffffffff1673ffffffffffffffffffffffffffffffffffffffff1681526020019081526020016000206000828254610e4791906117e5565b925050819055508273ffffffffffffffffffffffffffffffffffffffff168473ffffffffffffffffffffffffffffffffffffffff167fddf252ad1be2c89b69c2b068fc378daa952ba7f163c4a11628f55a4df523b3ef84604051610eab9190611793565b60405180910390a3610ebe848484611200565b50505050565b600073ffffffffffffffffffffffffffffffffffffffff168273ffffffffffffffffffffffffffffffffffffffff161415610f34576040517f08c379a0000000000000000000000000000000000000000000000000000000008152600401610f2b906116f3565b60405180910390fd5b610f40826000836111fb565b60008060008473ffffffffffffffffffffffffffffffffffffffff1673ffffffffffffffffffffffffffffffffffffffff16815260200190815260200160002054905081811015610fc6576040517f08c379a0000000000000000000000000000000000000000000000000000000008152600401610fbd90611653565b60405180910390fd5b8181036000808573ffffffffffffffffffffffffffffffffffffffff1673ffffffffffffffffffffffffffffffffffffffff16815260200190815260200160002081905550816002600082825461101d9190611895565b92505081905550600073ffffffffffffffffffffffffffffffffffffffff168373ffffffffffffffffffffffffffffffffffffffff167fddf252ad1be2c89b69c2b068fc378daa952ba7f163c4a11628f55a4df523b3ef846040516110829190611793565b60405180910390a361109683600084611200565b505050565b600073ffffffffffffffffffffffffffffffffffffffff168273ffffffffffffffffffffffffffffffffffffffff16141561110b576040517f08c379a000000000000000000000000000000000000000000000000000000000815260040161110290611773565b60405180910390fd5b611117600083836111fb565b806002600082825461112991906117e5565b92505081905550806000808473ffffffffffffffffffffffffffffffffffffffff1673ffffffffffffffffffffffffffffffffffffffff168152602001908152602001600020600082825461117e91906117e5565b925050819055508173ffffffffffffffffffffffffffffffffffffffff16600073ffffffffffffffffffffffffffffffffffffffff167fddf252ad1be2c89b69c2b068fc378daa952ba7f163c4a11628f55a4df523b3ef836040516111e39190611793565b60405180910390a36111f760008383611200565b5050565b505050565b505050565b60008135905061121481611d31565b92915050565b60008135905061122981611d48565b92915050565b60008151905061123e81611d48565b92915050565b60008135905061125381611d5f565b92915050565b60006020828403121561126b57600080fd5b600061127984828501611205565b91505092915050565b6000806040838503121561129557600080fd5b60006112a385828601611205565b92505060206112b485828601611205565b9150509250929050565b6000806000606084860312156112d357600080fd5b60006112e186828701611205565b93505060206112f286828701611205565b925050604061130386828701611244565b9150509250925092565b6000806040838503121561132057600080fd5b600061132e85828601611205565b925050602061133f85828601611244565b9150509250929050565b60006020828403121561135b57600080fd5b60006113698482850161122f565b91505092915050565b6000806040838503121561138557600080fd5b60006113938582860161121a565b92505060206113a485828601611244565b9150509250929050565b6000602082840312156113c057600080fd5b60006113ce84828501611244565b91505092915050565b6113e0816118c9565b82525050565b6113ef816118db565b82525050565b6000611400826117c9565b61140a81856117d4565b935061141a81856020860161191e565b611423816119e1565b840191505092915050565b600061143b6023836117d4565b9150611446826119f2565b604082019050919050565b600061145e6022836117d4565b915061146982611a41565b604082019050919050565b60006114816022836117d4565b915061148c82611a90565b604082019050919050565b60006114a46026836117d4565b91506114af82611adf565b604082019050919050565b60006114c76028836117d4565b91506114d282611b2e565b604082019050919050565b60006114ea6024836117d4565b91506114f582611b7d565b604082019050919050565b600061150d6021836117d4565b915061151882611bcc565b604082019050919050565b60006115306025836117d4565b915061153b82611c1b565b604082019050919050565b60006115536024836117d4565b915061155e82611c6a565b604082019050919050565b60006115766025836117d4565b915061158182611cb9565b604082019050919050565b6000611599601f836117d4565b91506115a482611d08565b602082019050919050565b6115b881611907565b82525050565b6115c781611911565b82525050565b60006040820190506115e260008301856113d7565b6115ef60208301846115af565b9392505050565b600060208201905061160b60008301846113e6565b92915050565b6000602082019050818103600083015261162b81846113f5565b905092915050565b6000602082019050818103600083015261164c8161142e565b9050919050565b6000602082019050818103600083015261166c81611451565b9050919050565b6000602082019050818103600083015261168c81611474565b9050919050565b600060208201905081810360008301526116ac81611497565b9050919050565b600060208201905081810360008301526116cc816114ba565b9050919050565b600060208201905081810360008301526116ec816114dd565b9050919050565b6000602082019050818103600083015261170c81611500565b9050919050565b6000602082019050818103600083015261172c81611523565b9050919050565b6000602082019050818103600083015261174c81611546565b9050919050565b6000602082019050818103600083015261176c81611569565b9050919050565b6000602082019050818103600083015261178c8161158c565b9050919050565b60006020820190506117a860008301846115af565b92915050565b60006020820190506117c360008301846115be565b92915050565b600081519050919050565b600082825260208201905092915050565b60006117f082611907565b91506117fb83611907565b9250827fffffffffffffffffffffffffffffffffffffffffffffffffffffffffffffffff038211156118305761182f611983565b5b828201905092915050565b600061184682611907565b915061185183611907565b9250817fffffffffffffffffffffffffffffffffffffffffffffffffffffffffffffffff048311821515161561188a57611889611983565b5b828202905092915050565b60006118a082611907565b91506118ab83611907565b9250828210156118be576118bd611983565b5b828203905092915050565b60006118d4826118e7565b9050919050565b60008115159050919050565b600073ffffffffffffffffffffffffffffffffffffffff82169050919050565b6000819050919050565b600060ff82169050919050565b60005b8381101561193c578082015181840152602081019050611921565b8381111561194b576000848401525b50505050565b6000600282049050600182168061196957607f821691505b6020821081141561197d5761197c6119b2565b5b50919050565b7f4e487b7100000000000000000000000000000000000000000000000000000000600052601160045260246000fd5b7f4e487b7100000000000000000000000000000000000000000000000000000000600052602260045260246000fd5b6000601f19601f8301169050919050565b7f45524332303a207472616e7366657220746f20746865207a65726f206164647260008201527f6573730000000000000000000000000000000000000000000000000000000000602082015250565b7f45524332303a206275726e20616d6f756e7420657863656564732062616c616e60008201527f6365000000000000000000000000000000000000000000000000000000000000602082015250565b7f45524332303a20617070726f766520746f20746865207a65726f20616464726560008201527f7373000000000000000000000000000000000000000000000000000000000000602082015250565b7f45524332303a207472616e7366657220616d6f756e742065786365656473206260008201527f616c616e63650000000000000000000000000000000000000000000000000000602082015250565b7f45524332303a207472616e7366657220616d6f756e742065786365656473206160008201527f6c6c6f77616e6365000000000000000000000000000000000000000000000000602082015250565b7f45524332303a206275726e20616d6f756e74206578636565647320616c6c6f7760008201527f616e636500000000000000000000000000000000000000000000000000000000602082015250565b7f45524332303a206275726e2066726f6d20746865207a65726f2061646472657360008201527f7300000000000000000000000000000000000000000000000000000000000000602082015250565b7f45524332303a207472616e736665722066726f6d20746865207a65726f20616460008201527f6472657373000000000000000000000000000000000000000000000000000000602082015250565b7f45524332303a20617070726f76652066726f6d20746865207a65726f2061646460008201527f7265737300000000000000000000000000000000000000000000000000000000602082015250565b7f45524332303a2064656372656173656420616c6c6f77616e63652062656c6f7760008201527f207a65726f000000000000000000000000000000000000000000000000000000602082015250565b7f45524332303a206d696e7420746f20746865207a65726f206164647265737300600082015250565b611d3a816118c9565b8114611d4557600080fd5b50565b611d51816118db565b8114611d5c57600080fd5b50565b611d6881611907565b8114611d7357600080fd5b5056fea26469706673582212205449395d4b73da9f82a5a83697a68a70b149a7dfafb650581183069ecf97760664736f6c63430008030033",
  "immutableReferences": {},
  "source": "// SPDX-License-Identifier: MIT\npragma solidity ^0.8.0;\n\n\nimport '@openzeppelin/contracts/token/ERC20/extensions/ERC20Burnable.sol';\nimport \"./Hashi.sol\";\nimport \"./IHashima.sol\";\n\ncontract OtherSide is ERC20Burnable{\n    uint256 negative_votes=0;\n    uint256 positive_votes=0;\n\n    uint8 current_rate;\n\n    Hashi private hashiContract;\n    constructor() ERC20(\"Petunia\", \"PETU\"){\n\n    }\n\n    function aprovar(uint256 amount)external{\n        hashiContract.approve(address(this), amount);\n    }\n\n    function deposit(uint256 amount) external{\n        hashiContract.burnFrom(msg.sender, amount);\n        _mint(msg.sender, amount*current_rate);\n\n   }\n\n    function vote(bool positive,uint256 amount) external{\n        burn(amount);\n        if(positive){\n            positive_votes+=amount;\n        }else{\n            negative_votes+=amount;\n        }\n    }\n\n\n    function restartCycle()internal{\n        negative_votes=0;\n        positive_votes=0;\n    }\n\n\n\n}",
  "sourcePath": "/Users/aarontolentino/Desktop/Contratos_1/hashima/contracts/OtherSide.sol",
  "compiler": {
    "name": "solc",
    "version": "0.8.3+commit.8d00100c.Emscripten.clang"
  },
  "schemaVersion": "3.4.1",
  "updatedAt": "2022-05-13T05:34:34.330Z",
  "devdoc": {
    "kind": "dev",
    "methods": {
      "allowance(address,address)": {
        "details": "See {IERC20-allowance}."
      },
      "approve(address,uint256)": {
        "details": "See {IERC20-approve}. Requirements: - `spender` cannot be the zero address."
      },
      "balanceOf(address)": {
        "details": "See {IERC20-balanceOf}."
      },
      "burn(uint256)": {
        "details": "Destroys `amount` tokens from the caller. See {ERC20-_burn}."
      },
      "burnFrom(address,uint256)": {
        "details": "Destroys `amount` tokens from `account`, deducting from the caller's allowance. See {ERC20-_burn} and {ERC20-allowance}. Requirements: - the caller must have allowance for ``accounts``'s tokens of at least `amount`."
      },
      "decimals()": {
        "details": "Returns the number of decimals used to get its user representation. For example, if `decimals` equals `2`, a balance of `505` tokens should be displayed to a user as `5.05` (`505 / 10 ** 2`). Tokens usually opt for a value of 18, imitating the relationship between Ether and Wei. This is the value {ERC20} uses, unless this function is overridden; NOTE: This information is only used for _display_ purposes: it in no way affects any of the arithmetic of the contract, including {IERC20-balanceOf} and {IERC20-transfer}."
      },
      "decreaseAllowance(address,uint256)": {
        "details": "Atomically decreases the allowance granted to `spender` by the caller. This is an alternative to {approve} that can be used as a mitigation for problems described in {IERC20-approve}. Emits an {Approval} event indicating the updated allowance. Requirements: - `spender` cannot be the zero address. - `spender` must have allowance for the caller of at least `subtractedValue`."
      },
      "increaseAllowance(address,uint256)": {
        "details": "Atomically increases the allowance granted to `spender` by the caller. This is an alternative to {approve} that can be used as a mitigation for problems described in {IERC20-approve}. Emits an {Approval} event indicating the updated allowance. Requirements: - `spender` cannot be the zero address."
      },
      "name()": {
        "details": "Returns the name of the token."
      },
      "symbol()": {
        "details": "Returns the symbol of the token, usually a shorter version of the name."
      },
      "totalSupply()": {
        "details": "See {IERC20-totalSupply}."
      },
      "transfer(address,uint256)": {
        "details": "See {IERC20-transfer}. Requirements: - `recipient` cannot be the zero address. - the caller must have a balance of at least `amount`."
      },
      "transferFrom(address,address,uint256)": {
        "details": "See {IERC20-transferFrom}. Emits an {Approval} event indicating the updated allowance. This is not required by the EIP. See the note at the beginning of {ERC20}. Requirements: - `sender` and `recipient` cannot be the zero address. - `sender` must have a balance of at least `amount`. - the caller must have allowance for ``sender``'s tokens of at least `amount`."
      }
    },
    "version": 1
  },
  "userdoc": {
    "kind": "user",
    "methods": {},
    "version": 1
  }
}