{
  "contractName": "StakingHashima",
  "abi": [
    {
      "inputs": [
        {
          "internalType": "contract Hashima",
          "name": "_contrato",
          "type": "address"
        }
      ],
      "stateMutability": "nonpayable",
      "type": "constructor"
    },
    {
      "anonymous": false,
      "inputs": [
        {
          "indexed": true,
          "internalType": "address",
          "name": "owner",
          "type": "address"
        },
        {
          "indexed": true,
          "internalType": "address",
          "name": "spender",
          "type": "address"
        },
        {
          "indexed": false,
          "internalType": "uint256",
          "name": "value",
          "type": "uint256"
        }
      ],
      "name": "Approval",
      "type": "event"
    },
    {
      "anonymous": false,
      "inputs": [
        {
          "indexed": true,
          "internalType": "address",
          "name": "from",
          "type": "address"
        },
        {
          "indexed": true,
          "internalType": "address",
          "name": "to",
          "type": "address"
        },
        {
          "indexed": false,
          "internalType": "uint256",
          "name": "value",
          "type": "uint256"
        }
      ],
      "name": "Transfer",
      "type": "event"
    },
    {
      "inputs": [],
      "name": "REWARD_PER_BLOCK",
      "outputs": [
        {
          "internalType": "uint256",
          "name": "",
          "type": "uint256"
        }
      ],
      "stateMutability": "view",
      "type": "function"
    },
    {
      "inputs": [
        {
          "internalType": "address",
          "name": "owner",
          "type": "address"
        },
        {
          "internalType": "address",
          "name": "spender",
          "type": "address"
        }
      ],
      "name": "allowance",
      "outputs": [
        {
          "internalType": "uint256",
          "name": "",
          "type": "uint256"
        }
      ],
      "stateMutability": "view",
      "type": "function"
    },
    {
      "inputs": [
        {
          "internalType": "address",
          "name": "spender",
          "type": "address"
        },
        {
          "internalType": "uint256",
          "name": "amount",
          "type": "uint256"
        }
      ],
      "name": "approve",
      "outputs": [
        {
          "internalType": "bool",
          "name": "",
          "type": "bool"
        }
      ],
      "stateMutability": "nonpayable",
      "type": "function"
    },
    {
      "inputs": [
        {
          "internalType": "address",
          "name": "account",
          "type": "address"
        }
      ],
      "name": "balanceOf",
      "outputs": [
        {
          "internalType": "uint256",
          "name": "",
          "type": "uint256"
        }
      ],
      "stateMutability": "view",
      "type": "function"
    },
    {
      "inputs": [
        {
          "internalType": "address",
          "name": "",
          "type": "address"
        },
        {
          "internalType": "uint256",
          "name": "",
          "type": "uint256"
        }
      ],
      "name": "checkpoints",
      "outputs": [
        {
          "internalType": "uint256",
          "name": "",
          "type": "uint256"
        }
      ],
      "stateMutability": "view",
      "type": "function"
    },
    {
      "inputs": [],
      "name": "decimals",
      "outputs": [
        {
          "internalType": "uint8",
          "name": "",
          "type": "uint8"
        }
      ],
      "stateMutability": "view",
      "type": "function"
    },
    {
      "inputs": [
        {
          "internalType": "address",
          "name": "spender",
          "type": "address"
        },
        {
          "internalType": "uint256",
          "name": "subtractedValue",
          "type": "uint256"
        }
      ],
      "name": "decreaseAllowance",
      "outputs": [
        {
          "internalType": "bool",
          "name": "",
          "type": "bool"
        }
      ],
      "stateMutability": "nonpayable",
      "type": "function"
    },
    {
      "inputs": [
        {
          "internalType": "uint256",
          "name": "",
          "type": "uint256"
        }
      ],
      "name": "has_deposited",
      "outputs": [
        {
          "internalType": "bool",
          "name": "",
          "type": "bool"
        }
      ],
      "stateMutability": "view",
      "type": "function"
    },
    {
      "inputs": [
        {
          "internalType": "address",
          "name": "spender",
          "type": "address"
        },
        {
          "internalType": "uint256",
          "name": "addedValue",
          "type": "uint256"
        }
      ],
      "name": "increaseAllowance",
      "outputs": [
        {
          "internalType": "bool",
          "name": "",
          "type": "bool"
        }
      ],
      "stateMutability": "nonpayable",
      "type": "function"
    },
    {
      "inputs": [],
      "name": "name",
      "outputs": [
        {
          "internalType": "string",
          "name": "",
          "type": "string"
        }
      ],
      "stateMutability": "view",
      "type": "function"
    },
    {
      "inputs": [],
      "name": "symbol",
      "outputs": [
        {
          "internalType": "string",
          "name": "",
          "type": "string"
        }
      ],
      "stateMutability": "view",
      "type": "function"
    },
    {
      "inputs": [],
      "name": "totalSupply",
      "outputs": [
        {
          "internalType": "uint256",
          "name": "",
          "type": "uint256"
        }
      ],
      "stateMutability": "view",
      "type": "function"
    },
    {
      "inputs": [
        {
          "internalType": "address",
          "name": "recipient",
          "type": "address"
        },
        {
          "internalType": "uint256",
          "name": "amount",
          "type": "uint256"
        }
      ],
      "name": "transfer",
      "outputs": [
        {
          "internalType": "bool",
          "name": "",
          "type": "bool"
        }
      ],
      "stateMutability": "nonpayable",
      "type": "function"
    },
    {
      "inputs": [
        {
          "internalType": "address",
          "name": "sender",
          "type": "address"
        },
        {
          "internalType": "address",
          "name": "recipient",
          "type": "address"
        },
        {
          "internalType": "uint256",
          "name": "amount",
          "type": "uint256"
        }
      ],
      "name": "transferFrom",
      "outputs": [
        {
          "internalType": "bool",
          "name": "",
          "type": "bool"
        }
      ],
      "stateMutability": "nonpayable",
      "type": "function"
    },
    {
      "inputs": [
        {
          "internalType": "uint256",
          "name": "tokenId",
          "type": "uint256"
        }
      ],
      "name": "aprovar",
      "outputs": [],
      "stateMutability": "nonpayable",
      "type": "function"
    },
    {
      "inputs": [
        {
          "internalType": "uint256",
          "name": "tokenId",
          "type": "uint256"
        }
      ],
      "name": "deposit",
      "outputs": [],
      "stateMutability": "nonpayable",
      "type": "function"
    },
    {
      "inputs": [
        {
          "internalType": "uint256",
          "name": "tokenId",
          "type": "uint256"
        }
      ],
      "name": "withdraw",
      "outputs": [],
      "stateMutability": "nonpayable",
      "type": "function"
    },
    {
      "inputs": [
        {
          "internalType": "address",
          "name": "beneficiary",
          "type": "address"
        },
        {
          "internalType": "uint256",
          "name": "tokenId",
          "type": "uint256"
        }
      ],
      "name": "collect",
      "outputs": [],
      "stateMutability": "nonpayable",
      "type": "function"
    },
    {
      "inputs": [
        {
          "internalType": "uint256",
          "name": "tokenId",
          "type": "uint256"
        }
      ],
      "name": "hashimaOnStaking",
      "outputs": [
        {
          "internalType": "bool",
          "name": "",
          "type": "bool"
        }
      ],
      "stateMutability": "view",
      "type": "function"
    },
    {
      "inputs": [
        {
          "internalType": "address",
          "name": "beneficiary",
          "type": "address"
        },
        {
          "internalType": "uint256",
          "name": "tokenId",
          "type": "uint256"
        }
      ],
      "name": "calculateReward",
      "outputs": [
        {
          "internalType": "uint256",
          "name": "",
          "type": "uint256"
        }
      ],
      "stateMutability": "view",
      "type": "function"
    }
  ],
  "bytecode": "0x608060405260016007553480156200001657600080fd5b506040516200275f3803806200275f83398181016040528101906200003c9190620001eb565b6040518060400160405280600781526020017f48617368696d61000000000000000000000000000000000000000000000000008152506040518060400160405280600781526020017f48415348494d41000000000000000000000000000000000000000000000000008152508160039080519060200190620000c092919062000124565b508060049080519060200190620000d992919062000124565b50505080600860006101000a81548173ffffffffffffffffffffffffffffffffffffffff021916908373ffffffffffffffffffffffffffffffffffffffff16021790555050620002de565b82805462000132906200025f565b90600052602060002090601f016020900481019282620001565760008555620001a2565b82601f106200017157805160ff1916838001178555620001a2565b82800160010185558215620001a2579182015b82811115620001a157825182559160200191906001019062000184565b5b509050620001b19190620001b5565b5090565b5b80821115620001d0576000816000905550600101620001b6565b5090565b600081519050620001e581620002c4565b92915050565b600060208284031215620001fe57600080fd5b60006200020e84828501620001d4565b91505092915050565b600062000224826200023f565b9050919050565b6000620002388262000217565b9050919050565b600073ffffffffffffffffffffffffffffffffffffffff82169050919050565b600060028204905060018216806200027857607f821691505b602082108114156200028f576200028e62000295565b5b50919050565b7f4e487b7100000000000000000000000000000000000000000000000000000000600052602260045260246000fd5b620002cf816200022b565b8114620002db57600080fd5b50565b61247180620002ee6000396000f3fe608060405234801561001057600080fd5b506004361061012c5760003560e01c806357ddb1ed116100ad578063a457c2d711610071578063a457c2d71461036b578063a9059cbb1461039b578063af9d1632146103cb578063b6b55f25146103fb578063dd62ed3e146104175761012c565b806357ddb1ed146102c75780636b8357ac146102e357806370a08231146102ff57806395d89b411461032f578063975532dc1461034d5761012c565b806323b872dd116100f457806323b872dd146101fd5780632e1a7d4d1461022d578063313ce56714610249578063386082351461026757806339509351146102975761012c565b806306fdde0314610131578063095ea7b31461014f5780630cdfebfa1461017f57806318160ddd146101af5780631852e8d9146101cd575b600080fd5b610139610447565b6040516101469190611c09565b60405180910390f35b610169600480360381019061016491906118f2565b6104d9565b6040516101769190611bee565b60405180910390f35b610199600480360381019061019491906118f2565b6104f7565b6040516101a69190611d8b565b60405180910390f35b6101b761051c565b6040516101c49190611d8b565b60405180910390f35b6101e760048036038101906101e291906118f2565b610526565b6040516101f49190611d8b565b60405180910390f35b610217600480360381019061021291906118a3565b6106a4565b6040516102249190611bee565b60405180910390f35b6102476004803603810190610242919061196f565b61079c565b005b6102516108c6565b60405161025e9190611da6565b60405180910390f35b610281600480360381019061027c919061196f565b6108cf565b60405161028e9190611bee565b60405180910390f35b6102b160048036038101906102ac91906118f2565b6108f9565b6040516102be9190611bee565b60405180910390f35b6102e160048036038101906102dc919061196f565b6109a5565b005b6102fd60048036038101906102f891906118f2565b610a37565b005b61031960048036038101906103149190611815565b610aa9565b6040516103269190611d8b565b60405180910390f35b610337610af1565b6040516103449190611c09565b60405180910390f35b610355610b83565b6040516103629190611d8b565b60405180910390f35b610385600480360381019061038091906118f2565b610b89565b6040516103929190611bee565b60405180910390f35b6103b560048036038101906103b091906118f2565b610c74565b6040516103c29190611bee565b60405180910390f35b6103e560048036038101906103e0919061196f565b610c92565b6040516103f29190611bee565b60405180910390f35b6104156004803603810190610410919061196f565b610cb2565b005b610431600480360381019061042c9190611867565b610f9a565b60405161043e9190611d8b565b60405180910390f35b60606003805461045690611fe2565b80601f016020809104026020016040519081016040528092919081815260200182805461048290611fe2565b80156104cf5780601f106104a4576101008083540402835291602001916104cf565b820191906000526020600020905b8154815290600101906020018083116104b257829003601f168201915b5050505050905090565b60006104ed6104e6611021565b8484611029565b6001905092915050565b6005602052816000526040600020602052806000526040600020600091509150505481565b6000600254905090565b60006006600083815260200190815260200160002060009054906101000a900460ff16610556576000905061069e565b6000600860009054906101000a900473ffffffffffffffffffffffffffffffffffffffff1673ffffffffffffffffffffffffffffffffffffffff1663d43525c3846040518263ffffffff1660e01b81526004016105b39190611d8b565b60006040518083038186803b1580156105cb57600080fd5b505afa1580156105df573d6000803e3d6000fd5b505050506040513d6000823e3d601f19601f82011682018060405250810190610608919061192e565b60e001519050600060406103e8836106209190611eba565b61062a9190611e89565b90506000600560008773ffffffffffffffffffffffffffffffffffffffff1673ffffffffffffffffffffffffffffffffffffffff1681526020019081526020016000206000868152602001908152602001600020549050804361068d9190611f14565b826106989190611eba565b93505050505b92915050565b60006106b18484846111f4565b6000600160008673ffffffffffffffffffffffffffffffffffffffff1673ffffffffffffffffffffffffffffffffffffffff16815260200190815260200160002060006106fc611021565b73ffffffffffffffffffffffffffffffffffffffff1673ffffffffffffffffffffffffffffffffffffffff1681526020019081526020016000205490508281101561077c576040517f08c379a000000000000000000000000000000000000000000000000000000000815260040161077390611ceb565b60405180910390fd5b61079085610788611021565b858403611029565b60019150509392505050565b6006600082815260200190815260200160002060009054906101000a900460ff166107fc576040517f08c379a00000000000000000000000000000000000000000000000000000000081526004016107f390611c6b565b60405180910390fd5b6108063382610a37565b600860009054906101000a900473ffffffffffffffffffffffffffffffffffffffff1673ffffffffffffffffffffffffffffffffffffffff166323b872dd3033846040518463ffffffff1660e01b815260040161086593929190611b8e565b600060405180830381600087803b15801561087f57600080fd5b505af1158015610893573d6000803e3d6000fd5b5050505060006006600083815260200190815260200160002060006101000a81548160ff02191690831515021790555050565b60006012905090565b60006006600083815260200190815260200160002060009054906101000a900460ff169050919050565b600061099b610906611021565b848460016000610914611021565b73ffffffffffffffffffffffffffffffffffffffff1673ffffffffffffffffffffffffffffffffffffffff16815260200190815260200160002060008873ffffffffffffffffffffffffffffffffffffffff1673ffffffffffffffffffffffffffffffffffffffff168152602001908152602001600020546109969190611e33565b611029565b6001905092915050565b600860009054906101000a900473ffffffffffffffffffffffffffffffffffffffff1673ffffffffffffffffffffffffffffffffffffffff1663095ea7b330836040518363ffffffff1660e01b8152600401610a02929190611bc5565b600060405180830381600087803b158015610a1c57600080fd5b505af1158015610a30573d6000803e3d6000fd5b5050505050565b6000610a438383610526565b905043600560008573ffffffffffffffffffffffffffffffffffffffff1673ffffffffffffffffffffffffffffffffffffffff168152602001908152602001600020600084815260200190815260200160002081905550610aa43382611475565b505050565b60008060008373ffffffffffffffffffffffffffffffffffffffff1673ffffffffffffffffffffffffffffffffffffffff168152602001908152602001600020549050919050565b606060048054610b0090611fe2565b80601f0160208091040260200160405190810160405280929190818152602001828054610b2c90611fe2565b8015610b795780601f10610b4e57610100808354040283529160200191610b79565b820191906000526020600020905b815481529060010190602001808311610b5c57829003601f168201915b5050505050905090565b60075481565b60008060016000610b98611021565b73ffffffffffffffffffffffffffffffffffffffff1673ffffffffffffffffffffffffffffffffffffffff16815260200190815260200160002060008573ffffffffffffffffffffffffffffffffffffffff1673ffffffffffffffffffffffffffffffffffffffff16815260200190815260200160002054905082811015610c55576040517f08c379a0000000000000000000000000000000000000000000000000000000008152600401610c4c90611d4b565b60405180910390fd5b610c69610c60611021565b85858403611029565b600191505092915050565b6000610c88610c81611021565b84846111f4565b6001905092915050565b60066020528060005260406000206000915054906101000a900460ff1681565b600860009054906101000a900473ffffffffffffffffffffffffffffffffffffffff1673ffffffffffffffffffffffffffffffffffffffff16636352211e826040518263ffffffff1660e01b8152600401610d0d9190611d8b565b60206040518083038186803b158015610d2557600080fd5b505afa158015610d39573d6000803e3d6000fd5b505050506040513d601f19601f82011682018060405250810190610d5d919061183e565b73ffffffffffffffffffffffffffffffffffffffff163373ffffffffffffffffffffffffffffffffffffffff1614610dca576040517f08c379a0000000000000000000000000000000000000000000000000000000008152600401610dc190611c8b565b60405180910390fd5b6006600082815260200190815260200160002060009054906101000a900460ff1615610e2b576040517f08c379a0000000000000000000000000000000000000000000000000000000008152600401610e2290611ccb565b60405180910390fd5b6000600560003373ffffffffffffffffffffffffffffffffffffffff1673ffffffffffffffffffffffffffffffffffffffff1681526020019081526020016000206000838152602001908152602001600020541415610eda5743600560003373ffffffffffffffffffffffffffffffffffffffff1673ffffffffffffffffffffffffffffffffffffffff1681526020019081526020016000206000838152602001908152602001600020819055505b600860009054906101000a900473ffffffffffffffffffffffffffffffffffffffff1673ffffffffffffffffffffffffffffffffffffffff166323b872dd3330846040518463ffffffff1660e01b8152600401610f3993929190611b8e565b600060405180830381600087803b158015610f5357600080fd5b505af1158015610f67573d6000803e3d6000fd5b5050505060016006600083815260200190815260200160002060006101000a81548160ff02191690831515021790555050565b6000600160008473ffffffffffffffffffffffffffffffffffffffff1673ffffffffffffffffffffffffffffffffffffffff16815260200190815260200160002060008373ffffffffffffffffffffffffffffffffffffffff1673ffffffffffffffffffffffffffffffffffffffff16815260200190815260200160002054905092915050565b600033905090565b600073ffffffffffffffffffffffffffffffffffffffff168373ffffffffffffffffffffffffffffffffffffffff161415611099576040517f08c379a000000000000000000000000000000000000000000000000000000000815260040161109090611d2b565b60405180910390fd5b600073ffffffffffffffffffffffffffffffffffffffff168273ffffffffffffffffffffffffffffffffffffffff161415611109576040517f08c379a000000000000000000000000000000000000000000000000000000000815260040161110090611c4b565b60405180910390fd5b80600160008573ffffffffffffffffffffffffffffffffffffffff1673ffffffffffffffffffffffffffffffffffffffff16815260200190815260200160002060008473ffffffffffffffffffffffffffffffffffffffff1673ffffffffffffffffffffffffffffffffffffffff168152602001908152602001600020819055508173ffffffffffffffffffffffffffffffffffffffff168373ffffffffffffffffffffffffffffffffffffffff167f8c5be1e5ebec7d5bd14f71427d1e84f3dd0314c0f7b2291e5b200ac8c7c3b925836040516111e79190611d8b565b60405180910390a3505050565b600073ffffffffffffffffffffffffffffffffffffffff168373ffffffffffffffffffffffffffffffffffffffff161415611264576040517f08c379a000000000000000000000000000000000000000000000000000000000815260040161125b90611d0b565b60405180910390fd5b600073ffffffffffffffffffffffffffffffffffffffff168273ffffffffffffffffffffffffffffffffffffffff1614156112d4576040517f08c379a00000000000000000000000000000000000000000000000000000000081526004016112cb90611c2b565b60405180910390fd5b6112df8383836115d5565b60008060008573ffffffffffffffffffffffffffffffffffffffff1673ffffffffffffffffffffffffffffffffffffffff16815260200190815260200160002054905081811015611365576040517f08c379a000000000000000000000000000000000000000000000000000000000815260040161135c90611cab565b60405180910390fd5b8181036000808673ffffffffffffffffffffffffffffffffffffffff1673ffffffffffffffffffffffffffffffffffffffff16815260200190815260200160002081905550816000808573ffffffffffffffffffffffffffffffffffffffff1673ffffffffffffffffffffffffffffffffffffffff16815260200190815260200160002060008282546113f89190611e33565b925050819055508273ffffffffffffffffffffffffffffffffffffffff168473ffffffffffffffffffffffffffffffffffffffff167fddf252ad1be2c89b69c2b068fc378daa952ba7f163c4a11628f55a4df523b3ef8460405161145c9190611d8b565b60405180910390a361146f8484846115da565b50505050565b600073ffffffffffffffffffffffffffffffffffffffff168273ffffffffffffffffffffffffffffffffffffffff1614156114e5576040517f08c379a00000000000000000000000000000000000000000000000000000000081526004016114dc90611d6b565b60405180910390fd5b6114f1600083836115d5565b80600260008282546115039190611e33565b92505081905550806000808473ffffffffffffffffffffffffffffffffffffffff1673ffffffffffffffffffffffffffffffffffffffff16815260200190815260200160002060008282546115589190611e33565b925050819055508173ffffffffffffffffffffffffffffffffffffffff16600073ffffffffffffffffffffffffffffffffffffffff167fddf252ad1be2c89b69c2b068fc378daa952ba7f163c4a11628f55a4df523b3ef836040516115bd9190611d8b565b60405180910390a36115d1600083836115da565b5050565b505050565b505050565b60006115f26115ed84611de6565b611dc1565b90508281526020810184848401111561160a57600080fd5b611615848285611faf565b509392505050565b60008135905061162c816123df565b92915050565b600081519050611641816123df565b92915050565b600081519050611656816123f6565b92915050565b60008151905061166b8161240d565b92915050565b600082601f83011261168257600080fd5b81516116928482602086016115df565b91505092915050565b600061016082840312156116ae57600080fd5b6116b9610160611dc1565b905060006116c984828501611800565b600083015250602082015167ffffffffffffffff8111156116e957600080fd5b6116f584828501611671565b602083015250604082015167ffffffffffffffff81111561171557600080fd5b61172184828501611671565b604083015250606061173584828501611647565b606083015250608061174984828501611647565b60808301525060a061175d84828501611800565b60a08301525060c06117718482850161165c565b60c08301525060e061178584828501611800565b60e08301525061010061179a84828501611800565b6101008301525061012082015167ffffffffffffffff8111156117bc57600080fd5b6117c884828501611671565b610120830152506101406117de8482850161165c565b6101408301525092915050565b6000813590506117fa81612424565b92915050565b60008151905061180f81612424565b92915050565b60006020828403121561182757600080fd5b60006118358482850161161d565b91505092915050565b60006020828403121561185057600080fd5b600061185e84828501611632565b91505092915050565b6000806040838503121561187a57600080fd5b60006118888582860161161d565b92505060206118998582860161161d565b9150509250929050565b6000806000606084860312156118b857600080fd5b60006118c68682870161161d565b93505060206118d78682870161161d565b92505060406118e8868287016117eb565b9150509250925092565b6000806040838503121561190557600080fd5b60006119138582860161161d565b9250506020611924858286016117eb565b9150509250929050565b60006020828403121561194057600080fd5b600082015167ffffffffffffffff81111561195a57600080fd5b6119668482850161169b565b91505092915050565b60006020828403121561198157600080fd5b600061198f848285016117eb565b91505092915050565b6119a181611f48565b82525050565b6119b081611f6c565b82525050565b60006119c182611e17565b6119cb8185611e22565b93506119db818560208601611faf565b6119e481612101565b840191505092915050565b60006119fc602383611e22565b9150611a0782612112565b604082019050919050565b6000611a1f602283611e22565b9150611a2a82612161565b604082019050919050565b6000611a42601583611e22565b9150611a4d826121b0565b602082019050919050565b6000611a65601483611e22565b9150611a70826121d9565b602082019050919050565b6000611a88602683611e22565b9150611a9382612202565b604082019050919050565b6000611aab601883611e22565b9150611ab682612251565b602082019050919050565b6000611ace602883611e22565b9150611ad98261227a565b604082019050919050565b6000611af1602583611e22565b9150611afc826122c9565b604082019050919050565b6000611b14602483611e22565b9150611b1f82612318565b604082019050919050565b6000611b37602583611e22565b9150611b4282612367565b604082019050919050565b6000611b5a601f83611e22565b9150611b65826123b6565b602082019050919050565b611b7981611f98565b82525050565b611b8881611fa2565b82525050565b6000606082019050611ba36000830186611998565b611bb06020830185611998565b611bbd6040830184611b70565b949350505050565b6000604082019050611bda6000830185611998565b611be76020830184611b70565b9392505050565b6000602082019050611c0360008301846119a7565b92915050565b60006020820190508181036000830152611c2381846119b6565b905092915050565b60006020820190508181036000830152611c44816119ef565b9050919050565b60006020820190508181036000830152611c6481611a12565b9050919050565b60006020820190508181036000830152611c8481611a35565b9050919050565b60006020820190508181036000830152611ca481611a58565b9050919050565b60006020820190508181036000830152611cc481611a7b565b9050919050565b60006020820190508181036000830152611ce481611a9e565b9050919050565b60006020820190508181036000830152611d0481611ac1565b9050919050565b60006020820190508181036000830152611d2481611ae4565b9050919050565b60006020820190508181036000830152611d4481611b07565b9050919050565b60006020820190508181036000830152611d6481611b2a565b9050919050565b60006020820190508181036000830152611d8481611b4d565b9050919050565b6000602082019050611da06000830184611b70565b92915050565b6000602082019050611dbb6000830184611b7f565b92915050565b6000611dcb611ddc565b9050611dd78282612014565b919050565b6000604051905090565b600067ffffffffffffffff821115611e0157611e006120d2565b5b611e0a82612101565b9050602081019050919050565b600081519050919050565b600082825260208201905092915050565b6000611e3e82611f98565b9150611e4983611f98565b9250827fffffffffffffffffffffffffffffffffffffffffffffffffffffffffffffffff03821115611e7e57611e7d612045565b5b828201905092915050565b6000611e9482611f98565b9150611e9f83611f98565b925082611eaf57611eae612074565b5b828204905092915050565b6000611ec582611f98565b9150611ed083611f98565b9250817fffffffffffffffffffffffffffffffffffffffffffffffffffffffffffffffff0483118215151615611f0957611f08612045565b5b828202905092915050565b6000611f1f82611f98565b9150611f2a83611f98565b925082821015611f3d57611f3c612045565b5b828203905092915050565b6000611f5382611f78565b9050919050565b6000611f6582611f78565b9050919050565b60008115159050919050565b600073ffffffffffffffffffffffffffffffffffffffff82169050919050565b6000819050919050565b600060ff82169050919050565b60005b83811015611fcd578082015181840152602081019050611fb2565b83811115611fdc576000848401525b50505050565b60006002820490506001821680611ffa57607f821691505b6020821081141561200e5761200d6120a3565b5b50919050565b61201d82612101565b810181811067ffffffffffffffff8211171561203c5761203b6120d2565b5b80604052505050565b7f4e487b7100000000000000000000000000000000000000000000000000000000600052601160045260246000fd5b7f4e487b7100000000000000000000000000000000000000000000000000000000600052601260045260246000fd5b7f4e487b7100000000000000000000000000000000000000000000000000000000600052602260045260246000fd5b7f4e487b7100000000000000000000000000000000000000000000000000000000600052604160045260246000fd5b6000601f19601f8301169050919050565b7f45524332303a207472616e7366657220746f20746865207a65726f206164647260008201527f6573730000000000000000000000000000000000000000000000000000000000602082015250565b7f45524332303a20617070726f766520746f20746865207a65726f20616464726560008201527f7373000000000000000000000000000000000000000000000000000000000000602082015250565b7f4e6f20746f6b656e7320746f2077697468646172770000000000000000000000600082015250565b7f53656e646572206d757374206265206f776e6572000000000000000000000000600082015250565b7f45524332303a207472616e7366657220616d6f756e742065786365656473206260008201527f616c616e63650000000000000000000000000000000000000000000000000000602082015250565b7f53656e64657220616c7265616479206465706f73697465640000000000000000600082015250565b7f45524332303a207472616e7366657220616d6f756e742065786365656473206160008201527f6c6c6f77616e6365000000000000000000000000000000000000000000000000602082015250565b7f45524332303a207472616e736665722066726f6d20746865207a65726f20616460008201527f6472657373000000000000000000000000000000000000000000000000000000602082015250565b7f45524332303a20617070726f76652066726f6d20746865207a65726f2061646460008201527f7265737300000000000000000000000000000000000000000000000000000000602082015250565b7f45524332303a2064656372656173656420616c6c6f77616e63652062656c6f7760008201527f207a65726f000000000000000000000000000000000000000000000000000000602082015250565b7f45524332303a206d696e7420746f20746865207a65726f206164647265737300600082015250565b6123e881611f48565b81146123f357600080fd5b50565b6123ff81611f5a565b811461240a57600080fd5b50565b61241681611f6c565b811461242157600080fd5b50565b61242d81611f98565b811461243857600080fd5b5056fea26469706673582212207f7491cd709b0ae7b763df839007bff71bf13b91f082ae75695ea6483d67ecf464736f6c63430008030033",
  "immutableReferences": {},
  "source": "// SPDX-License-Identifier: MIT\npragma solidity ^0.8.0;\n\nimport '@openzeppelin/contracts/token/ERC20/ERC20.sol';\nimport \"@openzeppelin/contracts/token/ERC721/ERC721.sol\";\nimport \"./Hashima.sol\";\n\ncontract StakingHashima is ERC20{\n    mapping(address => mapping(uint256=>uint256)) public checkpoints;\n    mapping(uint256 => bool) public has_deposited;\n\n\n    uint public REWARD_PER_BLOCK = 1;\n\n    Hashima private hashimaContract;\n\n    constructor(Hashima _contrato) ERC20(\"Hashima\", \"HASHIMA\"){\n        hashimaContract = Hashima(_contrato);\n\n    }\n\n    function aprovar(uint256 tokenId)external{\n        hashimaContract.approve(address(this), tokenId);\n    }\n\n    function deposit(uint256 tokenId) external{\n        require (msg.sender == hashimaContract.ownerOf(tokenId), 'Sender must be owner');\n        require (!has_deposited[tokenId], 'Sender already deposited');\n        if(checkpoints[msg.sender][tokenId] == 0){\n            checkpoints[msg.sender][tokenId] = block.number;\n        }\n        // collect(msg.sender);\n        hashimaContract.transferFrom(msg.sender, address(this), tokenId);\n        has_deposited[tokenId]=true;\n   }\n\n    function withdraw(uint256 tokenId) external{\n        require(has_deposited[tokenId], 'No tokens to withdarw');\n        collect(msg.sender,tokenId);\n        hashimaContract.transferFrom(address(this), msg.sender, tokenId);\n        has_deposited[tokenId]=false;\n    }\n\n    function collect(address beneficiary,uint256 tokenId) public{\n        uint256 reward = calculateReward(beneficiary,tokenId);\n        checkpoints[beneficiary][tokenId] = block.number;      \n        _mint(msg.sender, reward);\n    }\n\n    function hashimaOnStaking(uint256 tokenId)public view returns(bool){\n        return has_deposited[tokenId];\n    }\n\n    function calculateReward(address beneficiary,uint256 tokenId) public view returns(uint256){\n        if(!has_deposited[tokenId])\n        {\n            return 0;\n        }\n        uint256 _stars=hashimaContract.getHashima(tokenId).stars;\n        uint256 pesoEstrella=_stars*1000/64;\n        uint256 checkpoint = checkpoints[beneficiary][tokenId];\n        return pesoEstrella*(block.number-checkpoint);\n    }\n}",
  "sourcePath": "/Users/aarontolentino/Desktop/hashima/contracts/Petunia.sol",
  "compiler": {
    "name": "solc",
    "version": "0.8.3+commit.8d00100c.Emscripten.clang"
  },
  "schemaVersion": "3.4.1",
  "updatedAt": "2022-02-10T20:27:11.300Z",
  "devdoc": {
    "kind": "dev",
    "methods": {
      "allowance(address,address)": {
        "details": "See {IERC20-allowance}."
      },
      "approve(address,uint256)": {
        "details": "See {IERC20-approve}. Requirements: - `spender` cannot be the zero address."
      },
      "balanceOf(address)": {
        "details": "See {IERC20-balanceOf}."
      },
      "decimals()": {
        "details": "Returns the number of decimals used to get its user representation. For example, if `decimals` equals `2`, a balance of `505` tokens should be displayed to a user as `5.05` (`505 / 10 ** 2`). Tokens usually opt for a value of 18, imitating the relationship between Ether and Wei. This is the value {ERC20} uses, unless this function is overridden; NOTE: This information is only used for _display_ purposes: it in no way affects any of the arithmetic of the contract, including {IERC20-balanceOf} and {IERC20-transfer}."
      },
      "decreaseAllowance(address,uint256)": {
        "details": "Atomically decreases the allowance granted to `spender` by the caller. This is an alternative to {approve} that can be used as a mitigation for problems described in {IERC20-approve}. Emits an {Approval} event indicating the updated allowance. Requirements: - `spender` cannot be the zero address. - `spender` must have allowance for the caller of at least `subtractedValue`."
      },
      "increaseAllowance(address,uint256)": {
        "details": "Atomically increases the allowance granted to `spender` by the caller. This is an alternative to {approve} that can be used as a mitigation for problems described in {IERC20-approve}. Emits an {Approval} event indicating the updated allowance. Requirements: - `spender` cannot be the zero address."
      },
      "name()": {
        "details": "Returns the name of the token."
      },
      "symbol()": {
        "details": "Returns the symbol of the token, usually a shorter version of the name."
      },
      "totalSupply()": {
        "details": "See {IERC20-totalSupply}."
      },
      "transfer(address,uint256)": {
        "details": "See {IERC20-transfer}. Requirements: - `recipient` cannot be the zero address. - the caller must have a balance of at least `amount`."
      },
      "transferFrom(address,address,uint256)": {
        "details": "See {IERC20-transferFrom}. Emits an {Approval} event indicating the updated allowance. This is not required by the EIP. See the note at the beginning of {ERC20}. Requirements: - `sender` and `recipient` cannot be the zero address. - `sender` must have a balance of at least `amount`. - the caller must have allowance for ``sender``'s tokens of at least `amount`."
      }
    },
    "version": 1
  },
  "userdoc": {
    "kind": "user",
    "methods": {},
    "version": 1
  }
}