{
  "contractName": "AuctionNFT",
  "abi": [
    {
      "inputs": [],
      "stateMutability": "nonpayable",
      "type": "constructor"
    },
    {
      "inputs": [],
      "name": "defaultAuctionBidPeriod",
      "outputs": [
        {
          "internalType": "uint32",
          "name": "",
          "type": "uint32"
        }
      ],
      "stateMutability": "view",
      "type": "function"
    },
    {
      "inputs": [],
      "name": "defaultBidIncreasePercentage",
      "outputs": [
        {
          "internalType": "uint32",
          "name": "",
          "type": "uint32"
        }
      ],
      "stateMutability": "view",
      "type": "function"
    },
    {
      "inputs": [],
      "name": "maximumMinPricePercentage",
      "outputs": [
        {
          "internalType": "uint32",
          "name": "",
          "type": "uint32"
        }
      ],
      "stateMutability": "view",
      "type": "function"
    },
    {
      "inputs": [],
      "name": "minimumSettableIncreasePercentage",
      "outputs": [
        {
          "internalType": "uint32",
          "name": "",
          "type": "uint32"
        }
      ],
      "stateMutability": "view",
      "type": "function"
    },
    {
      "inputs": [
        {
          "internalType": "address",
          "name": "",
          "type": "address"
        },
        {
          "internalType": "uint256",
          "name": "",
          "type": "uint256"
        }
      ],
      "name": "nftContractAuctions",
      "outputs": [
        {
          "internalType": "uint32",
          "name": "bidIncreasePercentage",
          "type": "uint32"
        },
        {
          "internalType": "uint32",
          "name": "auctionBidPeriod",
          "type": "uint32"
        },
        {
          "internalType": "uint64",
          "name": "auctionEnd",
          "type": "uint64"
        },
        {
          "internalType": "uint128",
          "name": "minPrice",
          "type": "uint128"
        },
        {
          "internalType": "uint128",
          "name": "nftHighestBid",
          "type": "uint128"
        },
        {
          "internalType": "address",
          "name": "nftHighestBidder",
          "type": "address"
        },
        {
          "internalType": "address",
          "name": "nftSeller",
          "type": "address"
        },
        {
          "internalType": "address",
          "name": "nftRecipient",
          "type": "address"
        },
        {
          "internalType": "address",
          "name": "ERC20Token",
          "type": "address"
        }
      ],
      "stateMutability": "view",
      "type": "function"
    },
    {
      "inputs": [
        {
          "internalType": "address",
          "name": "_nftContractAddress",
          "type": "address"
        },
        {
          "internalType": "uint256",
          "name": "_tokenId",
          "type": "uint256"
        },
        {
          "internalType": "address",
          "name": "_erc20Token",
          "type": "address"
        },
        {
          "internalType": "uint128",
          "name": "_minPrice",
          "type": "uint128"
        },
        {
          "internalType": "uint128",
          "name": "_buyNowPrice",
          "type": "uint128"
        }
      ],
      "name": "createDefaultNftAuction",
      "outputs": [],
      "stateMutability": "nonpayable",
      "type": "function"
    },
    {
      "inputs": [
        {
          "internalType": "address",
          "name": "_nftContractAddress",
          "type": "address"
        },
        {
          "internalType": "uint256",
          "name": "_tokenId",
          "type": "uint256"
        },
        {
          "internalType": "address",
          "name": "_erc20Token",
          "type": "address"
        },
        {
          "internalType": "uint128",
          "name": "_minPrice",
          "type": "uint128"
        },
        {
          "internalType": "uint128",
          "name": "_buyNowPrice",
          "type": "uint128"
        },
        {
          "internalType": "uint32",
          "name": "_auctionBidPeriod",
          "type": "uint32"
        },
        {
          "internalType": "uint32",
          "name": "_bidIncreasePercentage",
          "type": "uint32"
        }
      ],
      "name": "createNewNftAuction",
      "outputs": [],
      "stateMutability": "nonpayable",
      "type": "function"
    },
    {
      "inputs": [
        {
          "internalType": "address",
          "name": "_nftContractAddress",
          "type": "address"
        },
        {
          "internalType": "uint256",
          "name": "_tokenId",
          "type": "uint256"
        },
        {
          "internalType": "address",
          "name": "_erc20Token",
          "type": "address"
        },
        {
          "internalType": "uint128",
          "name": "_tokenAmount",
          "type": "uint128"
        }
      ],
      "name": "makeBid",
      "outputs": [],
      "stateMutability": "payable",
      "type": "function"
    },
    {
      "inputs": [
        {
          "internalType": "address",
          "name": "_nftContractAddress",
          "type": "address"
        },
        {
          "internalType": "uint256",
          "name": "_tokenId",
          "type": "uint256"
        },
        {
          "internalType": "address",
          "name": "_erc20Token",
          "type": "address"
        },
        {
          "internalType": "uint128",
          "name": "_tokenAmount",
          "type": "uint128"
        },
        {
          "internalType": "address",
          "name": "_nftRecipient",
          "type": "address"
        }
      ],
      "name": "makeCustomBid",
      "outputs": [],
      "stateMutability": "payable",
      "type": "function"
    },
    {
      "inputs": [
        {
          "internalType": "address",
          "name": "_nftContractAddress",
          "type": "address"
        },
        {
          "internalType": "uint256",
          "name": "_tokenId",
          "type": "uint256"
        }
      ],
      "name": "settleAuction",
      "outputs": [],
      "stateMutability": "nonpayable",
      "type": "function"
    },
    {
      "inputs": [
        {
          "internalType": "address",
          "name": "_nftContractAddress",
          "type": "address"
        },
        {
          "internalType": "uint256",
          "name": "_tokenId",
          "type": "uint256"
        },
        {
          "internalType": "uint128",
          "name": "_newMinPrice",
          "type": "uint128"
        }
      ],
      "name": "updateMinimumPrice",
      "outputs": [],
      "stateMutability": "nonpayable",
      "type": "function"
    },
    {
      "inputs": [
        {
          "internalType": "address",
          "name": "_nftContractAddress",
          "type": "address"
        },
        {
          "internalType": "uint256",
          "name": "_tokenId",
          "type": "uint256"
        }
      ],
      "name": "ownerOfNFT",
      "outputs": [
        {
          "internalType": "address",
          "name": "",
          "type": "address"
        }
      ],
      "stateMutability": "view",
      "type": "function"
    },
    {
      "inputs": [],
      "name": "withdrawAllFailedCredits",
      "outputs": [],
      "stateMutability": "nonpayable",
      "type": "function"
    }
  ],
  "bytecode": "0x608060405234801561001057600080fd5b506064600260006101000a81548163ffffffff021916908363ffffffff160217905550620151806002600c6101000a81548163ffffffff021916908363ffffffff1602179055506064600260046101000a81548163ffffffff021916908363ffffffff160217905550611f40600260086101000a81548163ffffffff021916908363ffffffff160217905550613a0f806100ab6000396000f3fe6080604052600436106100c25760003560e01c806347b471371161007f5780639c0b9966116100595780639c0b99661461025f578063b6ad69141461028a578063c24d5a5c146102a1578063cd4eda1c146102bd576100c2565b806347b47137146101f15780635138b08c1461021a578063565c517214610243576100c2565b8063041fa0b8146100c7578063098750da1461010c578063186779d51461013557806320950fc6146101605780632f9c95761461019d5780633d87d5fb146101c6575b600080fd5b3480156100d357600080fd5b506100ee60048036038101906100e99190612c80565b6102e8565b604051610103999897969594939291906134cd565b60405180910390f35b34801561011857600080fd5b50610133600480360381019061012e9190612d96565b61042f565b005b34801561014157600080fd5b5061014a610726565b60405161015791906134b2565b60405180910390f35b34801561016c57600080fd5b5061018760048036038101906101829190612c80565b61073c565b60405161019491906131e5565b60405180910390f35b3480156101a957600080fd5b506101c460048036038101906101bf9190612eab565b61082e565b005b3480156101d257600080fd5b506101db610a69565b6040516101e891906134b2565b60405180910390f35b3480156101fd57600080fd5b5061021860048036038101906102139190612e0d565b610a7f565b005b34801561022657600080fd5b50610241600480360381019061023c9190612c80565b610ebd565b005b61025d60048036038101906102589190612d1f565b610f19565b005b34801561026b57600080fd5b5061027461107c565b60405161028191906134b2565b60405180910390f35b34801561029657600080fd5b5061029f611092565b005b6102bb60048036038101906102b69190612cbc565b611214565b005b3480156102c957600080fd5b506102d2611273565b6040516102df91906134b2565b60405180910390f35b6000602052816000526040600020602052806000526040600020600091509150508060000160009054906101000a900463ffffffff16908060000160049054906101000a900463ffffffff16908060000160089054906101000a900467ffffffffffffffff16908060000160109054906101000a90046fffffffffffffffffffffffffffffffff16908060010160009054906101000a90046fffffffffffffffffffffffffffffffff16908060020160009054906101000a900473ffffffffffffffffffffffffffffffffffffffff16908060030160009054906101000a900473ffffffffffffffffffffffffffffffffffffffff16908060040160009054906101000a900473ffffffffffffffffffffffffffffffffffffffff16908060050160009054906101000a900473ffffffffffffffffffffffffffffffffffffffff16905089565b84843373ffffffffffffffffffffffffffffffffffffffff166000808473ffffffffffffffffffffffffffffffffffffffff1673ffffffffffffffffffffffffffffffffffffffff168152602001908152602001600020600083815260200190815260200160002060030160009054906101000a900473ffffffffffffffffffffffffffffffffffffffff1673ffffffffffffffffffffffffffffffffffffffff161415610512576040517f08c379a0000000000000000000000000000000000000000000000000000000008152600401610509906133b7565b60405180910390fd5b600073ffffffffffffffffffffffffffffffffffffffff166000808473ffffffffffffffffffffffffffffffffffffffff1673ffffffffffffffffffffffffffffffffffffffff168152602001908152602001600020600083815260200190815260200160002060030160009054906101000a900473ffffffffffffffffffffffffffffffffffffffff1673ffffffffffffffffffffffffffffffffffffffff16146106b9578173ffffffffffffffffffffffffffffffffffffffff16636352211e826040518263ffffffff1660e01b81526004016105f19190613497565b60206040518083038186803b15801561060957600080fd5b505afa15801561061d573d6000803e3d6000fd5b505050506040513d601f19601f820116820180604052508101906106419190612c57565b73ffffffffffffffffffffffffffffffffffffffff163373ffffffffffffffffffffffffffffffffffffffff16146106ae576040517f08c379a00000000000000000000000000000000000000000000000000000000081526004016106a590613377565b60405180910390fd5b6106b88282611289565b5b836fffffffffffffffffffffffffffffffff166000811161070f576040517f08c379a0000000000000000000000000000000000000000000000000000000008152600401610706906132d7565b60405180910390fd5b61071c8888888888611599565b5050505050505050565b6002600c9054906101000a900463ffffffff1681565b6000806000808573ffffffffffffffffffffffffffffffffffffffff1673ffffffffffffffffffffffffffffffffffffffff168152602001908152602001600020600084815260200190815260200160002060030160009054906101000a900473ffffffffffffffffffffffffffffffffffffffff169050600073ffffffffffffffffffffffffffffffffffffffff168173ffffffffffffffffffffffffffffffffffffffff161415610824576040517f08c379a000000000000000000000000000000000000000000000000000000000815260040161081b906132f7565b60405180910390fd5b8091505092915050565b82826000808373ffffffffffffffffffffffffffffffffffffffff1673ffffffffffffffffffffffffffffffffffffffff168152602001908152602001600020600082815260200190815260200160002060030160009054906101000a900473ffffffffffffffffffffffffffffffffffffffff1673ffffffffffffffffffffffffffffffffffffffff163373ffffffffffffffffffffffffffffffffffffffff1614610910576040517f08c379a000000000000000000000000000000000000000000000000000000000815260040161090790613317565b60405180910390fd5b848461091c82826115ad565b1561095c576040517f08c379a0000000000000000000000000000000000000000000000000000000008152600401610953906132b7565b60405180910390fd5b846fffffffffffffffffffffffffffffffff16600081116109b2576040517f08c379a00000000000000000000000000000000000000000000000000000000081526004016109a9906132d7565b60405180910390fd5b856000808a73ffffffffffffffffffffffffffffffffffffffff1673ffffffffffffffffffffffffffffffffffffffff168152602001908152602001600020600089815260200190815260200160002060000160106101000a8154816fffffffffffffffffffffffffffffffff02191690836fffffffffffffffffffffffffffffffff160217905550610a4588886115ad565b15610a5f57610a5488886116de565b610a5e8888611a77565b5b5050505050505050565b600260049054906101000a900463ffffffff1681565b86863373ffffffffffffffffffffffffffffffffffffffff166000808473ffffffffffffffffffffffffffffffffffffffff1673ffffffffffffffffffffffffffffffffffffffff168152602001908152602001600020600083815260200190815260200160002060030160009054906101000a900473ffffffffffffffffffffffffffffffffffffffff1673ffffffffffffffffffffffffffffffffffffffff161415610b62576040517f08c379a0000000000000000000000000000000000000000000000000000000008152600401610b59906133b7565b60405180910390fd5b600073ffffffffffffffffffffffffffffffffffffffff166000808473ffffffffffffffffffffffffffffffffffffffff1673ffffffffffffffffffffffffffffffffffffffff168152602001908152602001600020600083815260200190815260200160002060030160009054906101000a900473ffffffffffffffffffffffffffffffffffffffff1673ffffffffffffffffffffffffffffffffffffffff1614610d09578173ffffffffffffffffffffffffffffffffffffffff16636352211e826040518263ffffffff1660e01b8152600401610c419190613497565b60206040518083038186803b158015610c5957600080fd5b505afa158015610c6d573d6000803e3d6000fd5b505050506040513d601f19601f82011682018060405250810190610c919190612c57565b73ffffffffffffffffffffffffffffffffffffffff163373ffffffffffffffffffffffffffffffffffffffff1614610cfe576040517f08c379a0000000000000000000000000000000000000000000000000000000008152600401610cf590613377565b60405180910390fd5b610d088282611289565b5b856fffffffffffffffffffffffffffffffff1660008111610d5f576040517f08c379a0000000000000000000000000000000000000000000000000000000008152600401610d56906132d7565b60405180910390fd5b83600260049054906101000a900463ffffffff1663ffffffff168163ffffffff161015610dc1576040517f08c379a0000000000000000000000000000000000000000000000000000000008152600401610db890613297565b60405180910390fd5b856000808d73ffffffffffffffffffffffffffffffffffffffff1673ffffffffffffffffffffffffffffffffffffffff16815260200190815260200160002060008c815260200190815260200160002060000160046101000a81548163ffffffff021916908363ffffffff160217905550846000808d73ffffffffffffffffffffffffffffffffffffffff1673ffffffffffffffffffffffffffffffffffffffff16815260200190815260200160002060008c815260200190815260200160002060000160006101000a81548163ffffffff021916908363ffffffff160217905550610eb08b8b8b8b8b611599565b5050505050505050505050565b8181610ec98282611b0e565b15610f09576040517f08c379a0000000000000000000000000000000000000000000000000000000008152600401610f00906133f7565b60405180910390fd5b610f138484611ba5565b50505050565b8484610f258282611b0e565b610f64576040517f08c379a0000000000000000000000000000000000000000000000000000000008152600401610f5b90613357565b60405180910390fd5b82600073ffffffffffffffffffffffffffffffffffffffff168173ffffffffffffffffffffffffffffffffffffffff161415610fd5576040517f08c379a0000000000000000000000000000000000000000000000000000000008152600401610fcc90613457565b60405180910390fd5b836000808a73ffffffffffffffffffffffffffffffffffffffff1673ffffffffffffffffffffffffffffffffffffffff168152602001908152602001600020600089815260200190815260200160002060040160006101000a81548173ffffffffffffffffffffffffffffffffffffffff021916908373ffffffffffffffffffffffffffffffffffffffff16021790555061107288888888611d9f565b5050505050505050565b600260009054906101000a900463ffffffff1681565b6000600160003373ffffffffffffffffffffffffffffffffffffffff1673ffffffffffffffffffffffffffffffffffffffff168152602001908152602001600020549050600081141561111a576040517f08c379a000000000000000000000000000000000000000000000000000000000815260040161111190613397565b60405180910390fd5b6000600160003373ffffffffffffffffffffffffffffffffffffffff1673ffffffffffffffffffffffffffffffffffffffff1681526020019081526020016000208190555060003373ffffffffffffffffffffffffffffffffffffffff1682614e2090604051611189906131d0565b600060405180830381858888f193505050503d80600081146111c7576040519150601f19603f3d011682016040523d82523d6000602084013e6111cc565b606091505b5050905080611210576040517f08c379a000000000000000000000000000000000000000000000000000000000815260040161120790613477565b60405180910390fd5b5050565b83836112208282611b0e565b61125f576040517f08c379a000000000000000000000000000000000000000000000000000000000815260040161125690613357565b60405180910390fd5b61126b86868686611d9f565b505050505050565b600260089054906101000a900463ffffffff1681565b60008060008473ffffffffffffffffffffffffffffffffffffffff1673ffffffffffffffffffffffffffffffffffffffff168152602001908152602001600020600083815260200190815260200160002060000160106101000a8154816fffffffffffffffffffffffffffffffff02191690836fffffffffffffffffffffffffffffffff16021790555060008060008473ffffffffffffffffffffffffffffffffffffffff1673ffffffffffffffffffffffffffffffffffffffff168152602001908152602001600020600083815260200190815260200160002060000160086101000a81548167ffffffffffffffff021916908367ffffffffffffffff16021790555060008060008473ffffffffffffffffffffffffffffffffffffffff1673ffffffffffffffffffffffffffffffffffffffff168152602001908152602001600020600083815260200190815260200160002060000160046101000a81548163ffffffff021916908363ffffffff16021790555060008060008473ffffffffffffffffffffffffffffffffffffffff1673ffffffffffffffffffffffffffffffffffffffff168152602001908152602001600020600083815260200190815260200160002060000160006101000a81548163ffffffff021916908363ffffffff16021790555060008060008473ffffffffffffffffffffffffffffffffffffffff1673ffffffffffffffffffffffffffffffffffffffff168152602001908152602001600020600083815260200190815260200160002060030160006101000a81548173ffffffffffffffffffffffffffffffffffffffff021916908373ffffffffffffffffffffffffffffffffffffffff16021790555060008060008473ffffffffffffffffffffffffffffffffffffffff1673ffffffffffffffffffffffffffffffffffffffff168152602001908152602001600020600083815260200190815260200160002060050160006101000a81548173ffffffffffffffffffffffffffffffffffffffff021916908373ffffffffffffffffffffffffffffffffffffffff1602179055505050565b6115a68585858585611ee8565b5050505050565b6000806000808573ffffffffffffffffffffffffffffffffffffffff1673ffffffffffffffffffffffffffffffffffffffff168152602001908152602001600020600084815260200190815260200160002060000160109054906101000a90046fffffffffffffffffffffffffffffffff1690506000816fffffffffffffffffffffffffffffffff161180156116d55750806fffffffffffffffffffffffffffffffff166000808673ffffffffffffffffffffffffffffffffffffffff1673ffffffffffffffffffffffffffffffffffffffff168152602001908152602001600020600085815260200190815260200160002060010160009054906101000a90046fffffffffffffffffffffffffffffffff166fffffffffffffffffffffffffffffffff1610155b91505092915050565b60008060008473ffffffffffffffffffffffffffffffffffffffff1673ffffffffffffffffffffffffffffffffffffffff168152602001908152602001600020600083815260200190815260200160002060030160009054906101000a900473ffffffffffffffffffffffffffffffffffffffff1690508073ffffffffffffffffffffffffffffffffffffffff168373ffffffffffffffffffffffffffffffffffffffff16636352211e846040518263ffffffff1660e01b81526004016117a59190613497565b60206040518083038186803b1580156117bd57600080fd5b505afa1580156117d1573d6000803e3d6000fd5b505050506040513d601f19601f820116820180604052508101906117f59190612c57565b73ffffffffffffffffffffffffffffffffffffffff16141561197b578273ffffffffffffffffffffffffffffffffffffffff166323b872dd8230856040518463ffffffff1660e01b815260040161184e93929190613237565b600060405180830381600087803b15801561186857600080fd5b505af115801561187c573d6000803e3d6000fd5b505050503073ffffffffffffffffffffffffffffffffffffffff168373ffffffffffffffffffffffffffffffffffffffff16636352211e846040518263ffffffff1660e01b81526004016118d09190613497565b60206040518083038186803b1580156118e857600080fd5b505afa1580156118fc573d6000803e3d6000fd5b505050506040513d601f19601f820116820180604052508101906119209190612c57565b73ffffffffffffffffffffffffffffffffffffffff1614611976576040517f08c379a000000000000000000000000000000000000000000000000000000000815260040161196d90613337565b60405180910390fd5b611a72565b3073ffffffffffffffffffffffffffffffffffffffff168373ffffffffffffffffffffffffffffffffffffffff16636352211e846040518263ffffffff1660e01b81526004016119cb9190613497565b60206040518083038186803b1580156119e357600080fd5b505afa1580156119f7573d6000803e3d6000fd5b505050506040513d601f19601f82011682018060405250810190611a1b9190612c57565b73ffffffffffffffffffffffffffffffffffffffff1614611a71576040517f08c379a0000000000000000000000000000000000000000000000000000000008152600401611a68906133d7565b60405180910390fd5b5b505050565b42611a8283836120cf565b63ffffffff16611a9291906135cc565b6000808473ffffffffffffffffffffffffffffffffffffffff1673ffffffffffffffffffffffffffffffffffffffff168152602001908152602001600020600083815260200190815260200160002060000160086101000a81548167ffffffffffffffff021916908367ffffffffffffffff1602179055505050565b6000806000808573ffffffffffffffffffffffffffffffffffffffff1673ffffffffffffffffffffffffffffffffffffffff168152602001908152602001600020600084815260200190815260200160002060000160089054906101000a900467ffffffffffffffff16905060008167ffffffffffffffff161480611b9c57508067ffffffffffffffff1642105b91505092915050565b60008060008473ffffffffffffffffffffffffffffffffffffffff1673ffffffffffffffffffffffffffffffffffffffff168152602001908152602001600020600083815260200190815260200160002060030160009054906101000a900473ffffffffffffffffffffffffffffffffffffffff16905060008060008573ffffffffffffffffffffffffffffffffffffffff1673ffffffffffffffffffffffffffffffffffffffff168152602001908152602001600020600084815260200190815260200160002060020160009054906101000a900473ffffffffffffffffffffffffffffffffffffffff1690506000611c9f858561216c565b905060008060008773ffffffffffffffffffffffffffffffffffffffff1673ffffffffffffffffffffffffffffffffffffffff168152602001908152602001600020600086815260200190815260200160002060010160009054906101000a90046fffffffffffffffffffffffffffffffff169050611d1e868661229f565b8573ffffffffffffffffffffffffffffffffffffffff166323b872dd3084886040518463ffffffff1660e01b8152600401611d5b93929190613237565b600060405180830381600087803b158015611d7557600080fd5b505af1158015611d89573d6000803e3d6000fd5b50505050611d978686611289565b505050505050565b83836000808373ffffffffffffffffffffffffffffffffffffffff1673ffffffffffffffffffffffffffffffffffffffff168152602001908152602001600020600082815260200190815260200160002060030160009054906101000a900473ffffffffffffffffffffffffffffffffffffffff1673ffffffffffffffffffffffffffffffffffffffff163373ffffffffffffffffffffffffffffffffffffffff161415611e82576040517f08c379a0000000000000000000000000000000000000000000000000000000008152600401611e7990613437565b60405180910390fd5b85858585611e9284848484612451565b611ed1576040517f08c379a0000000000000000000000000000000000000000000000000000000008152600401611ec890613417565b60405180910390fd5b611edc8a8a8961259f565b50505050505050505050565b600073ffffffffffffffffffffffffffffffffffffffff168373ffffffffffffffffffffffffffffffffffffffff1614611fae57826000808773ffffffffffffffffffffffffffffffffffffffff1673ffffffffffffffffffffffffffffffffffffffff168152602001908152602001600020600086815260200190815260200160002060050160006101000a81548173ffffffffffffffffffffffffffffffffffffffff021916908373ffffffffffffffffffffffffffffffffffffffff1602179055505b816000808773ffffffffffffffffffffffffffffffffffffffff1673ffffffffffffffffffffffffffffffffffffffff168152602001908152602001600020600086815260200190815260200160002060000160106101000a8154816fffffffffffffffffffffffffffffffff02191690836fffffffffffffffffffffffffffffffff160217905550336000808773ffffffffffffffffffffffffffffffffffffffff1673ffffffffffffffffffffffffffffffffffffffff168152602001908152602001600020600086815260200190815260200160002060030160006101000a81548173ffffffffffffffffffffffffffffffffffffffff021916908373ffffffffffffffffffffffffffffffffffffffff1602179055505050505050565b6000806000808573ffffffffffffffffffffffffffffffffffffffff1673ffffffffffffffffffffffffffffffffffffffff168152602001908152602001600020600084815260200190815260200160002060000160049054906101000a900463ffffffff16905060008163ffffffff161415612161576002600c9054906101000a900463ffffffff16915050612166565b809150505b92915050565b6000806000808573ffffffffffffffffffffffffffffffffffffffff1673ffffffffffffffffffffffffffffffffffffffff168152602001908152602001600020600084815260200190815260200160002060040160009054906101000a900473ffffffffffffffffffffffffffffffffffffffff169050600073ffffffffffffffffffffffffffffffffffffffff168173ffffffffffffffffffffffffffffffffffffffff161415612294576000808573ffffffffffffffffffffffffffffffffffffffff1673ffffffffffffffffffffffffffffffffffffffff168152602001908152602001600020600084815260200190815260200160002060020160009054906101000a900473ffffffffffffffffffffffffffffffffffffffff16915050612299565b809150505b92915050565b60008060008473ffffffffffffffffffffffffffffffffffffffff1673ffffffffffffffffffffffffffffffffffffffff168152602001908152602001600020600083815260200190815260200160002060020160006101000a81548173ffffffffffffffffffffffffffffffffffffffff021916908373ffffffffffffffffffffffffffffffffffffffff16021790555060008060008473ffffffffffffffffffffffffffffffffffffffff1673ffffffffffffffffffffffffffffffffffffffff168152602001908152602001600020600083815260200190815260200160002060010160006101000a8154816fffffffffffffffffffffffffffffffff02191690836fffffffffffffffffffffffffffffffff16021790555060008060008473ffffffffffffffffffffffffffffffffffffffff1673ffffffffffffffffffffffffffffffffffffffff168152602001908152602001600020600083815260200190815260200160002060040160006101000a81548173ffffffffffffffffffffffffffffffffffffffff021916908373ffffffffffffffffffffffffffffffffffffffff1602179055505050565b6000806000808773ffffffffffffffffffffffffffffffffffffffff1673ffffffffffffffffffffffffffffffffffffffff168152602001908152602001600020600086815260200190815260200160002060050160009054906101000a900473ffffffffffffffffffffffffffffffffffffffff1690506124d2816126ee565b156125385760003414801561251257508373ffffffffffffffffffffffffffffffffffffffff168173ffffffffffffffffffffffffffffffffffffffff16145b801561253057506000836fffffffffffffffffffffffffffffffff16115b915050612597565b600034141580156125755750600073ffffffffffffffffffffffffffffffffffffffff168473ffffffffffffffffffffffffffffffffffffffff16145b801561259357506000836fffffffffffffffffffffffffffffffff16145b9150505b949350505050565b60008060008573ffffffffffffffffffffffffffffffffffffffff1673ffffffffffffffffffffffffffffffffffffffff168152602001908152602001600020600084815260200190815260200160002060020160009054906101000a900473ffffffffffffffffffffffffffffffffffffffff16905060008060008673ffffffffffffffffffffffffffffffffffffffff1673ffffffffffffffffffffffffffffffffffffffff168152602001908152602001600020600085815260200190815260200160002060010160009054906101000a90046fffffffffffffffffffffffffffffffff166fffffffffffffffffffffffffffffffff1690506126a6858585612727565b600073ffffffffffffffffffffffffffffffffffffffff168273ffffffffffffffffffffffffffffffffffffffff16146126e7576126e6858584846129eb565b5b5050505050565b60008073ffffffffffffffffffffffffffffffffffffffff168273ffffffffffffffffffffffffffffffffffffffff1614159050919050565b60008060008573ffffffffffffffffffffffffffffffffffffffff1673ffffffffffffffffffffffffffffffffffffffff168152602001908152602001600020600084815260200190815260200160002060050160009054906101000a900473ffffffffffffffffffffffffffffffffffffffff1690506127a7816126ee565b156128ca578073ffffffffffffffffffffffffffffffffffffffff166323b872dd3330856040518463ffffffff1660e01b81526004016127e993929190613200565b602060405180830381600087803b15801561280357600080fd5b505af1158015612817573d6000803e3d6000fd5b505050506040513d601f19601f8201168201806040525081019061283b9190612efa565b50816000808673ffffffffffffffffffffffffffffffffffffffff1673ffffffffffffffffffffffffffffffffffffffff168152602001908152602001600020600085815260200190815260200160002060010160006101000a8154816fffffffffffffffffffffffffffffffff02191690836fffffffffffffffffffffffffffffffff160217905550612954565b346000808673ffffffffffffffffffffffffffffffffffffffff1673ffffffffffffffffffffffffffffffffffffffff168152602001908152602001600020600085815260200190815260200160002060010160006101000a8154816fffffffffffffffffffffffffffffffff02191690836fffffffffffffffffffffffffffffffff1602179055505b336000808673ffffffffffffffffffffffffffffffffffffffff1673ffffffffffffffffffffffffffffffffffffffff168152602001908152602001600020600085815260200190815260200160002060020160006101000a81548173ffffffffffffffffffffffffffffffffffffffff021916908373ffffffffffffffffffffffffffffffffffffffff16021790555050505050565b60008060008673ffffffffffffffffffffffffffffffffffffffff1673ffffffffffffffffffffffffffffffffffffffff168152602001908152602001600020600085815260200190815260200160002060050160009054906101000a900473ffffffffffffffffffffffffffffffffffffffff169050612a6b816126ee565b15612b03578073ffffffffffffffffffffffffffffffffffffffff1663a9059cbb84846040518363ffffffff1660e01b8152600401612aab92919061326e565b602060405180830381600087803b158015612ac557600080fd5b505af1158015612ad9573d6000803e3d6000fd5b505050506040513d601f19601f82011682018060405250810190612afd9190612efa565b50612bd2565b60008373ffffffffffffffffffffffffffffffffffffffff1683614e2090604051612b2d906131d0565b600060405180830381858888f193505050503d8060008114612b6b576040519150601f19603f3d011682016040523d82523d6000602084013e612b70565b606091505b5050905080612bd05782600160008673ffffffffffffffffffffffffffffffffffffffff1673ffffffffffffffffffffffffffffffffffffffff1681526020019081526020016000206000828254612bc89190613576565b925050819055505b505b5050505050565b600081359050612be881613966565b92915050565b600081519050612bfd81613966565b92915050565b600081519050612c128161397d565b92915050565b600081359050612c2781613994565b92915050565b600081359050612c3c816139ab565b92915050565b600081359050612c51816139c2565b92915050565b600060208284031215612c6957600080fd5b6000612c7784828501612bee565b91505092915050565b60008060408385031215612c9357600080fd5b6000612ca185828601612bd9565b9250506020612cb285828601612c2d565b9150509250929050565b60008060008060808587031215612cd257600080fd5b6000612ce087828801612bd9565b9450506020612cf187828801612c2d565b9350506040612d0287828801612bd9565b9250506060612d1387828801612c18565b91505092959194509250565b600080600080600060a08688031215612d3757600080fd5b6000612d4588828901612bd9565b9550506020612d5688828901612c2d565b9450506040612d6788828901612bd9565b9350506060612d7888828901612c18565b9250506080612d8988828901612bd9565b9150509295509295909350565b600080600080600060a08688031215612dae57600080fd5b6000612dbc88828901612bd9565b9550506020612dcd88828901612c2d565b9450506040612dde88828901612bd9565b9350506060612def88828901612c18565b9250506080612e0088828901612c18565b9150509295509295909350565b600080600080600080600060e0888a031215612e2857600080fd5b6000612e368a828b01612bd9565b9750506020612e478a828b01612c2d565b9650506040612e588a828b01612bd9565b9550506060612e698a828b01612c18565b9450506080612e7a8a828b01612c18565b93505060a0612e8b8a828b01612c42565b92505060c0612e9c8a828b01612c42565b91505092959891949750929550565b600080600060608486031215612ec057600080fd5b6000612ece86828701612bd9565b9350506020612edf86828701612c2d565b9250506040612ef086828701612c18565b9150509250925092565b600060208284031215612f0c57600080fd5b6000612f1a84828501612c03565b91505092915050565b612f2c8161360a565b82525050565b6000612f3f601f83613565565b9150612f4a826136d3565b602082019050919050565b6000612f62602083613565565b9150612f6d826136fc565b602082019050919050565b6000612f85601183613565565b9150612f9082613725565b602082019050919050565b6000612fa8601183613565565b9150612fb38261374e565b602082019050919050565b6000612fcb600f83613565565b9150612fd682613777565b602082019050919050565b6000612fee601383613565565b9150612ff9826137a0565b602082019050919050565b6000613011601183613565565b915061301c826137c9565b602082019050919050565b6000613034601683613565565b915061303f826137f2565b602082019050919050565b6000613057601683613565565b91506130628261381b565b602082019050919050565b600061307a602083613565565b915061308582613844565b602082019050919050565b600061309d601683613565565b91506130a88261386d565b602082019050919050565b60006130c0601783613565565b91506130cb82613896565b602082019050919050565b60006130e360008361355a565b91506130ee826138bf565b600082019050919050565b6000613106602083613565565b9150613111826138c2565b602082019050919050565b6000613129601b83613565565b9150613134826138eb565b602082019050919050565b600061314c601883613565565b915061315782613914565b602082019050919050565b600061316f600f83613565565b915061317a8261393d565b602082019050919050565b61318e81613628565b82525050565b61319d81613692565b82525050565b6131ac81613664565b82525050565b6131bb8161366e565b82525050565b6131ca8161367e565b82525050565b60006131db826130d6565b9150819050919050565b60006020820190506131fa6000830184612f23565b92915050565b60006060820190506132156000830186612f23565b6132226020830185612f23565b61322f6040830184613194565b949350505050565b600060608201905061324c6000830186612f23565b6132596020830185612f23565b61326660408301846131a3565b949350505050565b60006040820190506132836000830185612f23565b61329060208301846131a3565b9392505050565b600060208201905081810360008301526132b081612f32565b9050919050565b600060208201905081810360008301526132d081612f55565b9050919050565b600060208201905081810360008301526132f081612f78565b9050919050565b6000602082019050818103600083015261331081612f9b565b9050919050565b6000602082019050818103600083015261333081612fbe565b9050919050565b6000602082019050818103600083015261335081612fe1565b9050919050565b6000602082019050818103600083015261337081613004565b9050919050565b6000602082019050818103600083015261339081613027565b9050919050565b600060208201905081810360008301526133b08161304a565b9050919050565b600060208201905081810360008301526133d08161306d565b9050919050565b600060208201905081810360008301526133f081613090565b9050919050565b60006020820190508181036000830152613410816130b3565b9050919050565b60006020820190508181036000830152613430816130f9565b9050919050565b600060208201905081810360008301526134508161311c565b9050919050565b600060208201905081810360008301526134708161313f565b9050919050565b6000602082019050818103600083015261349081613162565b9050919050565b60006020820190506134ac60008301846131a3565b92915050565b60006020820190506134c760008301846131b2565b92915050565b6000610120820190506134e3600083018c6131b2565b6134f0602083018b6131b2565b6134fd604083018a6131c1565b61350a6060830189613185565b6135176080830188613185565b61352460a0830187612f23565b61353160c0830186612f23565b61353e60e0830185612f23565b61354c610100830184612f23565b9a9950505050505050505050565b600081905092915050565b600082825260208201905092915050565b600061358182613664565b915061358c83613664565b9250827fffffffffffffffffffffffffffffffffffffffffffffffffffffffffffffffff038211156135c1576135c06136a4565b5b828201905092915050565b60006135d78261367e565b91506135e28361367e565b92508267ffffffffffffffff038211156135ff576135fe6136a4565b5b828201905092915050565b600061361582613644565b9050919050565b60008115159050919050565b60006fffffffffffffffffffffffffffffffff82169050919050565b600073ffffffffffffffffffffffffffffffffffffffff82169050919050565b6000819050919050565b600063ffffffff82169050919050565b600067ffffffffffffffff82169050919050565b600061369d82613628565b9050919050565b7f4e487b7100000000000000000000000000000000000000000000000000000000600052601160045260246000fd5b7f42696420696e6372656173652070657263656e7461676520746f6f206c6f7700600082015250565b7f5468652061756374696f6e2068617320612076616c696420626964206d616465600082015250565b7f50726963652063616e6e6f742062652030000000000000000000000000000000600082015250565b7f4e4654206e6f74206465706f7369746564000000000000000000000000000000600082015250565b7f4f6e6c79206e66742073656c6c65720000000000000000000000000000000000600082015250565b7f6e6674207472616e73666572206661696c656400000000000000000000000000600082015250565b7f41756374696f6e2068617320656e646564000000000000000000000000000000600082015250565b7f53656e64657220646f65736e2774206f776e204e465400000000000000000000600082015250565b7f6e6f206372656469747320746f20776974686472617700000000000000000000600082015250565b7f41756374696f6e20616c72656164792073746172746564206279206f776e6572600082015250565b7f53656c6c657220646f65736e2774206f776e204e465400000000000000000000600082015250565b7f41756374696f6e206973206e6f7420796574206f766572000000000000000000600082015250565b50565b7f42696420746f20626520696e207370656369666965642045524332302f457468600082015250565b7f4f776e65722063616e6e6f7420626964206f6e206f776e204e46540000000000600082015250565b7f43616e6e6f742073706563696679203020616464726573730000000000000000600082015250565b7f7769746864726177206661696c65640000000000000000000000000000000000600082015250565b61396f8161360a565b811461397a57600080fd5b50565b6139868161361c565b811461399157600080fd5b50565b61399d81613628565b81146139a857600080fd5b50565b6139b481613664565b81146139bf57600080fd5b50565b6139cb8161366e565b81146139d657600080fd5b5056fea2646970667358221220011c290b64c209fff2c4d91c83f0321daa39e30e6cf28f3995e5fd4063becb8064736f6c63430008030033",
  "immutableReferences": {},
  "source": "// SPDX-License-Identifier: MIT\npragma solidity ^0.8.0;\n\nimport \"@openzeppelin/contracts/token/ERC721/IERC721.sol\";\nimport \"@openzeppelin/contracts/token/ERC721/IERC721Receiver.sol\";\nimport \"@openzeppelin/contracts/token/ERC20/IERC20.sol\";\n\n\ncontract AuctionNFT {\n    mapping(address => mapping(uint256 => Auction)) public nftContractAuctions;\n    mapping(address => uint256) failedTransferCredits;\n    \n    //Each Auction is unique to each NFT (contract + id pairing).\n    struct Auction {\n        //map token ID to\n        uint32 bidIncreasePercentage;\n        uint32 auctionBidPeriod; //Increments the length of time the auction is open in which a new bid can be made after each bid.\n        uint64 auctionEnd;\n        uint128 minPrice;\n        // uint128 buyNowPrice;\n        uint128 nftHighestBid;\n        address nftHighestBidder;\n        address nftSeller;\n        address nftRecipient; //The bidder can specify a recipient for the NFT if their bid is successful.\n        address ERC20Token; // The seller can specify an ERC20 token that can be used to bid or purchase the NFT.\n\n    }\n    /*\n     * Default values that are used if not specified by the NFT seller.\n     */\n    uint32 public defaultBidIncreasePercentage;\n    uint32 public minimumSettableIncreasePercentage;\n    uint32 public maximumMinPricePercentage;\n    uint32 public defaultAuctionBidPeriod;\n\n    /*\n                MODIFIERS          \n      */\n\n    modifier isAuctionNotStartedByOwner(\n        address _nftContractAddress,\n        uint256 _tokenId\n    ) {\n        require(\n            nftContractAuctions[_nftContractAddress][_tokenId].nftSeller !=\n                msg.sender,\n            \"Auction already started by owner\"\n        );\n\n        if (\n            nftContractAuctions[_nftContractAddress][_tokenId].nftSeller !=\n            address(0)\n        ) {\n            require(\n                msg.sender == IERC721(_nftContractAddress).ownerOf(_tokenId),\n                \"Sender doesn't own NFT\"\n            );\n\n            _resetAuction(_nftContractAddress, _tokenId);\n        }\n        _;\n    }\n\n    modifier auctionOngoing(address _nftContractAddress, uint256 _tokenId) {\n        require(\n            _isAuctionOngoing(_nftContractAddress, _tokenId),\n            \"Auction has ended\"\n        );\n        _;\n    }\n\n    modifier priceGreaterThanZero(uint256 _price) {\n        require(_price > 0, \"Price cannot be 0\");\n        _;\n    }\n\n    modifier notNftSeller(address _nftContractAddress, uint256 _tokenId) {\n        require(\n            msg.sender !=\n                nftContractAuctions[_nftContractAddress][_tokenId].nftSeller,\n            \"Owner cannot bid on own NFT\"\n        );\n        _;\n    }\n    modifier onlyNftSeller(address _nftContractAddress, uint256 _tokenId) {\n        require(\n            msg.sender ==\n                nftContractAuctions[_nftContractAddress][_tokenId].nftSeller,\n            \"Only nft seller\"\n        );\n        _;\n    }\n  \n    modifier minimumBidNotMade(address _nftContractAddress, uint256 _tokenId) {\n        require(\n            !_isMinimumBidMade(_nftContractAddress, _tokenId),\n            \"The auction has a valid bid made\"\n        );\n        _;\n    }\n\n    /*\n     * Payment is accepted if the payment is made in the ERC20 token or ETH specified by the seller.\n     * Early bids on NFTs not yet up for auction must be made in ETH.\n     */\n    modifier paymentAccepted(\n        address _nftContractAddress,\n        uint256 _tokenId,\n        address _erc20Token,\n        uint128 _tokenAmount\n    ) {\n        require(\n            _isPaymentAccepted(\n                _nftContractAddress,\n                _tokenId,\n                _erc20Token,\n                _tokenAmount\n            ),\n            \"Bid to be in specified ERC20/Eth\"\n        );\n        _;\n    }\n\n    modifier isAuctionOver(address _nftContractAddress, uint256 _tokenId) {\n        require(\n            !_isAuctionOngoing(_nftContractAddress, _tokenId),\n            \"Auction is not yet over\"\n        );\n        _;\n    }\n\n    modifier notZeroAddress(address _address) {\n        require(_address != address(0), \"Cannot specify 0 address\");\n        _;\n    }\n\n    modifier increasePercentageAboveMinimum(uint32 _bidIncreasePercentage) {\n        require(\n            _bidIncreasePercentage >= minimumSettableIncreasePercentage,\n            \"Bid increase percentage too low\"\n        );\n        _;\n    }\n\n \n    /**********************************/\n    /*\n                   END             \n                MODIFIERS          \n      */\n    /**********************************/\n    // constructor\n    constructor() {\n        defaultBidIncreasePercentage = 100;\n        defaultAuctionBidPeriod = 86400; //1 day\n        minimumSettableIncreasePercentage = 100;\n        maximumMinPricePercentage = 8000;\n    }\n\n    /*\n          AUCTION CHECK FUNCTIONS   \n      */\n    function _isAuctionOngoing(address _nftContractAddress, uint256 _tokenId)\n        internal\n        view\n        returns (bool)\n    {\n        uint64 auctionEndTimestamp = nftContractAuctions[_nftContractAddress][\n            _tokenId\n        ].auctionEnd;\n        //if the auctionEnd is set to 0, the auction is technically on-going, however\n        //the minimum bid price (minPrice) has not yet been met.\n        return (auctionEndTimestamp == 0 ||\n            block.timestamp < auctionEndTimestamp);\n    }\n\n    /*\n     * Check if a bid has been made. This is applicable in the early bid scenario\n     * to ensure that if an auction is created after an early bid, the auction\n     * begins appropriately or is settled if the buy now price is met.\n     */\n    function _isABidMade(address _nftContractAddress, uint256 _tokenId)\n        internal\n        view\n        returns (bool)\n    {\n        return (nftContractAuctions[_nftContractAddress][_tokenId]\n            .nftHighestBid > 0);\n    }\n\n    /*\n     *if the minPrice is set by the seller, check that the highest bid meets or exceeds that price.\n     */\n    function _isMinimumBidMade(address _nftContractAddress, uint256 _tokenId)\n        internal\n        view\n        returns (bool)\n    {\n        uint128 minPrice = nftContractAuctions[_nftContractAddress][_tokenId]\n            .minPrice;\n        return\n            minPrice > 0 &&\n            (nftContractAuctions[_nftContractAddress][_tokenId].nftHighestBid >=\n                minPrice);\n    }\n\n \n    /**\n     * Payment is accepted in the following scenarios:\n     * (1) Auction already created - can accept ETH or Specified Token\n     *  --------> Cannot bid with ETH & an ERC20 Token together in any circumstance<------\n     * (2) Auction not created - only ETH accepted (cannot early bid with an ERC20 Token\n     * (3) Cannot make a zero bid (no ETH or Token amount)\n     */\n    function _isPaymentAccepted(\n        address _nftContractAddress,\n        uint256 _tokenId,\n        address _bidERC20Token,\n        uint128 _tokenAmount) internal view returns (bool) {\n        address auctionERC20Token = nftContractAuctions[_nftContractAddress][\n            _tokenId\n        ].ERC20Token;\n        if (_isERC20Auction(auctionERC20Token)) {\n            return\n                msg.value == 0 &&\n                auctionERC20Token == _bidERC20Token &&\n                _tokenAmount > 0;\n        } else {\n            return\n                msg.value != 0 &&\n                _bidERC20Token == address(0) &&\n                _tokenAmount == 0;\n        }\n    }\n\n    function _isERC20Auction(address _auctionERC20Token)\n        internal\n        pure\n        returns (bool)\n    {\n        return _auctionERC20Token != address(0);\n    }\n\n    /*\n     * Returns the percentage of the total bid (used to calculate fee payments)\n     */\n    function _getPortionOfBid(uint256 _totalBid, uint256 _percentage)\n        internal\n        pure\n        returns (uint256)\n    {\n        return (_totalBid * (_percentage)) / 10000;\n    }\n\n   \n    /***************************************************************\n     * These functions check if the applicable auction parameter has *\n     * been set by the NFT seller. If not, return the default value. *\n     *****************************************************************/\n\n    function _getBidIncreasePercentage(\n        address _nftContractAddress,\n        uint256 _tokenId\n    ) internal view returns (uint32) {\n        uint32 bidIncreasePercentage = nftContractAuctions[_nftContractAddress][\n            _tokenId\n        ].bidIncreasePercentage;\n\n        if (bidIncreasePercentage == 0) {\n            return defaultBidIncreasePercentage;\n        } else {\n            return bidIncreasePercentage;\n        }\n    }\n\n    function _getAuctionBidPeriod(address _nftContractAddress, uint256 _tokenId)\n        internal\n        view\n        returns (uint32)\n    {\n        uint32 auctionBidPeriod = nftContractAuctions[_nftContractAddress][\n            _tokenId\n        ].auctionBidPeriod;\n\n        if (auctionBidPeriod == 0) {\n            return defaultAuctionBidPeriod;\n        } else {\n            return auctionBidPeriod;\n        }\n    }\n\n    /*\n     * The default value for the NFT recipient is the highest bidder\n     */\n    function _getNftRecipient(address _nftContractAddress, uint256 _tokenId)\n        internal\n        view\n        returns (address)\n    {\n        address nftRecipient = nftContractAuctions[_nftContractAddress][\n            _tokenId\n        ].nftRecipient;\n\n        if (nftRecipient == address(0)) {\n            return\n                nftContractAuctions[_nftContractAddress][_tokenId]\n                    .nftHighestBidder;\n        } else {\n            return nftRecipient;\n        }\n    }\n\n    function _transferNftToAuctionContract(\n        address _nftContractAddress,\n        uint256 _tokenId\n    ) internal {\n        address _nftSeller = nftContractAuctions[_nftContractAddress][_tokenId]\n            .nftSeller;\n        if (IERC721(_nftContractAddress).ownerOf(_tokenId) == _nftSeller) {\n            IERC721(_nftContractAddress).transferFrom(\n                _nftSeller,\n                address(this),\n                _tokenId\n            );\n            require(\n                IERC721(_nftContractAddress).ownerOf(_tokenId) == address(this),\n                \"nft transfer failed\"\n            );\n        } else {\n            require(\n                IERC721(_nftContractAddress).ownerOf(_tokenId) == address(this),\n                \"Seller doesn't own NFT\"\n            );\n        }\n    }\n\n \n    /*\n             AUCTION CREATION       \n      */\n\n    /**\n     * Setup parameters applicable to all auctions and whitelised sales:\n     * -> ERC20 Token for payment (if specified by the seller) : _erc20Token\n     * -> minimum price : _minPrice\n     * -> buy now price : _buyNowPrice\n     * -> the nft seller: msg.sender\n     */\n    function _setupAuction(\n        address _nftContractAddress,\n        uint256 _tokenId,\n        address _erc20Token,\n        uint128 _minPrice,\n        uint128 _buyNowPrice\n    )\n        internal\n    {\n        if (_erc20Token != address(0)) {\n            nftContractAuctions[_nftContractAddress][_tokenId]\n                .ERC20Token = _erc20Token;\n        }\n        \n    \n        nftContractAuctions[_nftContractAddress][_tokenId].minPrice = _minPrice;\n        nftContractAuctions[_nftContractAddress][_tokenId].nftSeller = msg\n            .sender;\n    }\n\n    function _createNewNftAuction(\n        address _nftContractAddress,\n        uint256 _tokenId,\n        address _erc20Token,\n        uint128 _minPrice,\n        uint128 _buyNowPrice\n    ) internal {\n        // Sending the NFT to this contract\n        _setupAuction(\n            _nftContractAddress,\n            _tokenId,\n            _erc20Token,\n            _minPrice,\n            _buyNowPrice\n        );\n      \n    }\n\n    /**\n     * Create an auction that uses the default bid increase percentage\n     * & the default auction bid period.\n     */\n    function createDefaultNftAuction(\n        address _nftContractAddress,\n        uint256 _tokenId,\n        address _erc20Token,\n        uint128 _minPrice,\n        uint128 _buyNowPrice\n    )\n        external\n        isAuctionNotStartedByOwner(_nftContractAddress, _tokenId)\n        priceGreaterThanZero(_minPrice)\n    {\n        _createNewNftAuction(\n            _nftContractAddress,\n            _tokenId,\n            _erc20Token,\n            _minPrice,\n            _buyNowPrice\n        );\n    }\n\n    function createNewNftAuction(\n        address _nftContractAddress,\n        uint256 _tokenId,\n        address _erc20Token,\n        uint128 _minPrice,\n        uint128 _buyNowPrice,\n        uint32 _auctionBidPeriod, //this is the time that the auction lasts until another bid occurs\n        uint32 _bidIncreasePercentage)\n        external\n        isAuctionNotStartedByOwner(_nftContractAddress, _tokenId)\n        priceGreaterThanZero(_minPrice)\n        increasePercentageAboveMinimum(_bidIncreasePercentage){\n        nftContractAuctions[_nftContractAddress][_tokenId]\n            .auctionBidPeriod = _auctionBidPeriod;\n        nftContractAuctions[_nftContractAddress][_tokenId]\n            .bidIncreasePercentage = _bidIncreasePercentage;\n        _createNewNftAuction(\n            _nftContractAddress,\n            _tokenId,\n            _erc20Token,\n            _minPrice,\n            _buyNowPrice\n        );\n    }\n\n    /*\n                   END              \n             AUCTION CREATION       \n      */\n\n    /**********************************/\n\n    /*\n              BID FUNCTIONS        \n      */\n\n    /********************************************************************\n     * Make bids with ETH or an ERC20 Token specified by the NFT seller.*\n     * Additionally, a buyer can pay the asking price to conclude a sale*\n     * of an NFT.                                                      *\n     ********************************************************************/\n\n    function _makeBid(\n        address _nftContractAddress,\n        uint256 _tokenId,\n        address _erc20Token,\n        uint128 _tokenAmount\n    )\n        internal\n        notNftSeller(_nftContractAddress, _tokenId)\n        paymentAccepted(\n            _nftContractAddress,\n            _tokenId,\n            _erc20Token,\n            _tokenAmount\n        )\n       \n    {\n        _reversePreviousBidAndUpdateHighestBid(\n            _nftContractAddress,\n            _tokenId,\n            _tokenAmount\n        );\n    }\n\n    function makeBid(\n        address _nftContractAddress,\n        uint256 _tokenId,\n        address _erc20Token,\n        uint128 _tokenAmount\n    )\n        external\n        payable\n        auctionOngoing(_nftContractAddress, _tokenId)\n    {\n        _makeBid(_nftContractAddress, _tokenId, _erc20Token, _tokenAmount);\n    }\n\n    function makeCustomBid(\n        address _nftContractAddress,\n        uint256 _tokenId,\n        address _erc20Token,\n        uint128 _tokenAmount,\n        address _nftRecipient\n    )\n        external\n        payable\n        auctionOngoing(_nftContractAddress, _tokenId)\n        notZeroAddress(_nftRecipient)\n    {\n        nftContractAuctions[_nftContractAddress][_tokenId]\n            .nftRecipient = _nftRecipient;\n        _makeBid(_nftContractAddress, _tokenId, _erc20Token, _tokenAmount);\n    }\n\n    \n    /*\n                   END              \n              BID FUNCTIONS         \n      */\n    /**********************************/\n\n    /*\n             UPDATE AUCTION         \n      */\n\n   \n    function _updateAuctionEnd(address _nftContractAddress, uint256 _tokenId)\n        internal\n    {\n        //the auction end is always set to now + the bid period\n        nftContractAuctions[_nftContractAddress][_tokenId].auctionEnd =\n            _getAuctionBidPeriod(_nftContractAddress, _tokenId) +\n            uint64(block.timestamp);\n      \n    }\n\n    /**********************************/\n    /*\n                   END              \n             UPDATE AUCTION         \n      */\n    /**********************************/\n\n    /*\n             RESET FUNCTIONS        \n      */\n\n    /*\n     * Reset all auction related parameters for an NFT.\n     * This effectively removes an EFT as an item up for auction\n     */\n    function _resetAuction(address _nftContractAddress, uint256 _tokenId)\n        internal\n    {\n        nftContractAuctions[_nftContractAddress][_tokenId].minPrice = 0;\n        nftContractAuctions[_nftContractAddress][_tokenId].auctionEnd = 0;\n        nftContractAuctions[_nftContractAddress][_tokenId].auctionBidPeriod = 0;\n        nftContractAuctions[_nftContractAddress][_tokenId]\n            .bidIncreasePercentage = 0;\n        nftContractAuctions[_nftContractAddress][_tokenId].nftSeller = address(\n            0\n        );\n      \n        nftContractAuctions[_nftContractAddress][_tokenId].ERC20Token = address(\n            0\n        );\n    }\n\n    /*\n     * Reset all bid related parameters for an NFT.\n     * This effectively sets an NFT as having no active bids\n     */\n    function _resetBids(address _nftContractAddress, uint256 _tokenId)\n        internal\n    {\n        nftContractAuctions[_nftContractAddress][_tokenId]\n            .nftHighestBidder = address(0);\n        nftContractAuctions[_nftContractAddress][_tokenId].nftHighestBid = 0;\n        nftContractAuctions[_nftContractAddress][_tokenId]\n            .nftRecipient = address(0);\n    }\n\n    /**********************************/\n    /*\n                   END              \n             RESET FUNCTIONS        \n      */\n    /**********************************/\n\n    /*\n               UPDATE BIDS          \n      */\n    /******************************************************************\n     * Internal functions that update bid parameters and reverse bids *\n     * to ensure contract only holds the highest bid.                 *\n     ******************************************************************/\n    function _updateHighestBid(\n        address _nftContractAddress,\n        uint256 _tokenId,\n        uint128 _tokenAmount\n    ) internal {\n        address auctionERC20Token = nftContractAuctions[_nftContractAddress][\n            _tokenId\n        ].ERC20Token;\n        if (_isERC20Auction(auctionERC20Token)) {\n            IERC20(auctionERC20Token).transferFrom(\n                msg.sender,\n                address(this),\n                _tokenAmount\n            );\n            nftContractAuctions[_nftContractAddress][_tokenId]\n                .nftHighestBid = _tokenAmount;\n        } else {\n            nftContractAuctions[_nftContractAddress][_tokenId]\n                .nftHighestBid = uint128(msg.value);\n        }\n        nftContractAuctions[_nftContractAddress][_tokenId]\n            .nftHighestBidder = msg.sender;\n    }\n\n    function _reverseAndResetPreviousBid(\n        address _nftContractAddress,\n        uint256 _tokenId\n    ) internal {\n        address nftHighestBidder = nftContractAuctions[_nftContractAddress][\n            _tokenId\n        ].nftHighestBidder;\n\n        uint128 nftHighestBid = nftContractAuctions[_nftContractAddress][\n            _tokenId\n        ].nftHighestBid;\n        _resetBids(_nftContractAddress, _tokenId);\n\n        _payout(_nftContractAddress, _tokenId, nftHighestBidder, nftHighestBid);\n    }\n\n    function _reversePreviousBidAndUpdateHighestBid(\n        address _nftContractAddress,\n        uint256 _tokenId,\n        uint128 _tokenAmount\n    ) internal {\n        address prevNftHighestBidder = nftContractAuctions[_nftContractAddress][\n            _tokenId\n        ].nftHighestBidder;\n\n        uint256 prevNftHighestBid = nftContractAuctions[_nftContractAddress][\n            _tokenId\n        ].nftHighestBid;\n        _updateHighestBid(_nftContractAddress, _tokenId, _tokenAmount);\n\n        if (prevNftHighestBidder != address(0)) {\n            _payout(\n                _nftContractAddress,\n                _tokenId,\n                prevNftHighestBidder,\n                prevNftHighestBid\n            );\n        }\n    }\n\n    /*\n                   END              \n               UPDATE BIDS          \n      */\n    /**********************************/\n\n    /*\n        TRANSFER NFT & PAY SELLER   \n      */\n    function _transferNftAndPaySeller(\n        address _nftContractAddress,\n        uint256 _tokenId\n    ) internal {\n        address _nftSeller = nftContractAuctions[_nftContractAddress][_tokenId].nftSeller;\n        address _nftHighestBidder = nftContractAuctions[_nftContractAddress][\n            _tokenId\n        ].nftHighestBidder;\n        address _nftRecipient = _getNftRecipient(_nftContractAddress, _tokenId);\n        uint128 _nftHighestBid = nftContractAuctions[_nftContractAddress][\n            _tokenId\n        ].nftHighestBid;\n        _resetBids(_nftContractAddress, _tokenId);\n\n        IERC721(_nftContractAddress).transferFrom(\n            address(this),\n            _nftRecipient,\n            _tokenId\n        );\n\n        //reinicia el estado del nft en este contrato\n        _resetAuction(_nftContractAddress, _tokenId);\n     \n    }\n\n    function _payout(\n        address _nftContractAddress,\n        uint256 _tokenId,\n        address _recipient,\n        uint256 _amount) internal {\n        address auctionERC20Token = nftContractAuctions[_nftContractAddress][\n            _tokenId\n        ].ERC20Token;\n        if (_isERC20Auction(auctionERC20Token)) {\n            IERC20(auctionERC20Token).transfer(_recipient, _amount);\n        } else {\n            // attempt to send the funds to the recipient\n            (bool success, ) = payable(_recipient).call{\n                value: _amount,\n                gas: 20000\n            }(\"\");\n            // if it failed, update their credit balance so they can pull it later\n            if (!success) {\n                failedTransferCredits[_recipient] +=_amount;\n                    \n            }\n        }\n    }\n\n    /*\n                   END              \n        TRANSFER NFT & PAY SELLER   \n      */\n    /**********************************/\n\n    /*\n            SETTLE & WITHDRAW       \n      */\n    function settleAuction(address _nftContractAddress, uint256 _tokenId)\n        external\n        isAuctionOver(_nftContractAddress, _tokenId)\n    {\n        _transferNftAndPaySeller(_nftContractAddress, _tokenId);\n    }\n\n\n\n    // function withdrawBid(address _nftContractAddress, uint256 _tokenId)\n    //     external\n    //     minimumBidNotMade(_nftContractAddress, _tokenId){\n    //     address nftHighestBidder = nftContractAuctions[_nftContractAddress][\n    //         _tokenId\n    //     ].nftHighestBidder;\n    //     require(msg.sender == nftHighestBidder, \"Cannot withdraw funds\");\n\n    //     uint128 nftHighestBid = nftContractAuctions[_nftContractAddress][\n    //         _tokenId\n    //     ].nftHighestBid;\n    //     _resetBids(_nftContractAddress, _tokenId);\n\n    //     _payout(_nftContractAddress, _tokenId, nftHighestBidder, nftHighestBid);\n\n    //     emit BidWithdrawn(_nftContractAddress, _tokenId, msg.sender);\n    // }\n\n    function updateMinimumPrice(\n        address _nftContractAddress,\n        uint256 _tokenId,\n        uint128 _newMinPrice)\n        external\n        onlyNftSeller(_nftContractAddress, _tokenId)\n        minimumBidNotMade(_nftContractAddress, _tokenId)\n        priceGreaterThanZero(_newMinPrice)\n       \n    {\n        nftContractAuctions[_nftContractAddress][_tokenId]\n            .minPrice = _newMinPrice;\n\n\n        if (_isMinimumBidMade(_nftContractAddress, _tokenId)) {\n            _transferNftToAuctionContract(_nftContractAddress, _tokenId);\n            _updateAuctionEnd(_nftContractAddress, _tokenId);\n        }\n    }\n    \n    /*\n     * Query the owner of an NFT deposited for auction\n     */\n    function ownerOfNFT(address _nftContractAddress, uint256 _tokenId)\n        external\n        view\n        returns (address)\n    {\n        address nftSeller = nftContractAuctions[_nftContractAddress][_tokenId]\n            .nftSeller;\n        require(nftSeller != address(0), \"NFT not deposited\");\n\n        return nftSeller;\n    }\n\n    /*\n     * If the transfer of a bid has failed, allow the recipient to reclaim their amount later.\n     */\n    function withdrawAllFailedCredits() external {\n        uint256 amount = failedTransferCredits[msg.sender];\n\n        require(amount != 0, \"no credits to withdraw\");\n\n        failedTransferCredits[msg.sender] = 0;\n\n        (bool successfulWithdraw, ) = msg.sender.call{\n            value: amount,\n            gas: 20000\n        }(\"\");\n        require(successfulWithdraw, \"withdraw failed\");\n    }\n\n}",
  "sourcePath": "/Users/aarontolentino/Desktop/hashima/contracts/AuctionNFT.sol",
  "compiler": {
    "name": "solc",
    "version": "0.8.3+commit.8d00100c.Emscripten.clang"
  },
  "schemaVersion": "3.4.1",
  "updatedAt": "2022-02-09T16:05:06.375Z",
  "devdoc": {
    "kind": "dev",
    "methods": {},
    "version": 1
  },
  "userdoc": {
    "kind": "user",
    "methods": {
      "createDefaultNftAuction(address,uint256,address,uint128,uint128)": {
        "notice": "Create an auction that uses the default bid increase percentage & the default auction bid period."
      }
    },
    "version": 1
  }
}