{
  "contractName": "Auction",
  "abi": [
    {
      "inputs": [
        {
          "internalType": "contract Hashima",
          "name": "_hashima",
          "type": "address"
        }
      ],
      "stateMutability": "nonpayable",
      "type": "constructor"
    },
    {
      "anonymous": false,
      "inputs": [
        {
          "indexed": false,
          "internalType": "address",
          "name": "winner",
          "type": "address"
        },
        {
          "indexed": false,
          "internalType": "uint256",
          "name": "amount",
          "type": "uint256"
        }
      ],
      "name": "AuctionEnded",
      "type": "event"
    },
    {
      "anonymous": false,
      "inputs": [
        {
          "indexed": false,
          "internalType": "address",
          "name": "bidder",
          "type": "address"
        },
        {
          "indexed": false,
          "internalType": "uint256",
          "name": "amount",
          "type": "uint256"
        }
      ],
      "name": "HighestBidIncreased",
      "type": "event"
    },
    {
      "inputs": [
        {
          "internalType": "uint256",
          "name": "tokenId",
          "type": "uint256"
        },
        {
          "internalType": "uint256",
          "name": "_tolerance",
          "type": "uint256"
        },
        {
          "internalType": "uint256",
          "name": "_minPrice",
          "type": "uint256"
        }
      ],
      "name": "NewAuction",
      "outputs": [],
      "stateMutability": "nonpayable",
      "type": "function"
    },
    {
      "inputs": [
        {
          "internalType": "uint256",
          "name": "tokenId",
          "type": "uint256"
        }
      ],
      "name": "bid",
      "outputs": [],
      "stateMutability": "payable",
      "type": "function",
      "payable": true
    },
    {
      "inputs": [],
      "name": "withdraw",
      "outputs": [
        {
          "internalType": "bool",
          "name": "",
          "type": "bool"
        }
      ],
      "stateMutability": "nonpayable",
      "type": "function"
    },
    {
      "inputs": [
        {
          "internalType": "uint256",
          "name": "tokenId",
          "type": "uint256"
        }
      ],
      "name": "auctionEnd",
      "outputs": [
        {
          "internalType": "bool",
          "name": "",
          "type": "bool"
        }
      ],
      "stateMutability": "nonpayable",
      "type": "function"
    }
  ],
  "bytecode": "0x60806040523480156200001157600080fd5b5060405162001af538038062001af5833981810160405281019062000037919062000096565b80600360006101000a81548173ffffffffffffffffffffffffffffffffffffffff021916908373ffffffffffffffffffffffffffffffffffffffff1602179055505062000124565b60008151905062000090816200010a565b92915050565b600060208284031215620000a957600080fd5b6000620000b9848285016200007f565b91505092915050565b6000620000cf82620000ea565b9050919050565b6000620000e382620000c2565b9050919050565b600073ffffffffffffffffffffffffffffffffffffffff82169050919050565b6200011581620000d6565b81146200012157600080fd5b50565b6119c180620001346000396000f3fe60806040526004361061003f5760003560e01c80630114aab71461004457806332246e9f1461006d5780633ccfd60b146100aa578063454a2ab3146100d5575b600080fd5b34801561005057600080fd5b5061006b60048036038101906100669190611289565b6100f1565b005b34801561007957600080fd5b50610094600480360381019061008f9190611260565b6106ec565b6040516100a191906114a1565b60405180910390f35b3480156100b657600080fd5b506100bf610b10565b6040516100cc91906114a1565b60405180910390f35b6100ef60048036038101906100ea9190611260565b610c6b565b005b826000600360009054906101000a900473ffffffffffffffffffffffffffffffffffffffff1673ffffffffffffffffffffffffffffffffffffffff16636352211e836040518263ffffffff1660e01b815260040161014f919061159c565b60206040518083038186803b15801561016757600080fd5b505afa15801561017b573d6000803e3d6000fd5b505050506040513d601f19601f8201168201806040525081019061019f91906111f6565b90503373ffffffffffffffffffffffffffffffffffffffff168173ffffffffffffffffffffffffffffffffffffffff161461020f576040517f08c379a0000000000000000000000000000000000000000000000000000000008152600401610206906114bc565b60405180910390fd5b600360009054906101000a900473ffffffffffffffffffffffffffffffffffffffff1673ffffffffffffffffffffffffffffffffffffffff16636352211e866040518263ffffffff1660e01b815260040161026a919061159c565b60206040518083038186803b15801561028257600080fd5b505afa158015610296573d6000803e3d6000fd5b505050506040513d601f19601f820116820180604052508101906102ba91906111f6565b73ffffffffffffffffffffffffffffffffffffffff163373ffffffffffffffffffffffffffffffffffffffff1614610327576040517f08c379a000000000000000000000000000000000000000000000000000000000815260040161031e906114fc565b60405180910390fd5b6001600086815260200190815260200160002060009054906101000a900460ff1615610388576040517f08c379a000000000000000000000000000000000000000000000000000000000815260040161037f9061157c565b60405180910390fd5b60006040518060c0016040528086436103a19190611652565b815260200185815260200160008152602001600073ffffffffffffffffffffffffffffffffffffffff1681526020013373ffffffffffffffffffffffffffffffffffffffff168152602001600115158152509050806002600088815260200190815260200160002060008201518160000155602082015181600101556040820151816002015560608201518160030160006101000a81548173ffffffffffffffffffffffffffffffffffffffff021916908373ffffffffffffffffffffffffffffffffffffffff16021790555060808201518160040160006101000a81548173ffffffffffffffffffffffffffffffffffffffff021916908373ffffffffffffffffffffffffffffffffffffffff16021790555060a08201518160040160146101000a81548160ff021916908315150217905550905050600180600088815260200190815260200160002060006101000a81548160ff0219169083151502179055506000600360009054906101000a900473ffffffffffffffffffffffffffffffffffffffff1673ffffffffffffffffffffffffffffffffffffffff1663d43525c3886040518263ffffffff1660e01b8152600401610560919061159c565b60006040518083038186803b15801561057857600080fd5b505afa15801561058c573d6000803e3d6000fd5b505050506040513d6000823e3d601f19601f820116820180604052508101906105b5919061121f565b60c001519050801561065257600360009054906101000a900473ffffffffffffffffffffffffffffffffffffffff1673ffffffffffffffffffffffffffffffffffffffff1663d7a1aed28860006040518363ffffffff1660e01b815260040161061f9291906115b7565b600060405180830381600087803b15801561063957600080fd5b505af115801561064d573d6000803e3d6000fd5b505050505b600360009054906101000a900473ffffffffffffffffffffffffffffffffffffffff1673ffffffffffffffffffffffffffffffffffffffff166323b872dd33308a6040518463ffffffff1660e01b81526004016106b193929190611441565b600060405180830381600087803b1580156106cb57600080fd5b505af11580156106df573d6000803e3d6000fd5b5050505050505050505050565b600080600260008481526020019081526020016000206040518060c00160405290816000820154815260200160018201548152602001600282015481526020016003820160009054906101000a900473ffffffffffffffffffffffffffffffffffffffff1673ffffffffffffffffffffffffffffffffffffffff1673ffffffffffffffffffffffffffffffffffffffff1681526020016004820160009054906101000a900473ffffffffffffffffffffffffffffffffffffffff1673ffffffffffffffffffffffffffffffffffffffff1673ffffffffffffffffffffffffffffffffffffffff1681526020016004820160149054906101000a900460ff161515151581525050905060008160600151905060008260800151905060008360400151905060008460a00151905060008560000151905080421015610864576040517f08c379a000000000000000000000000000000000000000000000000000000000815260040161085b9061153c565b60405180910390fd5b816108a4576040517f08c379a000000000000000000000000000000000000000000000000000000000815260040161089b9061155c565b60405180910390fd5b60008660a001901515908115158152505085600260008a815260200190815260200160002060008201518160000155602082015181600101556040820151816002015560608201518160030160006101000a81548173ffffffffffffffffffffffffffffffffffffffff021916908373ffffffffffffffffffffffffffffffffffffffff16021790555060808201518160040160006101000a81548173ffffffffffffffffffffffffffffffffffffffff021916908373ffffffffffffffffffffffffffffffffffffffff16021790555060a08201518160040160146101000a81548160ff0219169083151502179055509050506000600160008a815260200190815260200160002060006101000a81548160ff0219169083151502179055507fdaec4582d5d9595688c8c98545fdd1c696d41c6aeaeb636737e84ed2f5c00eda85846040516109f5929190611478565b60405180910390a160008473ffffffffffffffffffffffffffffffffffffffff1684604051610a239061142c565b60006040518083038185875af1925050503d8060008114610a60576040519150601f19603f3d011682016040523d82523d6000602084013e610a65565b606091505b505090508015610b0157600360009054906101000a900473ffffffffffffffffffffffffffffffffffffffff1673ffffffffffffffffffffffffffffffffffffffff166323b872dd30888c6040518463ffffffff1660e01b8152600401610ace93929190611441565b600060405180830381600087803b158015610ae857600080fd5b505af1158015610afc573d6000803e3d6000fd5b505050505b80975050505050505050919050565b6000806000803373ffffffffffffffffffffffffffffffffffffffff1673ffffffffffffffffffffffffffffffffffffffff1681526020019081526020016000205490506000811115610c625760008060003373ffffffffffffffffffffffffffffffffffffffff1673ffffffffffffffffffffffffffffffffffffffff1681526020019081526020016000208190555060003373ffffffffffffffffffffffffffffffffffffffff1682604051610bc79061142c565b60006040518083038185875af1925050503d8060008114610c04576040519150601f19603f3d011682016040523d82523d6000602084013e610c09565b606091505b5050905080610c6057816000803373ffffffffffffffffffffffffffffffffffffffff1673ffffffffffffffffffffffffffffffffffffffff16815260200190815260200160002081905550600092505050610c68565b505b60019150505b90565b6000600260008381526020019081526020016000206040518060c00160405290816000820154815260200160018201548152602001600282015481526020016003820160009054906101000a900473ffffffffffffffffffffffffffffffffffffffff1673ffffffffffffffffffffffffffffffffffffffff1673ffffffffffffffffffffffffffffffffffffffff1681526020016004820160009054906101000a900473ffffffffffffffffffffffffffffffffffffffff1673ffffffffffffffffffffffffffffffffffffffff1673ffffffffffffffffffffffffffffffffffffffff1681526020016004820160149054906101000a900460ff161515151581525050905060008160000151905060008260400151905060008360600151905082431115610dd0576040517f08c379a0000000000000000000000000000000000000000000000000000000008152600401610dc7906114dc565b60405180910390fd5b813411610e12576040517f08c379a0000000000000000000000000000000000000000000000000000000008152600401610e099061151c565b60405180910390fd5b60008214610e7057816000808373ffffffffffffffffffffffffffffffffffffffff1673ffffffffffffffffffffffffffffffffffffffff1681526020019081526020016000206000828254610e689190611652565b925050819055505b33846060019073ffffffffffffffffffffffffffffffffffffffff16908173ffffffffffffffffffffffffffffffffffffffff168152505034846040018181525050836002600087815260200190815260200160002060008201518160000155602082015181600101556040820151816002015560608201518160030160006101000a81548173ffffffffffffffffffffffffffffffffffffffff021916908373ffffffffffffffffffffffffffffffffffffffff16021790555060808201518160040160006101000a81548173ffffffffffffffffffffffffffffffffffffffff021916908373ffffffffffffffffffffffffffffffffffffffff16021790555060a08201518160040160146101000a81548160ff0219169083151502179055509050507ff4757a49b326036464bec6fe419a4ae38c8a02ce3e68bf0809674f6aab8ad3003334604051610fc6929190611478565b60405180910390a15050505050565b6000610fe8610fe384611605565b6115e0565b90508281526020810184848401111561100057600080fd5b61100b848285611714565b509392505050565b6000815190506110228161192f565b92915050565b60008151905061103781611946565b92915050565b60008151905061104c8161195d565b92915050565b600082601f83011261106357600080fd5b8151611073848260208601610fd5565b91505092915050565b6000610160828403121561108f57600080fd5b61109a6101606115e0565b905060006110aa848285016111e1565b600083015250602082015167ffffffffffffffff8111156110ca57600080fd5b6110d684828501611052565b602083015250604082015167ffffffffffffffff8111156110f657600080fd5b61110284828501611052565b604083015250606061111684828501611028565b606083015250608061112a84828501611028565b60808301525060a061113e848285016111e1565b60a08301525060c06111528482850161103d565b60c08301525060e0611166848285016111e1565b60e08301525061010061117b848285016111e1565b6101008301525061012082015167ffffffffffffffff81111561119d57600080fd5b6111a984828501611052565b610120830152506101406111bf8482850161103d565b6101408301525092915050565b6000813590506111db81611974565b92915050565b6000815190506111f081611974565b92915050565b60006020828403121561120857600080fd5b600061121684828501611013565b91505092915050565b60006020828403121561123157600080fd5b600082015167ffffffffffffffff81111561124b57600080fd5b6112578482850161107c565b91505092915050565b60006020828403121561127257600080fd5b6000611280848285016111cc565b91505092915050565b60008060006060848603121561129e57600080fd5b60006112ac868287016111cc565b93505060206112bd868287016111cc565b92505060406112ce868287016111cc565b9150509250925092565b6112e1816116a8565b82525050565b6112f0816116cc565b82525050565b6112ff81611702565b82525050565b6000611312602083611641565b915061131d826117e7565b602082019050919050565b6000611335601583611641565b915061134082611810565b602082019050919050565b6000611358601483611641565b915061136382611839565b602082019050919050565b600061137b601e83611641565b915061138682611862565b602082019050919050565b600061139e601683611641565b91506113a98261188b565b602082019050919050565b60006113c1602383611641565b91506113cc826118b4565b604082019050919050565b60006113e4601683611641565b91506113ef82611903565b602082019050919050565b6000611407600083611636565b91506114128261192c565b600082019050919050565b611426816116f8565b82525050565b6000611437826113fa565b9150819050919050565b600060608201905061145660008301866112d8565b61146360208301856112d8565b611470604083018461141d565b949350505050565b600060408201905061148d60008301856112d8565b61149a602083018461141d565b9392505050565b60006020820190506114b660008301846112e7565b92915050565b600060208201905081810360008301526114d581611305565b9050919050565b600060208201905081810360008301526114f581611328565b9050919050565b600060208201905081810360008301526115158161134b565b9050919050565b600060208201905081810360008301526115358161136e565b9050919050565b6000602082019050818103600083015261155581611391565b9050919050565b60006020820190508181036000830152611575816113b4565b9050919050565b60006020820190508181036000830152611595816113d7565b9050919050565b60006020820190506115b1600083018461141d565b92915050565b60006040820190506115cc600083018561141d565b6115d960208301846112f6565b9392505050565b60006115ea6115fb565b90506115f68282611747565b919050565b6000604051905090565b600067ffffffffffffffff8211156116205761161f6117a7565b5b611629826117d6565b9050602081019050919050565b600081905092915050565b600082825260208201905092915050565b600061165d826116f8565b9150611668836116f8565b9250827fffffffffffffffffffffffffffffffffffffffffffffffffffffffffffffffff0382111561169d5761169c611778565b5b828201905092915050565b60006116b3826116d8565b9050919050565b60006116c5826116d8565b9050919050565b60008115159050919050565b600073ffffffffffffffffffffffffffffffffffffffff82169050919050565b6000819050919050565b600061170d826116f8565b9050919050565b60005b83811015611732578082015181840152602081019050611717565b83811115611741576000848401525b50505050565b611750826117d6565b810181811067ffffffffffffffff8211171561176f5761176e6117a7565b5b80604052505050565b7f4e487b7100000000000000000000000000000000000000000000000000000000600052601160045260246000fd5b7f4e487b7100000000000000000000000000000000000000000000000000000000600052604160045260246000fd5b6000601f19601f8301169050919050565b7f4f6e6c79207468652068617368696d61206f776e65722063616e20646f206974600082015250565b7f41756374696f6e20616c726561647920656e6465640000000000000000000000600082015250565b7f53656e646572206d757374206265206f776e6572000000000000000000000000600082015250565b7f546865726520616c7265616479206973206120686967686572206269642e0000600082015250565b7f41756374696f6e206e6f742079657420656e6465642e00000000000000000000600082015250565b7f61756374696f6e456e642068617320616c7265616479206265656e2063616c6c60008201527f65642e0000000000000000000000000000000000000000000000000000000000602082015250565b7f746869732068617368696d61206973206f6e2062696400000000000000000000600082015250565b50565b611938816116a8565b811461194357600080fd5b50565b61194f816116ba565b811461195a57600080fd5b50565b611966816116cc565b811461197157600080fd5b50565b61197d816116f8565b811461198857600080fd5b5056fea26469706673582212208bd61bd9302fbafcda3389c2dfdad78f527ad888a8ca2e8a1ac0c27e314ea89664736f6c63430008030033",
  "immutableReferences": {},
  "source": "// SPDX-License-Identifier: MIT\npragma solidity ^0.8.0;\n\nimport './Hashima.sol';\n\n\ncontract Auction {\n  \n    // Allowed withdrawals of previous bids\n    mapping(address => uint) pendingReturns;\n\n    struct StructAuction {\n        uint256 periodoSubasta; //periodo de subasta en numero de bloques\n        uint256 minPrice;//en wei\n        uint256 nftHighestBid;//la apuesta mas grande \n        address nftHighestBidder;\n        address nftSeller;\n        bool active;\n\n    }\n\n    mapping(uint256=>bool) hashimaOnAction;\n    mapping(uint256=>StructAuction) auctions;\n\n    // Events that will be emitted on changes.\n    event HighestBidIncreased(address bidder, uint amount);\n    event AuctionEnded(address winner, uint amount);\n\n\n    Hashima private hashima;\n\n    constructor(Hashima _hashima){\n        hashima=_hashima;\n    }\n\n    modifier isHashimaOwner(uint256 tokenId){\n        address _owner=hashima.ownerOf(tokenId);\n        require(_owner==msg.sender,'Only the hashima owner can do it');\n        _;\n    }\n\n\n    function NewAuction(uint256 tokenId,uint256 _tolerance,\n        uint256 _minPrice)isHashimaOwner(tokenId) public{\n        require (msg.sender == hashima.ownerOf(tokenId), 'Sender must be owner');\n        require(!hashimaOnAction[tokenId],'this hashima is on bid');\n        \n        StructAuction memory _newAuction=StructAuction(\n            block.number+_tolerance,\n            _minPrice,\n            0,\n            address(0),\n            msg.sender,\n            true\n            );\n\n        auctions[tokenId]=_newAuction;\n        hashimaOnAction[tokenId]=true;\n\n        \n        bool forSale=hashima.getHashima(tokenId).forSale;\n        if(forSale){\n            hashima.toggleForSale(tokenId,0);\n        }\n        hashima.transferFrom(msg.sender, address(this), tokenId);\n        \n    }\n\n\n    function bid(uint256 tokenId) public payable {\n        StructAuction memory _auction=auctions[tokenId];\n        uint256 blockTime=_auction.periodoSubasta;\n        uint256 _highestBid=_auction.nftHighestBid;\n        address _high_bidder=_auction.nftHighestBidder;\n\n        require(block.number <= blockTime,\"Auction already ended\");\n        require(msg.value > _highestBid,\"There already is a higher bid.\");\n\n        if (_highestBid != 0) {\n            pendingReturns[_high_bidder] += _highestBid;\n        }\n\n        _auction.nftHighestBidder = msg.sender;\n        _auction.nftHighestBid= msg.value;\n\n        auctions[tokenId]=_auction;\n        emit HighestBidIncreased(msg.sender, msg.value);\n    }\n\n    /// Withdraw a bid that was overbid.\n    function withdraw() public returns (bool) {\n        uint amount = pendingReturns[msg.sender];\n        if (amount > 0) {    \n            pendingReturns[msg.sender] = 0;\n            (bool _answer,)=payable(msg.sender).call{value:amount}(\"\");\n            if (!_answer) {\n                // No need to call throw here, just reset the amount owing\n                pendingReturns[msg.sender] = amount;\n                return false;\n            }\n        }\n        return true;\n    }\n\n    //esta funciona la llama el usuario al termionar el tiempo de subasta\n    function auctionEnd(uint256 tokenId) public returns(bool){\n        StructAuction memory _auction=auctions[tokenId];\n        address _highestBidder=_auction.nftHighestBidder;\n        address _nftSeller=_auction.nftSeller;\n        uint256 _high_bid=_auction.nftHighestBid;\n        bool activo=_auction.active;\n        uint256 block_time=_auction.periodoSubasta;\n\n        require(block.timestamp >= block_time, \"Auction not yet ended.\");\n        require(activo, \"auctionEnd has already been called.\");\n\n        _auction.active=false;\n        auctions[tokenId]=_auction;\n        hashimaOnAction[tokenId]=false;\n        \n        emit AuctionEnded(_highestBidder, _high_bid);\n\n        (bool sent, ) = _nftSeller.call{value: _high_bid}(\"\");\n        if(sent){\n            hashima.transferFrom(address(this), _highestBidder, tokenId);\n        }\n        return sent;\n    }\n}",
  "sourcePath": "/Users/aarontolentino/Desktop/hashima/contracts/Auction.sol",
  "compiler": {
    "name": "solc",
    "version": "0.8.3+commit.8d00100c.Emscripten.clang"
  },
  "schemaVersion": "3.4.1",
  "updatedAt": "2022-03-28T05:15:25.945Z",
  "networkType": "ethereum",
  "devdoc": {
    "kind": "dev",
    "methods": {},
    "version": 1
  },
  "userdoc": {
    "kind": "user",
    "methods": {
      "withdraw()": {
        "notice": "Withdraw a bid that was overbid."
      }
    },
    "version": 1
  }
}