{
  "contractName": "Certificado",
  "abi": [
    {
      "inputs": [],
      "stateMutability": "nonpayable",
      "type": "constructor"
    },
    {
      "anonymous": false,
      "inputs": [
        {
          "indexed": true,
          "internalType": "address",
          "name": "owner",
          "type": "address"
        },
        {
          "indexed": true,
          "internalType": "address",
          "name": "approved",
          "type": "address"
        },
        {
          "indexed": true,
          "internalType": "uint256",
          "name": "tokenId",
          "type": "uint256"
        }
      ],
      "name": "Approval",
      "type": "event"
    },
    {
      "anonymous": false,
      "inputs": [
        {
          "indexed": true,
          "internalType": "address",
          "name": "owner",
          "type": "address"
        },
        {
          "indexed": true,
          "internalType": "address",
          "name": "operator",
          "type": "address"
        },
        {
          "indexed": false,
          "internalType": "bool",
          "name": "approved",
          "type": "bool"
        }
      ],
      "name": "ApprovalForAll",
      "type": "event"
    },
    {
      "anonymous": false,
      "inputs": [
        {
          "indexed": false,
          "internalType": "bool",
          "name": "respuesta",
          "type": "bool"
        }
      ],
      "name": "Checked",
      "type": "event"
    },
    {
      "anonymous": false,
      "inputs": [
        {
          "indexed": false,
          "internalType": "uint256",
          "name": "_blocknumber",
          "type": "uint256"
        }
      ],
      "name": "GameStart",
      "type": "event"
    },
    {
      "anonymous": false,
      "inputs": [
        {
          "indexed": true,
          "internalType": "address",
          "name": "previousOwner",
          "type": "address"
        },
        {
          "indexed": true,
          "internalType": "address",
          "name": "newOwner",
          "type": "address"
        }
      ],
      "name": "OwnershipTransferred",
      "type": "event"
    },
    {
      "anonymous": false,
      "inputs": [
        {
          "indexed": true,
          "internalType": "address",
          "name": "from",
          "type": "address"
        },
        {
          "indexed": true,
          "internalType": "address",
          "name": "to",
          "type": "address"
        },
        {
          "indexed": true,
          "internalType": "uint256",
          "name": "tokenId",
          "type": "uint256"
        }
      ],
      "name": "Transfer",
      "type": "event"
    },
    {
      "inputs": [
        {
          "internalType": "string",
          "name": "",
          "type": "string"
        }
      ],
      "name": "_names",
      "outputs": [
        {
          "internalType": "bool",
          "name": "",
          "type": "bool"
        }
      ],
      "stateMutability": "view",
      "type": "function",
      "constant": true
    },
    {
      "inputs": [
        {
          "internalType": "address",
          "name": "to",
          "type": "address"
        },
        {
          "internalType": "uint256",
          "name": "tokenId",
          "type": "uint256"
        }
      ],
      "name": "approve",
      "outputs": [],
      "stateMutability": "nonpayable",
      "type": "function"
    },
    {
      "inputs": [
        {
          "internalType": "address",
          "name": "owner",
          "type": "address"
        }
      ],
      "name": "balanceOf",
      "outputs": [
        {
          "internalType": "uint256",
          "name": "",
          "type": "uint256"
        }
      ],
      "stateMutability": "view",
      "type": "function",
      "constant": true
    },
    {
      "inputs": [
        {
          "internalType": "uint256",
          "name": "_stars",
          "type": "uint256"
        },
        {
          "internalType": "string",
          "name": "_hashID",
          "type": "string"
        },
        {
          "internalType": "string",
          "name": "_nonce",
          "type": "string"
        },
        {
          "internalType": "string",
          "name": "_uri",
          "type": "string"
        }
      ],
      "name": "check",
      "outputs": [
        {
          "internalType": "bool",
          "name": "",
          "type": "bool"
        },
        {
          "internalType": "bytes32",
          "name": "",
          "type": "bytes32"
        },
        {
          "internalType": "uint256",
          "name": "",
          "type": "uint256"
        }
      ],
      "stateMutability": "nonpayable",
      "type": "function"
    },
    {
      "inputs": [
        {
          "internalType": "uint256",
          "name": "tokenId",
          "type": "uint256"
        }
      ],
      "name": "getApproved",
      "outputs": [
        {
          "internalType": "address",
          "name": "",
          "type": "address"
        }
      ],
      "stateMutability": "view",
      "type": "function",
      "constant": true
    },
    {
      "inputs": [],
      "name": "initGame",
      "outputs": [],
      "stateMutability": "nonpayable",
      "type": "function"
    },
    {
      "inputs": [
        {
          "internalType": "address",
          "name": "owner",
          "type": "address"
        },
        {
          "internalType": "address",
          "name": "operator",
          "type": "address"
        }
      ],
      "name": "isApprovedForAll",
      "outputs": [
        {
          "internalType": "bool",
          "name": "",
          "type": "bool"
        }
      ],
      "stateMutability": "view",
      "type": "function",
      "constant": true
    },
    {
      "inputs": [],
      "name": "name",
      "outputs": [
        {
          "internalType": "string",
          "name": "",
          "type": "string"
        }
      ],
      "stateMutability": "view",
      "type": "function",
      "constant": true
    },
    {
      "inputs": [],
      "name": "owner",
      "outputs": [
        {
          "internalType": "address",
          "name": "",
          "type": "address"
        }
      ],
      "stateMutability": "view",
      "type": "function",
      "constant": true
    },
    {
      "inputs": [
        {
          "internalType": "uint256",
          "name": "tokenId",
          "type": "uint256"
        }
      ],
      "name": "ownerOf",
      "outputs": [
        {
          "internalType": "address",
          "name": "",
          "type": "address"
        }
      ],
      "stateMutability": "view",
      "type": "function",
      "constant": true
    },
    {
      "inputs": [],
      "name": "renounceOwnership",
      "outputs": [],
      "stateMutability": "nonpayable",
      "type": "function"
    },
    {
      "inputs": [
        {
          "internalType": "address",
          "name": "from",
          "type": "address"
        },
        {
          "internalType": "address",
          "name": "to",
          "type": "address"
        },
        {
          "internalType": "uint256",
          "name": "tokenId",
          "type": "uint256"
        }
      ],
      "name": "safeTransferFrom",
      "outputs": [],
      "stateMutability": "nonpayable",
      "type": "function"
    },
    {
      "inputs": [
        {
          "internalType": "address",
          "name": "from",
          "type": "address"
        },
        {
          "internalType": "address",
          "name": "to",
          "type": "address"
        },
        {
          "internalType": "uint256",
          "name": "tokenId",
          "type": "uint256"
        },
        {
          "internalType": "bytes",
          "name": "_data",
          "type": "bytes"
        }
      ],
      "name": "safeTransferFrom",
      "outputs": [],
      "stateMutability": "nonpayable",
      "type": "function"
    },
    {
      "inputs": [
        {
          "internalType": "address",
          "name": "operator",
          "type": "address"
        },
        {
          "internalType": "bool",
          "name": "approved",
          "type": "bool"
        }
      ],
      "name": "setApprovalForAll",
      "outputs": [],
      "stateMutability": "nonpayable",
      "type": "function"
    },
    {
      "inputs": [
        {
          "internalType": "bytes4",
          "name": "interfaceId",
          "type": "bytes4"
        }
      ],
      "name": "supportsInterface",
      "outputs": [
        {
          "internalType": "bool",
          "name": "",
          "type": "bool"
        }
      ],
      "stateMutability": "view",
      "type": "function",
      "constant": true
    },
    {
      "inputs": [],
      "name": "symbol",
      "outputs": [
        {
          "internalType": "string",
          "name": "",
          "type": "string"
        }
      ],
      "stateMutability": "view",
      "type": "function",
      "constant": true
    },
    {
      "inputs": [
        {
          "internalType": "uint256",
          "name": "tokenId",
          "type": "uint256"
        }
      ],
      "name": "tokenURI",
      "outputs": [
        {
          "internalType": "string",
          "name": "",
          "type": "string"
        }
      ],
      "stateMutability": "view",
      "type": "function",
      "constant": true
    },
    {
      "inputs": [
        {
          "internalType": "address",
          "name": "from",
          "type": "address"
        },
        {
          "internalType": "address",
          "name": "to",
          "type": "address"
        },
        {
          "internalType": "uint256",
          "name": "tokenId",
          "type": "uint256"
        }
      ],
      "name": "transferFrom",
      "outputs": [],
      "stateMutability": "nonpayable",
      "type": "function"
    },
    {
      "inputs": [
        {
          "internalType": "address",
          "name": "newOwner",
          "type": "address"
        }
      ],
      "name": "transferOwnership",
      "outputs": [],
      "stateMutability": "nonpayable",
      "type": "function"
    },
    {
      "inputs": [
        {
          "internalType": "uint256",
          "name": "_index",
          "type": "uint256"
        }
      ],
      "name": "getHashima",
      "outputs": [
        {
          "components": [
            {
              "internalType": "uint256",
              "name": "tokenId",
              "type": "uint256"
            },
            {
              "internalType": "string",
              "name": "tokenName",
              "type": "string"
            },
            {
              "internalType": "string",
              "name": "tokenURI",
              "type": "string"
            },
            {
              "internalType": "address payable",
              "name": "currentOwner",
              "type": "address"
            },
            {
              "internalType": "address payable",
              "name": "previousOwner",
              "type": "address"
            },
            {
              "internalType": "uint256",
              "name": "price",
              "type": "uint256"
            },
            {
              "internalType": "bool",
              "name": "forSale",
              "type": "bool"
            },
            {
              "internalType": "uint256",
              "name": "stars",
              "type": "uint256"
            },
            {
              "internalType": "uint256",
              "name": "blockNumber",
              "type": "uint256"
            },
            {
              "internalType": "string",
              "name": "nonce",
              "type": "string"
            },
            {
              "internalType": "bool",
              "name": "sign",
              "type": "bool"
            }
          ],
          "internalType": "struct ERC721Hashima.Hashi",
          "name": "",
          "type": "tuple"
        }
      ],
      "stateMutability": "view",
      "type": "function",
      "constant": true
    }
  ],
  "bytecode": "0x608060405260646008553480156200001657600080fd5b506040518060400160405280600b81526020017f436572746966696361646f0000000000000000000000000000000000000000008152506040518060400160405280600b81526020017f434552544946494341544500000000000000000000000000000000000000000081525081600090805190602001906200009b929190620001ab565b508060019080519060200190620000b4929190620001ab565b505050620000d7620000cb620000dd60201b60201c565b620000e560201b60201c565b620002c0565b600033905090565b6000600660009054906101000a900473ffffffffffffffffffffffffffffffffffffffff16905081600660006101000a81548173ffffffffffffffffffffffffffffffffffffffff021916908373ffffffffffffffffffffffffffffffffffffffff1602179055508173ffffffffffffffffffffffffffffffffffffffff168173ffffffffffffffffffffffffffffffffffffffff167f8be0079c531659141344cd1fd0a4f28419497f9722a3daafe3b4186f6b6457e060405160405180910390a35050565b828054620001b9906200025b565b90600052602060002090601f016020900481019282620001dd576000855562000229565b82601f10620001f857805160ff191683800117855562000229565b8280016001018555821562000229579182015b82811115620002285782518255916020019190600101906200020b565b5b5090506200023891906200023c565b5090565b5b80821115620002575760008160009055506001016200023d565b5090565b600060028204905060018216806200027457607f821691505b602082108114156200028b576200028a62000291565b5b50919050565b7f4e487b7100000000000000000000000000000000000000000000000000000000600052602260045260246000fd5b613b8680620002d06000396000f3fe608060405234801561001057600080fd5b506004361061012c5760003560e01c8063715018a6116100ad578063c87b56dd11610071578063c87b56dd1461031d578063d1760fac1461034d578063d43525c31461037d578063e985e9c5146103ad578063f2fde38b146103dd5761012c565b8063715018a61461029f5780638da5cb5b146102a957806395d89b41146102c7578063a22cb465146102e5578063b88d4fde146103015761012c565b806332eb2564116100f457806332eb2564146101e757806333625d70146101f157806342842e0e146102235780636352211e1461023f57806370a082311461026f5761012c565b806301ffc9a71461013157806306fdde0314610161578063081812fc1461017f578063095ea7b3146101af57806323b872dd146101cb575b600080fd5b61014b6004803603810190610146919061277f565b6103f9565b6040516101589190612edc565b60405180910390f35b6101696104db565b6040516101769190612f2e565b60405180910390f35b61019960048036038101906101949190612812565b61056d565b6040516101a69190612e75565b60405180910390f35b6101c960048036038101906101c4919061271a565b6105f2565b005b6101e560048036038101906101e09190612614565b61070a565b005b6101ef61076a565b005b61020b6004803603810190610206919061283b565b6107ed565b60405161021a93929190612ef7565b60405180910390f35b61023d60048036038101906102389190612614565b610b5b565b005b61025960048036038101906102549190612812565b610b7b565b6040516102669190612e75565b60405180910390f35b610289600480360381019061028491906125af565b610c2d565b60405161029691906131d2565b60405180910390f35b6102a7610ce5565b005b6102b1610d6d565b6040516102be9190612e75565b60405180910390f35b6102cf610d97565b6040516102dc9190612f2e565b60405180910390f35b6102ff60048036038101906102fa91906126de565b610e29565b005b61031b60048036038101906103169190612663565b610faa565b005b61033760048036038101906103329190612812565b61100c565b6040516103449190612f2e565b60405180910390f35b610367600480360381019061036291906127d1565b6110b3565b6040516103749190612edc565b60405180910390f35b61039760048036038101906103929190612812565b6110e9565b6040516103a491906131b0565b60405180910390f35b6103c760048036038101906103c291906125d8565b6113d7565b6040516103d49190612edc565b60405180910390f35b6103f760048036038101906103f291906125af565b61146b565b005b60007f80ac58cd000000000000000000000000000000000000000000000000000000007bffffffffffffffffffffffffffffffffffffffffffffffffffffffff1916827bffffffffffffffffffffffffffffffffffffffffffffffffffffffff191614806104c457507f5b5e139f000000000000000000000000000000000000000000000000000000007bffffffffffffffffffffffffffffffffffffffffffffffffffffffff1916827bffffffffffffffffffffffffffffffffffffffffffffffffffffffff1916145b806104d457506104d382611563565b5b9050919050565b6060600080546104ea90613460565b80601f016020809104026020016040519081016040528092919081815260200182805461051690613460565b80156105635780601f1061053857610100808354040283529160200191610563565b820191906000526020600020905b81548152906001019060200180831161054657829003601f168201915b5050505050905090565b6000610578826115cd565b6105b7576040517f08c379a00000000000000000000000000000000000000000000000000000000081526004016105ae906130d0565b60405180910390fd5b6004600083815260200190815260200160002060009054906101000a900473ffffffffffffffffffffffffffffffffffffffff169050919050565b60006105fd82610b7b565b90508073ffffffffffffffffffffffffffffffffffffffff168373ffffffffffffffffffffffffffffffffffffffff16141561066e576040517f08c379a000000000000000000000000000000000000000000000000000000000815260040161066590613150565b60405180910390fd5b8073ffffffffffffffffffffffffffffffffffffffff1661068d611639565b73ffffffffffffffffffffffffffffffffffffffff1614806106bc57506106bb816106b6611639565b6113d7565b5b6106fb576040517f08c379a00000000000000000000000000000000000000000000000000000000081526004016106f290613030565b60405180910390fd5b6107058383611641565b505050565b61071b610715611639565b826116fa565b61075a576040517f08c379a000000000000000000000000000000000000000000000000000000000815260040161075190613170565b60405180910390fd5b6107658383836117d8565b505050565b600043905080600960003373ffffffffffffffffffffffffffffffffffffffff1673ffffffffffffffffffffffffffffffffffffffff168152602001908152602001600020819055507fb5e8a4470f7bcac7f2c0f3e23471bd7016a9f6f049884cd27dfa8960f361287b816040516107e291906131d2565b60405180910390a150565b600080600043600854600960003373ffffffffffffffffffffffffffffffffffffffff1673ffffffffffffffffffffffffffffffffffffffff1681526020019081526020016000205461084091906132d3565b11610880576040517f08c379a000000000000000000000000000000000000000000000000000000000815260040161087790613090565b60405180910390fd5b60001515600b876040516108949190612e09565b908152602001604051809103902060009054906101000a900460ff161515146108f2576040517f08c379a00000000000000000000000000000000000000000000000000000000081526004016108e990613190565b60405180910390fd5b6000600960003373ffffffffffffffffffffffffffffffffffffffff1673ffffffffffffffffffffffffffffffffffffffff168152602001908152602001600020541415610975576040517f08c379a000000000000000000000000000000000000000000000000000000000815260040161096c90612f50565b60405180910390fd5b600073ffffffffffffffffffffffffffffffffffffffff163373ffffffffffffffffffffffffffffffffffffffff1614156109af57600080fd5b600060019050600080600289896109c543611a34565b6040516020016109d793929190612e44565b6040516020818303038152906040526040516109f39190612df2565b602060405180830381855afa158015610a10573d6000803e3d6000fd5b5050506040513d601f19601f82011682018060405250810190610a339190612756565b905060005b8a811015610ac157600060f81b828260208110610a7e577f4e487b7100000000000000000000000000000000000000000000000000000000600052603260045260246000fd5b1a60f81b7effffffffffffffffffffffffffffffffffffffffffffffffffffffffffffff191614610aae57600093505b8080610ab9906134c3565b915050610a38565b508215610b0e576001600b8a604051610ada9190612e09565b908152602001604051809103902060006101000a81548160ff021916908315150217905550610b0b878a8a8d611be1565b91505b7f6cee7501030f2c462be5eb743fb6030ac8e22962cb86d210ebb397f82dafd61b83604051610b3d9190612edc565b60405180910390a18281839550955095505050509450945094915050565b610b7683838360405180602001604052806000815250610faa565b505050565b6000806002600084815260200190815260200160002060009054906101000a900473ffffffffffffffffffffffffffffffffffffffff169050600073ffffffffffffffffffffffffffffffffffffffff168173ffffffffffffffffffffffffffffffffffffffff161415610c24576040517f08c379a0000000000000000000000000000000000000000000000000000000008152600401610c1b90613070565b60405180910390fd5b80915050919050565b60008073ffffffffffffffffffffffffffffffffffffffff168273ffffffffffffffffffffffffffffffffffffffff161415610c9e576040517f08c379a0000000000000000000000000000000000000000000000000000000008152600401610c9590613050565b60405180910390fd5b600360008373ffffffffffffffffffffffffffffffffffffffff1673ffffffffffffffffffffffffffffffffffffffff168152602001908152602001600020549050919050565b610ced611639565b73ffffffffffffffffffffffffffffffffffffffff16610d0b610d6d565b73ffffffffffffffffffffffffffffffffffffffff1614610d61576040517f08c379a0000000000000000000000000000000000000000000000000000000008152600401610d58906130f0565b60405180910390fd5b610d6b6000611e51565b565b6000600660009054906101000a900473ffffffffffffffffffffffffffffffffffffffff16905090565b606060018054610da690613460565b80601f0160208091040260200160405190810160405280929190818152602001828054610dd290613460565b8015610e1f5780601f10610df457610100808354040283529160200191610e1f565b820191906000526020600020905b815481529060010190602001808311610e0257829003601f168201915b5050505050905090565b610e31611639565b73ffffffffffffffffffffffffffffffffffffffff168273ffffffffffffffffffffffffffffffffffffffff161415610e9f576040517f08c379a0000000000000000000000000000000000000000000000000000000008152600401610e9690612ff0565b60405180910390fd5b8060056000610eac611639565b73ffffffffffffffffffffffffffffffffffffffff1673ffffffffffffffffffffffffffffffffffffffff16815260200190815260200160002060008473ffffffffffffffffffffffffffffffffffffffff1673ffffffffffffffffffffffffffffffffffffffff16815260200190815260200160002060006101000a81548160ff0219169083151502179055508173ffffffffffffffffffffffffffffffffffffffff16610f59611639565b73ffffffffffffffffffffffffffffffffffffffff167f17307eab39ab6107e8899845ad3d59bd9653f200f220920489ca2b5937696c3183604051610f9e9190612edc565b60405180910390a35050565b610fbb610fb5611639565b836116fa565b610ffa576040517f08c379a0000000000000000000000000000000000000000000000000000000008152600401610ff190613170565b60405180910390fd5b61100684848484611f17565b50505050565b6060611017826115cd565b611056576040517f08c379a000000000000000000000000000000000000000000000000000000000815260040161104d90613130565b60405180910390fd5b6000611060611f73565b9050600081511161108057604051806020016040528060008152506110ab565b8061108a84611a34565b60405160200161109b929190612e20565b6040516020818303038152906040525b915050919050565b600b818051602081018201805184825260208301602085012081835280955050505050506000915054906101000a900460ff1681565b6110f1612334565b600c6000838152602001908152602001600020604051806101600160405290816000820154815260200160018201805461112a90613460565b80601f016020809104026020016040519081016040528092919081815260200182805461115690613460565b80156111a35780601f10611178576101008083540402835291602001916111a3565b820191906000526020600020905b81548152906001019060200180831161118657829003601f168201915b505050505081526020016002820180546111bc90613460565b80601f01602080910402602001604051908101604052809291908181526020018280546111e890613460565b80156112355780601f1061120a57610100808354040283529160200191611235565b820191906000526020600020905b81548152906001019060200180831161121857829003601f168201915b505050505081526020016003820160009054906101000a900473ffffffffffffffffffffffffffffffffffffffff1673ffffffffffffffffffffffffffffffffffffffff1673ffffffffffffffffffffffffffffffffffffffff1681526020016004820160009054906101000a900473ffffffffffffffffffffffffffffffffffffffff1673ffffffffffffffffffffffffffffffffffffffff1673ffffffffffffffffffffffffffffffffffffffff168152602001600582015481526020016006820160009054906101000a900460ff16151515158152602001600782015481526020016008820154815260200160098201805461133390613460565b80601f016020809104026020016040519081016040528092919081815260200182805461135f90613460565b80156113ac5780601f10611381576101008083540402835291602001916113ac565b820191906000526020600020905b81548152906001019060200180831161138f57829003601f168201915b50505050508152602001600a820160009054906101000a900460ff1615151515815250509050919050565b6000600560008473ffffffffffffffffffffffffffffffffffffffff1673ffffffffffffffffffffffffffffffffffffffff16815260200190815260200160002060008373ffffffffffffffffffffffffffffffffffffffff1673ffffffffffffffffffffffffffffffffffffffff16815260200190815260200160002060009054906101000a900460ff16905092915050565b611473611639565b73ffffffffffffffffffffffffffffffffffffffff16611491610d6d565b73ffffffffffffffffffffffffffffffffffffffff16146114e7576040517f08c379a00000000000000000000000000000000000000000000000000000000081526004016114de906130f0565b60405180910390fd5b600073ffffffffffffffffffffffffffffffffffffffff168173ffffffffffffffffffffffffffffffffffffffff161415611557576040517f08c379a000000000000000000000000000000000000000000000000000000000815260040161154e90612f90565b60405180910390fd5b61156081611e51565b50565b60007f01ffc9a7000000000000000000000000000000000000000000000000000000007bffffffffffffffffffffffffffffffffffffffffffffffffffffffff1916827bffffffffffffffffffffffffffffffffffffffffffffffffffffffff1916149050919050565b60008073ffffffffffffffffffffffffffffffffffffffff166002600084815260200190815260200160002060009054906101000a900473ffffffffffffffffffffffffffffffffffffffff1673ffffffffffffffffffffffffffffffffffffffff1614159050919050565b600033905090565b816004600083815260200190815260200160002060006101000a81548173ffffffffffffffffffffffffffffffffffffffff021916908373ffffffffffffffffffffffffffffffffffffffff160217905550808273ffffffffffffffffffffffffffffffffffffffff166116b483610b7b565b73ffffffffffffffffffffffffffffffffffffffff167f8c5be1e5ebec7d5bd14f71427d1e84f3dd0314c0f7b2291e5b200ac8c7c3b92560405160405180910390a45050565b6000611705826115cd565b611744576040517f08c379a000000000000000000000000000000000000000000000000000000000815260040161173b90613010565b60405180910390fd5b600061174f83610b7b565b90508073ffffffffffffffffffffffffffffffffffffffff168473ffffffffffffffffffffffffffffffffffffffff1614806117be57508373ffffffffffffffffffffffffffffffffffffffff166117a68461056d565b73ffffffffffffffffffffffffffffffffffffffff16145b806117cf57506117ce81856113d7565b5b91505092915050565b8273ffffffffffffffffffffffffffffffffffffffff166117f882610b7b565b73ffffffffffffffffffffffffffffffffffffffff161461184e576040517f08c379a000000000000000000000000000000000000000000000000000000000815260040161184590613110565b60405180910390fd5b600073ffffffffffffffffffffffffffffffffffffffff168273ffffffffffffffffffffffffffffffffffffffff1614156118be576040517f08c379a00000000000000000000000000000000000000000000000000000000081526004016118b590612fd0565b60405180910390fd5b6118c9838383611f8a565b6118d4600082611641565b6001600360008573ffffffffffffffffffffffffffffffffffffffff1673ffffffffffffffffffffffffffffffffffffffff1681526020019081526020016000206000828254611924919061335a565b925050819055506001600360008473ffffffffffffffffffffffffffffffffffffffff1673ffffffffffffffffffffffffffffffffffffffff168152602001908152602001600020600082825461197b91906132d3565b92505081905550816002600083815260200190815260200160002060006101000a81548173ffffffffffffffffffffffffffffffffffffffff021916908373ffffffffffffffffffffffffffffffffffffffff160217905550808273ffffffffffffffffffffffffffffffffffffffff168473ffffffffffffffffffffffffffffffffffffffff167fddf252ad1be2c89b69c2b068fc378daa952ba7f163c4a11628f55a4df523b3ef60405160405180910390a4505050565b60606000821415611a7c576040518060400160405280600181526020017f30000000000000000000000000000000000000000000000000000000000000008152509050611bdc565b600082905060005b60008214611aae578080611a97906134c3565b915050600a82611aa79190613329565b9150611a84565b60008167ffffffffffffffff811115611af0577f4e487b7100000000000000000000000000000000000000000000000000000000600052604160045260246000fd5b6040519080825280601f01601f191660200182016040528015611b225781602001600182028036833780820191505090505b5090505b60008514611bd557600182611b3b919061335a565b9150600a85611b4a919061350c565b6030611b5691906132d3565b60f81b818381518110611b92577f4e487b7100000000000000000000000000000000000000000000000000000000600052603260045260246000fd5b60200101907effffffffffffffffffffffffffffffffffffffffffffffffffffffffffffff1916908160001a905350600a85611bce9190613329565b9450611b26565b8093505050505b919050565b6000611bed6007611f8f565b6000611bf96007611fae565b9050611c053382611fbc565b60003373ffffffffffffffffffffffffffffffffffffffff16611c26610d6d565b73ffffffffffffffffffffffffffffffffffffffff161415611c4757600190505b6000604051806101600160405280611c5f6007611fae565b81526020018881526020018981526020013373ffffffffffffffffffffffffffffffffffffffff168152602001600073ffffffffffffffffffffffffffffffffffffffff16815260200160008152602001600015158152602001868152602001438152602001878152602001831515815250905080600c6000611ce26007611fae565b8152602001908152602001600020600082015181600001556020820151816001019080519060200190611d169291906123be565b506040820151816002019080519060200190611d339291906123be565b5060608201518160030160006101000a81548173ffffffffffffffffffffffffffffffffffffffff021916908373ffffffffffffffffffffffffffffffffffffffff16021790555060808201518160040160006101000a81548173ffffffffffffffffffffffffffffffffffffffff021916908373ffffffffffffffffffffffffffffffffffffffff16021790555060a0820151816005015560c08201518160060160006101000a81548160ff02191690831515021790555060e082015181600701556101008201518160080155610120820151816009019080519060200190611e1e9291906123be565b5061014082015181600a0160006101000a81548160ff021916908315150217905550905050829350505050949350505050565b6000600660009054906101000a900473ffffffffffffffffffffffffffffffffffffffff16905081600660006101000a81548173ffffffffffffffffffffffffffffffffffffffff021916908373ffffffffffffffffffffffffffffffffffffffff1602179055508173ffffffffffffffffffffffffffffffffffffffff168173ffffffffffffffffffffffffffffffffffffffff167f8be0079c531659141344cd1fd0a4f28419497f9722a3daafe3b4186f6b6457e060405160405180910390a35050565b611f228484846117d8565b611f2e8484848461218a565b611f6d576040517f08c379a0000000000000000000000000000000000000000000000000000000008152600401611f6490612f70565b60405180910390fd5b50505050565b606060405180602001604052806000815250905090565b505050565b6001816000016000828254611fa491906132d3565b9250508190555050565b600081600001549050919050565b600073ffffffffffffffffffffffffffffffffffffffff168273ffffffffffffffffffffffffffffffffffffffff16141561202c576040517f08c379a0000000000000000000000000000000000000000000000000000000008152600401612023906130b0565b60405180910390fd5b612035816115cd565b15612075576040517f08c379a000000000000000000000000000000000000000000000000000000000815260040161206c90612fb0565b60405180910390fd5b61208160008383611f8a565b6001600360008473ffffffffffffffffffffffffffffffffffffffff1673ffffffffffffffffffffffffffffffffffffffff16815260200190815260200160002060008282546120d191906132d3565b92505081905550816002600083815260200190815260200160002060006101000a81548173ffffffffffffffffffffffffffffffffffffffff021916908373ffffffffffffffffffffffffffffffffffffffff160217905550808273ffffffffffffffffffffffffffffffffffffffff16600073ffffffffffffffffffffffffffffffffffffffff167fddf252ad1be2c89b69c2b068fc378daa952ba7f163c4a11628f55a4df523b3ef60405160405180910390a45050565b60006121ab8473ffffffffffffffffffffffffffffffffffffffff16612321565b15612314578373ffffffffffffffffffffffffffffffffffffffff1663150b7a026121d4611639565b8786866040518563ffffffff1660e01b81526004016121f69493929190612e90565b602060405180830381600087803b15801561221057600080fd5b505af192505050801561224157506040513d601f19601f8201168201806040525081019061223e91906127a8565b60015b6122c4573d8060008114612271576040519150601f19603f3d011682016040523d82523d6000602084013e612276565b606091505b506000815114156122bc576040517f08c379a00000000000000000000000000000000000000000000000000000000081526004016122b390612f70565b60405180910390fd5b805181602001fd5b63150b7a0260e01b7bffffffffffffffffffffffffffffffffffffffffffffffffffffffff1916817bffffffffffffffffffffffffffffffffffffffffffffffffffffffff191614915050612319565b600190505b949350505050565b600080823b905060008111915050919050565b604051806101600160405280600081526020016060815260200160608152602001600073ffffffffffffffffffffffffffffffffffffffff168152602001600073ffffffffffffffffffffffffffffffffffffffff168152602001600081526020016000151581526020016000815260200160008152602001606081526020016000151581525090565b8280546123ca90613460565b90600052602060002090601f0160209004810192826123ec5760008555612433565b82601f1061240557805160ff1916838001178555612433565b82800160010185558215612433579182015b82811115612432578251825591602001919060010190612417565b5b5090506124409190612444565b5090565b5b8082111561245d576000816000905550600101612445565b5090565b600061247461246f84613212565b6131ed565b90508281526020810184848401111561248c57600080fd5b61249784828561341e565b509392505050565b60006124b26124ad84613243565b6131ed565b9050828152602081018484840111156124ca57600080fd5b6124d584828561341e565b509392505050565b6000813590506124ec81613add565b92915050565b60008135905061250181613af4565b92915050565b60008151905061251681613b0b565b92915050565b60008135905061252b81613b22565b92915050565b60008151905061254081613b22565b92915050565b600082601f83011261255757600080fd5b8135612567848260208601612461565b91505092915050565b600082601f83011261258157600080fd5b813561259184826020860161249f565b91505092915050565b6000813590506125a981613b39565b92915050565b6000602082840312156125c157600080fd5b60006125cf848285016124dd565b91505092915050565b600080604083850312156125eb57600080fd5b60006125f9858286016124dd565b925050602061260a858286016124dd565b9150509250929050565b60008060006060848603121561262957600080fd5b6000612637868287016124dd565b9350506020612648868287016124dd565b92505060406126598682870161259a565b9150509250925092565b6000806000806080858703121561267957600080fd5b6000612687878288016124dd565b9450506020612698878288016124dd565b93505060406126a98782880161259a565b925050606085013567ffffffffffffffff8111156126c657600080fd5b6126d287828801612546565b91505092959194509250565b600080604083850312156126f157600080fd5b60006126ff858286016124dd565b9250506020612710858286016124f2565b9150509250929050565b6000806040838503121561272d57600080fd5b600061273b858286016124dd565b925050602061274c8582860161259a565b9150509250929050565b60006020828403121561276857600080fd5b600061277684828501612507565b91505092915050565b60006020828403121561279157600080fd5b600061279f8482850161251c565b91505092915050565b6000602082840312156127ba57600080fd5b60006127c884828501612531565b91505092915050565b6000602082840312156127e357600080fd5b600082013567ffffffffffffffff8111156127fd57600080fd5b61280984828501612570565b91505092915050565b60006020828403121561282457600080fd5b60006128328482850161259a565b91505092915050565b6000806000806080858703121561285157600080fd5b600061285f8782880161259a565b945050602085013567ffffffffffffffff81111561287c57600080fd5b61288887828801612570565b935050604085013567ffffffffffffffff8111156128a557600080fd5b6128b187828801612570565b925050606085013567ffffffffffffffff8111156128ce57600080fd5b6128da87828801612570565b91505092959194509250565b6128ef816133a0565b82525050565b6128fe8161338e565b82525050565b61290d816133b2565b82525050565b61291c816133b2565b82525050565b61292b816133be565b82525050565b600061293c82613274565b612946818561328a565b935061295681856020860161342d565b61295f816135f9565b840191505092915050565b600061297582613274565b61297f818561329b565b935061298f81856020860161342d565b80840191505092915050565b60006129a68261327f565b6129b081856132a6565b93506129c081856020860161342d565b6129c9816135f9565b840191505092915050565b60006129df8261327f565b6129e981856132b7565b93506129f981856020860161342d565b612a02816135f9565b840191505092915050565b6000612a188261327f565b612a2281856132c8565b9350612a3281856020860161342d565b80840191505092915050565b6000612a4b6015836132b7565b9150612a568261360a565b602082019050919050565b6000612a6e6032836132b7565b9150612a7982613633565b604082019050919050565b6000612a916026836132b7565b9150612a9c82613682565b604082019050919050565b6000612ab4601c836132b7565b9150612abf826136d1565b602082019050919050565b6000612ad76024836132b7565b9150612ae2826136fa565b604082019050919050565b6000612afa6019836132b7565b9150612b0582613749565b602082019050919050565b6000612b1d602c836132b7565b9150612b2882613772565b604082019050919050565b6000612b406038836132b7565b9150612b4b826137c1565b604082019050919050565b6000612b63602a836132b7565b9150612b6e82613810565b604082019050919050565b6000612b866029836132b7565b9150612b918261385f565b604082019050919050565b6000612ba96013836132b7565b9150612bb4826138ae565b602082019050919050565b6000612bcc6020836132b7565b9150612bd7826138d7565b602082019050919050565b6000612bef602c836132b7565b9150612bfa82613900565b604082019050919050565b6000612c126020836132b7565b9150612c1d8261394f565b602082019050919050565b6000612c356029836132b7565b9150612c4082613978565b604082019050919050565b6000612c58602f836132b7565b9150612c63826139c7565b604082019050919050565b6000612c7b6021836132b7565b9150612c8682613a16565b604082019050919050565b6000612c9e6031836132b7565b9150612ca982613a65565b604082019050919050565b6000612cc1600c836132b7565b9150612ccc82613ab4565b602082019050919050565b600061016083016000830151612cf06000860182612dd4565b5060208301518482036020860152612d08828261299b565b91505060408301518482036040860152612d22828261299b565b9150506060830151612d3760608601826128e6565b506080830151612d4a60808601826128e6565b5060a0830151612d5d60a0860182612dd4565b5060c0830151612d7060c0860182612904565b5060e0830151612d8360e0860182612dd4565b50610100830151612d98610100860182612dd4565b50610120830151848203610120860152612db2828261299b565b915050610140830151612dc9610140860182612904565b508091505092915050565b612ddd81613414565b82525050565b612dec81613414565b82525050565b6000612dfe828461296a565b915081905092915050565b6000612e158284612a0d565b915081905092915050565b6000612e2c8285612a0d565b9150612e388284612a0d565b91508190509392505050565b6000612e508286612a0d565b9150612e5c8285612a0d565b9150612e688284612a0d565b9150819050949350505050565b6000602082019050612e8a60008301846128f5565b92915050565b6000608082019050612ea560008301876128f5565b612eb260208301866128f5565b612ebf6040830185612de3565b8181036060830152612ed18184612931565b905095945050505050565b6000602082019050612ef16000830184612913565b92915050565b6000606082019050612f0c6000830186612913565b612f196020830185612922565b612f266040830184612de3565b949350505050565b60006020820190508181036000830152612f4881846129d4565b905092915050565b60006020820190508181036000830152612f6981612a3e565b9050919050565b60006020820190508181036000830152612f8981612a61565b9050919050565b60006020820190508181036000830152612fa981612a84565b9050919050565b60006020820190508181036000830152612fc981612aa7565b9050919050565b60006020820190508181036000830152612fe981612aca565b9050919050565b6000602082019050818103600083015261300981612aed565b9050919050565b6000602082019050818103600083015261302981612b10565b9050919050565b6000602082019050818103600083015261304981612b33565b9050919050565b6000602082019050818103600083015261306981612b56565b9050919050565b6000602082019050818103600083015261308981612b79565b9050919050565b600060208201905081810360008301526130a981612b9c565b9050919050565b600060208201905081810360008301526130c981612bbf565b9050919050565b600060208201905081810360008301526130e981612be2565b9050919050565b6000602082019050818103600083015261310981612c05565b9050919050565b6000602082019050818103600083015261312981612c28565b9050919050565b6000602082019050818103600083015261314981612c4b565b9050919050565b6000602082019050818103600083015261316981612c6e565b9050919050565b6000602082019050818103600083015261318981612c91565b9050919050565b600060208201905081810360008301526131a981612cb4565b9050919050565b600060208201905081810360008301526131ca8184612cd7565b905092915050565b60006020820190506131e76000830184612de3565b92915050565b60006131f7613208565b90506132038282613492565b919050565b6000604051905090565b600067ffffffffffffffff82111561322d5761322c6135ca565b5b613236826135f9565b9050602081019050919050565b600067ffffffffffffffff82111561325e5761325d6135ca565b5b613267826135f9565b9050602081019050919050565b600081519050919050565b600081519050919050565b600082825260208201905092915050565b600081905092915050565b600082825260208201905092915050565b600082825260208201905092915050565b600081905092915050565b60006132de82613414565b91506132e983613414565b9250827fffffffffffffffffffffffffffffffffffffffffffffffffffffffffffffffff0382111561331e5761331d61353d565b5b828201905092915050565b600061333482613414565b915061333f83613414565b92508261334f5761334e61356c565b5b828204905092915050565b600061336582613414565b915061337083613414565b9250828210156133835761338261353d565b5b828203905092915050565b6000613399826133f4565b9050919050565b60006133ab826133f4565b9050919050565b60008115159050919050565b6000819050919050565b60007fffffffff0000000000000000000000000000000000000000000000000000000082169050919050565b600073ffffffffffffffffffffffffffffffffffffffff82169050919050565b6000819050919050565b82818337600083830152505050565b60005b8381101561344b578082015181840152602081019050613430565b8381111561345a576000848401525b50505050565b6000600282049050600182168061347857607f821691505b6020821081141561348c5761348b61359b565b5b50919050565b61349b826135f9565b810181811067ffffffffffffffff821117156134ba576134b96135ca565b5b80604052505050565b60006134ce82613414565b91507fffffffffffffffffffffffffffffffffffffffffffffffffffffffffffffffff8214156135015761350061353d565b5b600182019050919050565b600061351782613414565b915061352283613414565b9250826135325761353161356c565b5b828206905092915050565b7f4e487b7100000000000000000000000000000000000000000000000000000000600052601160045260246000fd5b7f4e487b7100000000000000000000000000000000000000000000000000000000600052601260045260246000fd5b7f4e487b7100000000000000000000000000000000000000000000000000000000600052602260045260246000fd5b7f4e487b7100000000000000000000000000000000000000000000000000000000600052604160045260246000fd5b6000601f19601f8301169050919050565b7f546f6c6572616e63652063616e6e6f7420626520300000000000000000000000600082015250565b7f4552433732313a207472616e7366657220746f206e6f6e20455243373231526560008201527f63656976657220696d706c656d656e7465720000000000000000000000000000602082015250565b7f4f776e61626c653a206e6577206f776e657220697320746865207a65726f206160008201527f6464726573730000000000000000000000000000000000000000000000000000602082015250565b7f4552433732313a20746f6b656e20616c7265616479206d696e74656400000000600082015250565b7f4552433732313a207472616e7366657220746f20746865207a65726f2061646460008201527f7265737300000000000000000000000000000000000000000000000000000000602082015250565b7f4552433732313a20617070726f766520746f2063616c6c657200000000000000600082015250565b7f4552433732313a206f70657261746f7220717565727920666f72206e6f6e657860008201527f697374656e7420746f6b656e0000000000000000000000000000000000000000602082015250565b7f4552433732313a20617070726f76652063616c6c6572206973206e6f74206f7760008201527f6e6572206e6f7220617070726f76656420666f7220616c6c0000000000000000602082015250565b7f4552433732313a2062616c616e636520717565727920666f7220746865207a6560008201527f726f206164647265737300000000000000000000000000000000000000000000602082015250565b7f4552433732313a206f776e657220717565727920666f72206e6f6e657869737460008201527f656e7420746f6b656e0000000000000000000000000000000000000000000000602082015250565b7f746f6c6572616e63652069732065787069726500000000000000000000000000600082015250565b7f4552433732313a206d696e7420746f20746865207a65726f2061646472657373600082015250565b7f4552433732313a20617070726f76656420717565727920666f72206e6f6e657860008201527f697374656e7420746f6b656e0000000000000000000000000000000000000000602082015250565b7f4f776e61626c653a2063616c6c6572206973206e6f7420746865206f776e6572600082015250565b7f4552433732313a207472616e73666572206f6620746f6b656e2074686174206960008201527f73206e6f74206f776e0000000000000000000000000000000000000000000000602082015250565b7f4552433732314d657461646174613a2055524920717565727920666f72206e6f60008201527f6e6578697374656e7420746f6b656e0000000000000000000000000000000000602082015250565b7f4552433732313a20617070726f76616c20746f2063757272656e74206f776e6560008201527f7200000000000000000000000000000000000000000000000000000000000000602082015250565b7f4552433732313a207472616e736665722063616c6c6572206973206e6f74206f60008201527f776e6572206e6f7220617070726f766564000000000000000000000000000000602082015250565b7f6e616d6520697320627573790000000000000000000000000000000000000000600082015250565b613ae68161338e565b8114613af157600080fd5b50565b613afd816133b2565b8114613b0857600080fd5b50565b613b14816133be565b8114613b1f57600080fd5b50565b613b2b816133c8565b8114613b3657600080fd5b50565b613b4281613414565b8114613b4d57600080fd5b5056fea2646970667358221220f72e2840d240f785db5f2546d77b51d66cb84631198e7df73c6091fe9264340964736f6c63430008030033",
  "immutableReferences": {},
  "source": "// SPDX-License-Identifier: MIT\npragma solidity ^0.8.0;\nimport \"./IHashima.sol\";\nimport \"@openzeppelin/contracts/token/ERC721/extensions/ERC721Hashima.sol\";\n\n\ncontract Certificado is ERC721Hashima{\n\n    constructor() ERC721(\"Certificado\", \"CERTIFICATE\") {}\n\n    function getHashima(uint256 _index)external view returns(Hashi memory){\n        return _hashis[_index];\n  }\n}",
  "sourcePath": "/Users/aarontolentino/Desktop/hashima/contracts/Certificado.sol",
  "compiler": {
    "name": "solc",
    "version": "0.8.3+commit.8d00100c.Emscripten.clang"
  },
  "schemaVersion": "3.4.1",
  "updatedAt": "2022-03-16T18:20:11.936Z",
  "networkType": "ethereum",
  "devdoc": {
    "kind": "dev",
    "methods": {
      "approve(address,uint256)": {
        "details": "See {IERC721-approve}."
      },
      "balanceOf(address)": {
        "details": "See {IERC721-balanceOf}."
      },
      "check(uint256,string,string,string)": {
        "details": "This is the Hashima adaptation of ERC-721 NFT standart. _nonce=> random number that proofs the computational power"
      },
      "getApproved(uint256)": {
        "details": "See {IERC721-getApproved}."
      },
      "initGame()": {
        "details": "Stars the game so the user can mint a Hashima. The time is express in Block number. Requirements: Star the game before mint, other case, the function will fail"
      },
      "isApprovedForAll(address,address)": {
        "details": "See {IERC721-isApprovedForAll}."
      },
      "name()": {
        "details": "See {IERC721Metadata-name}."
      },
      "owner()": {
        "details": "Returns the address of the current owner."
      },
      "ownerOf(uint256)": {
        "details": "See {IERC721-ownerOf}."
      },
      "renounceOwnership()": {
        "details": "Leaves the contract without owner. It will not be possible to call `onlyOwner` functions anymore. Can only be called by the current owner. NOTE: Renouncing ownership will leave the contract without an owner, thereby removing any functionality that is only available to the owner."
      },
      "safeTransferFrom(address,address,uint256)": {
        "details": "See {IERC721-safeTransferFrom}."
      },
      "safeTransferFrom(address,address,uint256,bytes)": {
        "details": "See {IERC721-safeTransferFrom}."
      },
      "setApprovalForAll(address,bool)": {
        "details": "See {IERC721-setApprovalForAll}."
      },
      "supportsInterface(bytes4)": {
        "details": "See {IERC165-supportsInterface}."
      },
      "symbol()": {
        "details": "See {IERC721Metadata-symbol}."
      },
      "tokenURI(uint256)": {
        "details": "See {IERC721Metadata-tokenURI}."
      },
      "transferFrom(address,address,uint256)": {
        "details": "See {IERC721-transferFrom}."
      },
      "transferOwnership(address)": {
        "details": "Transfers ownership of the contract to a new account (`newOwner`). Can only be called by the current owner."
      }
    },
    "version": 1
  },
  "userdoc": {
    "kind": "user",
    "methods": {},
    "version": 1
  }
}