{
  "contractName": "CowboyGame",
  "abi": [
    {
      "anonymous": false,
      "inputs": [
        {
          "indexed": true,
          "internalType": "address",
          "name": "previousOwner",
          "type": "address"
        },
        {
          "indexed": true,
          "internalType": "address",
          "name": "newOwner",
          "type": "address"
        }
      ],
      "name": "OwnershipTransferred",
      "type": "event"
    },
    {
      "inputs": [],
      "name": "owner",
      "outputs": [
        {
          "internalType": "address",
          "name": "",
          "type": "address"
        }
      ],
      "stateMutability": "view",
      "type": "function"
    },
    {
      "inputs": [],
      "name": "renounceOwnership",
      "outputs": [],
      "stateMutability": "nonpayable",
      "type": "function"
    },
    {
      "inputs": [
        {
          "internalType": "address",
          "name": "newOwner",
          "type": "address"
        }
      ],
      "name": "transferOwnership",
      "outputs": [],
      "stateMutability": "nonpayable",
      "type": "function"
    },
    {
      "inputs": [
        {
          "internalType": "address",
          "name": "player1",
          "type": "address"
        },
        {
          "internalType": "address",
          "name": "player2",
          "type": "address"
        }
      ],
      "name": "createGame",
      "outputs": [],
      "stateMutability": "nonpayable",
      "type": "function"
    },
    {
      "inputs": [
        {
          "internalType": "uint256",
          "name": "_game",
          "type": "uint256"
        }
      ],
      "name": "attack",
      "outputs": [],
      "stateMutability": "nonpayable",
      "type": "function"
    },
    {
      "inputs": [
        {
          "internalType": "uint256",
          "name": "_game",
          "type": "uint256"
        }
      ],
      "name": "block",
      "outputs": [],
      "stateMutability": "nonpayable",
      "type": "function"
    },
    {
      "inputs": [
        {
          "internalType": "uint256",
          "name": "_game",
          "type": "uint256"
        }
      ],
      "name": "charge",
      "outputs": [],
      "stateMutability": "nonpayable",
      "type": "function"
    },
    {
      "inputs": [
        {
          "internalType": "uint256",
          "name": "_gameID",
          "type": "uint256"
        },
        {
          "internalType": "uint256",
          "name": "_turn",
          "type": "uint256"
        }
      ],
      "name": "check",
      "outputs": [],
      "stateMutability": "nonpayable",
      "type": "function"
    }
  ],
  "bytecode": "0x608060405234801561001057600080fd5b5061002d61002261003260201b60201c565b61003a60201b60201c565b6100fe565b600033905090565b60008060009054906101000a900473ffffffffffffffffffffffffffffffffffffffff169050816000806101000a81548173ffffffffffffffffffffffffffffffffffffffff021916908373ffffffffffffffffffffffffffffffffffffffff1602179055508173ffffffffffffffffffffffffffffffffffffffff168173ffffffffffffffffffffffffffffffffffffffff167f8be0079c531659141344cd1fd0a4f28419497f9722a3daafe3b4186f6b6457e060405160405180910390a35050565b610a858061010d6000396000f3fe608060405234801561001057600080fd5b50600436106100885760003560e01c80638fefd8ea1161005b5780638fefd8ea146100ed578063a6f979ff14610109578063e457e1e514610125578063f2fde38b1461014157610088565b806364dd891a1461008d578063715018a6146100a9578063768d130e146100b35780638da5cb5b146100cf575b600080fd5b6100a760048036038101906100a291906107db565b61015d565b005b6100b1610283565b005b6100cd60048036038101906100c891906107db565b61030b565b005b6100d7610431565b6040516100e491906108b8565b60405180910390f35b61010760048036038101906101029190610804565b61045a565b005b610123600480360381019061011e919061079f565b61045e565b005b61013f600480360381019061013a91906107db565b610462565b005b61015b60048036038101906101569190610776565b610588565b005b8060003373ffffffffffffffffffffffffffffffffffffffff166002600084815260200190815260200160002060010160009054906101000a900473ffffffffffffffffffffffffffffffffffffffff1673ffffffffffffffffffffffffffffffffffffffff1614156101cf57600190505b3373ffffffffffffffffffffffffffffffffffffffff166002600084815260200190815260200160002060020160009054906101000a900473ffffffffffffffffffffffffffffffffffffffff1673ffffffffffffffffffffffffffffffffffffffff16141561023e57600190505b8061027e576040517f08c379a0000000000000000000000000000000000000000000000000000000008152600401610275906108f3565b60405180910390fd5b505050565b61028b610680565b73ffffffffffffffffffffffffffffffffffffffff166102a9610431565b73ffffffffffffffffffffffffffffffffffffffff16146102ff576040517f08c379a00000000000000000000000000000000000000000000000000000000081526004016102f690610913565b60405180910390fd5b6103096000610688565b565b8060003373ffffffffffffffffffffffffffffffffffffffff166002600084815260200190815260200160002060010160009054906101000a900473ffffffffffffffffffffffffffffffffffffffff1673ffffffffffffffffffffffffffffffffffffffff16141561037d57600190505b3373ffffffffffffffffffffffffffffffffffffffff166002600084815260200190815260200160002060020160009054906101000a900473ffffffffffffffffffffffffffffffffffffffff1673ffffffffffffffffffffffffffffffffffffffff1614156103ec57600190505b8061042c576040517f08c379a0000000000000000000000000000000000000000000000000000000008152600401610423906108f3565b60405180910390fd5b505050565b60008060009054906101000a900473ffffffffffffffffffffffffffffffffffffffff16905090565b5050565b5050565b8060003373ffffffffffffffffffffffffffffffffffffffff166002600084815260200190815260200160002060010160009054906101000a900473ffffffffffffffffffffffffffffffffffffffff1673ffffffffffffffffffffffffffffffffffffffff1614156104d457600190505b3373ffffffffffffffffffffffffffffffffffffffff166002600084815260200190815260200160002060020160009054906101000a900473ffffffffffffffffffffffffffffffffffffffff1673ffffffffffffffffffffffffffffffffffffffff16141561054357600190505b80610583576040517f08c379a000000000000000000000000000000000000000000000000000000000815260040161057a906108f3565b60405180910390fd5b505050565b610590610680565b73ffffffffffffffffffffffffffffffffffffffff166105ae610431565b73ffffffffffffffffffffffffffffffffffffffff1614610604576040517f08c379a00000000000000000000000000000000000000000000000000000000081526004016105fb90610913565b60405180910390fd5b600073ffffffffffffffffffffffffffffffffffffffff168173ffffffffffffffffffffffffffffffffffffffff161415610674576040517f08c379a000000000000000000000000000000000000000000000000000000000815260040161066b906108d3565b60405180910390fd5b61067d81610688565b50565b600033905090565b60008060009054906101000a900473ffffffffffffffffffffffffffffffffffffffff169050816000806101000a81548173ffffffffffffffffffffffffffffffffffffffff021916908373ffffffffffffffffffffffffffffffffffffffff1602179055508173ffffffffffffffffffffffffffffffffffffffff168173ffffffffffffffffffffffffffffffffffffffff167f8be0079c531659141344cd1fd0a4f28419497f9722a3daafe3b4186f6b6457e060405160405180910390a35050565b60008135905061075b81610a21565b92915050565b60008135905061077081610a38565b92915050565b60006020828403121561078857600080fd5b60006107968482850161074c565b91505092915050565b600080604083850312156107b257600080fd5b60006107c08582860161074c565b92505060206107d18582860161074c565b9150509250929050565b6000602082840312156107ed57600080fd5b60006107fb84828501610761565b91505092915050565b6000806040838503121561081757600080fd5b600061082585828601610761565b925050602061083685828601610761565b9150509250929050565b61084981610944565b82525050565b600061085c602683610933565b915061086782610980565b604082019050919050565b600061087f601083610933565b915061088a826109cf565b602082019050919050565b60006108a2602083610933565b91506108ad826109f8565b602082019050919050565b60006020820190506108cd6000830184610840565b92915050565b600060208201905081810360008301526108ec8161084f565b9050919050565b6000602082019050818103600083015261090c81610872565b9050919050565b6000602082019050818103600083015261092c81610895565b9050919050565b600082825260208201905092915050565b600061094f82610956565b9050919050565b600073ffffffffffffffffffffffffffffffffffffffff82169050919050565b6000819050919050565b7f4f776e61626c653a206e6577206f776e657220697320746865207a65726f206160008201527f6464726573730000000000000000000000000000000000000000000000000000602082015250565b7f4e6f206573746173206a7567616e646f00000000000000000000000000000000600082015250565b7f4f776e61626c653a2063616c6c6572206973206e6f7420746865206f776e6572600082015250565b610a2a81610944565b8114610a3557600080fd5b50565b610a4181610976565b8114610a4c57600080fd5b5056fea264697066735822122027cc56198ca93e65832073ae6b97aa49bfb4e37e9dbbb95a7ccc06d795d3fea064736f6c63430008030033",
  "immutableReferences": {},
  "source": "// SPDX-License-Identifier: MIT\npragma solidity ^0.8.0;\n\nimport \"@openzeppelin/contracts/token/ERC721/extensions/ERC721URIStorage.sol\";\nimport \"@openzeppelin/contracts/utils/Counters.sol\";\nimport \"@openzeppelin/contracts/access/Ownable.sol\";\n\n\ncontract CowboyGame is Ownable{\n\n    Counters.Counter private _gamesID;\n\n    struct Game {\n        uint256 _id;\n        address player1;\n        address player2;\n        uint256 reward;//cantidad en weis; cuando gana el usuario en el juego\n    }\n\n    struct Turn {\n        uint256 _id;\n        uint256 gameID;\n        uint256 move;\n    }\n    mapping(uint256=>Game)private games;\n    mapping(uint256=>mapping(uint256=>Turn))private turns;\n\n\n    modifier itsPlaying(uint256 _gameID){\n        bool res=false;\n        if(games[_gameID].player1==msg.sender)res=true;\n        if(games[_gameID].player2==msg.sender)res=true;\n        require(res,'No estas jugando');\n        _;\n    }\n    modifier currentTurn(uint256 _currentTurn){\n        \n        _;\n    }\n\n    function createGame(address player1,address player2)public{\n\n    }\n    function attack(uint256 _game)itsPlaying(_game)public{\n\n    }\n\n    function block(uint256 _game)itsPlaying(_game)public{\n\n    }\n    function charge(uint256 _game)itsPlaying(_game)public{\n\n    }\n\n    function check(uint256 _gameID,uint256 _turn) public{\n\n    }\n}\n",
  "sourcePath": "/Users/aarontolentino/Desktop/hashima/contracts/CowboyGame.sol",
  "compiler": {
    "name": "solc",
    "version": "0.8.3+commit.8d00100c.Emscripten.clang"
  },
  "schemaVersion": "3.4.1",
  "updatedAt": "2022-02-03T03:13:38.707Z",
  "devdoc": {
    "kind": "dev",
    "methods": {
      "owner()": {
        "details": "Returns the address of the current owner."
      },
      "renounceOwnership()": {
        "details": "Leaves the contract without owner. It will not be possible to call `onlyOwner` functions anymore. Can only be called by the current owner. NOTE: Renouncing ownership will leave the contract without an owner, thereby removing any functionality that is only available to the owner."
      },
      "transferOwnership(address)": {
        "details": "Transfers ownership of the contract to a new account (`newOwner`). Can only be called by the current owner."
      }
    },
    "version": 1
  },
  "userdoc": {
    "kind": "user",
    "methods": {},
    "version": 1
  }
}