{
  "contractName": "HashimaAuction",
  "abi": [
    {
      "inputs": [
        {
          "internalType": "contract Hashima",
          "name": "_hashima",
          "type": "address"
        }
      ],
      "stateMutability": "nonpayable",
      "type": "constructor"
    },
    {
      "anonymous": false,
      "inputs": [
        {
          "indexed": false,
          "internalType": "address",
          "name": "winner",
          "type": "address"
        },
        {
          "indexed": false,
          "internalType": "uint256",
          "name": "amount",
          "type": "uint256"
        }
      ],
      "name": "AuctionEnded",
      "type": "event"
    },
    {
      "anonymous": false,
      "inputs": [
        {
          "indexed": false,
          "internalType": "address",
          "name": "bidder",
          "type": "address"
        },
        {
          "indexed": false,
          "internalType": "uint256",
          "name": "amount",
          "type": "uint256"
        }
      ],
      "name": "HighestBidIncreased",
      "type": "event"
    },
    {
      "inputs": [
        {
          "internalType": "uint256",
          "name": "tokenId",
          "type": "uint256"
        },
        {
          "internalType": "uint256",
          "name": "_tolerance",
          "type": "uint256"
        },
        {
          "internalType": "uint256",
          "name": "_minPrice",
          "type": "uint256"
        }
      ],
      "name": "NewAuction",
      "outputs": [],
      "stateMutability": "nonpayable",
      "type": "function"
    },
    {
      "inputs": [
        {
          "internalType": "uint256",
          "name": "tokenId",
          "type": "uint256"
        }
      ],
      "name": "bid",
      "outputs": [],
      "stateMutability": "payable",
      "type": "function",
      "payable": true
    },
    {
      "inputs": [],
      "name": "withdraw",
      "outputs": [
        {
          "internalType": "bool",
          "name": "",
          "type": "bool"
        }
      ],
      "stateMutability": "nonpayable",
      "type": "function"
    },
    {
      "inputs": [
        {
          "internalType": "uint256",
          "name": "tokenId",
          "type": "uint256"
        }
      ],
      "name": "auctionEnd",
      "outputs": [
        {
          "internalType": "bool",
          "name": "",
          "type": "bool"
        }
      ],
      "stateMutability": "nonpayable",
      "type": "function"
    }
  ],
  "bytecode": "0x60806040523480156200001157600080fd5b506040516200120c3803806200120c833981810160405281019062000037919062000096565b80600360006101000a81548173ffffffffffffffffffffffffffffffffffffffff021916908373ffffffffffffffffffffffffffffffffffffffff1602179055505062000124565b60008151905062000090816200010a565b92915050565b600060208284031215620000a957600080fd5b6000620000b9848285016200007f565b91505092915050565b6000620000cf82620000ea565b9050919050565b6000620000e382620000c2565b9050919050565b600073ffffffffffffffffffffffffffffffffffffffff82169050919050565b6200011581620000d6565b81146200012157600080fd5b50565b6110d880620001346000396000f3fe60806040526004361061003f5760003560e01c80630114aab71461004457806332246e9f1461006d5780633ccfd60b146100aa578063454a2ab3146100d5575b600080fd5b34801561005057600080fd5b5061006b60048036038101906100669190610c33565b6100f1565b005b34801561007957600080fd5b50610094600480360381019061008f9190610c0a565b610392565b6040516100a19190610dbf565b60405180910390f35b3480156100b657600080fd5b506100bf6106f2565b6040516100cc9190610dbf565b60405180910390f35b6100ef60048036038101906100ea9190610c0a565b61084d565b005b826000600360009054906101000a900473ffffffffffffffffffffffffffffffffffffffff1673ffffffffffffffffffffffffffffffffffffffff16636352211e836040518263ffffffff1660e01b815260040161014f9190610e7a565b60206040518083038186803b15801561016757600080fd5b505afa15801561017b573d6000803e3d6000fd5b505050506040513d601f19601f8201168201806040525081019061019f9190610be1565b90503373ffffffffffffffffffffffffffffffffffffffff168173ffffffffffffffffffffffffffffffffffffffff161461020f576040517f08c379a000000000000000000000000000000000000000000000000000000000815260040161020690610dda565b60405180910390fd5b60006040518060c0016040528086436102289190610eb1565b815260200185815260200160008152602001600073ffffffffffffffffffffffffffffffffffffffff1681526020013373ffffffffffffffffffffffffffffffffffffffff168152602001600115158152509050806002600088815260200190815260200160002060008201518160000155602082015181600101556040820151816002015560608201518160030160006101000a81548173ffffffffffffffffffffffffffffffffffffffff021916908373ffffffffffffffffffffffffffffffffffffffff16021790555060808201518160040160006101000a81548173ffffffffffffffffffffffffffffffffffffffff021916908373ffffffffffffffffffffffffffffffffffffffff16021790555060a08201518160040160146101000a81548160ff021916908315150217905550905050600180600088815260200190815260200160002060006101000a81548160ff021916908315150217905550505050505050565b600080600260008481526020019081526020016000206040518060c00160405290816000820154815260200160018201548152602001600282015481526020016003820160009054906101000a900473ffffffffffffffffffffffffffffffffffffffff1673ffffffffffffffffffffffffffffffffffffffff1673ffffffffffffffffffffffffffffffffffffffff1681526020016004820160009054906101000a900473ffffffffffffffffffffffffffffffffffffffff1673ffffffffffffffffffffffffffffffffffffffff1673ffffffffffffffffffffffffffffffffffffffff1681526020016004820160149054906101000a900460ff161515151581525050905060008160600151905060008260800151905060008360400151905060008460a0015190506000856000015190508042101561050a576040517f08c379a000000000000000000000000000000000000000000000000000000000815260040161050190610e3a565b60405180910390fd5b8161054a576040517f08c379a000000000000000000000000000000000000000000000000000000000815260040161054190610e5a565b60405180910390fd5b60008660a001901515908115158152505085600260008a815260200190815260200160002060008201518160000155602082015181600101556040820151816002015560608201518160030160006101000a81548173ffffffffffffffffffffffffffffffffffffffff021916908373ffffffffffffffffffffffffffffffffffffffff16021790555060808201518160040160006101000a81548173ffffffffffffffffffffffffffffffffffffffff021916908373ffffffffffffffffffffffffffffffffffffffff16021790555060a08201518160040160146101000a81548160ff0219169083151502179055509050507fdaec4582d5d9595688c8c98545fdd1c696d41c6aeaeb636737e84ed2f5c00eda858460405161066f929190610d96565b60405180910390a160008473ffffffffffffffffffffffffffffffffffffffff168460405161069d90610d81565b60006040518083038185875af1925050503d80600081146106da576040519150601f19603f3d011682016040523d82523d6000602084013e6106df565b606091505b5050905080975050505050505050919050565b6000806000803373ffffffffffffffffffffffffffffffffffffffff1673ffffffffffffffffffffffffffffffffffffffff16815260200190815260200160002054905060008111156108445760008060003373ffffffffffffffffffffffffffffffffffffffff1673ffffffffffffffffffffffffffffffffffffffff1681526020019081526020016000208190555060003373ffffffffffffffffffffffffffffffffffffffff16826040516107a990610d81565b60006040518083038185875af1925050503d80600081146107e6576040519150601f19603f3d011682016040523d82523d6000602084013e6107eb565b606091505b505090508061084257816000803373ffffffffffffffffffffffffffffffffffffffff1673ffffffffffffffffffffffffffffffffffffffff1681526020019081526020016000208190555060009250505061084a565b505b60019150505b90565b6000600260008381526020019081526020016000206040518060c00160405290816000820154815260200160018201548152602001600282015481526020016003820160009054906101000a900473ffffffffffffffffffffffffffffffffffffffff1673ffffffffffffffffffffffffffffffffffffffff1673ffffffffffffffffffffffffffffffffffffffff1681526020016004820160009054906101000a900473ffffffffffffffffffffffffffffffffffffffff1673ffffffffffffffffffffffffffffffffffffffff1673ffffffffffffffffffffffffffffffffffffffff1681526020016004820160149054906101000a900460ff1615151515815250509050600081600001519050600082604001519050600083606001519050824311156109b2576040517f08c379a00000000000000000000000000000000000000000000000000000000081526004016109a990610dfa565b60405180910390fd5b8134116109f4576040517f08c379a00000000000000000000000000000000000000000000000000000000081526004016109eb90610e1a565b60405180910390fd5b60008214610a5257816000808373ffffffffffffffffffffffffffffffffffffffff1673ffffffffffffffffffffffffffffffffffffffff1681526020019081526020016000206000828254610a4a9190610eb1565b925050819055505b33846060019073ffffffffffffffffffffffffffffffffffffffff16908173ffffffffffffffffffffffffffffffffffffffff168152505034846040018181525050836002600087815260200190815260200160002060008201518160000155602082015181600101556040820151816002015560608201518160030160006101000a81548173ffffffffffffffffffffffffffffffffffffffff021916908373ffffffffffffffffffffffffffffffffffffffff16021790555060808201518160040160006101000a81548173ffffffffffffffffffffffffffffffffffffffff021916908373ffffffffffffffffffffffffffffffffffffffff16021790555060a08201518160040160146101000a81548160ff0219169083151502179055509050507ff4757a49b326036464bec6fe419a4ae38c8a02ce3e68bf0809674f6aab8ad3003334604051610ba8929190610d96565b60405180910390a15050505050565b600081519050610bc681611074565b92915050565b600081359050610bdb8161108b565b92915050565b600060208284031215610bf357600080fd5b6000610c0184828501610bb7565b91505092915050565b600060208284031215610c1c57600080fd5b6000610c2a84828501610bcc565b91505092915050565b600080600060608486031215610c4857600080fd5b6000610c5686828701610bcc565b9350506020610c6786828701610bcc565b9250506040610c7886828701610bcc565b9150509250925092565b610c8b81610f07565b82525050565b610c9a81610f19565b82525050565b6000610cad602083610ea0565b9150610cb882610f7e565b602082019050919050565b6000610cd0601583610ea0565b9150610cdb82610fa7565b602082019050919050565b6000610cf3601e83610ea0565b9150610cfe82610fd0565b602082019050919050565b6000610d16601683610ea0565b9150610d2182610ff9565b602082019050919050565b6000610d39602383610ea0565b9150610d4482611022565b604082019050919050565b6000610d5c600083610e95565b9150610d6782611071565b600082019050919050565b610d7b81610f45565b82525050565b6000610d8c82610d4f565b9150819050919050565b6000604082019050610dab6000830185610c82565b610db86020830184610d72565b9392505050565b6000602082019050610dd46000830184610c91565b92915050565b60006020820190508181036000830152610df381610ca0565b9050919050565b60006020820190508181036000830152610e1381610cc3565b9050919050565b60006020820190508181036000830152610e3381610ce6565b9050919050565b60006020820190508181036000830152610e5381610d09565b9050919050565b60006020820190508181036000830152610e7381610d2c565b9050919050565b6000602082019050610e8f6000830184610d72565b92915050565b600081905092915050565b600082825260208201905092915050565b6000610ebc82610f45565b9150610ec783610f45565b9250827fffffffffffffffffffffffffffffffffffffffffffffffffffffffffffffffff03821115610efc57610efb610f4f565b5b828201905092915050565b6000610f1282610f25565b9050919050565b60008115159050919050565b600073ffffffffffffffffffffffffffffffffffffffff82169050919050565b6000819050919050565b7f4e487b7100000000000000000000000000000000000000000000000000000000600052601160045260246000fd5b7f4f6e6c79207468652068617368696d61206f776e65722063616e20646f206974600082015250565b7f41756374696f6e20616c726561647920656e6465640000000000000000000000600082015250565b7f546865726520616c7265616479206973206120686967686572206269642e0000600082015250565b7f41756374696f6e206e6f742079657420656e6465642e00000000000000000000600082015250565b7f61756374696f6e456e642068617320616c7265616479206265656e2063616c6c60008201527f65642e0000000000000000000000000000000000000000000000000000000000602082015250565b50565b61107d81610f07565b811461108857600080fd5b50565b61109481610f45565b811461109f57600080fd5b5056fea264697066735822122063f69f9bb8f1a2756b4d2388144aca58bfcad93d9ddfe228555004af6305f6e164736f6c63430008030033",
  "immutableReferences": {},
  "source": "// SPDX-License-Identifier: MIT\npragma solidity ^0.8.0;\n\nimport './Hashima.sol';\n\n\ncontract HashimaAuction {\n  \n\n    // Allowed withdrawals of previous bids\n    mapping(address => uint) pendingReturns;\n\n    struct Auction {\n        uint256 auctionBidPeriod; //periodo de subasta en numero de bloques\n        uint256 minPrice;//en wei\n        uint256 nftHighestBid;//la apuesta mas grande \n        address nftHighestBidder;\n        address nftSeller;\n        bool active;\n\n    }\n\n    mapping(uint256=>bool) hashimaOnAction;\n    mapping(uint256=>Auction) auctions;\n\n    // Events that will be emitted on changes.\n    event HighestBidIncreased(address bidder, uint amount);\n    event AuctionEnded(address winner, uint amount);\n\n\n    Hashima private hashima;\n\n    constructor(Hashima _hashima){\n        hashima=_hashima;\n    }\n\n    modifier isHashimaOwner(uint256 tokenId){\n        address _owner=hashima.ownerOf(tokenId);\n        require(_owner==msg.sender,'Only the hashima owner can do it');\n        _;\n    }\n\n    function NewAuction(uint256 tokenId,uint256 _tolerance,\n        uint256 _minPrice)isHashimaOwner(tokenId) public{\n        \n        Auction memory _newAuction=Auction(\n            block.number+_tolerance,\n            _minPrice,\n            0,\n            address(0),\n            msg.sender,\n            true\n            );\n\n        auctions[tokenId]=_newAuction;\n        hashimaOnAction[tokenId]=true;\n        \n    }\n\n   \n\n    function bid(uint256 tokenId) public payable {\n        Auction memory _auction=auctions[tokenId];\n        uint256 blockTime=_auction.auctionBidPeriod;\n        uint256 _highestBid=_auction.nftHighestBid;\n        address _high_bidder=_auction.nftHighestBidder;\n\n\n\n        require(block.number <= blockTime,\n            \"Auction already ended\");\n\n        // If the bid is not higher, send the\n        // money back.\n        require(msg.value > _highestBid,\n            \"There already is a higher bid.\"\n        );\n\n        if (_highestBid != 0) {\n            \n            pendingReturns[_high_bidder] += _highestBid;\n        }\n        _auction.nftHighestBidder = msg.sender;\n        _auction.nftHighestBid= msg.value;\n\n        auctions[tokenId]=_auction;\n        emit HighestBidIncreased(msg.sender, msg.value);\n    }\n\n    /// Withdraw a bid that was overbid.\n    function withdraw() public returns (bool) {\n        uint amount = pendingReturns[msg.sender];\n        if (amount > 0) {\n            // It is important to set this to zero because the recipient\n            // can call this function again as part of the receiving call\n            // before `send` returns.\n            pendingReturns[msg.sender] = 0;\n            (bool _answer,)=payable(msg.sender).call{value:amount}(\"\");\n            if (!_answer) {\n                // No need to call throw here, just reset the amount owing\n                pendingReturns[msg.sender] = amount;\n                return false;\n            }\n        }\n        return true;\n    }\n\n    //esta funciona la llama el usuario al termionar el tiempo de subasta\n    function auctionEnd(uint256 tokenId) public returns(bool){\n        Auction memory _auction=auctions[tokenId];\n        address _highestBidder=_auction.nftHighestBidder;\n        address _nftSeller=_auction.nftSeller;\n        uint256 _high_bid=_auction.nftHighestBid;\n        bool activo=_auction.active;\n        uint256 block_time=_auction.auctionBidPeriod;\n\n        require(block.timestamp >= block_time, \"Auction not yet ended.\");\n        require(activo, \"auctionEnd has already been called.\");\n\n        _auction.active=false;\n        auctions[tokenId]=_auction;\n        \n        emit AuctionEnded(_highestBidder, _high_bid);\n\n   \n        (bool sent, ) = _nftSeller.call{value: _high_bid}(\"\");\n        return sent;\n    }\n}",
  "sourcePath": "/Users/aarontolentino/Desktop/hashima/contracts/Auction.sol",
  "compiler": {
    "name": "solc",
    "version": "0.8.3+commit.8d00100c.Emscripten.clang"
  },
  "schemaVersion": "3.4.1",
  "updatedAt": "2022-02-10T03:19:07.639Z",
  "networkType": "ethereum",
  "devdoc": {
    "kind": "dev",
    "methods": {},
    "version": 1
  },
  "userdoc": {
    "kind": "user",
    "methods": {
      "withdraw()": {
        "notice": "Withdraw a bid that was overbid."
      }
    },
    "version": 1
  }
}