{
  "contractName": "Hashi",
  "abi": [
    {
      "inputs": [
        {
          "internalType": "contract Hashima",
          "name": "_contrato",
          "type": "address"
        }
      ],
      "stateMutability": "nonpayable",
      "type": "constructor"
    },
    {
      "anonymous": false,
      "inputs": [
        {
          "indexed": true,
          "internalType": "address",
          "name": "owner",
          "type": "address"
        },
        {
          "indexed": true,
          "internalType": "address",
          "name": "spender",
          "type": "address"
        },
        {
          "indexed": false,
          "internalType": "uint256",
          "name": "value",
          "type": "uint256"
        }
      ],
      "name": "Approval",
      "type": "event"
    },
    {
      "anonymous": false,
      "inputs": [
        {
          "indexed": true,
          "internalType": "address",
          "name": "from",
          "type": "address"
        },
        {
          "indexed": true,
          "internalType": "address",
          "name": "to",
          "type": "address"
        },
        {
          "indexed": false,
          "internalType": "uint256",
          "name": "value",
          "type": "uint256"
        }
      ],
      "name": "Transfer",
      "type": "event"
    },
    {
      "inputs": [],
      "name": "REWARD_PER_BLOCK",
      "outputs": [
        {
          "internalType": "uint256",
          "name": "",
          "type": "uint256"
        }
      ],
      "stateMutability": "view",
      "type": "function",
      "constant": true
    },
    {
      "inputs": [
        {
          "internalType": "address",
          "name": "owner",
          "type": "address"
        },
        {
          "internalType": "address",
          "name": "spender",
          "type": "address"
        }
      ],
      "name": "allowance",
      "outputs": [
        {
          "internalType": "uint256",
          "name": "",
          "type": "uint256"
        }
      ],
      "stateMutability": "view",
      "type": "function",
      "constant": true
    },
    {
      "inputs": [
        {
          "internalType": "address",
          "name": "spender",
          "type": "address"
        },
        {
          "internalType": "uint256",
          "name": "amount",
          "type": "uint256"
        }
      ],
      "name": "approve",
      "outputs": [
        {
          "internalType": "bool",
          "name": "",
          "type": "bool"
        }
      ],
      "stateMutability": "nonpayable",
      "type": "function"
    },
    {
      "inputs": [
        {
          "internalType": "address",
          "name": "account",
          "type": "address"
        }
      ],
      "name": "balanceOf",
      "outputs": [
        {
          "internalType": "uint256",
          "name": "",
          "type": "uint256"
        }
      ],
      "stateMutability": "view",
      "type": "function",
      "constant": true
    },
    {
      "inputs": [
        {
          "internalType": "address",
          "name": "",
          "type": "address"
        },
        {
          "internalType": "uint256",
          "name": "",
          "type": "uint256"
        }
      ],
      "name": "checkpoints",
      "outputs": [
        {
          "internalType": "uint256",
          "name": "",
          "type": "uint256"
        }
      ],
      "stateMutability": "view",
      "type": "function",
      "constant": true
    },
    {
      "inputs": [],
      "name": "decimals",
      "outputs": [
        {
          "internalType": "uint8",
          "name": "",
          "type": "uint8"
        }
      ],
      "stateMutability": "view",
      "type": "function",
      "constant": true
    },
    {
      "inputs": [
        {
          "internalType": "address",
          "name": "spender",
          "type": "address"
        },
        {
          "internalType": "uint256",
          "name": "subtractedValue",
          "type": "uint256"
        }
      ],
      "name": "decreaseAllowance",
      "outputs": [
        {
          "internalType": "bool",
          "name": "",
          "type": "bool"
        }
      ],
      "stateMutability": "nonpayable",
      "type": "function"
    },
    {
      "inputs": [
        {
          "internalType": "uint256",
          "name": "",
          "type": "uint256"
        }
      ],
      "name": "has_deposited",
      "outputs": [
        {
          "internalType": "bool",
          "name": "",
          "type": "bool"
        }
      ],
      "stateMutability": "view",
      "type": "function",
      "constant": true
    },
    {
      "inputs": [
        {
          "internalType": "address",
          "name": "spender",
          "type": "address"
        },
        {
          "internalType": "uint256",
          "name": "addedValue",
          "type": "uint256"
        }
      ],
      "name": "increaseAllowance",
      "outputs": [
        {
          "internalType": "bool",
          "name": "",
          "type": "bool"
        }
      ],
      "stateMutability": "nonpayable",
      "type": "function"
    },
    {
      "inputs": [],
      "name": "name",
      "outputs": [
        {
          "internalType": "string",
          "name": "",
          "type": "string"
        }
      ],
      "stateMutability": "view",
      "type": "function",
      "constant": true
    },
    {
      "inputs": [
        {
          "internalType": "uint256",
          "name": "",
          "type": "uint256"
        }
      ],
      "name": "staking_accounts",
      "outputs": [
        {
          "internalType": "address",
          "name": "",
          "type": "address"
        }
      ],
      "stateMutability": "view",
      "type": "function",
      "constant": true
    },
    {
      "inputs": [],
      "name": "symbol",
      "outputs": [
        {
          "internalType": "string",
          "name": "",
          "type": "string"
        }
      ],
      "stateMutability": "view",
      "type": "function",
      "constant": true
    },
    {
      "inputs": [],
      "name": "totalSupply",
      "outputs": [
        {
          "internalType": "uint256",
          "name": "",
          "type": "uint256"
        }
      ],
      "stateMutability": "view",
      "type": "function",
      "constant": true
    },
    {
      "inputs": [
        {
          "internalType": "address",
          "name": "recipient",
          "type": "address"
        },
        {
          "internalType": "uint256",
          "name": "amount",
          "type": "uint256"
        }
      ],
      "name": "transfer",
      "outputs": [
        {
          "internalType": "bool",
          "name": "",
          "type": "bool"
        }
      ],
      "stateMutability": "nonpayable",
      "type": "function"
    },
    {
      "inputs": [
        {
          "internalType": "address",
          "name": "sender",
          "type": "address"
        },
        {
          "internalType": "address",
          "name": "recipient",
          "type": "address"
        },
        {
          "internalType": "uint256",
          "name": "amount",
          "type": "uint256"
        }
      ],
      "name": "transferFrom",
      "outputs": [
        {
          "internalType": "bool",
          "name": "",
          "type": "bool"
        }
      ],
      "stateMutability": "nonpayable",
      "type": "function"
    },
    {
      "inputs": [
        {
          "internalType": "uint256",
          "name": "tokenId",
          "type": "uint256"
        }
      ],
      "name": "aprovar",
      "outputs": [],
      "stateMutability": "nonpayable",
      "type": "function"
    },
    {
      "inputs": [
        {
          "internalType": "uint256",
          "name": "tokenId",
          "type": "uint256"
        }
      ],
      "name": "deposit",
      "outputs": [],
      "stateMutability": "nonpayable",
      "type": "function"
    },
    {
      "inputs": [
        {
          "internalType": "uint256",
          "name": "tokenId",
          "type": "uint256"
        }
      ],
      "name": "withdraw",
      "outputs": [],
      "stateMutability": "nonpayable",
      "type": "function"
    },
    {
      "inputs": [
        {
          "internalType": "address",
          "name": "beneficiary",
          "type": "address"
        },
        {
          "internalType": "uint256",
          "name": "tokenId",
          "type": "uint256"
        }
      ],
      "name": "collect",
      "outputs": [],
      "stateMutability": "nonpayable",
      "type": "function"
    },
    {
      "inputs": [
        {
          "internalType": "uint256",
          "name": "tokenId",
          "type": "uint256"
        }
      ],
      "name": "hashimaOnStaking",
      "outputs": [
        {
          "internalType": "bool",
          "name": "",
          "type": "bool"
        }
      ],
      "stateMutability": "view",
      "type": "function",
      "constant": true
    },
    {
      "inputs": [
        {
          "internalType": "address",
          "name": "beneficiary",
          "type": "address"
        },
        {
          "internalType": "uint256",
          "name": "tokenId",
          "type": "uint256"
        }
      ],
      "name": "calculateReward",
      "outputs": [
        {
          "internalType": "uint256",
          "name": "",
          "type": "uint256"
        }
      ],
      "stateMutability": "view",
      "type": "function",
      "constant": true
    }
  ],
  "bytecode": "0x608060405260016008553480156200001657600080fd5b5060405162002a9d38038062002a9d83398181016040528101906200003c9190620001eb565b6040518060400160405280600581526020017f48617368690000000000000000000000000000000000000000000000000000008152506040518060400160405280600581526020017f48415348490000000000000000000000000000000000000000000000000000008152508160039080519060200190620000c092919062000124565b508060049080519060200190620000d992919062000124565b50505080600960006101000a81548173ffffffffffffffffffffffffffffffffffffffff021916908373ffffffffffffffffffffffffffffffffffffffff16021790555050620002de565b82805462000132906200025f565b90600052602060002090601f016020900481019282620001565760008555620001a2565b82601f106200017157805160ff1916838001178555620001a2565b82800160010185558215620001a2579182015b82811115620001a157825182559160200191906001019062000184565b5b509050620001b19190620001b5565b5090565b5b80821115620001d0576000816000905550600101620001b6565b5090565b600081519050620001e581620002c4565b92915050565b600060208284031215620001fe57600080fd5b60006200020e84828501620001d4565b91505092915050565b600062000224826200023f565b9050919050565b6000620002388262000217565b9050919050565b600073ffffffffffffffffffffffffffffffffffffffff82169050919050565b600060028204905060018216806200027857607f821691505b602082108114156200028f576200028e62000295565b5b50919050565b7f4e487b7100000000000000000000000000000000000000000000000000000000600052602260045260246000fd5b620002cf816200022b565b8114620002db57600080fd5b50565b6127af80620002ee6000396000f3fe608060405234801561001057600080fd5b50600436106101375760003560e01c806357ddb1ed116100b8578063a457c2d71161007c578063a457c2d714610376578063a9059cbb146103a6578063af9d1632146103d6578063b6b55f2514610406578063dd62ed3e14610422578063e68039c61461045257610137565b806357ddb1ed146102d25780636b8357ac146102ee57806370a082311461030a57806395d89b411461033a578063975532dc1461035857610137565b806323b872dd116100ff57806323b872dd146102085780632e1a7d4d14610238578063313ce56714610254578063386082351461027257806339509351146102a257610137565b806306fdde031461013c578063095ea7b31461015a5780630cdfebfa1461018a57806318160ddd146101ba5780631852e8d9146101d8575b600080fd5b610144610482565b6040516101519190611ec3565b60405180910390f35b610174600480360381019061016f9190611b5f565b610514565b6040516101819190611ea8565b60405180910390f35b6101a4600480360381019061019f9190611b5f565b610532565b6040516101b19190612065565b60405180910390f35b6101c2610557565b6040516101cf9190612065565b60405180910390f35b6101f260048036038101906101ed9190611b5f565b610561565b6040516101ff9190612065565b60405180910390f35b610222600480360381019061021d9190611b10565b6106f5565b60405161022f9190611ea8565b60405180910390f35b610252600480360381019061024d9190611bdc565b6107ed565b005b61025c6109b8565b60405161026991906120a9565b60405180910390f35b61028c60048036038101906102879190611bdc565b6109c1565b6040516102999190611ea8565b60405180910390f35b6102bc60048036038101906102b79190611b5f565b6109eb565b6040516102c99190611ea8565b60405180910390f35b6102ec60048036038101906102e79190611bdc565b610a97565b005b61030860048036038101906103039190611b5f565b610b29565b005b610324600480360381019061031f9190611a82565b610b9b565b6040516103319190612065565b60405180910390f35b610342610be3565b60405161034f9190611ec3565b60405180910390f35b610360610c75565b60405161036d9190612065565b60405180910390f35b610390600480360381019061038b9190611b5f565b610c7b565b60405161039d9190611ea8565b60405180910390f35b6103c060048036038101906103bb9190611b5f565b610d66565b6040516103cd9190611ea8565b60405180910390f35b6103f060048036038101906103eb9190611bdc565b610d84565b6040516103fd9190611ea8565b60405180910390f35b610420600480360381019061041b9190611bdc565b610da4565b005b61043c60048036038101906104379190611ad4565b6111d4565b6040516104499190612065565b60405180910390f35b61046c60048036038101906104679190611bdc565b61125b565b6040516104799190611e2d565b60405180910390f35b606060038054610491906122f7565b80601f01602080910402602001604051908101604052809291908181526020018280546104bd906122f7565b801561050a5780601f106104df5761010080835404028352916020019161050a565b820191906000526020600020905b8154815290600101906020018083116104ed57829003601f168201915b5050505050905090565b600061052861052161128e565b8484611296565b6001905092915050565b6005602052816000526040600020602052806000526040600020600091509150505481565b6000600254905090565b60006006600083815260200190815260200160002060009054906101000a900460ff1661059157600090506106ef565b6000600960009054906101000a900473ffffffffffffffffffffffffffffffffffffffff1673ffffffffffffffffffffffffffffffffffffffff1663d43525c3846040518263ffffffff1660e01b81526004016105ee9190612065565b60006040518083038186803b15801561060657600080fd5b505afa15801561061a573d6000803e3d6000fd5b505050506040513d6000823e3d601f19601f820116820180604052508101906106439190611b9b565b60e00151905060008160406103e8848561065d91906121bd565b61066791906121bd565b610671919061218c565b61067b9190612217565b90506000600560008773ffffffffffffffffffffffffffffffffffffffff1673ffffffffffffffffffffffffffffffffffffffff168152602001908152602001600020600086815260200190815260200160002054905080436106de9190612217565b826106e991906121bd565b93505050505b92915050565b6000610702848484611461565b6000600160008673ffffffffffffffffffffffffffffffffffffffff1673ffffffffffffffffffffffffffffffffffffffff168152602001908152602001600020600061074d61128e565b73ffffffffffffffffffffffffffffffffffffffff1673ffffffffffffffffffffffffffffffffffffffff168152602001908152602001600020549050828110156107cd576040517f08c379a00000000000000000000000000000000000000000000000000000000081526004016107c490611fc5565b60405180910390fd5b6107e1856107d961128e565b858403611296565b60019150509392505050565b6006600082815260200190815260200160002060009054906101000a900460ff1661084d576040517f08c379a000000000000000000000000000000000000000000000000000000000815260040161084490611f45565b60405180910390fd5b3373ffffffffffffffffffffffffffffffffffffffff166007600083815260200190815260200160002060009054906101000a900473ffffffffffffffffffffffffffffffffffffffff1673ffffffffffffffffffffffffffffffffffffffff16146108ee576040517f08c379a00000000000000000000000000000000000000000000000000000000081526004016108e590611f05565b60405180910390fd5b6108f83382610b29565b600960009054906101000a900473ffffffffffffffffffffffffffffffffffffffff1673ffffffffffffffffffffffffffffffffffffffff166323b872dd3033846040518463ffffffff1660e01b815260040161095793929190611e48565b600060405180830381600087803b15801561097157600080fd5b505af1158015610985573d6000803e3d6000fd5b5050505060006006600083815260200190815260200160002060006101000a81548160ff02191690831515021790555050565b60006012905090565b60006006600083815260200190815260200160002060009054906101000a900460ff169050919050565b6000610a8d6109f861128e565b848460016000610a0661128e565b73ffffffffffffffffffffffffffffffffffffffff1673ffffffffffffffffffffffffffffffffffffffff16815260200190815260200160002060008873ffffffffffffffffffffffffffffffffffffffff1673ffffffffffffffffffffffffffffffffffffffff16815260200190815260200160002054610a889190612136565b611296565b6001905092915050565b600960009054906101000a900473ffffffffffffffffffffffffffffffffffffffff1673ffffffffffffffffffffffffffffffffffffffff1663095ea7b330836040518363ffffffff1660e01b8152600401610af4929190611e7f565b600060405180830381600087803b158015610b0e57600080fd5b505af1158015610b22573d6000803e3d6000fd5b5050505050565b6000610b358383610561565b905043600560008573ffffffffffffffffffffffffffffffffffffffff1673ffffffffffffffffffffffffffffffffffffffff168152602001908152602001600020600084815260200190815260200160002081905550610b9633826116e2565b505050565b60008060008373ffffffffffffffffffffffffffffffffffffffff1673ffffffffffffffffffffffffffffffffffffffff168152602001908152602001600020549050919050565b606060048054610bf2906122f7565b80601f0160208091040260200160405190810160405280929190818152602001828054610c1e906122f7565b8015610c6b5780601f10610c4057610100808354040283529160200191610c6b565b820191906000526020600020905b815481529060010190602001808311610c4e57829003601f168201915b5050505050905090565b60085481565b60008060016000610c8a61128e565b73ffffffffffffffffffffffffffffffffffffffff1673ffffffffffffffffffffffffffffffffffffffff16815260200190815260200160002060008573ffffffffffffffffffffffffffffffffffffffff1673ffffffffffffffffffffffffffffffffffffffff16815260200190815260200160002054905082811015610d47576040517f08c379a0000000000000000000000000000000000000000000000000000000008152600401610d3e90612025565b60405180910390fd5b610d5b610d5261128e565b85858403611296565b600191505092915050565b6000610d7a610d7361128e565b8484611461565b6001905092915050565b60066020528060005260406000206000915054906101000a900460ff1681565b600960009054906101000a900473ffffffffffffffffffffffffffffffffffffffff1673ffffffffffffffffffffffffffffffffffffffff16636352211e826040518263ffffffff1660e01b8152600401610dff9190612065565b60206040518083038186803b158015610e1757600080fd5b505afa158015610e2b573d6000803e3d6000fd5b505050506040513d601f19601f82011682018060405250810190610e4f9190611aab565b73ffffffffffffffffffffffffffffffffffffffff163373ffffffffffffffffffffffffffffffffffffffff1614610ebc576040517f08c379a0000000000000000000000000000000000000000000000000000000008152600401610eb390611f65565b60405180910390fd5b6006600082815260200190815260200160002060009054906101000a900460ff1615610f1d576040517f08c379a0000000000000000000000000000000000000000000000000000000008152600401610f1490611fa5565b60405180910390fd5b43600560003373ffffffffffffffffffffffffffffffffffffffff1673ffffffffffffffffffffffffffffffffffffffff168152602001908152602001600020600083815260200190815260200160002081905550336007600083815260200190815260200160002060006101000a81548173ffffffffffffffffffffffffffffffffffffffff021916908373ffffffffffffffffffffffffffffffffffffffff160217905550600960009054906101000a900473ffffffffffffffffffffffffffffffffffffffff1673ffffffffffffffffffffffffffffffffffffffff166323b872dd3330846040518463ffffffff1660e01b815260040161102393929190611e48565b600060405180830381600087803b15801561103d57600080fd5b505af1158015611051573d6000803e3d6000fd5b505050506000600960009054906101000a900473ffffffffffffffffffffffffffffffffffffffff1673ffffffffffffffffffffffffffffffffffffffff1663d43525c3836040518263ffffffff1660e01b81526004016110b29190612065565b60006040518083038186803b1580156110ca57600080fd5b505afa1580156110de573d6000803e3d6000fd5b505050506040513d6000823e3d601f19601f820116820180604052508101906111079190611b9b565b60c00151905080156111a457600960009054906101000a900473ffffffffffffffffffffffffffffffffffffffff1673ffffffffffffffffffffffffffffffffffffffff1663d7a1aed28360006040518363ffffffff1660e01b8152600401611171929190612080565b600060405180830381600087803b15801561118b57600080fd5b505af115801561119f573d6000803e3d6000fd5b505050505b60016006600084815260200190815260200160002060006101000a81548160ff0219169083151502179055505050565b6000600160008473ffffffffffffffffffffffffffffffffffffffff1673ffffffffffffffffffffffffffffffffffffffff16815260200190815260200160002060008373ffffffffffffffffffffffffffffffffffffffff1673ffffffffffffffffffffffffffffffffffffffff16815260200190815260200160002054905092915050565b60076020528060005260406000206000915054906101000a900473ffffffffffffffffffffffffffffffffffffffff1681565b600033905090565b600073ffffffffffffffffffffffffffffffffffffffff168373ffffffffffffffffffffffffffffffffffffffff161415611306576040517f08c379a00000000000000000000000000000000000000000000000000000000081526004016112fd90612005565b60405180910390fd5b600073ffffffffffffffffffffffffffffffffffffffff168273ffffffffffffffffffffffffffffffffffffffff161415611376576040517f08c379a000000000000000000000000000000000000000000000000000000000815260040161136d90611f25565b60405180910390fd5b80600160008573ffffffffffffffffffffffffffffffffffffffff1673ffffffffffffffffffffffffffffffffffffffff16815260200190815260200160002060008473ffffffffffffffffffffffffffffffffffffffff1673ffffffffffffffffffffffffffffffffffffffff168152602001908152602001600020819055508173ffffffffffffffffffffffffffffffffffffffff168373ffffffffffffffffffffffffffffffffffffffff167f8c5be1e5ebec7d5bd14f71427d1e84f3dd0314c0f7b2291e5b200ac8c7c3b925836040516114549190612065565b60405180910390a3505050565b600073ffffffffffffffffffffffffffffffffffffffff168373ffffffffffffffffffffffffffffffffffffffff1614156114d1576040517f08c379a00000000000000000000000000000000000000000000000000000000081526004016114c890611fe5565b60405180910390fd5b600073ffffffffffffffffffffffffffffffffffffffff168273ffffffffffffffffffffffffffffffffffffffff161415611541576040517f08c379a000000000000000000000000000000000000000000000000000000000815260040161153890611ee5565b60405180910390fd5b61154c838383611842565b60008060008573ffffffffffffffffffffffffffffffffffffffff1673ffffffffffffffffffffffffffffffffffffffff168152602001908152602001600020549050818110156115d2576040517f08c379a00000000000000000000000000000000000000000000000000000000081526004016115c990611f85565b60405180910390fd5b8181036000808673ffffffffffffffffffffffffffffffffffffffff1673ffffffffffffffffffffffffffffffffffffffff16815260200190815260200160002081905550816000808573ffffffffffffffffffffffffffffffffffffffff1673ffffffffffffffffffffffffffffffffffffffff16815260200190815260200160002060008282546116659190612136565b925050819055508273ffffffffffffffffffffffffffffffffffffffff168473ffffffffffffffffffffffffffffffffffffffff167fddf252ad1be2c89b69c2b068fc378daa952ba7f163c4a11628f55a4df523b3ef846040516116c99190612065565b60405180910390a36116dc848484611847565b50505050565b600073ffffffffffffffffffffffffffffffffffffffff168273ffffffffffffffffffffffffffffffffffffffff161415611752576040517f08c379a000000000000000000000000000000000000000000000000000000000815260040161174990612045565b60405180910390fd5b61175e60008383611842565b80600260008282546117709190612136565b92505081905550806000808473ffffffffffffffffffffffffffffffffffffffff1673ffffffffffffffffffffffffffffffffffffffff16815260200190815260200160002060008282546117c59190612136565b925050819055508173ffffffffffffffffffffffffffffffffffffffff16600073ffffffffffffffffffffffffffffffffffffffff167fddf252ad1be2c89b69c2b068fc378daa952ba7f163c4a11628f55a4df523b3ef8360405161182a9190612065565b60405180910390a361183e60008383611847565b5050565b505050565b505050565b600061185f61185a846120e9565b6120c4565b90508281526020810184848401111561187757600080fd5b6118828482856122c4565b509392505050565b6000813590506118998161271d565b92915050565b6000815190506118ae8161271d565b92915050565b6000815190506118c381612734565b92915050565b6000815190506118d88161274b565b92915050565b600082601f8301126118ef57600080fd5b81516118ff84826020860161184c565b91505092915050565b6000610160828403121561191b57600080fd5b6119266101606120c4565b9050600061193684828501611a6d565b600083015250602082015167ffffffffffffffff81111561195657600080fd5b611962848285016118de565b602083015250604082015167ffffffffffffffff81111561198257600080fd5b61198e848285016118de565b60408301525060606119a2848285016118b4565b60608301525060806119b6848285016118b4565b60808301525060a06119ca84828501611a6d565b60a08301525060c06119de848285016118c9565b60c08301525060e06119f284828501611a6d565b60e083015250610100611a0784828501611a6d565b6101008301525061012082015167ffffffffffffffff811115611a2957600080fd5b611a35848285016118de565b61012083015250610140611a4b848285016118c9565b6101408301525092915050565b600081359050611a6781612762565b92915050565b600081519050611a7c81612762565b92915050565b600060208284031215611a9457600080fd5b6000611aa28482850161188a565b91505092915050565b600060208284031215611abd57600080fd5b6000611acb8482850161189f565b91505092915050565b60008060408385031215611ae757600080fd5b6000611af58582860161188a565b9250506020611b068582860161188a565b9150509250929050565b600080600060608486031215611b2557600080fd5b6000611b338682870161188a565b9350506020611b448682870161188a565b9250506040611b5586828701611a58565b9150509250925092565b60008060408385031215611b7257600080fd5b6000611b808582860161188a565b9250506020611b9185828601611a58565b9150509250929050565b600060208284031215611bad57600080fd5b600082015167ffffffffffffffff811115611bc757600080fd5b611bd384828501611908565b91505092915050565b600060208284031215611bee57600080fd5b6000611bfc84828501611a58565b91505092915050565b611c0e8161224b565b82525050565b611c1d8161226f565b82525050565b611c2c816122b2565b82525050565b6000611c3d8261211a565b611c478185612125565b9350611c578185602086016122c4565b611c6081612416565b840191505092915050565b6000611c78602383612125565b9150611c8382612427565b604082019050919050565b6000611c9b600f83612125565b9150611ca682612476565b602082019050919050565b6000611cbe602283612125565b9150611cc98261249f565b604082019050919050565b6000611ce1601583612125565b9150611cec826124ee565b602082019050919050565b6000611d04601483612125565b9150611d0f82612517565b602082019050919050565b6000611d27602683612125565b9150611d3282612540565b604082019050919050565b6000611d4a601883612125565b9150611d558261258f565b602082019050919050565b6000611d6d602883612125565b9150611d78826125b8565b604082019050919050565b6000611d90602583612125565b9150611d9b82612607565b604082019050919050565b6000611db3602483612125565b9150611dbe82612656565b604082019050919050565b6000611dd6602583612125565b9150611de1826126a5565b604082019050919050565b6000611df9601f83612125565b9150611e04826126f4565b602082019050919050565b611e188161229b565b82525050565b611e27816122a5565b82525050565b6000602082019050611e426000830184611c05565b92915050565b6000606082019050611e5d6000830186611c05565b611e6a6020830185611c05565b611e776040830184611e0f565b949350505050565b6000604082019050611e946000830185611c05565b611ea16020830184611e0f565b9392505050565b6000602082019050611ebd6000830184611c14565b92915050565b60006020820190508181036000830152611edd8184611c32565b905092915050565b60006020820190508181036000830152611efe81611c6b565b9050919050565b60006020820190508181036000830152611f1e81611c8e565b9050919050565b60006020820190508181036000830152611f3e81611cb1565b9050919050565b60006020820190508181036000830152611f5e81611cd4565b9050919050565b60006020820190508181036000830152611f7e81611cf7565b9050919050565b60006020820190508181036000830152611f9e81611d1a565b9050919050565b60006020820190508181036000830152611fbe81611d3d565b9050919050565b60006020820190508181036000830152611fde81611d60565b9050919050565b60006020820190508181036000830152611ffe81611d83565b9050919050565b6000602082019050818103600083015261201e81611da6565b9050919050565b6000602082019050818103600083015261203e81611dc9565b9050919050565b6000602082019050818103600083015261205e81611dec565b9050919050565b600060208201905061207a6000830184611e0f565b92915050565b60006040820190506120956000830185611e0f565b6120a26020830184611c23565b9392505050565b60006020820190506120be6000830184611e1e565b92915050565b60006120ce6120df565b90506120da8282612329565b919050565b6000604051905090565b600067ffffffffffffffff821115612104576121036123e7565b5b61210d82612416565b9050602081019050919050565b600081519050919050565b600082825260208201905092915050565b60006121418261229b565b915061214c8361229b565b9250827fffffffffffffffffffffffffffffffffffffffffffffffffffffffffffffffff038211156121815761218061235a565b5b828201905092915050565b60006121978261229b565b91506121a28361229b565b9250826121b2576121b1612389565b5b828204905092915050565b60006121c88261229b565b91506121d38361229b565b9250817fffffffffffffffffffffffffffffffffffffffffffffffffffffffffffffffff048311821515161561220c5761220b61235a565b5b828202905092915050565b60006122228261229b565b915061222d8361229b565b9250828210156122405761223f61235a565b5b828203905092915050565b60006122568261227b565b9050919050565b60006122688261227b565b9050919050565b60008115159050919050565b600073ffffffffffffffffffffffffffffffffffffffff82169050919050565b6000819050919050565b600060ff82169050919050565b60006122bd8261229b565b9050919050565b60005b838110156122e25780820151818401526020810190506122c7565b838111156122f1576000848401525b50505050565b6000600282049050600182168061230f57607f821691505b60208210811415612323576123226123b8565b5b50919050565b61233282612416565b810181811067ffffffffffffffff82111715612351576123506123e7565b5b80604052505050565b7f4e487b7100000000000000000000000000000000000000000000000000000000600052601160045260246000fd5b7f4e487b7100000000000000000000000000000000000000000000000000000000600052601260045260246000fd5b7f4e487b7100000000000000000000000000000000000000000000000000000000600052602260045260246000fd5b7f4e487b7100000000000000000000000000000000000000000000000000000000600052604160045260246000fd5b6000601f19601f8301169050919050565b7f45524332303a207472616e7366657220746f20746865207a65726f206164647260008201527f6573730000000000000000000000000000000000000000000000000000000000602082015250565b7f4f6e6c7920746865205374616b65720000000000000000000000000000000000600082015250565b7f45524332303a20617070726f766520746f20746865207a65726f20616464726560008201527f7373000000000000000000000000000000000000000000000000000000000000602082015250565b7f4e6f20746f6b656e7320746f2077697468646172770000000000000000000000600082015250565b7f53656e646572206d757374206265206f776e6572000000000000000000000000600082015250565b7f45524332303a207472616e7366657220616d6f756e742065786365656473206260008201527f616c616e63650000000000000000000000000000000000000000000000000000602082015250565b7f53656e64657220616c7265616479206465706f73697465640000000000000000600082015250565b7f45524332303a207472616e7366657220616d6f756e742065786365656473206160008201527f6c6c6f77616e6365000000000000000000000000000000000000000000000000602082015250565b7f45524332303a207472616e736665722066726f6d20746865207a65726f20616460008201527f6472657373000000000000000000000000000000000000000000000000000000602082015250565b7f45524332303a20617070726f76652066726f6d20746865207a65726f2061646460008201527f7265737300000000000000000000000000000000000000000000000000000000602082015250565b7f45524332303a2064656372656173656420616c6c6f77616e63652062656c6f7760008201527f207a65726f000000000000000000000000000000000000000000000000000000602082015250565b7f45524332303a206d696e7420746f20746865207a65726f206164647265737300600082015250565b6127268161224b565b811461273157600080fd5b50565b61273d8161225d565b811461274857600080fd5b50565b6127548161226f565b811461275f57600080fd5b50565b61276b8161229b565b811461277657600080fd5b5056fea2646970667358221220dbb83fa79cde2046819470f00040ee5fddd469f52b679e9ba19f960fef951cb264736f6c63430008030033",
  "immutableReferences": {},
  "source": "// SPDX-License-Identifier: MIT\npragma solidity ^0.8.0;\n\nimport '@openzeppelin/contracts/token/ERC20/ERC20.sol';\nimport \"@openzeppelin/contracts/token/ERC721/ERC721.sol\";\nimport \"./Hashima.sol\";\n\ncontract Hashi is ERC20{\n    mapping(address => mapping(uint256=>uint256)) public checkpoints;\n    mapping(uint256 => bool) public has_deposited;\n    mapping(uint256 => address) public staking_accounts;\n\n\n    uint public REWARD_PER_BLOCK = 1;\n\n    Hashima private hashimaContract;\n\n    constructor(Hashima _contrato) ERC20(\"Hashi\", \"HASHI\"){\n        hashimaContract = Hashima(_contrato);\n\n    }\n\n    function aprovar(uint256 tokenId)external{\n        hashimaContract.approve(address(this), tokenId);\n    }\n\n    function deposit(uint256 tokenId) external{\n        require (msg.sender == hashimaContract.ownerOf(tokenId), 'Sender must be owner');\n        require (!has_deposited[tokenId], 'Sender already deposited');\n        \n        //La altura del bloque de partida\n        checkpoints[msg.sender][tokenId] = block.number;\n        staking_accounts[tokenId]=msg.sender;\n        \n        hashimaContract.transferFrom(msg.sender, address(this), tokenId);\n        bool forSale=hashimaContract.getHashima(tokenId).forSale;\n        \n        if(forSale){\n            hashimaContract.toggleForSale(tokenId,0);\n        }\n        has_deposited[tokenId]=true;\n   }\n\n    function withdraw(uint256 tokenId) external{\n        require(has_deposited[tokenId], 'No tokens to withdarw');\n        require(staking_accounts[tokenId]==msg.sender,'Only the Staker');\n        collect(msg.sender,tokenId);\n        hashimaContract.transferFrom(address(this), msg.sender, tokenId);\n        \n        has_deposited[tokenId]=false;\n    }\n\n    function collect(address beneficiary,uint256 tokenId) public{\n        uint256 reward = calculateReward(beneficiary,tokenId);\n        checkpoints[beneficiary][tokenId] = block.number;      \n        _mint(msg.sender, reward);\n    }\n\n    function hashimaOnStaking(uint256 tokenId)public view returns(bool){\n        return has_deposited[tokenId];\n    }\n\n    function calculateReward(address beneficiary,uint256 tokenId) public view returns(uint256){\n        if(!has_deposited[tokenId])\n        {\n            return 0;\n        }\n        uint256 _stars=hashimaContract.getHashima(tokenId).stars;\n        uint256 pesoEstrella=_stars*_stars*1000/64-_stars;\n        uint256 checkpoint = checkpoints[beneficiary][tokenId];\n        return pesoEstrella*(block.number-checkpoint);\n    }\n}",
  "sourcePath": "/Users/aarontolentino/Desktop/hashima/contracts/Hashi.sol",
  "compiler": {
    "name": "solc",
    "version": "0.8.3+commit.8d00100c.Emscripten.clang"
  },
  "schemaVersion": "3.4.1",
  "updatedAt": "2022-03-16T18:20:11.955Z",
  "networkType": "ethereum",
  "devdoc": {
    "kind": "dev",
    "methods": {
      "allowance(address,address)": {
        "details": "See {IERC20-allowance}."
      },
      "approve(address,uint256)": {
        "details": "See {IERC20-approve}. Requirements: - `spender` cannot be the zero address."
      },
      "balanceOf(address)": {
        "details": "See {IERC20-balanceOf}."
      },
      "decimals()": {
        "details": "Returns the number of decimals used to get its user representation. For example, if `decimals` equals `2`, a balance of `505` tokens should be displayed to a user as `5.05` (`505 / 10 ** 2`). Tokens usually opt for a value of 18, imitating the relationship between Ether and Wei. This is the value {ERC20} uses, unless this function is overridden; NOTE: This information is only used for _display_ purposes: it in no way affects any of the arithmetic of the contract, including {IERC20-balanceOf} and {IERC20-transfer}."
      },
      "decreaseAllowance(address,uint256)": {
        "details": "Atomically decreases the allowance granted to `spender` by the caller. This is an alternative to {approve} that can be used as a mitigation for problems described in {IERC20-approve}. Emits an {Approval} event indicating the updated allowance. Requirements: - `spender` cannot be the zero address. - `spender` must have allowance for the caller of at least `subtractedValue`."
      },
      "increaseAllowance(address,uint256)": {
        "details": "Atomically increases the allowance granted to `spender` by the caller. This is an alternative to {approve} that can be used as a mitigation for problems described in {IERC20-approve}. Emits an {Approval} event indicating the updated allowance. Requirements: - `spender` cannot be the zero address."
      },
      "name()": {
        "details": "Returns the name of the token."
      },
      "symbol()": {
        "details": "Returns the symbol of the token, usually a shorter version of the name."
      },
      "totalSupply()": {
        "details": "See {IERC20-totalSupply}."
      },
      "transfer(address,uint256)": {
        "details": "See {IERC20-transfer}. Requirements: - `recipient` cannot be the zero address. - the caller must have a balance of at least `amount`."
      },
      "transferFrom(address,address,uint256)": {
        "details": "See {IERC20-transferFrom}. Emits an {Approval} event indicating the updated allowance. This is not required by the EIP. See the note at the beginning of {ERC20}. Requirements: - `sender` and `recipient` cannot be the zero address. - `sender` must have a balance of at least `amount`. - the caller must have allowance for ``sender``'s tokens of at least `amount`."
      }
    },
    "version": 1
  },
  "userdoc": {
    "kind": "user",
    "methods": {},
    "version": 1
  }
}