{
  "contractName": "Hashima",
  "abi": [
    {
      "inputs": [],
      "stateMutability": "nonpayable",
      "type": "constructor"
    },
    {
      "anonymous": false,
      "inputs": [
        {
          "indexed": true,
          "internalType": "address",
          "name": "owner",
          "type": "address"
        },
        {
          "indexed": true,
          "internalType": "address",
          "name": "approved",
          "type": "address"
        },
        {
          "indexed": true,
          "internalType": "uint256",
          "name": "tokenId",
          "type": "uint256"
        }
      ],
      "name": "Approval",
      "type": "event"
    },
    {
      "anonymous": false,
      "inputs": [
        {
          "indexed": true,
          "internalType": "address",
          "name": "owner",
          "type": "address"
        },
        {
          "indexed": true,
          "internalType": "address",
          "name": "operator",
          "type": "address"
        },
        {
          "indexed": false,
          "internalType": "bool",
          "name": "approved",
          "type": "bool"
        }
      ],
      "name": "ApprovalForAll",
      "type": "event"
    },
    {
      "anonymous": false,
      "inputs": [
        {
          "indexed": false,
          "internalType": "uint256",
          "name": "_blocknumber",
          "type": "uint256"
        }
      ],
      "name": "GameStart",
      "type": "event"
    },
    {
      "anonymous": false,
      "inputs": [
        {
          "indexed": true,
          "internalType": "address",
          "name": "previousOwner",
          "type": "address"
        },
        {
          "indexed": true,
          "internalType": "address",
          "name": "newOwner",
          "type": "address"
        }
      ],
      "name": "OwnershipTransferred",
      "type": "event"
    },
    {
      "anonymous": false,
      "inputs": [
        {
          "indexed": true,
          "internalType": "address",
          "name": "from",
          "type": "address"
        },
        {
          "indexed": true,
          "internalType": "address",
          "name": "to",
          "type": "address"
        },
        {
          "indexed": true,
          "internalType": "uint256",
          "name": "tokenId",
          "type": "uint256"
        }
      ],
      "name": "Transfer",
      "type": "event"
    },
    {
      "inputs": [
        {
          "internalType": "string",
          "name": "",
          "type": "string"
        }
      ],
      "name": "_names",
      "outputs": [
        {
          "internalType": "bool",
          "name": "",
          "type": "bool"
        }
      ],
      "stateMutability": "view",
      "type": "function",
      "constant": true
    },
    {
      "inputs": [
        {
          "internalType": "address",
          "name": "to",
          "type": "address"
        },
        {
          "internalType": "uint256",
          "name": "tokenId",
          "type": "uint256"
        }
      ],
      "name": "approve",
      "outputs": [],
      "stateMutability": "nonpayable",
      "type": "function"
    },
    {
      "inputs": [
        {
          "internalType": "address",
          "name": "owner",
          "type": "address"
        }
      ],
      "name": "balanceOf",
      "outputs": [
        {
          "internalType": "uint256",
          "name": "",
          "type": "uint256"
        }
      ],
      "stateMutability": "view",
      "type": "function",
      "constant": true
    },
    {
      "inputs": [
        {
          "internalType": "uint256",
          "name": "tokenId",
          "type": "uint256"
        }
      ],
      "name": "getApproved",
      "outputs": [
        {
          "internalType": "address",
          "name": "",
          "type": "address"
        }
      ],
      "stateMutability": "view",
      "type": "function",
      "constant": true
    },
    {
      "inputs": [
        {
          "internalType": "address",
          "name": "owner",
          "type": "address"
        },
        {
          "internalType": "address",
          "name": "operator",
          "type": "address"
        }
      ],
      "name": "isApprovedForAll",
      "outputs": [
        {
          "internalType": "bool",
          "name": "",
          "type": "bool"
        }
      ],
      "stateMutability": "view",
      "type": "function",
      "constant": true
    },
    {
      "inputs": [],
      "name": "name",
      "outputs": [
        {
          "internalType": "string",
          "name": "",
          "type": "string"
        }
      ],
      "stateMutability": "view",
      "type": "function",
      "constant": true
    },
    {
      "inputs": [],
      "name": "owner",
      "outputs": [
        {
          "internalType": "address",
          "name": "",
          "type": "address"
        }
      ],
      "stateMutability": "view",
      "type": "function",
      "constant": true
    },
    {
      "inputs": [
        {
          "internalType": "uint256",
          "name": "tokenId",
          "type": "uint256"
        }
      ],
      "name": "ownerOf",
      "outputs": [
        {
          "internalType": "address",
          "name": "",
          "type": "address"
        }
      ],
      "stateMutability": "view",
      "type": "function",
      "constant": true
    },
    {
      "inputs": [],
      "name": "renounceOwnership",
      "outputs": [],
      "stateMutability": "nonpayable",
      "type": "function"
    },
    {
      "inputs": [
        {
          "internalType": "address",
          "name": "from",
          "type": "address"
        },
        {
          "internalType": "address",
          "name": "to",
          "type": "address"
        },
        {
          "internalType": "uint256",
          "name": "tokenId",
          "type": "uint256"
        }
      ],
      "name": "safeTransferFrom",
      "outputs": [],
      "stateMutability": "nonpayable",
      "type": "function"
    },
    {
      "inputs": [
        {
          "internalType": "address",
          "name": "from",
          "type": "address"
        },
        {
          "internalType": "address",
          "name": "to",
          "type": "address"
        },
        {
          "internalType": "uint256",
          "name": "tokenId",
          "type": "uint256"
        },
        {
          "internalType": "bytes",
          "name": "_data",
          "type": "bytes"
        }
      ],
      "name": "safeTransferFrom",
      "outputs": [],
      "stateMutability": "nonpayable",
      "type": "function"
    },
    {
      "inputs": [
        {
          "internalType": "address",
          "name": "operator",
          "type": "address"
        },
        {
          "internalType": "bool",
          "name": "approved",
          "type": "bool"
        }
      ],
      "name": "setApprovalForAll",
      "outputs": [],
      "stateMutability": "nonpayable",
      "type": "function"
    },
    {
      "inputs": [
        {
          "internalType": "bytes4",
          "name": "interfaceId",
          "type": "bytes4"
        }
      ],
      "name": "supportsInterface",
      "outputs": [
        {
          "internalType": "bool",
          "name": "",
          "type": "bool"
        }
      ],
      "stateMutability": "view",
      "type": "function",
      "constant": true
    },
    {
      "inputs": [],
      "name": "symbol",
      "outputs": [
        {
          "internalType": "string",
          "name": "",
          "type": "string"
        }
      ],
      "stateMutability": "view",
      "type": "function",
      "constant": true
    },
    {
      "inputs": [
        {
          "internalType": "uint256",
          "name": "tokenId",
          "type": "uint256"
        }
      ],
      "name": "tokenURI",
      "outputs": [
        {
          "internalType": "string",
          "name": "",
          "type": "string"
        }
      ],
      "stateMutability": "view",
      "type": "function",
      "constant": true
    },
    {
      "inputs": [
        {
          "internalType": "address",
          "name": "from",
          "type": "address"
        },
        {
          "internalType": "address",
          "name": "to",
          "type": "address"
        },
        {
          "internalType": "uint256",
          "name": "tokenId",
          "type": "uint256"
        }
      ],
      "name": "transferFrom",
      "outputs": [],
      "stateMutability": "nonpayable",
      "type": "function"
    },
    {
      "inputs": [
        {
          "internalType": "address",
          "name": "newOwner",
          "type": "address"
        }
      ],
      "name": "transferOwnership",
      "outputs": [],
      "stateMutability": "nonpayable",
      "type": "function"
    },
    {
      "inputs": [
        {
          "internalType": "uint256",
          "name": "_index",
          "type": "uint256"
        }
      ],
      "name": "getHashima",
      "outputs": [
        {
          "components": [
            {
              "internalType": "uint256",
              "name": "tokenId",
              "type": "uint256"
            },
            {
              "internalType": "string",
              "name": "tokenName",
              "type": "string"
            },
            {
              "internalType": "string",
              "name": "tokenURI",
              "type": "string"
            },
            {
              "internalType": "address payable",
              "name": "currentOwner",
              "type": "address"
            },
            {
              "internalType": "address payable",
              "name": "previousOwner",
              "type": "address"
            },
            {
              "internalType": "uint256",
              "name": "price",
              "type": "uint256"
            },
            {
              "internalType": "bool",
              "name": "forSale",
              "type": "bool"
            },
            {
              "internalType": "uint256",
              "name": "stars",
              "type": "uint256"
            },
            {
              "internalType": "uint256",
              "name": "blockNumber",
              "type": "uint256"
            },
            {
              "internalType": "string",
              "name": "nonce",
              "type": "string"
            },
            {
              "internalType": "bool",
              "name": "sign",
              "type": "bool"
            }
          ],
          "internalType": "struct Hashima.Hashi",
          "name": "",
          "type": "tuple"
        }
      ],
      "stateMutability": "view",
      "type": "function",
      "constant": true
    },
    {
      "inputs": [],
      "name": "initGame",
      "outputs": [],
      "stateMutability": "nonpayable",
      "type": "function"
    },
    {
      "inputs": [
        {
          "internalType": "uint256",
          "name": "_estrellas",
          "type": "uint256"
        },
        {
          "internalType": "string",
          "name": "_hashID",
          "type": "string"
        },
        {
          "internalType": "string",
          "name": "_nonce",
          "type": "string"
        },
        {
          "internalType": "string",
          "name": "_uri",
          "type": "string"
        }
      ],
      "name": "check",
      "outputs": [
        {
          "internalType": "bool",
          "name": "",
          "type": "bool"
        },
        {
          "internalType": "bytes32",
          "name": "",
          "type": "bytes32"
        },
        {
          "internalType": "uint256",
          "name": "",
          "type": "uint256"
        }
      ],
      "stateMutability": "nonpayable",
      "type": "function"
    },
    {
      "inputs": [],
      "name": "checkGame",
      "outputs": [
        {
          "internalType": "uint256",
          "name": "",
          "type": "uint256"
        }
      ],
      "stateMutability": "view",
      "type": "function",
      "constant": true
    },
    {
      "inputs": [
        {
          "internalType": "uint256",
          "name": "_newtolerance",
          "type": "uint256"
        }
      ],
      "name": "setBlockTolerance",
      "outputs": [],
      "stateMutability": "nonpayable",
      "type": "function"
    },
    {
      "inputs": [
        {
          "internalType": "uint256",
          "name": "_tokenId",
          "type": "uint256"
        }
      ],
      "name": "buyToken",
      "outputs": [
        {
          "internalType": "bool",
          "name": "",
          "type": "bool"
        }
      ],
      "stateMutability": "payable",
      "type": "function",
      "payable": true
    },
    {
      "inputs": [
        {
          "internalType": "uint256",
          "name": "_tokenId",
          "type": "uint256"
        },
        {
          "internalType": "uint256",
          "name": "_newPrice",
          "type": "uint256"
        }
      ],
      "name": "changeTokenPrice",
      "outputs": [],
      "stateMutability": "nonpayable",
      "type": "function"
    },
    {
      "inputs": [
        {
          "internalType": "uint256",
          "name": "_tokenId",
          "type": "uint256"
        },
        {
          "internalType": "uint256",
          "name": "_newPrice",
          "type": "uint256"
        }
      ],
      "name": "toggleForSale",
      "outputs": [],
      "stateMutability": "nonpayable",
      "type": "function"
    },
    {
      "inputs": [],
      "name": "dameTotal",
      "outputs": [
        {
          "internalType": "uint256",
          "name": "",
          "type": "uint256"
        }
      ],
      "stateMutability": "view",
      "type": "function",
      "constant": true
    },
    {
      "inputs": [
        {
          "internalType": "uint256",
          "name": "_tokenId",
          "type": "uint256"
        }
      ],
      "name": "original",
      "outputs": [
        {
          "internalType": "bool",
          "name": "",
          "type": "bool"
        }
      ],
      "stateMutability": "view",
      "type": "function",
      "constant": true
    },
    {
      "inputs": [
        {
          "internalType": "string",
          "name": "_input",
          "type": "string"
        },
        {
          "internalType": "string",
          "name": "_nonce",
          "type": "string"
        }
      ],
      "name": "checkingHash",
      "outputs": [
        {
          "internalType": "bytes32",
          "name": "",
          "type": "bytes32"
        }
      ],
      "stateMutability": "pure",
      "type": "function",
      "constant": true
    }
  ],
  "bytecode": "0x608060405260646009553480156200001657600080fd5b506040518060400160405280600781526020017f48617368696d61000000000000000000000000000000000000000000000000008152506040518060400160405280600781526020017f48415348494d410000000000000000000000000000000000000000000000000081525081600090805190602001906200009b929190620001ab565b508060019080519060200190620000b4929190620001ab565b505050620000d7620000cb620000dd60201b60201c565b620000e560201b60201c565b620002c0565b600033905090565b6000600760009054906101000a900473ffffffffffffffffffffffffffffffffffffffff16905081600760006101000a81548173ffffffffffffffffffffffffffffffffffffffff021916908373ffffffffffffffffffffffffffffffffffffffff1602179055508173ffffffffffffffffffffffffffffffffffffffff168173ffffffffffffffffffffffffffffffffffffffff167f8be0079c531659141344cd1fd0a4f28419497f9722a3daafe3b4186f6b6457e060405160405180910390a35050565b828054620001b9906200025b565b90600052602060002090601f016020900481019282620001dd576000855562000229565b82601f10620001f857805160ff191683800117855562000229565b8280016001018555821562000229579182015b82811115620002285782518255916020019190600101906200020b565b5b5090506200023891906200023c565b5090565b5b80821115620002575760008160009055506001016200023d565b5090565b600060028204905060018216806200027457607f821691505b602082108114156200028b576200028a62000291565b5b50919050565b7f4e487b7100000000000000000000000000000000000000000000000000000000600052602260045260246000fd5b61594b80620002d06000396000f3fe6080604052600436106101b75760003560e01c8063715018a6116100ec578063c87b56dd1161008a578063d7a1aed211610064578063d7a1aed21461064b578063e985e9c514610674578063ec7d0c4e146106b1578063f2fde38b146106da576101b7565b8063c87b56dd14610594578063d1760fac146105d1578063d43525c31461060e576101b7565b806395d89b41116100c657806395d89b41146104ec578063a22cb46514610517578063b35a194e14610540578063b88d4fde1461056b576101b7565b8063715018a61461046d578063717eb03f146104845780638da5cb5b146104c1576101b7565b806332eb25641161015957806353d8bd2d1161013357806353d8bd2d1461038d57806362e8e8ac146103ca5780636352211e146103f357806370a0823114610430576101b7565b806332eb25641461030e57806333625d701461032557806342842e0e14610364576101b7565b8063081812fc11610195578063081812fc1461024f578063095ea7b31461028c57806323b872dd146102b55780632d296bf1146102de576101b7565b806301ffc9a7146101bc578063058c2ef5146101f957806306fdde0314610224575b600080fd5b3480156101c857600080fd5b506101e360048036038101906101de91906142e7565b610703565b6040516101f09190614b5c565b60405180910390f35b34801561020557600080fd5b5061020e6107e5565b60405161021b9190614ecd565b60405180910390f35b34801561023057600080fd5b506102396107f6565b6040516102469190614bc9565b60405180910390f35b34801561025b57600080fd5b50610276600480360381019061027191906143e6565b610888565b6040516102839190614af5565b60405180910390f35b34801561029857600080fd5b506102b360048036038101906102ae9190614282565b61090d565b005b3480156102c157600080fd5b506102dc60048036038101906102d7919061417c565b610a25565b005b6102f860048036038101906102f391906143e6565b610a85565b6040516103059190614b5c565b60405180910390f35b34801561031a57600080fd5b50610323611102565b005b34801561033157600080fd5b5061034c6004803603810190610347919061440f565b611185565b60405161035b93929190614b77565b60405180910390f35b34801561037057600080fd5b5061038b6004803603810190610386919061417c565b611480565b005b34801561039957600080fd5b506103b460048036038101906103af919061437a565b6114a0565b6040516103c19190614bae565b60405180910390f35b3480156103d657600080fd5b506103f160048036038101906103ec91906144ba565b611520565b005b3480156103ff57600080fd5b5061041a600480360381019061041591906143e6565b611a0b565b6040516104279190614af5565b60405180910390f35b34801561043c57600080fd5b5061045760048036038101906104529190614117565b611abd565b6040516104649190614ecd565b60405180910390f35b34801561047957600080fd5b50610482611b75565b005b34801561049057600080fd5b506104ab60048036038101906104a691906143e6565b611bfd565b6040516104b89190614b5c565b60405180910390f35b3480156104cd57600080fd5b506104d6611c2a565b6040516104e39190614af5565b60405180910390f35b3480156104f857600080fd5b50610501611c54565b60405161050e9190614bc9565b60405180910390f35b34801561052357600080fd5b5061053e60048036038101906105399190614246565b611ce6565b005b34801561054c57600080fd5b50610555611e67565b6040516105629190614ecd565b60405180910390f35b34801561057757600080fd5b50610592600480360381019061058d91906141cb565b611eae565b005b3480156105a057600080fd5b506105bb60048036038101906105b691906143e6565b611f10565b6040516105c89190614bc9565b60405180910390f35b3480156105dd57600080fd5b506105f860048036038101906105f39190614339565b612062565b6040516106059190614b5c565b60405180910390f35b34801561061a57600080fd5b50610635600480360381019061063091906143e6565b612098565b6040516106429190614eab565b60405180910390f35b34801561065757600080fd5b50610672600480360381019061066d91906144ba565b612386565b005b34801561068057600080fd5b5061069b60048036038101906106969190614140565b6128d9565b6040516106a89190614b5c565b60405180910390f35b3480156106bd57600080fd5b506106d860048036038101906106d391906143e6565b61296d565b005b3480156106e657600080fd5b5061070160048036038101906106fc9190614117565b6129f3565b005b60007f80ac58cd000000000000000000000000000000000000000000000000000000007bffffffffffffffffffffffffffffffffffffffffffffffffffffffff1916827bffffffffffffffffffffffffffffffffffffffffffffffffffffffff191614806107ce57507f5b5e139f000000000000000000000000000000000000000000000000000000007bffffffffffffffffffffffffffffffffffffffffffffffffffffffff1916827bffffffffffffffffffffffffffffffffffffffffffffffffffffffff1916145b806107de57506107dd82612aeb565b5b9050919050565b60006107f16008612b55565b905090565b6060600080546108059061515b565b80601f01602080910402602001604051908101604052809291908181526020018280546108319061515b565b801561087e5780601f106108535761010080835404028352916020019161087e565b820191906000526020600020905b81548152906001019060200180831161086157829003601f168201915b5050505050905090565b600061089382612b63565b6108d2576040517f08c379a00000000000000000000000000000000000000000000000000000000081526004016108c990614dab565b60405180910390fd5b6004600083815260200190815260200160002060009054906101000a900473ffffffffffffffffffffffffffffffffffffffff169050919050565b600061091882611a0b565b90508073ffffffffffffffffffffffffffffffffffffffff168373ffffffffffffffffffffffffffffffffffffffff161415610989576040517f08c379a000000000000000000000000000000000000000000000000000000000815260040161098090614e4b565b60405180910390fd5b8073ffffffffffffffffffffffffffffffffffffffff166109a8612bcf565b73ffffffffffffffffffffffffffffffffffffffff1614806109d757506109d6816109d1612bcf565b6128d9565b5b610a16576040517f08c379a0000000000000000000000000000000000000000000000000000000008152600401610a0d90614ccb565b60405180910390fd5b610a208383612bd7565b505050565b610a36610a30612bcf565b82612c90565b610a75576040517f08c379a0000000000000000000000000000000000000000000000000000000008152600401610a6c90614e6b565b60405180910390fd5b610a80838383612d6e565b505050565b60008073ffffffffffffffffffffffffffffffffffffffff163373ffffffffffffffffffffffffffffffffffffffff161415610ac057600080fd5b610ac982612b63565b610ad257600080fd5b6000610add83611a0b565b9050600073ffffffffffffffffffffffffffffffffffffffff168173ffffffffffffffffffffffffffffffffffffffff161415610b1957600080fd5b3373ffffffffffffffffffffffffffffffffffffffff168173ffffffffffffffffffffffffffffffffffffffff161415610b5257600080fd5b6000600c60008581526020019081526020016000206040518061016001604052908160008201548152602001600182018054610b8d9061515b565b80601f0160208091040260200160405190810160405280929190818152602001828054610bb99061515b565b8015610c065780601f10610bdb57610100808354040283529160200191610c06565b820191906000526020600020905b815481529060010190602001808311610be957829003601f168201915b50505050508152602001600282018054610c1f9061515b565b80601f0160208091040260200160405190810160405280929190818152602001828054610c4b9061515b565b8015610c985780601f10610c6d57610100808354040283529160200191610c98565b820191906000526020600020905b815481529060010190602001808311610c7b57829003601f168201915b505050505081526020016003820160009054906101000a900473ffffffffffffffffffffffffffffffffffffffff1673ffffffffffffffffffffffffffffffffffffffff1673ffffffffffffffffffffffffffffffffffffffff1681526020016004820160009054906101000a900473ffffffffffffffffffffffffffffffffffffffff1673ffffffffffffffffffffffffffffffffffffffff1673ffffffffffffffffffffffffffffffffffffffff168152602001600582015481526020016006820160009054906101000a900460ff161515151581526020016007820154815260200160088201548152602001600982018054610d969061515b565b80601f0160208091040260200160405190810160405280929190818152602001828054610dc29061515b565b8015610e0f5780601f10610de457610100808354040283529160200191610e0f565b820191906000526020600020905b815481529060010190602001808311610df257829003601f168201915b50505050508152602001600a820160009054906101000a900460ff16151515158152505090508060a00151341015610e7c576040517f08c379a0000000000000000000000000000000000000000000000000000000008152600401610e7390614deb565b60405180910390fd5b8060c00151610e8a57600080fd5b610e95823386612d6e565b60008160600151905060008173ffffffffffffffffffffffffffffffffffffffff1634604051610ec490614ae0565b60006040518083038185875af1925050503d8060008114610f01576040519150601f19603f3d011682016040523d82523d6000602084013e610f06565b606091505b505090508260600151836080019073ffffffffffffffffffffffffffffffffffffffff16908173ffffffffffffffffffffffffffffffffffffffff168152505033836060019073ffffffffffffffffffffffffffffffffffffffff16908173ffffffffffffffffffffffffffffffffffffffff168152505060008360c001901515908115158152505082600c6000888152602001908152602001600020600082015181600001556020820151816001019080519060200190610fc9929190613e9c565b506040820151816002019080519060200190610fe6929190613e9c565b5060608201518160030160006101000a81548173ffffffffffffffffffffffffffffffffffffffff021916908373ffffffffffffffffffffffffffffffffffffffff16021790555060808201518160040160006101000a81548173ffffffffffffffffffffffffffffffffffffffff021916908373ffffffffffffffffffffffffffffffffffffffff16021790555060a0820151816005015560c08201518160060160006101000a81548160ff02191690831515021790555060e0820151816007015561010082015181600801556101208201518160090190805190602001906110d1929190613e9c565b5061014082015181600a0160006101000a81548160ff02191690831515021790555090505080945050505050919050565b600043905080600a60003373ffffffffffffffffffffffffffffffffffffffff1673ffffffffffffffffffffffffffffffffffffffff168152602001908152602001600020819055507fb5e8a4470f7bcac7f2c0f3e23471bd7016a9f6f049884cd27dfa8960f361287b8160405161117a9190614ecd565b60405180910390a150565b6000806000806000905043600954600a60003373ffffffffffffffffffffffffffffffffffffffff1673ffffffffffffffffffffffffffffffffffffffff168152602001908152602001600020546111dd9190614fce565b1161121d576040517f08c379a000000000000000000000000000000000000000000000000000000000815260040161121490614d4b565b60405180910390fd5b60001515600b886040516112319190614aa5565b908152602001604051809103902060009054906101000a900460ff1615151461128f576040517f08c379a000000000000000000000000000000000000000000000000000000000815260040161128690614e8b565b60405180910390fd5b6000600a60003373ffffffffffffffffffffffffffffffffffffffff1673ffffffffffffffffffffffffffffffffffffffff1681526020019081526020016000205414156112dc57600080fd5b600073ffffffffffffffffffffffffffffffffffffffff163373ffffffffffffffffffffffffffffffffffffffff16141561131657600080fd5b600060019050600060028989604051602001611333929190614abc565b60405160208183030381529060405260405161134f9190614a8e565b602060405180830381855afa15801561136c573d6000803e3d6000fd5b5050506040513d601f19601f8201168201806040525081019061138f91906142be565b905060005b8a81101561141d57600060f81b8282602081106113da577f4e487b7100000000000000000000000000000000000000000000000000000000600052603260045260246000fd5b1a60f81b7effffffffffffffffffffffffffffffffffffffffffffffffffffffffffffff19161461140a57600092505b8080611415906151be565b915050611394565b50811561146a576001600b8a6040516114369190614aa5565b908152602001604051809103902060006101000a81548160ff021916908315150217905550611467878a8a8d612fca565b92505b8181849550955095505050509450945094915050565b61149b83838360405180602001604052806000815250611eae565b505050565b600080600284846040516020016114b8929190614abc565b6040516020818303038152906040526040516114d49190614a8e565b602060405180830381855afa1580156114f1573d6000803e3d6000fd5b5050506040513d601f19601f8201168201806040525081019061151491906142be565b90508091505092915050565b600073ffffffffffffffffffffffffffffffffffffffff163373ffffffffffffffffffffffffffffffffffffffff16141561155a57600080fd5b61156382612b63565b61156c57600080fd5b600061157783611a0b565b90503373ffffffffffffffffffffffffffffffffffffffff168173ffffffffffffffffffffffffffffffffffffffff16146115b157600080fd5b6000600c600085815260200190815260200160002060405180610160016040529081600082015481526020016001820180546115ec9061515b565b80601f01602080910402602001604051908101604052809291908181526020018280546116189061515b565b80156116655780601f1061163a57610100808354040283529160200191611665565b820191906000526020600020905b81548152906001019060200180831161164857829003601f168201915b5050505050815260200160028201805461167e9061515b565b80601f01602080910402602001604051908101604052809291908181526020018280546116aa9061515b565b80156116f75780601f106116cc576101008083540402835291602001916116f7565b820191906000526020600020905b8154815290600101906020018083116116da57829003601f168201915b505050505081526020016003820160009054906101000a900473ffffffffffffffffffffffffffffffffffffffff1673ffffffffffffffffffffffffffffffffffffffff1673ffffffffffffffffffffffffffffffffffffffff1681526020016004820160009054906101000a900473ffffffffffffffffffffffffffffffffffffffff1673ffffffffffffffffffffffffffffffffffffffff1673ffffffffffffffffffffffffffffffffffffffff168152602001600582015481526020016006820160009054906101000a900460ff1615151515815260200160078201548152602001600882015481526020016009820180546117f59061515b565b80601f01602080910402602001604051908101604052809291908181526020018280546118219061515b565b801561186e5780601f106118435761010080835404028352916020019161186e565b820191906000526020600020905b81548152906001019060200180831161185157829003601f168201915b50505050508152602001600a820160009054906101000a900460ff1615151515815250509050828160a001818152505080600c60008681526020019081526020016000206000820151816000015560208201518160010190805190602001906118d8929190613e9c565b5060408201518160020190805190602001906118f5929190613e9c565b5060608201518160030160006101000a81548173ffffffffffffffffffffffffffffffffffffffff021916908373ffffffffffffffffffffffffffffffffffffffff16021790555060808201518160040160006101000a81548173ffffffffffffffffffffffffffffffffffffffff021916908373ffffffffffffffffffffffffffffffffffffffff16021790555060a0820151816005015560c08201518160060160006101000a81548160ff02191690831515021790555060e0820151816007015561010082015181600801556101208201518160090190805190602001906119e0929190613e9c565b5061014082015181600a0160006101000a81548160ff02191690831515021790555090505050505050565b6000806002600084815260200190815260200160002060009054906101000a900473ffffffffffffffffffffffffffffffffffffffff169050600073ffffffffffffffffffffffffffffffffffffffff168173ffffffffffffffffffffffffffffffffffffffff161415611ab4576040517f08c379a0000000000000000000000000000000000000000000000000000000008152600401611aab90614d0b565b60405180910390fd5b80915050919050565b60008073ffffffffffffffffffffffffffffffffffffffff168273ffffffffffffffffffffffffffffffffffffffff161415611b2e576040517f08c379a0000000000000000000000000000000000000000000000000000000008152600401611b2590614ceb565b60405180910390fd5b600360008373ffffffffffffffffffffffffffffffffffffffff1673ffffffffffffffffffffffffffffffffffffffff168152602001908152602001600020549050919050565b611b7d612bcf565b73ffffffffffffffffffffffffffffffffffffffff16611b9b611c2a565b73ffffffffffffffffffffffffffffffffffffffff1614611bf1576040517f08c379a0000000000000000000000000000000000000000000000000000000008152600401611be890614dcb565b60405180910390fd5b611bfb6000613244565b565b6000600c6000838152602001908152602001600020600a0160009054906101000a900460ff169050919050565b6000600760009054906101000a900473ffffffffffffffffffffffffffffffffffffffff16905090565b606060018054611c639061515b565b80601f0160208091040260200160405190810160405280929190818152602001828054611c8f9061515b565b8015611cdc5780601f10611cb157610100808354040283529160200191611cdc565b820191906000526020600020905b815481529060010190602001808311611cbf57829003601f168201915b5050505050905090565b611cee612bcf565b73ffffffffffffffffffffffffffffffffffffffff168273ffffffffffffffffffffffffffffffffffffffff161415611d5c576040517f08c379a0000000000000000000000000000000000000000000000000000000008152600401611d5390614c8b565b60405180910390fd5b8060056000611d69612bcf565b73ffffffffffffffffffffffffffffffffffffffff1673ffffffffffffffffffffffffffffffffffffffff16815260200190815260200160002060008473ffffffffffffffffffffffffffffffffffffffff1673ffffffffffffffffffffffffffffffffffffffff16815260200190815260200160002060006101000a81548160ff0219169083151502179055508173ffffffffffffffffffffffffffffffffffffffff16611e16612bcf565b73ffffffffffffffffffffffffffffffffffffffff167f17307eab39ab6107e8899845ad3d59bd9653f200f220920489ca2b5937696c3183604051611e5b9190614b5c565b60405180910390a35050565b6000600a60003373ffffffffffffffffffffffffffffffffffffffff1673ffffffffffffffffffffffffffffffffffffffff16815260200190815260200160002054905090565b611ebf611eb9612bcf565b83612c90565b611efe576040517f08c379a0000000000000000000000000000000000000000000000000000000008152600401611ef590614e6b565b60405180910390fd5b611f0a8484848461330a565b50505050565b6060611f1b82612b63565b611f5a576040517f08c379a0000000000000000000000000000000000000000000000000000000008152600401611f5190614d8b565b60405180910390fd5b6000600660008481526020019081526020016000208054611f7a9061515b565b80601f0160208091040260200160405190810160405280929190818152602001828054611fa69061515b565b8015611ff35780601f10611fc857610100808354040283529160200191611ff3565b820191906000526020600020905b815481529060010190602001808311611fd657829003601f168201915b505050505090506000612004613366565b905060008151141561201a57819250505061205d565b60008251111561204f578082604051602001612037929190614abc565b6040516020818303038152906040529250505061205d565b6120588461337d565b925050505b919050565b600b818051602081018201805184825260208301602085012081835280955050505050506000915054906101000a900460ff1681565b6120a0613f22565b600c600083815260200190815260200160002060405180610160016040529081600082015481526020016001820180546120d99061515b565b80601f01602080910402602001604051908101604052809291908181526020018280546121059061515b565b80156121525780601f1061212757610100808354040283529160200191612152565b820191906000526020600020905b81548152906001019060200180831161213557829003601f168201915b5050505050815260200160028201805461216b9061515b565b80601f01602080910402602001604051908101604052809291908181526020018280546121979061515b565b80156121e45780601f106121b9576101008083540402835291602001916121e4565b820191906000526020600020905b8154815290600101906020018083116121c757829003601f168201915b505050505081526020016003820160009054906101000a900473ffffffffffffffffffffffffffffffffffffffff1673ffffffffffffffffffffffffffffffffffffffff1673ffffffffffffffffffffffffffffffffffffffff1681526020016004820160009054906101000a900473ffffffffffffffffffffffffffffffffffffffff1673ffffffffffffffffffffffffffffffffffffffff1673ffffffffffffffffffffffffffffffffffffffff168152602001600582015481526020016006820160009054906101000a900460ff1615151515815260200160078201548152602001600882015481526020016009820180546122e29061515b565b80601f016020809104026020016040519081016040528092919081815260200182805461230e9061515b565b801561235b5780601f106123305761010080835404028352916020019161235b565b820191906000526020600020905b81548152906001019060200180831161233e57829003601f168201915b50505050508152602001600a820160009054906101000a900460ff1615151515815250509050919050565b600073ffffffffffffffffffffffffffffffffffffffff163373ffffffffffffffffffffffffffffffffffffffff1614156123c057600080fd5b6123c982612b63565b6123d257600080fd5b60006123dd83611a0b565b90503373ffffffffffffffffffffffffffffffffffffffff168173ffffffffffffffffffffffffffffffffffffffff161461244d576040517f08c379a000000000000000000000000000000000000000000000000000000000815260040161244490614c4b565b60405180910390fd5b6000600c600085815260200190815260200160002060405180610160016040529081600082015481526020016001820180546124889061515b565b80601f01602080910402602001604051908101604052809291908181526020018280546124b49061515b565b80156125015780601f106124d657610100808354040283529160200191612501565b820191906000526020600020905b8154815290600101906020018083116124e457829003601f168201915b5050505050815260200160028201805461251a9061515b565b80601f01602080910402602001604051908101604052809291908181526020018280546125469061515b565b80156125935780601f1061256857610100808354040283529160200191612593565b820191906000526020600020905b81548152906001019060200180831161257657829003601f168201915b505050505081526020016003820160009054906101000a900473ffffffffffffffffffffffffffffffffffffffff1673ffffffffffffffffffffffffffffffffffffffff1673ffffffffffffffffffffffffffffffffffffffff1681526020016004820160009054906101000a900473ffffffffffffffffffffffffffffffffffffffff1673ffffffffffffffffffffffffffffffffffffffff1673ffffffffffffffffffffffffffffffffffffffff168152602001600582015481526020016006820160009054906101000a900460ff1615151515815260200160078201548152602001600882015481526020016009820180546126919061515b565b80601f01602080910402602001604051908101604052809291908181526020018280546126bd9061515b565b801561270a5780601f106126df5761010080835404028352916020019161270a565b820191906000526020600020905b8154815290600101906020018083116126ed57829003601f168201915b50505050508152602001600a820160009054906101000a900460ff16151515158152505090508060c00151156127505760008160c001901515908115158152505061276c565b60018160c0019015159081151581525050828160a00181815250505b80600c60008681526020019081526020016000206000820151816000015560208201518160010190805190602001906127a6929190613e9c565b5060408201518160020190805190602001906127c3929190613e9c565b5060608201518160030160006101000a81548173ffffffffffffffffffffffffffffffffffffffff021916908373ffffffffffffffffffffffffffffffffffffffff16021790555060808201518160040160006101000a81548173ffffffffffffffffffffffffffffffffffffffff021916908373ffffffffffffffffffffffffffffffffffffffff16021790555060a0820151816005015560c08201518160060160006101000a81548160ff02191690831515021790555060e0820151816007015561010082015181600801556101208201518160090190805190602001906128ae929190613e9c565b5061014082015181600a0160006101000a81548160ff02191690831515021790555090505050505050565b6000600560008473ffffffffffffffffffffffffffffffffffffffff1673ffffffffffffffffffffffffffffffffffffffff16815260200190815260200160002060008373ffffffffffffffffffffffffffffffffffffffff1673ffffffffffffffffffffffffffffffffffffffff16815260200190815260200160002060009054906101000a900460ff16905092915050565b612975612bcf565b73ffffffffffffffffffffffffffffffffffffffff16612993611c2a565b73ffffffffffffffffffffffffffffffffffffffff16146129e9576040517f08c379a00000000000000000000000000000000000000000000000000000000081526004016129e090614dcb565b60405180910390fd5b8060098190555050565b6129fb612bcf565b73ffffffffffffffffffffffffffffffffffffffff16612a19611c2a565b73ffffffffffffffffffffffffffffffffffffffff1614612a6f576040517f08c379a0000000000000000000000000000000000000000000000000000000008152600401612a6690614dcb565b60405180910390fd5b600073ffffffffffffffffffffffffffffffffffffffff168173ffffffffffffffffffffffffffffffffffffffff161415612adf576040517f08c379a0000000000000000000000000000000000000000000000000000000008152600401612ad690614c0b565b60405180910390fd5b612ae881613244565b50565b60007f01ffc9a7000000000000000000000000000000000000000000000000000000007bffffffffffffffffffffffffffffffffffffffffffffffffffffffff1916827bffffffffffffffffffffffffffffffffffffffffffffffffffffffff1916149050919050565b600081600001549050919050565b60008073ffffffffffffffffffffffffffffffffffffffff166002600084815260200190815260200160002060009054906101000a900473ffffffffffffffffffffffffffffffffffffffff1673ffffffffffffffffffffffffffffffffffffffff1614159050919050565b600033905090565b816004600083815260200190815260200160002060006101000a81548173ffffffffffffffffffffffffffffffffffffffff021916908373ffffffffffffffffffffffffffffffffffffffff160217905550808273ffffffffffffffffffffffffffffffffffffffff16612c4a83611a0b565b73ffffffffffffffffffffffffffffffffffffffff167f8c5be1e5ebec7d5bd14f71427d1e84f3dd0314c0f7b2291e5b200ac8c7c3b92560405160405180910390a45050565b6000612c9b82612b63565b612cda576040517f08c379a0000000000000000000000000000000000000000000000000000000008152600401612cd190614cab565b60405180910390fd5b6000612ce583611a0b565b90508073ffffffffffffffffffffffffffffffffffffffff168473ffffffffffffffffffffffffffffffffffffffff161480612d5457508373ffffffffffffffffffffffffffffffffffffffff16612d3c84610888565b73ffffffffffffffffffffffffffffffffffffffff16145b80612d655750612d6481856128d9565b5b91505092915050565b8273ffffffffffffffffffffffffffffffffffffffff16612d8e82611a0b565b73ffffffffffffffffffffffffffffffffffffffff1614612de4576040517f08c379a0000000000000000000000000000000000000000000000000000000008152600401612ddb90614e0b565b60405180910390fd5b600073ffffffffffffffffffffffffffffffffffffffff168273ffffffffffffffffffffffffffffffffffffffff161415612e54576040517f08c379a0000000000000000000000000000000000000000000000000000000008152600401612e4b90614c6b565b60405180910390fd5b612e5f838383613424565b612e6a600082612bd7565b6001600360008573ffffffffffffffffffffffffffffffffffffffff1673ffffffffffffffffffffffffffffffffffffffff1681526020019081526020016000206000828254612eba9190615055565b925050819055506001600360008473ffffffffffffffffffffffffffffffffffffffff1673ffffffffffffffffffffffffffffffffffffffff1681526020019081526020016000206000828254612f119190614fce565b92505081905550816002600083815260200190815260200160002060006101000a81548173ffffffffffffffffffffffffffffffffffffffff021916908373ffffffffffffffffffffffffffffffffffffffff160217905550808273ffffffffffffffffffffffffffffffffffffffff168473ffffffffffffffffffffffffffffffffffffffff167fddf252ad1be2c89b69c2b068fc378daa952ba7f163c4a11628f55a4df523b3ef60405160405180910390a4505050565b6000612fd660086138e4565b6000612fe26008612b55565b9050612fee3382613903565b612ff88187613ad1565b60003373ffffffffffffffffffffffffffffffffffffffff16613019611c2a565b73ffffffffffffffffffffffffffffffffffffffff16141561303a57600190505b60006040518061016001604052806130526008612b55565b81526020018881526020018981526020013373ffffffffffffffffffffffffffffffffffffffff168152602001600073ffffffffffffffffffffffffffffffffffffffff16815260200160008152602001600015158152602001868152602001438152602001878152602001831515815250905080600c60006130d56008612b55565b8152602001908152602001600020600082015181600001556020820151816001019080519060200190613109929190613e9c565b506040820151816002019080519060200190613126929190613e9c565b5060608201518160030160006101000a81548173ffffffffffffffffffffffffffffffffffffffff021916908373ffffffffffffffffffffffffffffffffffffffff16021790555060808201518160040160006101000a81548173ffffffffffffffffffffffffffffffffffffffff021916908373ffffffffffffffffffffffffffffffffffffffff16021790555060a0820151816005015560c08201518160060160006101000a81548160ff02191690831515021790555060e082015181600701556101008201518160080155610120820151816009019080519060200190613211929190613e9c565b5061014082015181600a0160006101000a81548160ff021916908315150217905550905050829350505050949350505050565b6000600760009054906101000a900473ffffffffffffffffffffffffffffffffffffffff16905081600760006101000a81548173ffffffffffffffffffffffffffffffffffffffff021916908373ffffffffffffffffffffffffffffffffffffffff1602179055508173ffffffffffffffffffffffffffffffffffffffff168173ffffffffffffffffffffffffffffffffffffffff167f8be0079c531659141344cd1fd0a4f28419497f9722a3daafe3b4186f6b6457e060405160405180910390a35050565b613315848484612d6e565b61332184848484613b45565b613360576040517f08c379a000000000000000000000000000000000000000000000000000000000815260040161335790614beb565b60405180910390fd5b50505050565b606060405180602001604052806000815250905090565b606061338882612b63565b6133c7576040517f08c379a00000000000000000000000000000000000000000000000000000000081526004016133be90614e2b565b60405180910390fd5b60006133d1613366565b905060008151116133f1576040518060200160405280600081525061341c565b806133fb84613cdc565b60405160200161340c929190614abc565b6040516020818303038152906040525b915050919050565b6000600c6000838152602001908152602001600020604051806101600160405290816000820154815260200160018201805461345f9061515b565b80601f016020809104026020016040519081016040528092919081815260200182805461348b9061515b565b80156134d85780601f106134ad576101008083540402835291602001916134d8565b820191906000526020600020905b8154815290600101906020018083116134bb57829003601f168201915b505050505081526020016002820180546134f19061515b565b80601f016020809104026020016040519081016040528092919081815260200182805461351d9061515b565b801561356a5780601f1061353f5761010080835404028352916020019161356a565b820191906000526020600020905b81548152906001019060200180831161354d57829003601f168201915b505050505081526020016003820160009054906101000a900473ffffffffffffffffffffffffffffffffffffffff1673ffffffffffffffffffffffffffffffffffffffff1673ffffffffffffffffffffffffffffffffffffffff1681526020016004820160009054906101000a900473ffffffffffffffffffffffffffffffffffffffff1673ffffffffffffffffffffffffffffffffffffffff1673ffffffffffffffffffffffffffffffffffffffff168152602001600582015481526020016006820160009054906101000a900460ff1615151515815260200160078201548152602001600882015481526020016009820180546136689061515b565b80601f01602080910402602001604051908101604052809291908181526020018280546136949061515b565b80156136e15780601f106136b6576101008083540402835291602001916136e1565b820191906000526020600020905b8154815290600101906020018083116136c457829003601f168201915b50505050508152602001600a820160009054906101000a900460ff161515151581525050905083816080019073ffffffffffffffffffffffffffffffffffffffff16908173ffffffffffffffffffffffffffffffffffffffff168152505082816060019073ffffffffffffffffffffffffffffffffffffffff16908173ffffffffffffffffffffffffffffffffffffffff168152505080600c60008481526020019081526020016000206000820151816000015560208201518160010190805190602001906137b1929190613e9c565b5060408201518160020190805190602001906137ce929190613e9c565b5060608201518160030160006101000a81548173ffffffffffffffffffffffffffffffffffffffff021916908373ffffffffffffffffffffffffffffffffffffffff16021790555060808201518160040160006101000a81548173ffffffffffffffffffffffffffffffffffffffff021916908373ffffffffffffffffffffffffffffffffffffffff16021790555060a0820151816005015560c08201518160060160006101000a81548160ff02191690831515021790555060e0820151816007015561010082015181600801556101208201518160090190805190602001906138b9929190613e9c565b5061014082015181600a0160006101000a81548160ff02191690831515021790555090505050505050565b60018160000160008282546138f99190614fce565b9250508190555050565b600073ffffffffffffffffffffffffffffffffffffffff168273ffffffffffffffffffffffffffffffffffffffff161415613973576040517f08c379a000000000000000000000000000000000000000000000000000000000815260040161396a90614d6b565b60405180910390fd5b61397c81612b63565b156139bc576040517f08c379a00000000000000000000000000000000000000000000000000000000081526004016139b390614c2b565b60405180910390fd5b6139c860008383613424565b6001600360008473ffffffffffffffffffffffffffffffffffffffff1673ffffffffffffffffffffffffffffffffffffffff1681526020019081526020016000206000828254613a189190614fce565b92505081905550816002600083815260200190815260200160002060006101000a81548173ffffffffffffffffffffffffffffffffffffffff021916908373ffffffffffffffffffffffffffffffffffffffff160217905550808273ffffffffffffffffffffffffffffffffffffffff16600073ffffffffffffffffffffffffffffffffffffffff167fddf252ad1be2c89b69c2b068fc378daa952ba7f163c4a11628f55a4df523b3ef60405160405180910390a45050565b613ada82612b63565b613b19576040517f08c379a0000000000000000000000000000000000000000000000000000000008152600401613b1090614d2b565b60405180910390fd5b80600660008481526020019081526020016000209080519060200190613b40929190613e9c565b505050565b6000613b668473ffffffffffffffffffffffffffffffffffffffff16613e89565b15613ccf578373ffffffffffffffffffffffffffffffffffffffff1663150b7a02613b8f612bcf565b8786866040518563ffffffff1660e01b8152600401613bb19493929190614b10565b602060405180830381600087803b158015613bcb57600080fd5b505af1925050508015613bfc57506040513d601f19601f82011682018060405250810190613bf99190614310565b60015b613c7f573d8060008114613c2c576040519150601f19603f3d011682016040523d82523d6000602084013e613c31565b606091505b50600081511415613c77576040517f08c379a0000000000000000000000000000000000000000000000000000000008152600401613c6e90614beb565b60405180910390fd5b805181602001fd5b63150b7a0260e01b7bffffffffffffffffffffffffffffffffffffffffffffffffffffffff1916817bffffffffffffffffffffffffffffffffffffffffffffffffffffffff191614915050613cd4565b600190505b949350505050565b60606000821415613d24576040518060400160405280600181526020017f30000000000000000000000000000000000000000000000000000000000000008152509050613e84565b600082905060005b60008214613d56578080613d3f906151be565b915050600a82613d4f9190615024565b9150613d2c565b60008167ffffffffffffffff811115613d98577f4e487b7100000000000000000000000000000000000000000000000000000000600052604160045260246000fd5b6040519080825280601f01601f191660200182016040528015613dca5781602001600182028036833780820191505090505b5090505b60008514613e7d57600182613de39190615055565b9150600a85613df29190615207565b6030613dfe9190614fce565b60f81b818381518110613e3a577f4e487b7100000000000000000000000000000000000000000000000000000000600052603260045260246000fd5b60200101907effffffffffffffffffffffffffffffffffffffffffffffffffffffffffffff1916908160001a905350600a85613e769190615024565b9450613dce565b8093505050505b919050565b600080823b905060008111915050919050565b828054613ea89061515b565b90600052602060002090601f016020900481019282613eca5760008555613f11565b82601f10613ee357805160ff1916838001178555613f11565b82800160010185558215613f11579182015b82811115613f10578251825591602001919060010190613ef5565b5b509050613f1e9190613fac565b5090565b604051806101600160405280600081526020016060815260200160608152602001600073ffffffffffffffffffffffffffffffffffffffff168152602001600073ffffffffffffffffffffffffffffffffffffffff168152602001600081526020016000151581526020016000815260200160008152602001606081526020016000151581525090565b5b80821115613fc5576000816000905550600101613fad565b5090565b6000613fdc613fd784614f0d565b614ee8565b905082815260208101848484011115613ff457600080fd5b613fff848285615119565b509392505050565b600061401a61401584614f3e565b614ee8565b90508281526020810184848401111561403257600080fd5b61403d848285615119565b509392505050565b600081359050614054816158a2565b92915050565b600081359050614069816158b9565b92915050565b60008151905061407e816158d0565b92915050565b600081359050614093816158e7565b92915050565b6000815190506140a8816158e7565b92915050565b600082601f8301126140bf57600080fd5b81356140cf848260208601613fc9565b91505092915050565b600082601f8301126140e957600080fd5b81356140f9848260208601614007565b91505092915050565b600081359050614111816158fe565b92915050565b60006020828403121561412957600080fd5b600061413784828501614045565b91505092915050565b6000806040838503121561415357600080fd5b600061416185828601614045565b925050602061417285828601614045565b9150509250929050565b60008060006060848603121561419157600080fd5b600061419f86828701614045565b93505060206141b086828701614045565b92505060406141c186828701614102565b9150509250925092565b600080600080608085870312156141e157600080fd5b60006141ef87828801614045565b945050602061420087828801614045565b935050604061421187828801614102565b925050606085013567ffffffffffffffff81111561422e57600080fd5b61423a878288016140ae565b91505092959194509250565b6000806040838503121561425957600080fd5b600061426785828601614045565b92505060206142788582860161405a565b9150509250929050565b6000806040838503121561429557600080fd5b60006142a385828601614045565b92505060206142b485828601614102565b9150509250929050565b6000602082840312156142d057600080fd5b60006142de8482850161406f565b91505092915050565b6000602082840312156142f957600080fd5b600061430784828501614084565b91505092915050565b60006020828403121561432257600080fd5b600061433084828501614099565b91505092915050565b60006020828403121561434b57600080fd5b600082013567ffffffffffffffff81111561436557600080fd5b614371848285016140d8565b91505092915050565b6000806040838503121561438d57600080fd5b600083013567ffffffffffffffff8111156143a757600080fd5b6143b3858286016140d8565b925050602083013567ffffffffffffffff8111156143d057600080fd5b6143dc858286016140d8565b9150509250929050565b6000602082840312156143f857600080fd5b600061440684828501614102565b91505092915050565b6000806000806080858703121561442557600080fd5b600061443387828801614102565b945050602085013567ffffffffffffffff81111561445057600080fd5b61445c878288016140d8565b935050604085013567ffffffffffffffff81111561447957600080fd5b614485878288016140d8565b925050606085013567ffffffffffffffff8111156144a257600080fd5b6144ae878288016140d8565b91505092959194509250565b600080604083850312156144cd57600080fd5b60006144db85828601614102565b92505060206144ec85828601614102565b9150509250929050565b6144ff8161509b565b82525050565b61450e81615089565b82525050565b61451d816150ad565b82525050565b61452c816150ad565b82525050565b61453b816150b9565b82525050565b600061454c82614f6f565b6145568185614f85565b9350614566818560208601615128565b61456f816152f4565b840191505092915050565b600061458582614f6f565b61458f8185614f96565b935061459f818560208601615128565b80840191505092915050565b60006145b682614f7a565b6145c08185614fa1565b93506145d0818560208601615128565b6145d9816152f4565b840191505092915050565b60006145ef82614f7a565b6145f98185614fb2565b9350614609818560208601615128565b614612816152f4565b840191505092915050565b600061462882614f7a565b6146328185614fc3565b9350614642818560208601615128565b80840191505092915050565b600061465b603283614fb2565b915061466682615305565b604082019050919050565b600061467e602683614fb2565b915061468982615354565b604082019050919050565b60006146a1601c83614fb2565b91506146ac826153a3565b602082019050919050565b60006146c4601683614fb2565b91506146cf826153cc565b602082019050919050565b60006146e7602483614fb2565b91506146f2826153f5565b604082019050919050565b600061470a601983614fb2565b915061471582615444565b602082019050919050565b600061472d602c83614fb2565b91506147388261546d565b604082019050919050565b6000614750603883614fb2565b915061475b826154bc565b604082019050919050565b6000614773602a83614fb2565b915061477e8261550b565b604082019050919050565b6000614796602983614fb2565b91506147a18261555a565b604082019050919050565b60006147b9602e83614fb2565b91506147c4826155a9565b604082019050919050565b60006147dc601383614fb2565b91506147e7826155f8565b602082019050919050565b60006147ff602083614fb2565b915061480a82615621565b602082019050919050565b6000614822603183614fb2565b915061482d8261564a565b604082019050919050565b6000614845602c83614fb2565b915061485082615699565b604082019050919050565b6000614868602083614fb2565b9150614873826156e8565b602082019050919050565b600061488b601483614fb2565b915061489682615711565b602082019050919050565b60006148ae602983614fb2565b91506148b98261573a565b604082019050919050565b60006148d1602f83614fb2565b91506148dc82615789565b604082019050919050565b60006148f4602183614fb2565b91506148ff826157d8565b604082019050919050565b6000614917600083614f96565b915061492282615827565b600082019050919050565b600061493a603183614fb2565b91506149458261582a565b604082019050919050565b600061495d600c83614fb2565b915061496882615879565b602082019050919050565b60006101608301600083015161498c6000860182614a70565b50602083015184820360208601526149a482826145ab565b915050604083015184820360408601526149be82826145ab565b91505060608301516149d360608601826144f6565b5060808301516149e660808601826144f6565b5060a08301516149f960a0860182614a70565b5060c0830151614a0c60c0860182614514565b5060e0830151614a1f60e0860182614a70565b50610100830151614a34610100860182614a70565b50610120830151848203610120860152614a4e82826145ab565b915050610140830151614a65610140860182614514565b508091505092915050565b614a798161510f565b82525050565b614a888161510f565b82525050565b6000614a9a828461457a565b915081905092915050565b6000614ab1828461461d565b915081905092915050565b6000614ac8828561461d565b9150614ad4828461461d565b91508190509392505050565b6000614aeb8261490a565b9150819050919050565b6000602082019050614b0a6000830184614505565b92915050565b6000608082019050614b256000830187614505565b614b326020830186614505565b614b3f6040830185614a7f565b8181036060830152614b518184614541565b905095945050505050565b6000602082019050614b716000830184614523565b92915050565b6000606082019050614b8c6000830186614523565b614b996020830185614532565b614ba66040830184614a7f565b949350505050565b6000602082019050614bc36000830184614532565b92915050565b60006020820190508181036000830152614be381846145e4565b905092915050565b60006020820190508181036000830152614c048161464e565b9050919050565b60006020820190508181036000830152614c2481614671565b9050919050565b60006020820190508181036000830152614c4481614694565b9050919050565b60006020820190508181036000830152614c64816146b7565b9050919050565b60006020820190508181036000830152614c84816146da565b9050919050565b60006020820190508181036000830152614ca4816146fd565b9050919050565b60006020820190508181036000830152614cc481614720565b9050919050565b60006020820190508181036000830152614ce481614743565b9050919050565b60006020820190508181036000830152614d0481614766565b9050919050565b60006020820190508181036000830152614d2481614789565b9050919050565b60006020820190508181036000830152614d44816147ac565b9050919050565b60006020820190508181036000830152614d64816147cf565b9050919050565b60006020820190508181036000830152614d84816147f2565b9050919050565b60006020820190508181036000830152614da481614815565b9050919050565b60006020820190508181036000830152614dc481614838565b9050919050565b60006020820190508181036000830152614de48161485b565b9050919050565b60006020820190508181036000830152614e048161487e565b9050919050565b60006020820190508181036000830152614e24816148a1565b9050919050565b60006020820190508181036000830152614e44816148c4565b9050919050565b60006020820190508181036000830152614e64816148e7565b9050919050565b60006020820190508181036000830152614e848161492d565b9050919050565b60006020820190508181036000830152614ea481614950565b9050919050565b60006020820190508181036000830152614ec58184614973565b905092915050565b6000602082019050614ee26000830184614a7f565b92915050565b6000614ef2614f03565b9050614efe828261518d565b919050565b6000604051905090565b600067ffffffffffffffff821115614f2857614f276152c5565b5b614f31826152f4565b9050602081019050919050565b600067ffffffffffffffff821115614f5957614f586152c5565b5b614f62826152f4565b9050602081019050919050565b600081519050919050565b600081519050919050565b600082825260208201905092915050565b600081905092915050565b600082825260208201905092915050565b600082825260208201905092915050565b600081905092915050565b6000614fd98261510f565b9150614fe48361510f565b9250827fffffffffffffffffffffffffffffffffffffffffffffffffffffffffffffffff0382111561501957615018615238565b5b828201905092915050565b600061502f8261510f565b915061503a8361510f565b92508261504a57615049615267565b5b828204905092915050565b60006150608261510f565b915061506b8361510f565b92508282101561507e5761507d615238565b5b828203905092915050565b6000615094826150ef565b9050919050565b60006150a6826150ef565b9050919050565b60008115159050919050565b6000819050919050565b60007fffffffff0000000000000000000000000000000000000000000000000000000082169050919050565b600073ffffffffffffffffffffffffffffffffffffffff82169050919050565b6000819050919050565b82818337600083830152505050565b60005b8381101561514657808201518184015260208101905061512b565b83811115615155576000848401525b50505050565b6000600282049050600182168061517357607f821691505b6020821081141561518757615186615296565b5b50919050565b615196826152f4565b810181811067ffffffffffffffff821117156151b5576151b46152c5565b5b80604052505050565b60006151c98261510f565b91507fffffffffffffffffffffffffffffffffffffffffffffffffffffffffffffffff8214156151fc576151fb615238565b5b600182019050919050565b60006152128261510f565b915061521d8361510f565b92508261522d5761522c615267565b5b828206905092915050565b7f4e487b7100000000000000000000000000000000000000000000000000000000600052601160045260246000fd5b7f4e487b7100000000000000000000000000000000000000000000000000000000600052601260045260246000fd5b7f4e487b7100000000000000000000000000000000000000000000000000000000600052602260045260246000fd5b7f4e487b7100000000000000000000000000000000000000000000000000000000600052604160045260246000fd5b6000601f19601f8301169050919050565b7f4552433732313a207472616e7366657220746f206e6f6e20455243373231526560008201527f63656976657220696d706c656d656e7465720000000000000000000000000000602082015250565b7f4f776e61626c653a206e6577206f776e657220697320746865207a65726f206160008201527f6464726573730000000000000000000000000000000000000000000000000000602082015250565b7f4552433732313a20746f6b656e20616c7265616479206d696e74656400000000600082015250565b7f6f6e6c79207468652068617368696d61206f776e657200000000000000000000600082015250565b7f4552433732313a207472616e7366657220746f20746865207a65726f2061646460008201527f7265737300000000000000000000000000000000000000000000000000000000602082015250565b7f4552433732313a20617070726f766520746f2063616c6c657200000000000000600082015250565b7f4552433732313a206f70657261746f7220717565727920666f72206e6f6e657860008201527f697374656e7420746f6b656e0000000000000000000000000000000000000000602082015250565b7f4552433732313a20617070726f76652063616c6c6572206973206e6f74206f7760008201527f6e6572206e6f7220617070726f76656420666f7220616c6c0000000000000000602082015250565b7f4552433732313a2062616c616e636520717565727920666f7220746865207a6560008201527f726f206164647265737300000000000000000000000000000000000000000000602082015250565b7f4552433732313a206f776e657220717565727920666f72206e6f6e657869737460008201527f656e7420746f6b656e0000000000000000000000000000000000000000000000602082015250565b7f45524337323155524953746f726167653a2055524920736574206f66206e6f6e60008201527f6578697374656e7420746f6b656e000000000000000000000000000000000000602082015250565b7f746f6c6572616e63652069732065787069726500000000000000000000000000600082015250565b7f4552433732313a206d696e7420746f20746865207a65726f2061646472657373600082015250565b7f45524337323155524953746f726167653a2055524920717565727920666f722060008201527f6e6f6e6578697374656e7420746f6b656e000000000000000000000000000000602082015250565b7f4552433732313a20617070726f76656420717565727920666f72206e6f6e657860008201527f697374656e7420746f6b656e0000000000000000000000000000000000000000602082015250565b7f4f776e61626c653a2063616c6c6572206973206e6f7420746865206f776e6572600082015250565b7f70726963652068617320746f2062652068696768000000000000000000000000600082015250565b7f4552433732313a207472616e73666572206f6620746f6b656e2074686174206960008201527f73206e6f74206f776e0000000000000000000000000000000000000000000000602082015250565b7f4552433732314d657461646174613a2055524920717565727920666f72206e6f60008201527f6e6578697374656e7420746f6b656e0000000000000000000000000000000000602082015250565b7f4552433732313a20617070726f76616c20746f2063757272656e74206f776e6560008201527f7200000000000000000000000000000000000000000000000000000000000000602082015250565b50565b7f4552433732313a207472616e736665722063616c6c6572206973206e6f74206f60008201527f776e6572206e6f7220617070726f766564000000000000000000000000000000602082015250565b7f6e616d6520697320627573790000000000000000000000000000000000000000600082015250565b6158ab81615089565b81146158b657600080fd5b50565b6158c2816150ad565b81146158cd57600080fd5b50565b6158d9816150b9565b81146158e457600080fd5b50565b6158f0816150c3565b81146158fb57600080fd5b50565b6159078161510f565b811461591257600080fd5b5056fea2646970667358221220b3a0225d7fc32ccab032267db1899b3a72b352ea5e350c3e8d50d0dc40e6ced464736f6c63430008030033",
  "immutableReferences": {},
  "source": "// SPDX-License-Identifier: MIT\npragma solidity ^0.8.0;\n\nimport \"@openzeppelin/contracts/token/ERC721/extensions/ERC721URIStorage.sol\";\nimport \"@openzeppelin/contracts/utils/Counters.sol\";\nimport \"@openzeppelin/contracts/access/Ownable.sol\";\n\n\ncontract Hashima is ERC721URIStorage,Ownable{\n\n    using Counters for Counters.Counter;\n    Counters.Counter private _tokenIds;\n    uint256 BLOCK_TOLERANCE=100;\n\n    mapping(address=>uint256) private tolerance;\n    //check the string use by the user is not repeat\n    mapping(string=>bool)public _names;\n\n  constructor() ERC721(\"Hashima\", \"HASHIMA\") {}\n\n   struct Hashi {\n      uint256 tokenId;\n      string tokenName;\n      string tokenURI;\n      address payable currentOwner;\n      address payable previousOwner;\n      uint256 price;\n      bool forSale;\n      uint256 stars;\n      uint256 blockNumber;\n      string nonce;\n      bool sign;\n  }\n    \n  mapping(uint256=>Hashi) _hashis ;\n\n  function createHashimaItem(\n    string memory tokenURI,\n    string memory _data,\n    string memory _nonce,\n    uint256 _estrellas) private returns (uint256){\n\n    _tokenIds.increment();\n\n    uint256 newItemId = _tokenIds.current();\n    _mint(msg.sender, newItemId);\n    _setTokenURI(newItemId, tokenURI);\n\n    bool sign=false;\n    if(owner()==msg.sender){\n      sign=true;\n    }\n    Hashi memory newHashima= Hashi(\n    _tokenIds.current(),//token id of hashima\n    _data,//string pick by the miner\n    tokenURI,\n    payable(msg.sender),\n    payable(address(0)),\n    0,\n    false,//for sale\n    _estrellas,\n    block.number,\n    _nonce,\n    sign\n    );\n\n    _hashis[_tokenIds.current()] = newHashima;\n\n    return newItemId;\n\n  }\n\n  function getHashima(uint256 _index)public view returns(Hashi memory){\n        return _hashis[_index];\n  }\n\n  function _beforeTokenTransfer(address from,address to,uint256 tokenId)internal override{\n          Hashi memory _hashima = _hashis[tokenId];\n          // update the token's previous owner\n          _hashima.previousOwner = payable(from);\n          // update the token's current owner\n          _hashima.currentOwner =payable(to);\n          _hashis[tokenId] = _hashima;\n\n    }\n  \n\n  \n  \n  event GameStart(uint256 _blocknumber);\n \n\n  function initGame()public{\n        uint256 _block=block.number;\n        tolerance[msg.sender]=_block;\n        emit GameStart(_block);\n  }\n\n\n  function check(\n        uint256 _estrellas,\n        string memory _hashID,\n        string memory _nonce,\n        string memory _uri)public returns(bool,bytes32,uint256) {\n\n        uint256 _id=0;\n        require(tolerance[msg.sender]+BLOCK_TOLERANCE>block.number,\"tolerance is expire\");\n        require(_names[_hashID]==false,\"name is busy\");\n        require(tolerance[msg.sender]!=0);\n        require(msg.sender != address(0));\n\n        bool respuesta=true;\n\n        bytes32 _hashFinal=sha256(abi.encodePacked(_hashID,_nonce));\n        for (uint256 index = 0; index < _estrellas; index++) {\n           if (_hashFinal[index]!=0x00) {\n                respuesta=false;  \n            \n            }\n        \n        }\n        if (respuesta) {\n            //convierto la string utilizada a true para que no pueda ser utilizada.    \n            _names[_hashID]=true; \n            \n            _id=createHashimaItem(\n                _uri,\n                _hashID,\n                _nonce,\n                _estrellas);\n         \n        }\n        return(respuesta,_hashFinal,_id);\n        \n    }\n\n  function checkGame()public view returns(uint256){\n        return tolerance[msg.sender];\n    }\n  \n  function setBlockTolerance(uint256 _newtolerance)public onlyOwner{\n        BLOCK_TOLERANCE=_newtolerance;\n\n    }\n\n  function buyToken(uint256 _tokenId) public payable returns(bool){\n    // check if the function caller is not an zero account address\n    require(msg.sender != address(0));\n    // check if the token id of the token being bought exists or not\n    require(_exists(_tokenId));\n    // get the token's owner\n    address tokenOwner = ownerOf(_tokenId);\n    // token's owner should not be an zero address account\n    require(tokenOwner != address(0));\n    // the one who wants to buy the token should not be the token's owner\n    require(tokenOwner != msg.sender);\n    // get that token from all hashimas mapping and create a memory of it defined as (struct => Hashi)\n    Hashi memory _hashima = _hashis[_tokenId];\n    require(msg.value >= _hashima.price,'price has to be high');\n    // hashima should be for sale\n    require(_hashima.forSale);\n    // transfer the token from owner to the caller of the function (buyer)\n    _transfer(tokenOwner, msg.sender, _tokenId);\n    // get owner of the token\n    address payable sendTo = _hashima.currentOwner;\n    // send token's worth of ethers to the owner\n    (bool sent, ) = sendTo.call{value: msg.value}(\"\");\n\n    // update the token's previous owner\n    _hashima.previousOwner = _hashima.currentOwner;\n    // update the token's current owner\n    _hashima.currentOwner =payable(msg.sender);\n\n    _hashima.forSale=false;\n    // set and update that token in the mapping\n    _hashis[_tokenId] = _hashima;\n\n    return sent;\n  }\n\n\n  function changeTokenPrice(uint256 _tokenId, uint256 _newPrice) public {\n    // require caller of the function is not an empty address\n    require(msg.sender != address(0));\n    // require that token should exist\n    require(_exists(_tokenId));\n    // get the token's owner\n    address tokenOwner = ownerOf(_tokenId);\n    // check that token's owner should be equal to the caller of the function\n    require(tokenOwner == msg.sender);\n\n    Hashi memory _hashima = _hashis[_tokenId];\n    // update token's price with new price\n    _hashima.price = _newPrice;\n    // set and update that token in the mapping\n    _hashis[_tokenId] = _hashima;\n  }\n\n  // switch between set for sale and set not for sale\n  function toggleForSale(uint256 _tokenId,uint256 _newPrice) public {\n    // require caller of the function is not an empty address\n    require(msg.sender != address(0));\n    // require that token should exist\n    require(_exists(_tokenId));\n    // get the token's owner\n    address tokenOwner = ownerOf(_tokenId);\n    // check that token's owner should be equal to the caller of the function\n    require(tokenOwner == msg.sender,'only the hashima owner');\n    // get that token from all crypto boys mapping and create a memory of it defined as (struct => CryptoBoy)\n    Hashi memory _hashima = _hashis[_tokenId];\n\n    // if token's forSale is false make it true and vice versa\n    if(_hashima.forSale) {\n      _hashima.forSale = false;\n    } else {\n      _hashima.forSale = true;\n      _hashima.price = _newPrice;\n    }\n    // set and update that token in the mapping\n    _hashis[_tokenId] = _hashima;\n  }\n\n  function dameTotal()public view returns(uint256){\n      return(_tokenIds.current());\n  }\n\n  function original(uint256 _tokenId)public view returns(bool){\n    return _hashis[_tokenId].sign;\n  }\n\n  function checkingHash(string memory _input,string memory _nonce)public pure returns(bytes32){\n      bytes32 _hashFinal=sha256(abi.encodePacked(_input,_nonce));\n      return _hashFinal;\n\n  }\n\n}\n",
  "sourcePath": "/Users/aarontolentino/Desktop/hashima/contracts/Hashima.sol",
  "compiler": {
    "name": "solc",
    "version": "0.8.3+commit.8d00100c.Emscripten.clang"
  },
  "schemaVersion": "3.4.1",
  "updatedAt": "2022-03-16T18:20:11.917Z",
  "networkType": "ethereum",
  "devdoc": {
    "kind": "dev",
    "methods": {
      "approve(address,uint256)": {
        "details": "See {IERC721-approve}."
      },
      "balanceOf(address)": {
        "details": "See {IERC721-balanceOf}."
      },
      "getApproved(uint256)": {
        "details": "See {IERC721-getApproved}."
      },
      "isApprovedForAll(address,address)": {
        "details": "See {IERC721-isApprovedForAll}."
      },
      "name()": {
        "details": "See {IERC721Metadata-name}."
      },
      "owner()": {
        "details": "Returns the address of the current owner."
      },
      "ownerOf(uint256)": {
        "details": "See {IERC721-ownerOf}."
      },
      "renounceOwnership()": {
        "details": "Leaves the contract without owner. It will not be possible to call `onlyOwner` functions anymore. Can only be called by the current owner. NOTE: Renouncing ownership will leave the contract without an owner, thereby removing any functionality that is only available to the owner."
      },
      "safeTransferFrom(address,address,uint256)": {
        "details": "See {IERC721-safeTransferFrom}."
      },
      "safeTransferFrom(address,address,uint256,bytes)": {
        "details": "See {IERC721-safeTransferFrom}."
      },
      "setApprovalForAll(address,bool)": {
        "details": "See {IERC721-setApprovalForAll}."
      },
      "supportsInterface(bytes4)": {
        "details": "See {IERC165-supportsInterface}."
      },
      "symbol()": {
        "details": "See {IERC721Metadata-symbol}."
      },
      "tokenURI(uint256)": {
        "details": "See {IERC721Metadata-tokenURI}."
      },
      "transferFrom(address,address,uint256)": {
        "details": "See {IERC721-transferFrom}."
      },
      "transferOwnership(address)": {
        "details": "Transfers ownership of the contract to a new account (`newOwner`). Can only be called by the current owner."
      }
    },
    "version": 1
  },
  "userdoc": {
    "kind": "user",
    "methods": {},
    "version": 1
  }
}