{
  "contractName": "Petunia",
  "abi": [
    {
      "inputs": [
        {
          "internalType": "contract Hashima",
          "name": "_contrato",
          "type": "address"
        }
      ],
      "stateMutability": "nonpayable",
      "type": "constructor"
    },
    {
      "anonymous": false,
      "inputs": [
        {
          "indexed": true,
          "internalType": "address",
          "name": "owner",
          "type": "address"
        },
        {
          "indexed": true,
          "internalType": "address",
          "name": "spender",
          "type": "address"
        },
        {
          "indexed": false,
          "internalType": "uint256",
          "name": "value",
          "type": "uint256"
        }
      ],
      "name": "Approval",
      "type": "event"
    },
    {
      "anonymous": false,
      "inputs": [
        {
          "indexed": true,
          "internalType": "address",
          "name": "from",
          "type": "address"
        },
        {
          "indexed": true,
          "internalType": "address",
          "name": "to",
          "type": "address"
        },
        {
          "indexed": false,
          "internalType": "uint256",
          "name": "value",
          "type": "uint256"
        }
      ],
      "name": "Transfer",
      "type": "event"
    },
    {
      "inputs": [],
      "name": "REWARD_PER_BLOCK",
      "outputs": [
        {
          "internalType": "uint256",
          "name": "",
          "type": "uint256"
        }
      ],
      "stateMutability": "view",
      "type": "function",
      "constant": true
    },
    {
      "inputs": [
        {
          "internalType": "address",
          "name": "owner",
          "type": "address"
        },
        {
          "internalType": "address",
          "name": "spender",
          "type": "address"
        }
      ],
      "name": "allowance",
      "outputs": [
        {
          "internalType": "uint256",
          "name": "",
          "type": "uint256"
        }
      ],
      "stateMutability": "view",
      "type": "function",
      "constant": true
    },
    {
      "inputs": [
        {
          "internalType": "address",
          "name": "spender",
          "type": "address"
        },
        {
          "internalType": "uint256",
          "name": "amount",
          "type": "uint256"
        }
      ],
      "name": "approve",
      "outputs": [
        {
          "internalType": "bool",
          "name": "",
          "type": "bool"
        }
      ],
      "stateMutability": "nonpayable",
      "type": "function"
    },
    {
      "inputs": [
        {
          "internalType": "address",
          "name": "account",
          "type": "address"
        }
      ],
      "name": "balanceOf",
      "outputs": [
        {
          "internalType": "uint256",
          "name": "",
          "type": "uint256"
        }
      ],
      "stateMutability": "view",
      "type": "function",
      "constant": true
    },
    {
      "inputs": [
        {
          "internalType": "address",
          "name": "",
          "type": "address"
        },
        {
          "internalType": "uint256",
          "name": "",
          "type": "uint256"
        }
      ],
      "name": "checkpoints",
      "outputs": [
        {
          "internalType": "uint256",
          "name": "",
          "type": "uint256"
        }
      ],
      "stateMutability": "view",
      "type": "function",
      "constant": true
    },
    {
      "inputs": [],
      "name": "decimals",
      "outputs": [
        {
          "internalType": "uint8",
          "name": "",
          "type": "uint8"
        }
      ],
      "stateMutability": "view",
      "type": "function",
      "constant": true
    },
    {
      "inputs": [
        {
          "internalType": "address",
          "name": "spender",
          "type": "address"
        },
        {
          "internalType": "uint256",
          "name": "subtractedValue",
          "type": "uint256"
        }
      ],
      "name": "decreaseAllowance",
      "outputs": [
        {
          "internalType": "bool",
          "name": "",
          "type": "bool"
        }
      ],
      "stateMutability": "nonpayable",
      "type": "function"
    },
    {
      "inputs": [
        {
          "internalType": "uint256",
          "name": "",
          "type": "uint256"
        }
      ],
      "name": "has_deposited",
      "outputs": [
        {
          "internalType": "bool",
          "name": "",
          "type": "bool"
        }
      ],
      "stateMutability": "view",
      "type": "function",
      "constant": true
    },
    {
      "inputs": [
        {
          "internalType": "address",
          "name": "spender",
          "type": "address"
        },
        {
          "internalType": "uint256",
          "name": "addedValue",
          "type": "uint256"
        }
      ],
      "name": "increaseAllowance",
      "outputs": [
        {
          "internalType": "bool",
          "name": "",
          "type": "bool"
        }
      ],
      "stateMutability": "nonpayable",
      "type": "function"
    },
    {
      "inputs": [],
      "name": "name",
      "outputs": [
        {
          "internalType": "string",
          "name": "",
          "type": "string"
        }
      ],
      "stateMutability": "view",
      "type": "function",
      "constant": true
    },
    {
      "inputs": [],
      "name": "symbol",
      "outputs": [
        {
          "internalType": "string",
          "name": "",
          "type": "string"
        }
      ],
      "stateMutability": "view",
      "type": "function",
      "constant": true
    },
    {
      "inputs": [],
      "name": "totalSupply",
      "outputs": [
        {
          "internalType": "uint256",
          "name": "",
          "type": "uint256"
        }
      ],
      "stateMutability": "view",
      "type": "function",
      "constant": true
    },
    {
      "inputs": [
        {
          "internalType": "address",
          "name": "recipient",
          "type": "address"
        },
        {
          "internalType": "uint256",
          "name": "amount",
          "type": "uint256"
        }
      ],
      "name": "transfer",
      "outputs": [
        {
          "internalType": "bool",
          "name": "",
          "type": "bool"
        }
      ],
      "stateMutability": "nonpayable",
      "type": "function"
    },
    {
      "inputs": [
        {
          "internalType": "address",
          "name": "sender",
          "type": "address"
        },
        {
          "internalType": "address",
          "name": "recipient",
          "type": "address"
        },
        {
          "internalType": "uint256",
          "name": "amount",
          "type": "uint256"
        }
      ],
      "name": "transferFrom",
      "outputs": [
        {
          "internalType": "bool",
          "name": "",
          "type": "bool"
        }
      ],
      "stateMutability": "nonpayable",
      "type": "function"
    },
    {
      "inputs": [
        {
          "internalType": "uint256",
          "name": "tokenId",
          "type": "uint256"
        }
      ],
      "name": "aprovar",
      "outputs": [],
      "stateMutability": "nonpayable",
      "type": "function"
    },
    {
      "inputs": [
        {
          "internalType": "uint256",
          "name": "tokenId",
          "type": "uint256"
        }
      ],
      "name": "deposit",
      "outputs": [],
      "stateMutability": "nonpayable",
      "type": "function"
    },
    {
      "inputs": [
        {
          "internalType": "uint256",
          "name": "tokenId",
          "type": "uint256"
        }
      ],
      "name": "withdraw",
      "outputs": [],
      "stateMutability": "nonpayable",
      "type": "function"
    },
    {
      "inputs": [
        {
          "internalType": "address",
          "name": "beneficiary",
          "type": "address"
        },
        {
          "internalType": "uint256",
          "name": "tokenId",
          "type": "uint256"
        }
      ],
      "name": "collect",
      "outputs": [],
      "stateMutability": "nonpayable",
      "type": "function"
    },
    {
      "inputs": [
        {
          "internalType": "uint256",
          "name": "tokenId",
          "type": "uint256"
        }
      ],
      "name": "hashimaOnStaking",
      "outputs": [
        {
          "internalType": "bool",
          "name": "",
          "type": "bool"
        }
      ],
      "stateMutability": "view",
      "type": "function",
      "constant": true
    },
    {
      "inputs": [
        {
          "internalType": "address",
          "name": "beneficiary",
          "type": "address"
        },
        {
          "internalType": "uint256",
          "name": "tokenId",
          "type": "uint256"
        }
      ],
      "name": "calculateReward",
      "outputs": [
        {
          "internalType": "uint256",
          "name": "",
          "type": "uint256"
        }
      ],
      "stateMutability": "view",
      "type": "function",
      "constant": true
    }
  ],
  "bytecode": "0x608060405260016007553480156200001657600080fd5b50604051620028b5380380620028b583398181016040528101906200003c9190620001eb565b6040518060400160405280600581526020017f48617368690000000000000000000000000000000000000000000000000000008152506040518060400160405280600581526020017f48415348490000000000000000000000000000000000000000000000000000008152508160039080519060200190620000c092919062000124565b508060049080519060200190620000d992919062000124565b50505080600860006101000a81548173ffffffffffffffffffffffffffffffffffffffff021916908373ffffffffffffffffffffffffffffffffffffffff16021790555050620002de565b82805462000132906200025f565b90600052602060002090601f016020900481019282620001565760008555620001a2565b82601f106200017157805160ff1916838001178555620001a2565b82800160010185558215620001a2579182015b82811115620001a157825182559160200191906001019062000184565b5b509050620001b19190620001b5565b5090565b5b80821115620001d0576000816000905550600101620001b6565b5090565b600081519050620001e581620002c4565b92915050565b600060208284031215620001fe57600080fd5b60006200020e84828501620001d4565b91505092915050565b600062000224826200023f565b9050919050565b6000620002388262000217565b9050919050565b600073ffffffffffffffffffffffffffffffffffffffff82169050919050565b600060028204905060018216806200027857607f821691505b602082108114156200028f576200028e62000295565b5b50919050565b7f4e487b7100000000000000000000000000000000000000000000000000000000600052602260045260246000fd5b620002cf816200022b565b8114620002db57600080fd5b50565b6125c780620002ee6000396000f3fe608060405234801561001057600080fd5b506004361061012c5760003560e01c806357ddb1ed116100ad578063a457c2d711610071578063a457c2d71461036b578063a9059cbb1461039b578063af9d1632146103cb578063b6b55f25146103fb578063dd62ed3e146104175761012c565b806357ddb1ed146102c75780636b8357ac146102e357806370a08231146102ff57806395d89b411461032f578063975532dc1461034d5761012c565b806323b872dd116100f457806323b872dd146101fd5780632e1a7d4d1461022d578063313ce56714610249578063386082351461026757806339509351146102975761012c565b806306fdde0314610131578063095ea7b31461014f5780630cdfebfa1461017f57806318160ddd146101af5780631852e8d9146101cd575b600080fd5b610139610447565b6040516101469190611d24565b60405180910390f35b610169600480360381019061016491906119fe565b6104d9565b6040516101769190611d09565b60405180910390f35b610199600480360381019061019491906119fe565b6104f7565b6040516101a69190611ea6565b60405180910390f35b6101b761051c565b6040516101c49190611ea6565b60405180910390f35b6101e760048036038101906101e291906119fe565b610526565b6040516101f49190611ea6565b60405180910390f35b610217600480360381019061021291906119af565b6106ba565b6040516102249190611d09565b60405180910390f35b61024760048036038101906102429190611a7b565b6107b2565b005b6102516108dc565b60405161025e9190611eea565b60405180910390f35b610281600480360381019061027c9190611a7b565b6108e5565b60405161028e9190611d09565b60405180910390f35b6102b160048036038101906102ac91906119fe565b61090f565b6040516102be9190611d09565b60405180910390f35b6102e160048036038101906102dc9190611a7b565b6109bb565b005b6102fd60048036038101906102f891906119fe565b610a4d565b005b61031960048036038101906103149190611921565b610abf565b6040516103269190611ea6565b60405180910390f35b610337610b07565b6040516103449190611d24565b60405180910390f35b610355610b99565b6040516103629190611ea6565b60405180910390f35b610385600480360381019061038091906119fe565b610b9f565b6040516103929190611d09565b60405180910390f35b6103b560048036038101906103b091906119fe565b610c8a565b6040516103c29190611d09565b60405180910390f35b6103e560048036038101906103e09190611a7b565b610ca8565b6040516103f29190611d09565b60405180910390f35b61041560048036038101906104109190611a7b565b610cc8565b005b610431600480360381019061042c9190611973565b6110a6565b60405161043e9190611ea6565b60405180910390f35b60606003805461045690612138565b80601f016020809104026020016040519081016040528092919081815260200182805461048290612138565b80156104cf5780601f106104a4576101008083540402835291602001916104cf565b820191906000526020600020905b8154815290600101906020018083116104b257829003601f168201915b5050505050905090565b60006104ed6104e661112d565b8484611135565b6001905092915050565b6005602052816000526040600020602052806000526040600020600091509150505481565b6000600254905090565b60006006600083815260200190815260200160002060009054906101000a900460ff1661055657600090506106b4565b6000600860009054906101000a900473ffffffffffffffffffffffffffffffffffffffff1673ffffffffffffffffffffffffffffffffffffffff1663d43525c3846040518263ffffffff1660e01b81526004016105b39190611ea6565b60006040518083038186803b1580156105cb57600080fd5b505afa1580156105df573d6000803e3d6000fd5b505050506040513d6000823e3d601f19601f820116820180604052508101906106089190611a3a565b60e001519050600081604061271084856106229190611ffe565b61062c9190611ffe565b6106369190611fcd565b6106409190612058565b90506000600560008773ffffffffffffffffffffffffffffffffffffffff1673ffffffffffffffffffffffffffffffffffffffff168152602001908152602001600020600086815260200190815260200160002054905080436106a39190612058565b826106ae9190611ffe565b93505050505b92915050565b60006106c7848484611300565b6000600160008673ffffffffffffffffffffffffffffffffffffffff1673ffffffffffffffffffffffffffffffffffffffff168152602001908152602001600020600061071261112d565b73ffffffffffffffffffffffffffffffffffffffff1673ffffffffffffffffffffffffffffffffffffffff16815260200190815260200160002054905082811015610792576040517f08c379a000000000000000000000000000000000000000000000000000000000815260040161078990611e06565b60405180910390fd5b6107a68561079e61112d565b858403611135565b60019150509392505050565b6006600082815260200190815260200160002060009054906101000a900460ff16610812576040517f08c379a000000000000000000000000000000000000000000000000000000000815260040161080990611d86565b60405180910390fd5b61081c3382610a4d565b600860009054906101000a900473ffffffffffffffffffffffffffffffffffffffff1673ffffffffffffffffffffffffffffffffffffffff166323b872dd3033846040518463ffffffff1660e01b815260040161087b93929190611ca9565b600060405180830381600087803b15801561089557600080fd5b505af11580156108a9573d6000803e3d6000fd5b5050505060006006600083815260200190815260200160002060006101000a81548160ff02191690831515021790555050565b60006012905090565b60006006600083815260200190815260200160002060009054906101000a900460ff169050919050565b60006109b161091c61112d565b84846001600061092a61112d565b73ffffffffffffffffffffffffffffffffffffffff1673ffffffffffffffffffffffffffffffffffffffff16815260200190815260200160002060008873ffffffffffffffffffffffffffffffffffffffff1673ffffffffffffffffffffffffffffffffffffffff168152602001908152602001600020546109ac9190611f77565b611135565b6001905092915050565b600860009054906101000a900473ffffffffffffffffffffffffffffffffffffffff1673ffffffffffffffffffffffffffffffffffffffff1663095ea7b330836040518363ffffffff1660e01b8152600401610a18929190611ce0565b600060405180830381600087803b158015610a3257600080fd5b505af1158015610a46573d6000803e3d6000fd5b5050505050565b6000610a598383610526565b905043600560008573ffffffffffffffffffffffffffffffffffffffff1673ffffffffffffffffffffffffffffffffffffffff168152602001908152602001600020600084815260200190815260200160002081905550610aba3382611581565b505050565b60008060008373ffffffffffffffffffffffffffffffffffffffff1673ffffffffffffffffffffffffffffffffffffffff168152602001908152602001600020549050919050565b606060048054610b1690612138565b80601f0160208091040260200160405190810160405280929190818152602001828054610b4290612138565b8015610b8f5780601f10610b6457610100808354040283529160200191610b8f565b820191906000526020600020905b815481529060010190602001808311610b7257829003601f168201915b5050505050905090565b60075481565b60008060016000610bae61112d565b73ffffffffffffffffffffffffffffffffffffffff1673ffffffffffffffffffffffffffffffffffffffff16815260200190815260200160002060008573ffffffffffffffffffffffffffffffffffffffff1673ffffffffffffffffffffffffffffffffffffffff16815260200190815260200160002054905082811015610c6b576040517f08c379a0000000000000000000000000000000000000000000000000000000008152600401610c6290611e66565b60405180910390fd5b610c7f610c7661112d565b85858403611135565b600191505092915050565b6000610c9e610c9761112d565b8484611300565b6001905092915050565b60066020528060005260406000206000915054906101000a900460ff1681565b600860009054906101000a900473ffffffffffffffffffffffffffffffffffffffff1673ffffffffffffffffffffffffffffffffffffffff16636352211e826040518263ffffffff1660e01b8152600401610d239190611ea6565b60206040518083038186803b158015610d3b57600080fd5b505afa158015610d4f573d6000803e3d6000fd5b505050506040513d601f19601f82011682018060405250810190610d73919061194a565b73ffffffffffffffffffffffffffffffffffffffff163373ffffffffffffffffffffffffffffffffffffffff1614610de0576040517f08c379a0000000000000000000000000000000000000000000000000000000008152600401610dd790611da6565b60405180910390fd5b6006600082815260200190815260200160002060009054906101000a900460ff1615610e41576040517f08c379a0000000000000000000000000000000000000000000000000000000008152600401610e3890611de6565b60405180910390fd5b43600560003373ffffffffffffffffffffffffffffffffffffffff1673ffffffffffffffffffffffffffffffffffffffff168152602001908152602001600020600083815260200190815260200160002081905550600860009054906101000a900473ffffffffffffffffffffffffffffffffffffffff1673ffffffffffffffffffffffffffffffffffffffff166323b872dd3330846040518463ffffffff1660e01b8152600401610ef593929190611ca9565b600060405180830381600087803b158015610f0f57600080fd5b505af1158015610f23573d6000803e3d6000fd5b505050506000600860009054906101000a900473ffffffffffffffffffffffffffffffffffffffff1673ffffffffffffffffffffffffffffffffffffffff1663d43525c3836040518263ffffffff1660e01b8152600401610f849190611ea6565b60006040518083038186803b158015610f9c57600080fd5b505afa158015610fb0573d6000803e3d6000fd5b505050506040513d6000823e3d601f19601f82011682018060405250810190610fd99190611a3a565b60c001519050801561107657600860009054906101000a900473ffffffffffffffffffffffffffffffffffffffff1673ffffffffffffffffffffffffffffffffffffffff1663d7a1aed28360006040518363ffffffff1660e01b8152600401611043929190611ec1565b600060405180830381600087803b15801561105d57600080fd5b505af1158015611071573d6000803e3d6000fd5b505050505b60016006600084815260200190815260200160002060006101000a81548160ff0219169083151502179055505050565b6000600160008473ffffffffffffffffffffffffffffffffffffffff1673ffffffffffffffffffffffffffffffffffffffff16815260200190815260200160002060008373ffffffffffffffffffffffffffffffffffffffff1673ffffffffffffffffffffffffffffffffffffffff16815260200190815260200160002054905092915050565b600033905090565b600073ffffffffffffffffffffffffffffffffffffffff168373ffffffffffffffffffffffffffffffffffffffff1614156111a5576040517f08c379a000000000000000000000000000000000000000000000000000000000815260040161119c90611e46565b60405180910390fd5b600073ffffffffffffffffffffffffffffffffffffffff168273ffffffffffffffffffffffffffffffffffffffff161415611215576040517f08c379a000000000000000000000000000000000000000000000000000000000815260040161120c90611d66565b60405180910390fd5b80600160008573ffffffffffffffffffffffffffffffffffffffff1673ffffffffffffffffffffffffffffffffffffffff16815260200190815260200160002060008473ffffffffffffffffffffffffffffffffffffffff1673ffffffffffffffffffffffffffffffffffffffff168152602001908152602001600020819055508173ffffffffffffffffffffffffffffffffffffffff168373ffffffffffffffffffffffffffffffffffffffff167f8c5be1e5ebec7d5bd14f71427d1e84f3dd0314c0f7b2291e5b200ac8c7c3b925836040516112f39190611ea6565b60405180910390a3505050565b600073ffffffffffffffffffffffffffffffffffffffff168373ffffffffffffffffffffffffffffffffffffffff161415611370576040517f08c379a000000000000000000000000000000000000000000000000000000000815260040161136790611e26565b60405180910390fd5b600073ffffffffffffffffffffffffffffffffffffffff168273ffffffffffffffffffffffffffffffffffffffff1614156113e0576040517f08c379a00000000000000000000000000000000000000000000000000000000081526004016113d790611d46565b60405180910390fd5b6113eb8383836116e1565b60008060008573ffffffffffffffffffffffffffffffffffffffff1673ffffffffffffffffffffffffffffffffffffffff16815260200190815260200160002054905081811015611471576040517f08c379a000000000000000000000000000000000000000000000000000000000815260040161146890611dc6565b60405180910390fd5b8181036000808673ffffffffffffffffffffffffffffffffffffffff1673ffffffffffffffffffffffffffffffffffffffff16815260200190815260200160002081905550816000808573ffffffffffffffffffffffffffffffffffffffff1673ffffffffffffffffffffffffffffffffffffffff16815260200190815260200160002060008282546115049190611f77565b925050819055508273ffffffffffffffffffffffffffffffffffffffff168473ffffffffffffffffffffffffffffffffffffffff167fddf252ad1be2c89b69c2b068fc378daa952ba7f163c4a11628f55a4df523b3ef846040516115689190611ea6565b60405180910390a361157b8484846116e6565b50505050565b600073ffffffffffffffffffffffffffffffffffffffff168273ffffffffffffffffffffffffffffffffffffffff1614156115f1576040517f08c379a00000000000000000000000000000000000000000000000000000000081526004016115e890611e86565b60405180910390fd5b6115fd600083836116e1565b806002600082825461160f9190611f77565b92505081905550806000808473ffffffffffffffffffffffffffffffffffffffff1673ffffffffffffffffffffffffffffffffffffffff16815260200190815260200160002060008282546116649190611f77565b925050819055508173ffffffffffffffffffffffffffffffffffffffff16600073ffffffffffffffffffffffffffffffffffffffff167fddf252ad1be2c89b69c2b068fc378daa952ba7f163c4a11628f55a4df523b3ef836040516116c99190611ea6565b60405180910390a36116dd600083836116e6565b5050565b505050565b505050565b60006116fe6116f984611f2a565b611f05565b90508281526020810184848401111561171657600080fd5b611721848285612105565b509392505050565b60008135905061173881612535565b92915050565b60008151905061174d81612535565b92915050565b6000815190506117628161254c565b92915050565b60008151905061177781612563565b92915050565b600082601f83011261178e57600080fd5b815161179e8482602086016116eb565b91505092915050565b600061016082840312156117ba57600080fd5b6117c5610160611f05565b905060006117d58482850161190c565b600083015250602082015167ffffffffffffffff8111156117f557600080fd5b6118018482850161177d565b602083015250604082015167ffffffffffffffff81111561182157600080fd5b61182d8482850161177d565b604083015250606061184184828501611753565b606083015250608061185584828501611753565b60808301525060a06118698482850161190c565b60a08301525060c061187d84828501611768565b60c08301525060e06118918482850161190c565b60e0830152506101006118a68482850161190c565b6101008301525061012082015167ffffffffffffffff8111156118c857600080fd5b6118d48482850161177d565b610120830152506101406118ea84828501611768565b6101408301525092915050565b6000813590506119068161257a565b92915050565b60008151905061191b8161257a565b92915050565b60006020828403121561193357600080fd5b600061194184828501611729565b91505092915050565b60006020828403121561195c57600080fd5b600061196a8482850161173e565b91505092915050565b6000806040838503121561198657600080fd5b600061199485828601611729565b92505060206119a585828601611729565b9150509250929050565b6000806000606084860312156119c457600080fd5b60006119d286828701611729565b93505060206119e386828701611729565b92505060406119f4868287016118f7565b9150509250925092565b60008060408385031215611a1157600080fd5b6000611a1f85828601611729565b9250506020611a30858286016118f7565b9150509250929050565b600060208284031215611a4c57600080fd5b600082015167ffffffffffffffff811115611a6657600080fd5b611a72848285016117a7565b91505092915050565b600060208284031215611a8d57600080fd5b6000611a9b848285016118f7565b91505092915050565b611aad8161208c565b82525050565b611abc816120b0565b82525050565b611acb816120f3565b82525050565b6000611adc82611f5b565b611ae68185611f66565b9350611af6818560208601612105565b611aff81612257565b840191505092915050565b6000611b17602383611f66565b9150611b2282612268565b604082019050919050565b6000611b3a602283611f66565b9150611b45826122b7565b604082019050919050565b6000611b5d601583611f66565b9150611b6882612306565b602082019050919050565b6000611b80601483611f66565b9150611b8b8261232f565b602082019050919050565b6000611ba3602683611f66565b9150611bae82612358565b604082019050919050565b6000611bc6601883611f66565b9150611bd1826123a7565b602082019050919050565b6000611be9602883611f66565b9150611bf4826123d0565b604082019050919050565b6000611c0c602583611f66565b9150611c178261241f565b604082019050919050565b6000611c2f602483611f66565b9150611c3a8261246e565b604082019050919050565b6000611c52602583611f66565b9150611c5d826124bd565b604082019050919050565b6000611c75601f83611f66565b9150611c808261250c565b602082019050919050565b611c94816120dc565b82525050565b611ca3816120e6565b82525050565b6000606082019050611cbe6000830186611aa4565b611ccb6020830185611aa4565b611cd86040830184611c8b565b949350505050565b6000604082019050611cf56000830185611aa4565b611d026020830184611c8b565b9392505050565b6000602082019050611d1e6000830184611ab3565b92915050565b60006020820190508181036000830152611d3e8184611ad1565b905092915050565b60006020820190508181036000830152611d5f81611b0a565b9050919050565b60006020820190508181036000830152611d7f81611b2d565b9050919050565b60006020820190508181036000830152611d9f81611b50565b9050919050565b60006020820190508181036000830152611dbf81611b73565b9050919050565b60006020820190508181036000830152611ddf81611b96565b9050919050565b60006020820190508181036000830152611dff81611bb9565b9050919050565b60006020820190508181036000830152611e1f81611bdc565b9050919050565b60006020820190508181036000830152611e3f81611bff565b9050919050565b60006020820190508181036000830152611e5f81611c22565b9050919050565b60006020820190508181036000830152611e7f81611c45565b9050919050565b60006020820190508181036000830152611e9f81611c68565b9050919050565b6000602082019050611ebb6000830184611c8b565b92915050565b6000604082019050611ed66000830185611c8b565b611ee36020830184611ac2565b9392505050565b6000602082019050611eff6000830184611c9a565b92915050565b6000611f0f611f20565b9050611f1b828261216a565b919050565b6000604051905090565b600067ffffffffffffffff821115611f4557611f44612228565b5b611f4e82612257565b9050602081019050919050565b600081519050919050565b600082825260208201905092915050565b6000611f82826120dc565b9150611f8d836120dc565b9250827fffffffffffffffffffffffffffffffffffffffffffffffffffffffffffffffff03821115611fc257611fc161219b565b5b828201905092915050565b6000611fd8826120dc565b9150611fe3836120dc565b925082611ff357611ff26121ca565b5b828204905092915050565b6000612009826120dc565b9150612014836120dc565b9250817fffffffffffffffffffffffffffffffffffffffffffffffffffffffffffffffff048311821515161561204d5761204c61219b565b5b828202905092915050565b6000612063826120dc565b915061206e836120dc565b9250828210156120815761208061219b565b5b828203905092915050565b6000612097826120bc565b9050919050565b60006120a9826120bc565b9050919050565b60008115159050919050565b600073ffffffffffffffffffffffffffffffffffffffff82169050919050565b6000819050919050565b600060ff82169050919050565b60006120fe826120dc565b9050919050565b60005b83811015612123578082015181840152602081019050612108565b83811115612132576000848401525b50505050565b6000600282049050600182168061215057607f821691505b60208210811415612164576121636121f9565b5b50919050565b61217382612257565b810181811067ffffffffffffffff8211171561219257612191612228565b5b80604052505050565b7f4e487b7100000000000000000000000000000000000000000000000000000000600052601160045260246000fd5b7f4e487b7100000000000000000000000000000000000000000000000000000000600052601260045260246000fd5b7f4e487b7100000000000000000000000000000000000000000000000000000000600052602260045260246000fd5b7f4e487b7100000000000000000000000000000000000000000000000000000000600052604160045260246000fd5b6000601f19601f8301169050919050565b7f45524332303a207472616e7366657220746f20746865207a65726f206164647260008201527f6573730000000000000000000000000000000000000000000000000000000000602082015250565b7f45524332303a20617070726f766520746f20746865207a65726f20616464726560008201527f7373000000000000000000000000000000000000000000000000000000000000602082015250565b7f4e6f20746f6b656e7320746f2077697468646172770000000000000000000000600082015250565b7f53656e646572206d757374206265206f776e6572000000000000000000000000600082015250565b7f45524332303a207472616e7366657220616d6f756e742065786365656473206260008201527f616c616e63650000000000000000000000000000000000000000000000000000602082015250565b7f53656e64657220616c7265616479206465706f73697465640000000000000000600082015250565b7f45524332303a207472616e7366657220616d6f756e742065786365656473206160008201527f6c6c6f77616e6365000000000000000000000000000000000000000000000000602082015250565b7f45524332303a207472616e736665722066726f6d20746865207a65726f20616460008201527f6472657373000000000000000000000000000000000000000000000000000000602082015250565b7f45524332303a20617070726f76652066726f6d20746865207a65726f2061646460008201527f7265737300000000000000000000000000000000000000000000000000000000602082015250565b7f45524332303a2064656372656173656420616c6c6f77616e63652062656c6f7760008201527f207a65726f000000000000000000000000000000000000000000000000000000602082015250565b7f45524332303a206d696e7420746f20746865207a65726f206164647265737300600082015250565b61253e8161208c565b811461254957600080fd5b50565b6125558161209e565b811461256057600080fd5b50565b61256c816120b0565b811461257757600080fd5b50565b612583816120dc565b811461258e57600080fd5b5056fea2646970667358221220009396dfe29dc6c70c60c81986dd9f2407a4b4b4045a58db7ee428ae7e3393bd64736f6c63430008030033",
  "immutableReferences": {},
  "source": "// SPDX-License-Identifier: MIT\npragma solidity ^0.8.0;\n\nimport '@openzeppelin/contracts/token/ERC20/ERC20.sol';\nimport \"@openzeppelin/contracts/token/ERC721/ERC721.sol\";\nimport \"./Hashima.sol\";\n\ncontract Petunia is ERC20{\n    mapping(address => mapping(uint256=>uint256)) public checkpoints;\n    mapping(uint256 => bool) public has_deposited;\n\n\n    uint public REWARD_PER_BLOCK = 1;\n\n    Hashima private hashimaContract;\n\n    constructor(Hashima _contrato) ERC20(\"Hashi\", \"HASHI\"){\n        hashimaContract = Hashima(_contrato);\n\n    }\n\n    function aprovar(uint256 tokenId)external{\n        hashimaContract.approve(address(this), tokenId);\n    }\n\n    function deposit(uint256 tokenId) external{\n        require (msg.sender == hashimaContract.ownerOf(tokenId), 'Sender must be owner');\n        require (!has_deposited[tokenId], 'Sender already deposited');\n        \n        checkpoints[msg.sender][tokenId] = block.number;\n        \n        hashimaContract.transferFrom(msg.sender, address(this), tokenId);\n        bool forSale=hashimaContract.getHashima(tokenId).forSale;\n        \n        if(forSale){\n            hashimaContract.toggleForSale(tokenId,0);\n        }\n        has_deposited[tokenId]=true;\n   }\n\n    function withdraw(uint256 tokenId) external{\n        require(has_deposited[tokenId], 'No tokens to withdarw');\n        collect(msg.sender,tokenId);\n        hashimaContract.transferFrom(address(this), msg.sender, tokenId);\n        has_deposited[tokenId]=false;\n    }\n\n    function collect(address beneficiary,uint256 tokenId) public{\n        uint256 reward = calculateReward(beneficiary,tokenId);\n        checkpoints[beneficiary][tokenId] = block.number;      \n        _mint(msg.sender, reward);\n    }\n\n    function hashimaOnStaking(uint256 tokenId)public view returns(bool){\n        return has_deposited[tokenId];\n    }\n\n    function calculateReward(address beneficiary,uint256 tokenId) public view returns(uint256){\n        if(!has_deposited[tokenId])\n        {\n            return 0;\n        }\n        uint256 _stars=hashimaContract.getHashima(tokenId).stars;\n        uint256 pesoEstrella=_stars*_stars*10000/64-_stars;\n        uint256 checkpoint = checkpoints[beneficiary][tokenId];\n        return pesoEstrella*(block.number-checkpoint);\n    }\n}",
  "sourcePath": "/Users/aarontolentino/Desktop/hashima/contracts/Petunia.sol",
  "compiler": {
    "name": "solc",
    "version": "0.8.3+commit.8d00100c.Emscripten.clang"
  },
  "schemaVersion": "3.4.1",
  "updatedAt": "2022-02-20T20:19:26.793Z",
  "networkType": "ethereum",
  "devdoc": {
    "kind": "dev",
    "methods": {
      "allowance(address,address)": {
        "details": "See {IERC20-allowance}."
      },
      "approve(address,uint256)": {
        "details": "See {IERC20-approve}. Requirements: - `spender` cannot be the zero address."
      },
      "balanceOf(address)": {
        "details": "See {IERC20-balanceOf}."
      },
      "decimals()": {
        "details": "Returns the number of decimals used to get its user representation. For example, if `decimals` equals `2`, a balance of `505` tokens should be displayed to a user as `5.05` (`505 / 10 ** 2`). Tokens usually opt for a value of 18, imitating the relationship between Ether and Wei. This is the value {ERC20} uses, unless this function is overridden; NOTE: This information is only used for _display_ purposes: it in no way affects any of the arithmetic of the contract, including {IERC20-balanceOf} and {IERC20-transfer}."
      },
      "decreaseAllowance(address,uint256)": {
        "details": "Atomically decreases the allowance granted to `spender` by the caller. This is an alternative to {approve} that can be used as a mitigation for problems described in {IERC20-approve}. Emits an {Approval} event indicating the updated allowance. Requirements: - `spender` cannot be the zero address. - `spender` must have allowance for the caller of at least `subtractedValue`."
      },
      "increaseAllowance(address,uint256)": {
        "details": "Atomically increases the allowance granted to `spender` by the caller. This is an alternative to {approve} that can be used as a mitigation for problems described in {IERC20-approve}. Emits an {Approval} event indicating the updated allowance. Requirements: - `spender` cannot be the zero address."
      },
      "name()": {
        "details": "Returns the name of the token."
      },
      "symbol()": {
        "details": "Returns the symbol of the token, usually a shorter version of the name."
      },
      "totalSupply()": {
        "details": "See {IERC20-totalSupply}."
      },
      "transfer(address,uint256)": {
        "details": "See {IERC20-transfer}. Requirements: - `recipient` cannot be the zero address. - the caller must have a balance of at least `amount`."
      },
      "transferFrom(address,address,uint256)": {
        "details": "See {IERC20-transferFrom}. Emits an {Approval} event indicating the updated allowance. This is not required by the EIP. See the note at the beginning of {ERC20}. Requirements: - `sender` and `recipient` cannot be the zero address. - `sender` must have a balance of at least `amount`. - the caller must have allowance for ``sender``'s tokens of at least `amount`."
      }
    },
    "version": 1
  },
  "userdoc": {
    "kind": "user",
    "methods": {},
    "version": 1
  }
}